:100000000C94780C0C943C130C9415130C94950CD4
:100010000C94950C0C94950C0C94950C0C94950CDC
:100020000C94950C0C94950C0C94950C0C94950CCC
:100030000C94950C0C9463130C94950C0C94950CE7
:100040000C94CB120C94950C0C94950C0C94950C70
:100050000C94950C0C94950C0C94950C0C94950C9C
:100060000C94950C0C94950C80600000000000002E
:100070000000000000000000000000000000000080
:100080000000000000000000000000000000000070
:100090000000000000000000000000000000000060
:1000A0000000000000000000000000000000000050
:1000B0000000000000000000000000000000000040
:1000C0000000000000000000000000000000000030
:1000D0000000000000000000000000000000000020
:1000E0000000000000000000000000000000000010
:1000F0000000000000000000000000000000000000
:1001000000000000000000000000000000000000EF
:10011000000000000000000000008808880888082F
:1001200088088808880888088808000000000000FF
:1001300000000000000000000000202020202020FF
:10014000202020202020202020200000000000006F
:10015000000000000000000000008888888888886F
:10016000888888888888888888880000000000003F
:1001700000000000000000000000222222222222B3
:10018000222222222222222202220000000000003B
:1001900000000000000000000000888A888A888A29
:1001A0008888888A888A888A8888000000000000F9
:1001B0000000000000000000000022222222222273
:1001C00022222222222222222222000000000000DB
:1001D00000000000000000000000AAAAAAAAAAAA23
:1001E000AAAAAAAAAAAAAAAAAAAA0000000000006B
:1001F000000000000000000000002A2A2A2A2A2A03
:100200002A2A2A2A2A2A2A2A2A2A0000000000004A
:1002100000000000000000000000AAAAAAAAAAAAE2
:10022000AAAAAAAAAAAAAAAAAAAA0000000000002A
:1002300000000000000000000000AAAAAAAAAAAAC2
:10024000AAAAAAAAAAAAAAAAAAAA44404040444082
:1002500040404440404044404040AAAAAAAAAAAA1A
:10026000AAAAAAAAAAAAAAAAAAAA000000000000EA
:1002700000000000000000000000AAAAAAAAAAAA82
:10028000AAAAAAAAAAAAAAAAAAAA44444444444432
:1002900044444444444444444444AAAAAAAAAAAABA
:1002A000AAAAAAAAAAAAAAAAAAAA10111011101147
:1002B00010111011101110111011AAAAAAAAAAAA9D
:1002C000AAAAAAAAAAAAAAAAAAAA444444444444F2
:1002D00044444444444444444444AAAAAAAAAAAA7A
:1002E000AAAAAAAAAAAAAAAAAAAA11111111111104
:1002F00011111111111111111111AAAAAAAAAAAA58
:10030000AAAAAAAAAAAAAAAAAAAA5545554545458B
:1003100055455545554555455545AAAAAAAAAAAADF
:10032000AAAAAAAAAAAAAAAAAAAA51515151515143
:1003300051515151515151515151AAAAAAAAAAAA97
:10034000AAAAAAAAAAAAAAAAAAAA5555555555550B
:1003500055555555555555555555AAAAAAAAAAAA4F
:10036000AAAAAAAAAAAAAAAAAAAA555555555555EB
:1003700055555555555555555555AAAAAAAAAAAA2F
:10038000AAAAAAAAAAAAAAAAAAAA555555555555CB
:1003900055555555555555555555AEAEAEAEAEAEF7
:1003A000AEAEAEAEAEAEAEAEAEAE55555555555583
:1003B00055555555555555555555AAAAAAAAAAAAEF
:1003C000AAAAAAAAAAAAAAAAAAAA5555555555558B
:1003D00055555555555555555555EEEEEEEEEEEE37
:1003E000EEEEEEEEEEEEEEEEEEEE555555555555C3
:1003F00055555555555555555555BBABBBABBBAB79
:10040000BBABBBABABABBBABBBAB55555555555500
:1004100055555555555555555555EEEEEEEEEEEEF6
:10042000EEEEEEEEEEEEEEEEEEEE55555555555582
:1004300055555555555555555555BBBBBBBBBBBB08
:10044000BBBBBBBBBBBBBBBBBBBB55555555555560
:1004500055555555555555555555FFFFFFFFFFFF50
:10046000FFFFFFFFFFFFFFFFFFFF55555555555598
:1004700055555555555555555555BBBFBBBBBBBBC4
:10048000BBBBBBBBBBBFBBBBBBBB5555555555551C
:1004900055555555555555555555FFFFFFFFFFFF10
:1004A000FFFFFFFFFFFFFFFFFFFF55555555555558
:1004B00055555555555555555555FFFFFFFFFFFFF0
:1004C000FFFFFFFFFFFFFFFFFFFFD5D5D5D5D5D538
:1004D000D5D5D5D5D5D5D5D5D5D5FFFFFFFFFFFFD0
:1004E000FFFFFFFFFFFFFFFFFFFF55555555555518
:1004F00055555555555555555555FFFFFFFFFFFFB0
:10050000FFFFFFFFFFFFFFFFFFFFDDDDDDDDDDDDC7
:10051000DDDDDDDDDDDDDDDDDDDDFFFFFFFFFFFF3F
:10052000FFFFFFFFFFFFFFFFFFFF75757575757517
:1005300075757575757575757575FFFFFFFFFFFF2F
:10054000FFFFFFFFFFFFFFFFFFFFDDDDDDDDDDDD87
:10055000DDDDDDDDDDDDDDDDDDDDFFFFFFFFFFFFFF
:10056000FFFFFFFFFFFFFFFFFFFF777777777777CB
:1005700077777777777777777777FFFFFFFFFFFFDB
:10058000FFFFFFFFFFFFFFFFFFFFDFDFDFDFDFDF3B
:10059000DFDFDFDFDFDFDFDFDFDFFFFFFFFFFFFFAB
:1005A000FFFFFFFFFFFFFFFFFFFF7777777777778B
:1005B00077777777777777777777FFFFFFFFFFFF9B
:1005C000FFFFFFFFFFFFFFFFFFFFFFFFFFFFFFFF3B
:1005D000FFFFFFFFFFFFFFFFFFFFFFFFFFFFFFFF2B
:1005E000FFFFFFFFFFFFFFFFFFFFFF7FFF7FFF7F9B
:1005F000FF7FFF7FFF7FFF7FFF7FFFFFFFFFFFFF8B
:10060000FFFFFFFFFFFFFFFFFFFFFFFFFFFFFFFFFA
:10061000FFFFFFFFFFFFFFFFFFFFFFFFFFFFFFFFEA
:10062000FFFFFFFFFFFFFFFFFFFFFFFFFFFFFFFFDA
:10063000FFFFFFFFFFFFFFFFFFFFFFFFFFFFFFFFCA
:10064000FFFFFFFFFFFFFFFFFFFFFFFFFFFFFFFFBA
:10065000FFFFFFFFFFFFFFFFFFFFFFFFFFFFFFFFAA
:10066000FFFFFFFFFFFFFFFFFFFF00000000230071
:100670002600290000000008000201000003040712
:10068000000000000000000000000000250028001D
:100690002B0000000000240027002A0004040404AA
:1006A000040404040202020202020303030303031C
:1006B00001020408102040800102040810200102F9
:1006C000040810208060FFFFFFFFFFFFFFFFFFFF18
:1006D000FFFFFFFFFFFFFFFFFFFFFFFFFFFFFFFF2A
:1006E000FFFFFFFFFFFFFFFFFFFFFFFFFFFFFFFF1A
:1006F000FFFFFFFFFFFFFFFFFFFFFFE0FFFC3FFFEC
:100700008FFFFFFFFFFFFFFFFFFFFFC078F81F1FF6
:1007100003FFFFFFFFFFFFFFFFFFFFC038F80F0ED3
:1007200003FFFFFFFFFFFFFFFFFFFFC038F00F1EBB
:1007300001FFFFFFFFFFFF7FFF7FFF4038780F0EB5
:10074000017FFF7FFF7FFFFFFFFFFFC038F00F1E1D
:1007500001FFFFFFFFFFFFFFFFFBFFE0F8F81F8F28
:1007600003FFEFFFFFFFFFFFFFC0FFF1F8FC3F0FAC
:10077000C7FF81FFFFFF77777700777770763707BE
:10078000777701777777FFFFFF807FF1F8FE3F1FD4
:100790008FFF01FFFFFFDFDFDF805FD1D8DE1F8F1C
:1007A0008FDE00DFDFDFFFFFFF807FF1F8FE7F1FBE
:1007B000C7FF00FFFFFF77777700777170767717B5
:1007C000477601777777FFFFFFC017717476771749
:1007D000477401FFFFFFDDDDDDD91DD9D8DC1D9D8C
:1007E000CDDC4DDDDDDDFFFFFFFD0FD1DCDC5F1F6C
:1007F000CDD0DFFFFFFF757575754000000000006C
:10080000000175757575FFFFFFFD400000000000D9
:1008100000015FFFFFFFDDDDDDDDC0000000000047
:100820000001DDDDDDDDFFFFFFFDC0000000000099
:100830000001DFFFFFFF5555555540000000000047
:10084000000155555555FFFFFFFD40001555555406
:1008500000015FFFFFFFD5D5D5D5C00015D5D5D098
:100860000001D5D5D5D5FFFFFFFDC0001FDFDFD0CC
:100870000001DFFFFFFF5555551540000555554058
:10088000000154555555FFFFFC1D40000777774088
:100890000001583FFFFF55555405400001555500D4
:1008A000000150155555BBBFB801800001B9BB0010
:1008B0000001801BBBBB555550054000005554003E
:1008C000000140055555FFFFF80140300037740026
:1008D0000401401FFFFF5555500000100015500047
:1008E000040000155555BBBBB8000018001B900054
:1008F0001800001BBBBB55555415401400054000A3
:10090000140150555555EEEEEEEC40240006400023
:1009100064004EEEEEEE55555555401400010000B2
:10092000140155555555BBABBBA9802800010000EB
:1009300028019BABBBAB555555554014000000102A
:10094000540155555555EEEE0000402604000000B8
:1009500064004000EEEE5555000000140400001045
:10096000140000005555AAAA000000080A00000063
:1009700008000000AAAA555515554014050001505D
:10098000140155515555AEAEA62600240600002090
:1009900024002626AEAE5555155540140540054099
:1009A000140155515555AAAA0000000800A0008066
:1009B00028000000AAAA5555000000140150150097
:1009C000540000005555AAAA000000220020020091
:1009D00020000000AAAA5555555540140054540053
:1009E000140155555555AAAAAAA88008000A8800DE
:1009F00008008AAAAAAA5151515140100011500072
:100A0000100151515151AAAAAAA8002200022000A7
:100A100020000AAAAAAA55455545400400054000F1
:100A2000140155455545AAAAAAA8800800008000CF
:100A300028008AAAAAAA11111111000000010010B1
:100A4000100110111111AAAAA80000020000000054
:100A50002000002AAAAA444440000000040000002C
:100A6000000000044444AAAAA80000000A000008EC
:100A70000000000AAAAA10111001000000000010D6
:100A8000000100011011AAAAA80000000200002025
:100A90000000000AAAAA4444400440000440044064
:100AA000000040044444AAAAA808800000A00080D6
:100AB0000000800AAAAA0000000000000000000058
:100AC000000000000000AAAAAAAA0020002002003C
:100AD00000000AAAAAAA4440404040000040440046
:100AE000000044404040AAAAAAA88008000A0800C2
:100AF00008008AAAAAAA0000000000000000000066
:100B0000000000000000AAAAAAA8002200022000FB
:100B100020000AAAAAAA0000000000000000058028
:100B20000000000000002BEA1F280000000007C0A2
:100B30000003FE28FE2A01F01F000000000007C08D
:100B40000007FE03FF00ABFABFAA0000000007C0C9
:100B5000000FFFA7FFAA01F83F00000000000100FE
:100B6000001FDF07DF8023FA7F2000000000000065
:100B7000001F8FAF862201FC7F01F07D701707C137
:100B8000F01E07C700008BFEFF0FF83FF83FC3C7FA
:100B9000FC3E078F800801DC7F0FFC7DF87FC7C714
:100BA000FE1C07C7C00023EEEF0FBE3EFCFBE3C7F1
:100BB0003E3E07C7FE2201EFEF1F1E7C7C70C7C0C0
:100BC0001F3C07C3FF008BEFEF1E1E3C3CF083C0B1
:100BD0001F3E07CBFF8801C7CF1E1F7C7CF007C1DB
:100BE000FF1C07C05F8023E78F3E1E3C7CF003CFD5
:100BF000FE3E07C00FE001E70F1E1F7C7CF007C719
:100C00009F1E07C007C08BE38F1E1E3C3CF08BCF9E
:100C10001F3E8F82878801C10F1E1E7C7CF0C7CFCC
:100C20001F1F078707C003E00F0FBE3C7CFBE3CF0D
:100C3000BF8FFF8FFF8001E00F0FFC7C7C7FE7CF31
:100C4000FF07FF07FF0003E00F07F83C3C3FE3CF3F
:100C5000EF87FE07FF0001C00F01F03C3C1FC3C13E
:100C6000C701FC01FC0000000000000000000000C3
:100C70000000000000000000000000000000000074
:100C80000000000000000000000000000000000064
:100C90000000000000000000000000000000000054
:100CA0000000000000000000000000000000000044
:100CB0000000000000000000000000000000000034
:100CC0000000000000000000000000000000000024
:100CD0000000000960000000000000713100000009
:100CE0007A736177320000637864653433000020E2
:100CF000766674723500006E6268677936000000AF
:100D00006D6A75373800002C6B696F303900002E22
:100D10002F6C3B702D00000027005B3D00000000A1
:100D20000D5D005C00000000000000007F0000314D
:100D3000003437000000302E323536381B00002BCF
:100D4000332D2A39000000000000000000000000E0
:100D50000000000000000000000000097E0000000C
:100D600000000051210000005A5341574000004349
:100D70005844452423000020564654522500004E76
:100D8000424847595E0000004D4A55262A00003C63
:100D90004B494F292800003E3F4C3A505F0000006D
:100DA00022007B2B000000000D7D007C0000000075
:100DB000000000007F000031003437000000302EBA
:100DC000323536381B00002B332D2A390000000045
:100DD0000000000000000000000000000000000013
:100DE0000000000000000000000000000000000003
:100DF00000000000000000000000000000000000F3
:100E000000000000000000000000000000000000E2
:100E100000000000000000000000000000000000D2
:100E200000000000000000000000000000000000C2
:100E300000000000000000000000000000000000B2
:100E400000000000000000000000000000000000A2
:100E5000000000000000000000000000000000048E
:100E60000620000000000000404040004000A0A01C
:100E700000000000A0E0A0E0A0004060C060C00052
:100E8000A0204080A0002040C0A0E00080800000A2
:100E9000000040808080400080404040800040A0B2
:100EA000400000000040E0400000000000808000A2
:100EB0000000E000000000000000800020204080D2
:100EC0008000E0A0A0A0E00040C04040E000E020A2
:100ED000E080E000E020E020E000A0A0E020200092
:100EE000E080E020C000C080E0A0E000E020408082
:100EF0008000E0A0E0A0E000E0A0E0206000004072
:100F00000040000000400040800020408040200061
:100F100000E000E00000804020408000C020400051
:100F20004000E0A0A0E0E000E0A0E0A0A000C0A0A1
:100F3000E0A0C000E0808080E000C0A0A0A0C000D1
:100F4000E080E080E000E080E0808000E08080A041
:100F5000E000A0A0E0A0A000E0404040E000202091
:100F600020A0E00080A0C0C0A00080808080E000C1
:100F7000A0E0E0A0A000C0A0A0A0A00040A0A0A071
:100F80004000E0A0E080800040A0A0E06600E0A07B
:100F9000C0E0AA00E080E020E000E04040404000E7
:100FA000A0A0A0A0E000A0A0A0A04000A0A0E0E021
:100FB000A200A0A040A0A000A0A040404000E020CF
:100FC0004080E000C0808080C00000804020200081
:100FD000C0404040C00040A00000000000000000F1
:100FE000E0008040000000000060A0A06000808061
:100FF000C0A0C000006080806000202060A0600071
:1010000040A0E08060006040E040400060A06020C0
:10101000C0008080C0A0A0004000404040004000D0
:101020004040C0008080A0C0A000C0404040E00020
:1010300000A0E0A0A00000C0A0A0A0000040A0A0D0
:10104000400000C0A0C080000060A060200000C080
:10105000A080800000604020600040E040404000F0
:1010600000A0A0A0600000A0A0A0400000A0A0E000
:10107000A00000A04040A00000A0E020400000E050
:101080004080E0002040C04022004040004040003E
:1010900080406040800000A0400000000808000080
:1010A00000000000000000003E41554155493E004F
:1010B0003E7F6B7F6B773E0022777F7F3E1C080070
:1010C000081C3E7F3E1C0800081C2A7F2A081C00C2
:1010D000081C3E7F3E081C00001C3E3E3E1C00FFDC
:1010E000FFE3C1C1C1E3FF00001C2222221C00FF5C
:1010F000FFE3DDDDDDE3FF000F0305394848300085
:10110000083E081C22221C001814101030706000C9
:101110000F19111337766000082A1C771C2A080063
:1011200060787E7F7E786000030F3F7F3F0F030073
:10113000081C2A082A1C08006666666600666600A7
:101140003F65653D050505000C324824124C300012
:10115000000000007F7F7F00081C2A082A1C3E0038
:10116000081C3E7F1C1C1C001C1C1C7F3E1C080015
:10117000080C7E7F7E0C080008183F7F3F1808008F
:1011800000007070707F7F000014227F2214000026
:10119000081C1C3E3E7F7F007F7F3E3E1C1C0800DB
:1011A0000000000000000000183C3C181800180067
:1011B000363614000000000036367F367F363600A3
:1011C000081E201C023C080060660C1830660600F1
:1011D0003C663C2865663F00181818300000000087
:1011E0006030181818306000060C1818180C06002B
:1011F00000361C7F1C3600000008083E080800006E
:1012000000000030303060000000003C00000000B2
:10121000000000000060600000060C183060000054
:101220003C666E7666663C001818381818187E0002
:101230003C66060C30607E003C66061C06663C0080
:101240000C1C2C4C7E0C0C007E607C0606663C0060
:101250003C66607C66663C007E660C0C18181800C4
:101260003C66663C66663C003C66663E06663C0044
:10127000001818001818000000181800181830007E
:10128000060C1830180C060000003C003C00000062
:101290006030180C183060003C66061C18001800FE
:1012A00038445C58423C00003C66667E66666600D8
:1012B0007C66667C66667C003C66606060663C00BE
:1012C0007C66666666667C007E60607C60607E0030
:1012D0007E60607C606060003C6660606E663C00C2
:1012E0006666667E666666003C18181818183C002C
:1012F0001E0C0C0C6C6C3800666C7870786C660098
:101300006060606060607E0063777F6B6363630032
:1013100063737B6F676363003C66666666663C006A
:101320007C6666667C6060003C6666666E3C0600B5
:101330007C66667C786C66003C66603C06663C00B9
:101340007E5A1818181818006666666666663E00AB
:1013500066666666663C18006363636B7F7763004E
:101360006363361C366363006666663C18181800B3
:101370007E060C1830607E001E18181818181E0003
:10138000006030180C06000078181818181878003B
:1013900008142241000000000000000000007F004F
:1013A0000C0C06000000000000003C063E663E00FB
:1013B0006060607C66667C0000003C6660663C00A5
:1013C0000606063E66663E0000003C667E603C0007
:1013D0001C3630307C303000003E66663E063C00F5
:1013E0006060607C666666000018001818183C0093
:1013F0000C000C0C6C6C38006060666C786C6600DD
:101400001818181818181800000063777F6B6B0005
:1014100000007C7E6666660000003C6666663C00F6
:10142000007C66667C606000003C6C6C3C0D0F00CC
:1014300000007C666660600000003E403C027C006C
:101440000018187E181818000000666666663E00D0
:1014500000000066663C18000000636B6B6B3E008A
:101460000000663C183C6600000066663E063C00D4
:1014700000003C0C18303C000E18183018180E00F4
:1014800018181800181818007018180C1818700080
:1014900000003A6C00000000081C366341417F5494
:1014A00060000005555555550000000000000BFF79
:1014B000FFBBAAA2A20000000015555555554000DB
:1014C000000000001FFFFFFEEEAAA8A0000000150C
:1014D000555555550000000000003FFFFFBBAAAA6C
:1014E0002220000000155D5D555540000000000001
:1014F0007FFFFFEEEEAAAAA00000005555555555F6
:101500000000000000007FFFFFFAAAA222A0000056
:101510000055D555D554400000000000FFFFFFFFE7
:10152000EAAAA8A000000055555555550000000036
:101530000000FFFFFFFFBAAA22A00000005DDDDD72
:10154000DD55400040000000FFFFFFFFFFEAAAA8B2
:101550000000007777755575500000000000FFFF10
:10156000FFFFFFAAA2A0000001DDDDDDDDD55000F8
:1015700040000000FFFFFFFFFFEAAAA8000001559E
:1015800057755555500000000003FBBFFFFBAAAA8A
:101590002220000005DD55D5554554000000000E01
:1015A000FEFFFEBFEEBEAA8A8000055555511755B5
:1015B00014000100000ABFBBFABFEABA222A800069
:1015C000055D5555555554000540000EFFFFEAAF27
:1015D000FEAAA8ABC0000555555115555000054051
:1015E000000FFFFFAAABBFAA222B800005DD5554D8
:1015F000455554000500000FFFFFEAABFFEAAAAF14
:101600008000055555500555500015000003FFFF9B
:10161000AAABFBAAA2AA000005D5D54445D5540023
:1016200044000007FFFFEAAFFFEAAAAE000005573B
:1016300055510555500014000003FFFFEAAFFFAA03
:101640002A2A000001DDDDD545DD54041400000028
:10165000FFFFEEAFFFEAAAAC0000007777555555C3
:10166000500010000000FFFFEBBFFFAAAAB8000067
:10167000005DDDD5D5D54000400000007FFFFEFFB6
:10168000FFEAAAE000000077575555555001400089
:1016900000007FFFFFFFFFAA2B800000005DDDDD63
:1016A000555D5000000000003FFFFFFFFFEAA00073
:1016B00000000015557555555000000000001FFF33
:1016C000FFFBFFAAA0000000000DD5DD555550001E
:1016D000000000000FFFFFEEFFEAA000000000077F
:1016E000555551555000000000000FFBAAABFFAA52
:1016F000000000000005D5555555440000000000CD
:1017000007FFFFFFFFEA80000000000575755555D3
:1017100050000000000003FFFFFFFBBA20000000A4
:101720000005DDDDD555500000000000ABFFFFFFD8
:10173000FEEA8880000000017777555550000000D0
:10174000000A2BFFFFFFABAA2222000000015DDD93
:10175000555540000000002AAAFFFFFEAAAA8A8A67
:101760008000000155555500000000000022A2BF76
:10177000FFAAAAAA22222000004155555540000088
:10178000000000AAAAEEFEEAAAAA8888800000014A
:10179000555555000000000000A2ABABBBAAAAAA99
:1017A000222220000005555545454000000000AAB2
:1017B000ABEEAEAAAAAA8A8A800000015555511143
:1017C0001000000002A2ABBAAAAAAAAA22222000F4
:1017D0004445555554454000000000AAAAEEEEEAE3
:1017E000AAA88888A00011115555551510000000B1
:1017F00000AAAAABBBBAAAAA222220005545555579
:101800005555500000000AAAAEEEEFEEAEAA8A8A45
:101810008000151555555555400000002AAAABAA61
:10182000BBBAAAA222222000455555555554400066
:101830000000AAAAAEEEEFEEEA88AAA88000015541
:1018400055555550000000002AAABBABABBBAA22DD
:101850002A22200445555555554400000000AAAAE7
:10186000FEEFEEEAAAAAAA8A800001555555550056
:10187000000000002AAAFAABBAAAA2A2A22220045F
:1018800044555555554000000000AAAAFAAAEAEAB4
:10189000AAE8AAA880000155555151015000000046
:1018A0002AABBBABAAAA2BFA2A22200445555555D0
:1018B000540554000000AAABFAAAEAAAABEAAAAA05
:1018C000801016FC918591849184918491849184F7
:1018D000918491848A8484848AFC9180918091800F
:1018E00091809180918091809180918091809100F0
:1018F00011241FBECFEFD8E0DEBFCDBF12E0A0E0C5
:10190000B1E0E6E0F3E402C005900D92A033B10728
:10191000D9F722E0A0E3B2E001C01D92AD3CB207CE
:10192000E1F70E94B11C0C9481210C9400000895F1
:101930000F93CF93DF93E8EBF2E0A785B089C091D6
:101940006A02D0916B028285AC0FBD1F8E3191F07F
:101950008D3151F08C3149F08B3141F08A3139F0C1
:10196000893131F0883129F01CC032C048C05EC0D6
:1019700074C08AC00D900BB80000000C0BB80000BA
:10198000000C0BB80000000C0BB80000000C0BB8EA
:101990000000000C0BB80000000C0BB80000000C9D
:1019A0000BB80D900BB80000000C0BB80000000C39
:1019B0000BB80000000C0BB80000000C0BB80000C6
:1019C000000C0BB80000000C0BB80000000C0BB8AA
:1019D0000D900BB80000000C0BB80000000C0BB809
:1019E0000000000C0BB80000000C0BB80000000C4D
:1019F0000BB80000000C0BB80000000C0BB80D90E9
:101A00000BB80000000C0BB80000000C0BB8000075
:101A1000000C0BB80000000C0BB80000000C0BB859
:101A20000000000C0BB80000000C0BB80D900BB8B8
:101A30000000000C0BB80000000C0BB80000000CFC
:101A40000BB80000000C0BB80000000C0BB8000035
:101A5000000C0BB80000000C0BB80D900BB8000088
:101A6000000C0BB80000000C0BB80000000C0BB809
:101A70000000000C0BB80000000C0BB80000000CBC
:101A80000BB80000000C0BB80D900BB80000000C58
:101A90000BB80000000C0BB80000000C0BB80000E5
:101AA000000C0BB80000000C0BB80000000C0BB8C9
:101AB0000000000C0BB80D900BB80000000C0BB828
:101AC0000000000C0BB80000000C0BB80000000C6C
:101AD0000BB80000000C0BB80000000C0BB80000A5
:101AE000000C0BB80D900BB80000000C0BB80000F8
:101AF000000C0BB80000000C0BB80000000C0BB879
:101B00000000000C0BB80000000C0BB80000000C2B
:101B10000BB80D900BB80000000C0BB80000000CC7
:101B20000BB80000000C0BB80000000C0BB8000054
:101B3000000C0BB80000000C0BB80000000C0BB838
:101B40000D900BB80000000C0BB80000000C0BB897
:101B50000000000C0BB80000000C0BB80000000CDB
:101B60000BB80000000C0BB80000000C0BB80D9077
:101B70000BB80000000C0BB80000000C0BB8000004
:101B8000000C0BB80000000C0BB80000000C0BB8E8
:101B90000000000C0BB80000000C0BB80D900BB847
:101BA0000000000C0BB80000000C0BB80000000C8B
:101BB0000BB80000000C0BB80000000C0BB80000C4
:101BC000000C0BB80000000C0BB80D900BB8000017
:101BD000000C0BB80000000C0BB80000000C0BB898
:101BE0000000000C0BB80000000C0BB80000000C4B
:101BF0000BB80000000C0BB80D900BB80000000CE7
:101C00000BB80000000C0BB80000000C0BB8000073
:101C1000000C0BB80000000C0BB80000000C0BB857
:101C20000000000C0BB80D900BB80000000C0BB8B6
:101C30000000000C0BB80000000C0BB80000000CFA
:101C40000BB80000000C0BB80000000C0BB8000033
:101C5000000C0BB80D900BB80000000C0BB8000086
:101C6000000C0BB80000000C0BB80000000C0BB807
:101C70000000000C0BB80000000C0BB80000000CBA
:101C80000BB80D900BB80000000C0BB80000000C56
:101C90000BB80000000C0BB80000000C0BB80000E3
:101CA000000C0BB80000000C0BB80000000C0BB8C7
:101CB0000D900BB80000000C0BB80000000C0BB826
:101CC0000000000C0BB80000000C0BB80000000C6A
:101CD0000BB80000000C0BB80000000C0BB80D9006
:101CE0000BB80000000C0BB80000000C0BB8000093
:101CF000000C0BB80000000C0BB80000000C0BB877
:101D00000000000C0BB80000000C0BB80D900BB8D5
:101D10000000000C0BB80000000C0BB80000000C19
:101D20000BB80000000C0BB80000000C0BB8000052
:101D3000000C0BB80000000C0BB80D900BB80000A5
:101D4000000C0BB80000000C0BB80000000C0BB826
:101D50000000000C0BB80000000C0BB80000000CD9
:101D60000BB80000000C0BB80D900BB80000000C75
:101D70000BB80000000C0BB80000000C0BB8000002
:101D8000000C0BB80000000C0BB80000000C0BB8E6
:101D90000000000C0BB80D900BB80000000C0BB845
:101DA0000000000C0BB80000000C0BB80000000C89
:101DB0000BB80000000C0BB80000000C0BB80000C2
:101DC000000C0BB80D900BB80000000C0BB8000015
:101DD000000C0BB80000000C0BB80000000C0BB896
:101DE0000000000C0BB80000000C0BB80000000C49
:101DF0000BB80D900BB80000000C0BB80000000CE5
:101E00000BB80000000C0BB80000000C0BB8000071
:101E1000000C0BB80000000C0BB80000000C0BB855
:101E20000D900BB80000000C0BB80000000C0BB8B4
:101E30000000000C0BB80000000C0BB80000000CF8
:101E40000BB80000000C0BB80000000C0BB80D9094
:101E50000BB80000000C0BB80000000C0BB8000021
:101E6000000C0BB80000000C0BB80000000C0BB805
:101E70000000000C0BB80000000C0BB80D900BB864
:101E80000000000C0BB80000000C0BB80000000CA8
:101E90000BB80000000C0BB80000000C0BB80000E1
:101EA000000C0BB80000000C0BB80D900BB8000034
:101EB000000C0BB80000000C0BB80000000C0BB8B5
:101EC0000000000C0BB80000000C0BB80000000C68
:101ED0000BB80000000C0BB8000000005F98DF9109
:101EE000CF910F9108950F93CF93DF93E8EBF2E03A
:101EF000A785B089C0916A02D0916B028285AC0F30
:101F0000BD1F02C0000C0BB80D9000000BB8000004
:101F10000000000C0BB800000000000C0BB8000023
:101F20000000000C0BB800000000000C0BB8000013
:101F30000000000C0BB80000000C8A950BB811F7DC
:101F40000000000C0BB80000000000005F98DF915B
:101F5000CF910F9108950F93CF93DF93E8EBF2E0C9
:101F6000A785B089C0916A02D0916B028285AC0FBF
:101F7000BD1F0BB10F7703C000FA07F90BB90D9025
:101F800007FA07F90BB90000000006FA07F90BB9C8
:101F90000000000005FA07F90BB90000000004FA80
:101FA00007F90BB90000000003FA07F90BB90000AC
:101FB000000002FA07F90BB900008A9501FA07F947
:101FC0000BB9D1F6000000FA07F90BB90BB10F7786
:101FD00007FB07F90BB9DF91CF910F9108950F938C
:101FE000CF93DF93E8EBF2E0A785B089C0916A0256
:101FF000D0916B028285AC0FBD1F0BB10F7703C070
:1020000000FA07F90BB90D90000007FA07F90BB9B0
:1020100000000000000006FA07F90BB900000000FC
:10202000000005FA07F90BB900000000000004FAEF
:1020300007F90BB900000000000003FA07F90BB91B
:1020400000000000000002FA07F90BB900000000D0
:10205000000001FA07F90BB98A9591F6000000001B
:1020600000FA07F90BB90BB10F7707FB07F90BB9AA
:10207000DF91CF910F9108952091B8023091B9026C
:102080008091BF029091C002281739070CF44EC00E
:102090008CEA93E090938900809388001092B902B3
:1020A0001092B8028091BA029091BB02A091BC023A
:1020B000B091BD020196A11DB11D8093BA0290930B
:1020C000BB02A093BC02B093BD02809166029091C6
:1020D0006702A0916802B0916902892B8A2B8B2B31
:1020E00009F18091660290916702A0916802B09117
:1020F0006902181619061A061B0684F580916602F5
:1021000090916702A0916802B09169020197A109BC
:10211000B1098093660290936702A0936802B0931E
:1021200069021CC01092B1002B9818C02091B8020F
:102130003091B9028091C602082E000C990B281725
:10214000390761F48AE490E09093890080938800D5
:1021500088EB90E190937602809375028091B802AB
:102160009091B90201969093B9028093B8020895B4
:102170002091B8023091B9028091BE0290E02817F8
:10218000390759F410926B0210926A028091C402CE
:102190008093C50288EE90E10DC02091B802309185
:1021A000B9028091BF029091C0022817390731F41B
:1021B0008CE390E190937602809375028091B8024F
:1021C0009091B90201969093B9028093B802089554
:1021D000309184002091C3022A50231B2350F0F732
:1021E0002D5F19F02A9511F001C00000E0917702EF
:1021F000F091780209959091C5028091C4029111E5
:102200000FC08093C5029091C20220916A02309162
:102210006B02290F311D30936B0220936A0203C0B9
:1022200091509093C5024091B8025091B9024F5F0E
:102230005F4F082E000C990B01966091C102689FB8
:102240009001699F300D11248091BE02B901680F81
:10225000711D4617570731F488EB90E19093760291
:10226000809375028091B8029091B9020196909383
:10227000B9028093B80208950895CF93DF939091A7
:10228000630220917B0230917C02A9014F5E5E4F78
:10229000B90168577F4FD901A05FBE4F8091790285
:1022A000E0917A028E1304C09093630280E05BC0D9
:1022B0008F5F8D3208F080E0E82FF0E0EA5CFD4FA0
:1022C000E08180937902EE2379F3E03F11F491608D
:1022D000E5CFE03E11F49260E1CF90FF0EC0E23115
:1022E00011F49B7F08C0E93511F4977F04C0E131F8
:1022F00011F491FD9F7E9C7FD1CFE23111F4946067
:10230000CDCFE93511F49860C9CFE13111F491FDD9
:10231000906191FF08C0EA54E433E8F4F0E0E15F33
:10232000FE4FE08119C094FF07C08C91882321F0F3
:10233000E83888F4EA010AC0892F8C7021F0E83867
:1023400050F4EB0103C0E83830F4E901CE0FD11DA1
:10235000FE01E49101C0E0E09C7FEE2309F49ECFF2
:10236000909363028E2FDF91CF910895CF92DF92E9
:10237000EF92FF920F931F9380917D0290E0FC01FA
:10238000EC58F94F2491FC01E055F94F3491FC01D0
:10239000E456F94FE491EE23B9F1222339F12330C9
:1023A00091F038F42130A9F0223001F584B58F7D09
:1023B00012C0273091F02830A1F02430B9F4809178
:1023C00080008F7D03C0809180008F778093800094
:1023D0000DC084B58F7784BD09C08091B0008F7720
:1023E00003C08091B0008F7D8093B000F0E0EE0FCD
:1023F000FF1FE659F94FA591B491EC91E32331E029
:1024000009F430E0832F02C080E090E02FB7F89409
:1024100040916D0250916E0260916F027091700256
:102420002FBF00913202109133022091340230917B
:1024300035026A017B01C01AD10AE20AF30A970148
:1024400086010B3F11052105310520F01092310264
:102450001092300240933202509333026093340260
:1024600070933502209131023FEF320F383048F43B
:1024700001C0880F3A95EAF790913002892B80933A
:10248000300281E0820F809331028B30B9F4809169
:102490007A028F5F8D3208F080E090917902981770
:1024A00049F0E82FF0E090913002EA5CFD4F908314
:1024B00080937A0210923102109230021F910F9194
:1024C000FF90EF90DF90CF900895AF92BF92CF92A0
:1024D000DF92EF920F93CF93DF935B0163E070E0A5
:1024E0000E9449219C0196E2969F6001979FD00C23
:1024F000112484E0C80ED11C82E0D82EDC0C929FFF
:10250000E001939FD00D11242896DC2FDE5FE12C93
:1025100000E020E240E26D2D8D2F0E94EC1BEE24A6
:10252000E39420E240E26C2D8C2F0E94EC1BE2EB46
:10253000F2E0D283D382C501DF91CF910F91EF906A
:10254000DF90CF90BF90AF900C94B7193FB7F8943D
:102550008091710290917202A0917302B091740205
:1025600026B5A89B05C02F3F19F00196A11DB11DEE
:102570003FBFBA2FA92F982F8827820F911DA11D29
:10258000B11DBC01CD0142E0660F771F881F991F66
:102590004A95D1F708951F920F920FB60F9211240A
:1025A0002F933F938F939F93AF93BF9380916D022F
:1025B00090916E02A0916F02B091700230916C0206
:1025C00023E0230F2D3720F40196A11DB11D05C076
:1025D00026E8230F0296A11DB11D20936C02809363
:1025E0006D0290936E02A0936F02B093700280917F
:1025F000710290917202A0917302B09174020196DF
:10260000A11DB11D8093710290937202A093730279
:10261000B0937402BF91AF919F918F913F912F9191
:102620000F900FBE0F901F9018951F920F920FB62C
:102630000F9211242F933F934F935F936F937F9348
:102640008F939F93AF93BF93EF93FF93E09102011A
:10265000F09103010995FF91EF91BF91AF919F9187
:102660008F917F916F915F914F913F912F910F903B
:102670000FBE0F901F9018951F920F920FB60F92DA
:1026800011242F933F934F935F936F937F938F9377
:102690009F93AF93BF93EF93FF93E0910001F0916D
:1026A00001010995FF91EF91BF91AF919F918F919A
:1026B0007F916F915F914F913F912F910F900FBE3E
:1026C0000F901F9018951F920F920FB60F92112422
:1026D0002F933F934F935F936F937F938F939F932A
:1026E000AF93BF93EF93FF93E0917502F091760261
:1026F0000995FF91EF91BF91AF919F918F917F913C
:102700006F915F914F913F912F910F900FBE0F905E
:102710001F9018954F925F926F927F928F929F9227
:10272000AF92BF92CF92DF92EF92FF92CF93DF935F
:1027300000D000D0CDB7DEB74C012A013B0110928A
:10274000B0001092B1009091B00092609093B000F0
:102750009091B10091609093B100239AA12CB12C7B
:1027600060E072E18AE790E0A50194010E94E62012
:1027700029833A834B835C8369017A0121E0C21A81
:10278000D108E108F1088FEFC816D104E104F10483
:1027900009F008F485C060E472E48FE090E0A501E0
:1027A00094010E94E62069017A0181E0C81AD108EB
:1027B000E108F1082FEFC216D104E104F10409F099
:1027C00008F470C060E970ED83E090E0A501940129
:1027D0000E94E62069017A0181E0C81AD108E10867
:1027E000F1082FEFC216D104E104F10409F008F456
:1027F0005BC068E478EE81E090E0A50194010E945E
:10280000E62069017A0181E0C81AD108E108F108DF
:102810002FEFC216D104E104F10409F008F446C018
:1028200064E274EF80E090E0A50194010E94E6204C
:1028300069017A0181E0C81AD108E108F1082FEF97
:10284000C216D104E104F10499F190F162E17AE752
:1028500080E090E0A50194010E94E62069017A01E0
:1028600081E0C81AD108E108F1082FEFC216D1049F
:10287000E104F104F9F0F0F089819A81AB81BC8127
:102880002AE0B595A795979587952A95D1F76C017C
:102890007D0121E0C21AD108E108F10887E00BC0F0
:1028A00081E009C082E007C083E005C084E003C086
:1028B00085E001C086E08093B100411451046104B9
:1028C0007104A9F0ACE3B0E0A30192010E940521DC
:1028D00028EE33E040E050E00E9418212093660289
:1028E0003093670240936802509369020BC08FEFE8
:1028F0009FEFDC018093660290936702A0936802C9
:10290000B0936902C092B3008091B0008F7780933A
:10291000B0008091B00080648093B0000F900F9061
:102920000F900F90DF91CF91FF90EF90DF90CF90BD
:10293000BF90AF909F908F907F906F905F904F90DF
:1029400008952091C202982F969596959695E091BC
:10295000C702F091C8028770629FB0011124690F0D
:10296000711DE60FF71F413061F420E830E0A90146
:1029700002C0559547958A95E2F7CA019081892B47
:1029800019C041110CC02FE73FEFA90102C05595B6
:1029900047958A95E2F7CA01908189230BC020E808
:1029A00030E0A90102C0559547958A95E2F7CA0122
:1029B000908189278083089580916502882319F08A
:1029C0001092650218C080916402882319F0109259
:1029D000640202C00E943D1187FF0BC0982F9F73B5
:1029E0009068909365028295869586958370806C39
:1029F00002C0882311F090E008958FEF9FEF0895B3
:102A00008091640281110EC08091650281110AC01B
:102A10000E943D11982F8093640281E0911103C0C0
:102A200080E0089581E0089581113FC048EC50E0B6
:102A300060E070E088EE93E00E948A1364E670E044
:102A400080E090E00E94B81748EC50E060E070E051
:102A500080ED97E00E948A1364E670E080E090E0E9
:102A60000E94B81744EF51E060E070E08CE291E022
:102A70000E948A1364E670E080E090E00E94B8173C
:102A800048EC50E060E070E08CED95E00E948A1325
:102A900062E370E080E090E00E94B81748EC50E0FC
:102AA00060E070E088EB9BE07CC0813089F544E613
:102AB00050E060E070E085E091E00E948A1364E6F7
:102AC00070E080E090E00E94B81744E650E060E0DB
:102AD00070E089E491E00E948A1364E670E080E08F
:102AE00090E00E94B81744E650E060E070E088E8AB
:102AF00091E00E948A1364E670E080E090E00E941A
:102B0000B81748EC50E060E070E08BE092E049C01C
:102B1000823019F544E650E060E070E088E891E02A
:102B20000E948A1364E670E080E090E00E94B8178B
:102B300044E650E060E070E089E491E00E948A138E
:102B400064E670E080E090E00E94B81748EC50E046
:102B500060E070E085E091E024C0833051F546E903
:102B600050E060E070E089E491E00E948A1364E63E
:102B700070E080E090E00E94B8174BE450E060E025
:102B800070E089E491E00E948A1364E670E080E0DE
:102B900090E00E94B8174BE450E060E070E088E8F5
:102BA00091E00E948A1364E670E080E090E00C946B
:102BB000B8170895EF920F93E12C00E02CE04EE659
:102BC00062E588E00E94EC1B01E02CE04EE660E547
:102BD00086E00E94EC1BE2EBF2E08AE0828384E56F
:102BE000838383E491E00F91EF900C94B7194F9297
:102BF0005F926F927F928F929F92AF92BF92CF928D
:102C0000DF92EF92FF920F93CF93DF9380910401B5
:102C1000811127C01092B4021092B50280E090E0BA
:102C20004FEF2091C2023091C102239F90011124E5
:102C3000821793074CF4E091C702F091C802E80FA5
:102C4000F91F40830196EDCFC2E020E04EE750E04F
:102C500062E070E08C2F0E94C319CA5FC236A9F7E8
:102C60008DC0813039F51092B4021092B50280E027
:102C700090E04FEF2091C2023091C102239F90015A
:102C80001124821793074CF4E091C702F091C80217
:102C9000E80FF91F40830196EDCFC2E020E04EE53A
:102CA00050E062E070E08C2F0E94821ACA5FC03848
:102CB000A9F764C0823009F055C01092B402109296
:102CC000B50280E090E04FEF2091C2023091C10246
:102CD000239F90011124821793074CF4E091C702BF
:102CE000F091C802E80FF91F40830196EDCF0E94D2
:102CF000D6206EE770E00E9449216C0122E0C20EEE
:102D0000D11C0E94D6206EE570E00E944921EC01A2
:102D100022968EE0682E712C9EE7892E912C2EE54E
:102D2000422E512C0E94D620B4010E9449215C0100
:102D3000A2E0AA0EB11C0E94D620B2010E94492135
:102D40007C01B2E0EB0EF11C00E02E2D4A2D6C2F21
:102D50008C2D0E94FD1A21E0621A71086501E701BD
:102D600009F70CC0833051F4E12C00E020E030E0A2
:102D700048E650E060E080E00E9424188FE59EE085
:102D80009093B7028093B6021092970289E1EEE722
:102D9000F2E0DF011D928A95E9F70E94DA1566E4F8
:102DA00071E080E090E00E9465126BE471E081E0E8
:102DB00090E00E94651261E571E082E090E00E947F
:102DC00065126DE871E083E090E00E946512DF918A
:102DD000CF910F91FF90EF90DF90CF90BF90AF9089
:102DE0009F908F907F906F905F904F900C94DA152A
:102DF000CF93DF9390E0FC01E055F94F2491FC0163
:102E0000E456F94F8491882361F190E0880F991F6F
:102E1000FC01EE56F94FC591D491FC01E857F94FEA
:102E2000A591B491611109C09FB7F894888120954C
:102E300082238883EC912E230BC0623061F49FB70C
:102E4000F8948881322F309583238883EC912E2B40
:102E50002C939FBF06C08FB7F894E8812E2B288350
:102E60008FBFDF91CF9108958F929F92AF92BF92C3
:102E7000CF92DF92EF92FF920F931F93CF93DF9346
:102E8000CDB7DEB7A0970FB6F894DEBF0FBECDBFAB
:102E90006B017C0197FF0BC08DE20E946119F094D9
:102EA000E094D094C094C11CD11CE11CF11CC7015A
:102EB000B601CD28CE28CF28A9F480E3A0960FB67E
:102EC000F894DEBF0FBECDBFDF91CF911F910F9160
:102ED000FF90EF90DF90CF90BF90AF909F908F903A
:102EE0000C9461198E010F5F1F4FC12CD12C7601FC
:102EF0002AE0822E912CA12CB12C2FEFC21AD20ADB
:102F0000E20AF20AA50194010E941821F8016193D6
:102F10008F01B901CA01611571058105910569F734
:102F2000F1E0CF1AD108E108F108FE01EC0DFD1D1A
:102F300081818A3010F4805D01C0895C0E94611932
:102F4000C114D104E104F10459F7A0960FB6F89426
:102F5000DEBF0FBECDBFDF91CF911F910F91FF90CC
:102F6000EF90DF90CF90BF90AF909F908F9008959B
:102F70008F929F92AF92BF92CF92DF92EF92FF9289
:102F80006B017C010E94A6124B015C01C114D104AB
:102F9000E104F104F1F00E94A612DC01CB018819D2
:102FA0009909AA09BB09883E9340A105B10570F3B0
:102FB00021E0C21AD108E108F10888EE880E83E00A
:102FC000981EA11CB11CC114D104E104F10419F72D
:102FD000DDCFFF90EF90DF90CF90BF90AF909F90AC
:102FE0008F9008952091B5023091C102E091B60210
:102FF000F091B70231966491422F50E0832F90E018
:10300000861B910948175907D4F0E4918091C702B3
:103010009091C8022091C202DC01E29FA00DB11D77
:103020001124AC01329F400D511D11249A01FC0165
:10303000A217B30740F48C9181931D92F9CFE491CC
:10304000E20FE093B50208952F923F924F925F9264
:103050006F927F928F929F92AF92BF92CF92DF92A8
:10306000EF920F931F93CF93DF93CDB7DEB72897DF
:103070000FB6F894DEBF0FBECDBF5A01482F477080
:1030800078E0741B011106C0F501E20FF31F0491F3
:103090002F5F3F4FE11006C0F501E20FF31FE490F0
:1030A0002F5F3F4F902F9770E02FE695E695E695BE
:1030B000992311F0EF5F01C098E08695869586957B
:1030C000A82FB0E0BC83AB83642E712C4301890E22
:1030D000911C8FEF90E0AC01082C02C055954795EC
:1030E0000A94E2F7A72FB0E0BA83A98301C0880F42
:1030F0007A95EAF7E13011F44D8301C01D82BD815C
:10310000B82BB887D40118978FEF90E002C095953F
:103110008795AA95E2F78F83C12CD12C862F90E05A
:103120009E838D832E2E312C91E0291A3108CE14E6
:1031300008F090C05091C2028D819E818C0D9D1D22
:10314000589FD001599FB00D11248B819C81A80FED
:10315000B91FE091B202F091B302EA0FFB1F508158
:10316000888585238083B9016F5F7F4FF501E20F6A
:10317000F31F8491E091B202F091B302EA0FFB1FBA
:10318000082F10E0062C02C0159507950A94E2F767
:103190009081092B00832101460E571E8D01021BD1
:1031A000130BD801A60FB71F2091B2023091B302C2
:1031B00090E06415750510F5F901EA0FFB1F5081C9
:1031C000098001C0880F0A94EAF78083F501E60FB1
:1031D000F71F84912091B2023091B302A20FB31F66
:1031E000282F30E0062C02C0359527950A94E2F787
:1031F0009C91292B2C936F5F7F4FD3CFE8E08E16E5
:10320000910448F4FD013197E20FF31F542320810C
:10321000522B50830BC058E08516910439F0F90108
:10322000EA0FFB1F20813F81232320832091B202DC
:103230003091B302A20FB31F098002C0880F991FFB
:103240000A94E2F7EC918E2B8C935FEFC51AD50AA6
:103250009B016DCF28960FB6F894DEBF0FBECDBF91
:10326000DF91CF911F910F91EF90DF90CF90BF90A2
:10327000AF909F908F907F906F905F904F903F9016
:103280002F900895EF920F93242F4091B602509102
:10329000B702FA013296E491922F9E1B9A012F5F9A
:1032A0003F4FF901E490FA010491F9012491929FB2
:1032B000900111242D5F3F4F0E9424180F91EF9031
:1032C0000895CF938A30D9F0A8F4882309F44DC02B
:1032D0008830E9F4E091B602F091B702E491809170
:1032E000B4028E1B8093B40240E26091B502CF918C
:1032F0000C9442198D3041F08E30B9F108C0109213
:10330000B402CF910C94F2171092B4022EC0C82FC1
:103310008091B4022091C202E091B602F091B7020E
:10332000E491482F50E098E0299F900111242E1B32
:1033300031092417350754F41092B4020E94F21791
:103340004C2F6091B5028091B40203C04C2F609164
:10335000B5020E944219E091B602F091B702E491E1
:103360008091B402E80FE093B402CF910895CF9317
:10337000DF93EC018991882319F00E946119FACF3B
:10338000DF91CF9108950F931F93CF93DF93FB01AC
:103390006091C202E417F507C1F408E0609FB00134
:1033A0001124AF015527461757070CF0A6C090917E
:1033B000C102891708F0A1C0422F682F8E2FDF911C
:1033C000CF911F910F910C94A1144E175F0720F419
:1033D000DF01BB27FA01AD01EF01C770DD27AFEFB9
:1033E000B0E08D0102C015950795CA95E2F7E80196
:1033F000902F33E0F695E7953A95E1F7689FB00195
:103400001124E60FF71F8A010770112702C0B59536
:10341000A7950A95E2F73A2F3095DA0143E0B69581
:10342000A7954A95E1F76A0F7B1FE617F70719F48E
:103430009C2F932330E02130F1F4DF01119640916D
:10344000B2025091B302E40FF51F8081982B908354
:103450002FEF8091B2029091B302A617B70730F414
:10346000FC01EA0FFB1F20831196F3CFA80FB91FB1
:103470008C91382B41C021111FC0DF011196409162
:10348000B2025091B302E40FF51F9095808198230A
:1034900090838091B2029091B302A617B70730F4DF
:1034A000FC01EA0FFB1F10821196F3CFA80FB91F82
:1034B00030958C91382320C02230F9F4DF01119629
:1034C0004091B2025091B302E40FF51F808198271A
:1034D00090838091B2029091B302A617B70740F48F
:1034E000FC01EA0FFB1F8081809580831196F1CF4C
:1034F000A80FB91F8C9138273C93DF91CF911F9172
:103500000F910895CF93DF939091C20264177507CE
:10351000A1F4E82FF0E038E0939FA0011124E41714
:10352000F5070CF067C09091C102691708F062C0FE
:10353000422FDF91CF910C94A1144617570720F426
:10354000FB01FF27BA01AF01382F3770E0E8F0E048
:1035500002C0F595E7953A95E2F73E2F969FD00188
:10356000979FB00D1124869586958695ED01C80F1D
:10357000D11DCE01213099F446175707D8F1E091BB
:10358000B202F091B302E80FF91F2081232B2083B0
:103590002091C202820F911D6F5F7F4FEDCF2111ED
:1035A00014C0E0954617570728F1A091B202B091D8
:1035B000B302A80FB91F2C912E232C932091C20285
:1035C000820F911D6F5F7F4FEDCF223099F4461728
:1035D000570780F0E091B202F091B302E80FF91FB3
:1035E0002081232720832091C202820F911D6F5FCB
:1035F0007F4FEDCFDF91CF9108952F923F924F9261
:103600005F926F927F928F929F92AF92BF92CF9272
:10361000DF92EF92FF920F931F93CF93DF9300D02F
:1036200000D0CDB7DEB7962F322F202FE82EF12C09
:103630006091C20258E0659FB00111246E157F05AC
:103640000CF4B3C05091C102591708F4AEC0E42F76
:10365000F0E0FC83EB836E177F070CF4A6C05317D2
:1036600008F4A3C084131CC0432F50E0692F70E0FE
:103670000F900F900F900F90DF91CF911F910F91AE
:10368000FF90EF90DF90CF90BF90AF909F908F9082
:103690007F906F905F904F903F902F900C94821A84
:1036A00093131CC04B815C81B701892F0F900F9041
:1036B0000F900F90DF91CF911F910F91FF90EF909E
:1036C000DF90CF90BF90AF909F908F907F906F9042
:1036D0005F904F903F902F900C94C319C92ED12C1E
:1036E000481748F4A7016B817C81461B570B5C830C
:1036F0004B838FEF07C0EB81FC81EE19FF09FC8340
:10370000EB8381E0432E512C391730F4A601441984
:1037100055092A019FEF03C04C185D0891E06B81A9
:103720007C81641575054CF44B813C815C824B8235
:10373000442E532E71E0798301C019822A83440CF0
:10374000551C5201EB81FC81AE1ABF0A1F01220CED
:10375000331C812C912C692E990F7708082F880F24
:10376000110B2B813C8128153905FCF04A816C2D09
:103770008E2D0E94A114B7FC0AC03981313019F492
:10378000E00EF11E02C0C60CD71CA218B308498176
:10379000413019F4C60CD71C02C0E00EF11EA40C77
:1037A000B51C5FEF851A950ADCCF0F900F900F9034
:1037B0000F90DF91CF911F910F91FF90EF90DF90CD
:1037C000CF90BF90AF909F908F907F906F905F90C1
:1037D0004F903F902F9008956F927F928F929F927B
:1037E000AF92BF92DF92EF92FF920F931F93CF930E
:1037F000DF93F82E162FD42FC22FD02E8FEFE8167E
:10380000B9F0062FA22EB12CA60EB11C6F2C712C74
:103810004301840E911C802F90E08A159B0544F48F
:103820002E2DA401B301802F0E94C3190F5FF3CF87
:10383000DF0D0D2D212F4D2F612F8F2D0E94FD1A91
:10384000C10F2C2F4F2D612F8F2D0E94FD1A2C2F71
:103850004D2F612F8D2F0E94FD1A2C2F4D2F6C2F75
:103860008F2D0E94FD1ADF91CF911F910F91FF9034
:10387000EF90DF90BF90AF909F908F907F906F9070
:103880000895CF92DF92EF920F931F93CF93DF9320
:10389000EC01813391057CF46C0197FF03C08FEF3D
:1038A000C81AD80AD594C794D194C194D10880E39A
:1038B000C80ED11C03C084E0C82ED12CD4E0DC0D8E
:1038C000E12C00E02C2F44E66D2F82E10E94EC1BDE
:1038D00001E02C2F44E66C2D8EE00E94EC1BCC0DF9
:1038E00018E01C0F00E02CE044E2612F82E30E940C
:1038F000EC1B64E06C0F01E02CE044E28EE20E94DD
:10390000EC1B86E38093B4021093B5028AE292E046
:103910000E94B71982E18093B402D093B502DF917F
:10392000CF911F910F91EF90DF90CF90089510925B
:10393000B4021092B50280E090E02091C202309172
:10394000C102239F90011124821793074CF4E09148
:10395000C702F091C802E80FF91F10820196EDCF5F
:103960000895CF93DF9300D0CDB7DEB7789484B5B8
:10397000826084BD84B5816084BD85B5826085BD6B
:1039800085B5816085BD80916E00816080936E00F9
:1039900010928100809181008260809381008091EB
:1039A000810081608093810080918000816080939C
:1039B00080008091B10084608093B1008091B0005C
:1039C00081608093B00080917A00846080937A0057
:1039D00080917A00826080937A0080917A00816081
:1039E00080937A0080917A00806880937A001092A8
:1039F000C10060E08EE00E94F81680E096E00E9430
:103A0000691F9093B3028093B202009709F458C0E3
:103A10001092B4021092B5029093C8028093C7022C
:103A200080E18093C20280E68093C1021092BA02C4
:103A30001092BB021092BC021092BD0281E08093F2
:103A4000C4028093C5022BEA3FE0309378022093B2
:103A50007702579A219A5F98299A239A92EC909329
:103A6000800099E1909381009CE39093BE0297ECD3
:103A70009093C30297E09093C60228E331E030931D
:103A8000C0022093BF022FEF33E0309387002093D2
:103A900086002AE430E0309389002093880029E3EF
:103AA00031E03093B9022093B8022CE330E1309337
:103AB00076022093750280936F0078940E94971C81
:103AC0008FE59EE09093B7028093B6020E94971C08
:103AD00088E080937D0286EC9CE090937C0280934A
:103AE0007B0262E083E00E94F81662E088E00E94B8
:103AF000F81610927A021092790286EB91E1909377
:103B000003018093020180916900837F8860809324
:103B10006900E99A89E1EEE7F2E0DF011D928A95FA
:103B2000E9F780E00E941415E12C00E020E030E08D
:103B300044EC56E060E080E00E94241868EE73E0F8
:103B400080E090E00E94B8170E94F715CE01019620
:103B50006C0140E0A42E40E0B42E5CE9852E50E1DB
:103B6000952E64E0F62E7FE5672E7EE0772E82E5C7
:103B7000582E14E192E2492E2CE2322E36E3232E07
:103B80000E940015882309F49DC10E94DC14082FAF
:103B9000E09097028D3019F098E1E9123EC1EE2DC8
:103BA000F0E0E258FD4F108266E571E08EE792E0AA
:103BB0000E947121892BE1F48EE090E00E94411C6B
:103BC0008BE591E00E94B7198091C9029091CA02D9
:103BD000009711F48DEC92E0B601681B790B072E6B
:103BE000000C880B990B0E94341786E691E077C091
:103BF0006DE671E08EE792E00E947121892B51F50C
:103C000082E390E00E94411C83E28093B40288E04A
:103C10008093B50283E791E00E94B71966E070E0F7
:103C200080E090E00E943417E12C00E020E030E0DA
:103C300041EC58E164E188E30E94241888E2809313
:103C4000B4028FE28093B50284E891E00E94B71934
:103C500080E0D0C061E971E08EE792E00E947121BE
:103C6000892B09F040C0809104018F5F843019F0E6
:103C70008093040102C0109204018CE390E00E9442
:103C8000411C86E991E00E94B7196091040170E03F
:103C90006F5F7F4F072E000C880B990B0E94341723
:103CA0001093B40288E18093B5028CEA91E00E94FF
:103CB000B7191093B4024092B50283EC91E00E94D0
:103CC000B7191093B4023092B50288ED91E00E94CA
:103CD000B7191093B4022092B5028AEE91E00E94C7
:103CE000B71981E087C069EF71E08EE792E00E942A
:103CF0007121892B09F075C00E94971CE12C00E00E
:103D000020E030E04FE954E160E08BE20E942418AB
:103D100068EE73E080E090E00E94B81746E950E05A
:103D200060E070E089E491E00E948A1364E670E04C
:103D300080E090E00E94B81720E030E041EC58E1CC
:103D400068E188E10E9424184BE450E060E070E0F4
:103D500089E491E00E948A1364E670E080E090E0DC
:103D60000E94B81768EE73E080E090E00E94B817F8
:103D70009092B7028092B602F092B402AEE3A093A2
:103D8000B5028DEF91E00E94B719F092B402B8E449
:103D9000B093B50287E092E00E94B719F092B402A6
:103DA0005092B50280E192E00E94B7194BE450E0D6
:103DB00060E070E088E891E00E948A1364E670E0B9
:103DC00080E090E00E94B81760ED77E080E090E03E
:103DD0000E94B8177092B7026092B6020E94F7155F
:103DE0000BC08EE090E00E94411C8AE192E00E94AC
:103DF000B71982E00E9414150E9400158823E1F390
:103E00000E94DC146EE772E089E992E00E947A2158
:103E1000809197028093980205C00B3131F483E0C2
:103E20000E9414150E94F71547C00F37C1F4EE2009
:103E300091F083E00E941415EFEFEE0DE0939702EE
:103E4000F0E0E258FD4F10820E94DA158EE792E012
:103E50000E94B71931C082E00E9414152DC00830AD
:103E600059F1053149F10B3089F469E972E08EE7C7
:103E700092E00E947A210E94DA158EE792E00E9479
:103E8000B719809198028093970216C00A30A1F06A
:103E900042E350E060E070E08BE092E00E948A1321
:103EA00081E08E0D80939702EE2DF0E0E258FD4FF9
:103EB0000083802F0E94611962E370E080E090E04F
:103EC0000E94B817A114B10409F45ACE0E94000050
:103ED0004ECE0F931F93CF93DF938230910510F452
:103EE00082E090E0E091CB02F091CC0220E030E063
:103EF000A0E0B0E0309719F1408151810281138137
:103F000048175907C8F08417950769F4109731F0DE
:103F100012960C93129713961C9327C00093CB0212
:103F20001093CC0222C02115310519F04217530716
:103F300018F49A01BD01EF01DF01F801DBCF211573
:103F40003105F9F0281B390B2430310580F48A81C2
:103F50009B816115710521F0FB019383828304C06D
:103F60009093CC028093CB02FE01329644C0FE01B6
:103F7000E20FF31F819391932250310939832883F3
:103F80003AC02091C9023091CA02232B41F42091FA
:103F90000701309108013093CA022093C902209191
:103FA0000501309106012115310541F42DB73EB7C9
:103FB0004091090150910A01241B350BE091C9027F
:103FC000F091CA02E217F307A0F42E1B3F0B28174B
:103FD000390778F0AC014E5F5F4F2417350748F082
:103FE0004E0F5F1F5093CA024093C9028193919371
:103FF00002C0E0E0F0E0CF01DF91CF911F910F917F
:104000000895CF93DF93009709F481C0FC013297A4
:1040100013821282A091CB02B091CC02109781F44E
:1040200020813181820F931F2091C9023091CA02F1
:104030002817390751F5F093CA02E093C90267C007
:10404000ED0120E030E0CE17DF0740F44A815B81CC
:104050009E0141155105F1F0EA01F5CFD383C283EA
:1040600040815181840F951FC817D90759F4888161
:104070009981840F951F0296918380838A819B8109
:10408000938382832115310529F4F093CC02E093C8
:10409000CB023DC0E901FB83EA8349915991C40FEA
:1040A000D51FEC17FD0761F480819181840F951F66
:1040B0000296E90199838883828193819B838A8315
:1040C000E0E0F0E012968D919C911397009719F023
:1040D000FD01DC01F7CF8D919C9111979D012E5F21
:1040E0003F4F820F931F2091C9023091CA022817B7
:1040F000390769F4309729F41092CC021092CB0260
:1041000002C013821282B093CA02A093C902DF9147
:10411000CF9108958F929F92AF92BF92CF92DF92EC
:10412000EF92FF92CF93DF93EC01688179818A81CE
:104130009B81611571058105910521F464E279ED9A
:104140008BE597E02DE133EF41E050E00E94E6205F
:1041500049015A019B01AC01A7EAB1E40E94052183
:104160006B017C01ACEEB4EFA50194010E94132118
:10417000DC01CB018C0D9D1DAE1DBF1DB7FF03C023
:104180000197A109B04888839983AA83BB839F774D
:10419000DF91CF91FF90EF90DF90CF90BF90AF90E5
:1041A0009F908F9008950E948A2008958BE091E05F
:1041B0000E948A200895A0E0B0E080930B019093C4
:1041C0000C01A0930D01B0930E010895052E97FBED
:1041D0001EF400940E94FD2057FD07D00E94182174
:1041E00007FC03D04EF40C94FD205095409530957B
:1041F00021953F4F4F4F5F4F089590958095709553
:1042000061957F4F8F4F9F4F08950E943A21A59F40
:10421000900DB49F900DA49F800D911D11240895C1
:10422000B7FF0C9405210E940521821B930B089572
:10423000A1E21A2EAA1BBB1BFD010DC0AA1FBB1FAA
:10424000EE1FFF1FA217B307E407F50720F0A21B1C
:10425000B30BE40BF50B661F771F881F991F1A9489
:1042600069F760957095809590959B01AC01BD01B3
:10427000CF010895A29FB001B39FC001A39F700D0D
:10428000811D1124911DB29F700D811D1124911D5E
:10429000089597FB072E16F4009407D077FD09D0F8
:1042A0000E945D2107FC05D03EF4909581959F4FBB
:1042B0000895709561957F4F0895AA1BBB1B51E12E
:1042C00007C0AA1FBB1FA617B70710F0A61BB70B86
:1042D000881F991F5A95A9F780959095BC01CD012B
:1042E0000895FB01DC018D91019080190110D9F333
:1042F000990B0895FB01DC0101900D920020E1F77C
:064300000895F894FFCFC0
:10430600970C970C020000CD022000010000002F40
:104316000000000000000000000000000000000D8A
:104326000000000000000000000000000000000087
:104336000800000000007F0A00150B000000001AAC
:104346000000193E2000467265650041626F757473
:10435600004C6F6F6B00667265650046726565207E
:1043660052414D3A20002062797465730061626F94
:104376007574004D6F6E6369614F533A20616C70BE
:1043860068612000434330203230323420503158A7
:10439600006C6F6F6B0057616C6C7061706572209A
:1043A6006368616E67656420746F20005B315D2011
:1043B6002D206C696E657320686F72697A6F6E74F2
:1043C600616C005B325D202D206C696E6573207612
:1043D6006572746963616C005B335D202D206469CE
:1043E600676974616C20617274005B345D202D20F6
:1043F6006772616469656E7400703178004B727A19
:1044060079737A746F66004B7279737469616E00A2
:104416004A616E6B6F77736B6900556E6B6E6F7763
:104426006E20636F6D6D616E6400436C6F73650023
:107E0000112484B714BE81FFFDD085E080938100EA
:107E100082E08093C00088E18093C10096E0909357
:107E2000C20090E19093C400809360008EE0809344
:107E30006000259A86E020E33CEF91E030938500D6
:107E40002093840096BBB09BFECF1D9AA8958150CD
:107E5000A9F7C0E0D0E008E138E0F32EEE24E39487
:107E600045E0B42E51E1A52E13E0A7D0813491F462
:107E7000A4D0D82EAED082E8D81203C084E096D029
:107E800092C0E1E8DE1203C084E090D08CC083E0B1
:107E90008DD089C0823419F484E1A7D084C08534A0
:107EA00019F485E0A2D07FC0853549F486D0C82F6B
:107EB00084D0D0E0D82BCC0FDD1F8BD074C086359A
:107EC00029F484E092D080E071D06DC0843609F04E
:107ED0003FC073D072D0982E70D0C115F0E7DF0785
:107EE00038F4FE0117BFE895C12CDD24D39403C0FC
:107EF000C12CDD24D39461D0F60181936F019E12D1
:107F0000FACFC115F0E7DF0718F0FE0117BFE895BB
:107F100060D007B600FCFDCFFE01A0E0B1E08C917F
:107F200011962C91119790E0922B0C01E7BEE895E9
:107F3000112432961296A03881E0B80781F7FE012D
:107F4000B7BEE89507B600FCFDCFA7BEE8952BC0ED
:107F50008437B1F432D031D0982E2FD03AD0892C3A
:107F6000FE016F018FEFC81AD80A84911FD08A943E
:107F7000F6018110F6CF21969A94C90DD11D13C038
:107F8000853741F426D08EE111D085E90FD08FE0FE
:107F90000DD009C0813531F400936000F09260008B
:107FA00018D001C016D080E101D05FCF9091C00001
:107FB00095FFFCCF8093C60008958091C00087FF95
:107FC000FCCF8091C00084FD01C0A8958091C600BF
:107FD0000895F3DF803239F088E18093600088E013
:107FE00080936000FFCF84E1E1CFCF93C82FE5DF1E
:107FF000C150E9F7CF91EDCFE0E6F0E098E1908352
:1080000080830895E0E6F0E088E180831082EE2727
:04801000FF270994A9
:027FFE00040479
:0400000300007E007B
:00000001FF
