:100000000C94540D0C946A140C9443140C94710DBC
:100010000C94710D0C94710D0C94710D0C94710D68
:100020000C94710D0C94710D0C94710D0C94710D58
:100030000C94710D0C9491140C94710D0C94710D21
:100040000C94F9130C94710D0C94710D0C94710DAA
:100050000C94710D0C94710D0C94710D0C94710D28
:100060000C94710D0C94710D46696C657300000061
:100070004564697400000000503158000000000021
:100080004C6F6F6B0000000041626F7574000000E0
:100090004672656500000000436C6F7365000000E8
:1000A000806003FFFFFFFFFFFFFFFFFFFFFFFFFF7A
:1000B000FFC01FFFFFFFFFFFFFFFFFFFFFFFFFFF6F
:1000C000FFF83FFFFFFFFFFFFFFFFFFFFFFFFFFF07
:1000D000FFFC7FFFFFFFFFFFFFFFFFFFFFFFFFFFB3
:1000E000FFFE7FFFFFFFFFFFFFFFFFFFFFFFFFFFA1
:1000F000FFFE7FFFFFFFFFFFFFFFFFFFFFFFFFFF91
:10010000FFFEFFFFFFFFFFFFFFFFFFFFFFFFFFFF00
:10011000FFFFFFFFFFFFFFFFFFFFFFFFFFFFFFFFEF
:10012000FFFFFFFFFFFFFFFFFFFFFFFFFFFFFFFFDF
:10013000FFFFFFFFFFFFFFFFFFFFFFFFFFFFFFFFCF
:10014000FFFFFFFFFFFFFFFFFFFFFFFFFFFFFFFFBF
:10064000FFFF7FFFFFFFFFFFFFFFFFFFFFFFFFFF3A
:10065000FFFE7FFFFFFFFFFFFFFFFFFFFFFFFFFF2B
:10066000FFFE7FFFFFFFFFFFFFFFFFFFFFFFFFFF1B
:10067000FFFE3FFFFFFFFFFFFFFFFFFFFFFFFFFF4B
:10068000FFFC1FFFFFFFFFFFFFFFFFFFFFFFFFFF5D
:10069000FFF803FFFFFFFFFFFFFFFFFFFFFFFFFF6D
:1006A000FFC0000000002300260029000000000811
:1006B0000002010000030407000000000000000029
:1006C00000000000250028002B000000000024008E
:1006D00027002A00040404040404040402020202A1
:1006E00002020303030303030102040810204080F5
:1006F000010204081020010204081020806000118B
:1007000010111011101110111011101110000AAA5F
:10071000AAAAAAAAAAAAAAAAAAAAAAAAAAA8044447
:1007200044444444444444444444444444442AAA3D
:10073000AAAAAAAAAAAAAAAAAAAAAAAAAAAA11114B
:1007400011111111111111111111111111102AAAE8
:10075000AAAAAAAAAAAAAAAAAAAAAAAAAAAA5545B3
:100760005545454555455545554555455545AAAA0F
:10077000AAAAAAAAAAAAAAAAAAAAAAAAAAAA51518B
:100780005151515151515151515151515151AAAAA7
:10079000AAAAAAAAAAAAAAAAAAAAAAAAAAAA555563
:1007A0005555555555555555555555555555AAAA4F
:1007B000AAAAAAAAAAAAAAAAAAAAAAAAAAAA555543
:1007C0005555555555555555555555555555AAAA2F
:1007D000AAAAAAAAAAAAAAAAAAAAAAAAAAAA555523
:1007E0005555555555555555555555555555AEAE07
:1007F000AEAEAEAEAEAEAEAEAEAEAEAEAEAE5555CB
:100800005555555555555555555555555555AAAAEE
:10081000AAAAAAAAAAAAAAAAAAAAAAAAAAAA5555E2
:100820005555555555555555555555555555EEEE46
:10083000EEEEEEEEEEEEEEEEEEEEEEEEEEEE55550A
:100840005555555555555555555555555555BBAB9C
:10085000BBABBBABBBABBBABABABBBABBBAB555534
:100860005555555555555555555555555555EEEE06
:10087000EEEEEEEEEEEEEEEEEEEEEEEEEEEE5555CA
:100880005555555555555555555555555555BBBB4C
:10089000BBBBBBBBBBBBBBBBBBBBBBBBBBBB555574
:1008A0005555555555555555555555555555FFFFA4
:1008B000FFFFFFFFFFFFFFFFFFFFFFFFFFFF55559C
:1008C0005555555555555555555555555555BBBF08
:1008D000BBBBBBBBBBBBBBBBBBBFBBBBBBBB555530
:1008E0005555555555545555555555555555FFFF65
:1008F000FFFFFFFFFFF99FFFFFFFFFFFFFFF5555C2
:10090000555555555547E555555555555555FFFFC1
:10091000FFFFFFFFFF9E79FFFFFFFFFFFFFFD5D522
:10092000D5D5D5D5D4799E55D5D5D5D5D5D5FFFF37
:10093000FFFFFFFFF9FFFF9FFFFFFFFFFFFF555581
:100940005555555547FFFFE5555555555555FFFF2D
:10095000FFFFFFFF9FFFFFF9FFFFFFFFFFFFDDDD51
:10096000DDDDDDDC7FFFFFFE5DDDDDDDDDDDFFFFED
:10097000FFFFFFF9FFFFFFFF9FFFFFFFFFFF757501
:1009800075757567FFFC7FFFE57575757575FFFFFC
:10099000FFFFFF9FFFFC1FFFF9FFFFFFFFFFDDDDF4
:1009A000DDDDDC7FFFFC87FFFE5DDDDDDDDDFFFFE4
:1009B000FFFFF9FFFF80E1FFFF9FFFFFFFFF77775A
:1009C000777777FFFF8FF9FFFFE777777777FFFF7D
:1009D000FFFFF1FFFFC3FFFFFF8FFFFFFFFFDFDF21
:1009E000DFDFD07FFFF0FFFFFE6FDFDFDFDFFFFF26
:1009F000FFFFF01FFFFC3FFFF98FFFFFFFFF77773F
:100A000077777007FFFF3FFFE66777777777FFFF1E
:100A1000FFFFF201FFFFFFFF998FFFFFFFFFFFFFC7
:100A2000FFFFF4007FFFFFFE661FFFFFFFFFFFFFDA
:100A3000FFFFF8401FFFFFF9981FFFFFFFFFFF7F39
:100A4000FF7FF80007FFFFE6611FFF7FFF7FFFFFCB
:100A5000FFFFF90401FFFF99849FFFFFFFFFFFFFE6
:100A6000FFFFF988007FFE6613FFFFFFFFFFFFFF18
:100A7000FFFFFF90401FF9984FFFFFFFFFFFFFFFB1
:100A8000FFFFFF988007E6613FFFFFFFFFFFFFFFCB
:100A9000FFFFFFF904019984FFFFFFFFFFFFFFFF46
:100AA000FFFFFFF988006613FFFFFFFFFFFFFFFF57
:100AB000FFFFFFFF9040184FFFFFFFFFFFFFFFFF0B
:100AC000FFFFFFFF9880613FFFFFFFFFFFFFFFFF7A
:100AD000FFFFFFFFF90404FFFFFFFFFFFFFFFFFF22
:100AE000FFFFFFFFF98813FFFFFFFFFFFFFFFFFF7F
:100AF000FFFFFFFFFF900FFFFFFFFFFFFFFFFFFF65
:100B0000FFFFFFFFFF98BFFFFFFFFFFFFFFFFFFF9C
:100B1000FFFFFFFFFFF9FFFFFFFFFFFFFFFFFFFFEB
:100B2000FFFFFFFFFFF9FFFFFFFFFFFFFFFFFFFFDB
:100B3000FFFFFFFFFFFFFFFFFFFFFFFFFFFFFFFFC5
:100B4000FFFFFFFFFFFFFFFFFFFFFFFFFFFFFFFFB5
:100B5000FFFFFFFFFFFFFFFFFFFFFFFFFFFFFFFFA5
:100B6000FFFFFFFFFFFFFFFFFFFFFFFFFFFFFFFF95
:100B7000FFFFFFFFFFFFFFFFFFFFFFFFFFFFFFFF85
:100B8000FFFFFFFFFFFFFFFFFFFFFFFFFFFFFFFF75
:100B9000FFFFFFFFFFFFFFFFFFFFFFFFFFFFFFFF65
:100BA000FFFFFFFFFFFFF3FFFFFFFFFFFFFFFFFF61
:100BB000FF7FDFFFFFFFF3FFFC1FC3FFFFFFFFFF10
:100BC000FF3F9FFFFFFFFFFFF80F80FFFFFFFFFFCB
:100BD000FF3F9F0743F0F7C171C718FFFFFFFFFFFB
:100BE000FF1F1E733DEE779C63E31FFFFFFFFFFFB8
:100BF000FF5F5CF97EDF373E63E303FFFFFFFFFF2C
:100C0000FF4E5DDD7EDFF77F63E381FFFFFFFFFFC8
:100C1000FF6EDD8D7EDFF76363E3C0FFFFFFFFFF45
:100C2000FF64DDDD7EDFF77F63E3F8FFFFFFFFFF9B
:100C3000FF75DCF97EDF373E71C718FFFFFFFFFF4E
:100C4000FF71DE737EEE779C780F01FFFFFFFFFFE1
:100C5000FF7BDF077EF0F7C17C1FC3FFFFFFFFFFB5
:100C6000FFFFFFFFFFFFFFFFFFFFFFFFFFFFFFFF94
:100C7000FFFFFFFFFFFFFFFFFFFFFFFFFFFFFFFF84
:100C8000FFFFFFFFFFFFFFFFFFFFFFFFFFFFFFFF74
:100C9000FFFFFFFFFFFFFFFFFFFFFFFFFFFF7FFFE4
:100CA000FFFFFFFFFFFFFFFFFFFFFFFFFFFE7FFFD5
:100CB000FFFFFFFFFFFFFFFFFFFFFFFFFFFE7FFFC5
:100CC000FFFFFFFFFFFFFFFFFFFFFFFFFFFE3FFFF5
:100CD000FFFFFFFFFFFFFFFFFFFFFFFFFFFC1FFF07
:100CE000FFFFFFFFFFFFFFFFFFFFFFFFFFF803FF17
:100CF000FFFFFFFFFFFFFFFFFFFFFFFFFFC0000041
:100D0000000000000000000000000009600000007A
:100D100000000071310000007A73617732000063D7
:100D20007864653433000020766674723500006E96
:100D300062686779360000006D6A75373800002CEC
:100D40006B696F303900002E2F6C3B702D00000056
:100D500027005B3D000000000D5D005C000000000E
:100D6000000000007F000031003437000000302E0A
:100D7000323536381B00002B332D2A390000000095
:100D80000000000000000000000000000000000063
:100D9000000000097E00000000000051210000005A
:100DA0005A53415740000043584445242300002033
:100DB000564654522500004E424847595E000000F6
:100DC0004D4A55262A00003C4B494F292800003E39
:100DD0003F4C3A505F00000022007B2B00000000D7
:100DE0000D7D007C00000000000000007F0000314D
:100DF000003437000000302E323536381B00002B0F
:100E0000332D2A390000000000000000000000001F
:100E100000000000000000000000000000000000D2
:100E200000000000000000000000000000000000C2
:100E300000000000000000000000000000000000B2
:100E400000000000000000000000000000000000A2
:100E50000000000000000000000000000000000092
:100E60000000000000000000000000000000000082
:100E70000000000000000000000000000000000072
:100E80000000000000000000000000000000000062
:100E90000000000000000004062000000000000028
:100EA000404040004000A0A000000000A0E0A0E002
:100EB000A0004060C060C000A0204080A000204092
:100EC000C0A0E000808000000000408080804000E2
:100ED00080404040800040A0400000000040E040D2
:100EE00000000000008080000000E0000000000022
:100EF00000008000202040808000E0A0A0A0E00052
:100F000040C04040E000E020E080E000E020E02041
:100F1000E000A0A0E0202000E080E020C000C08031
:100F2000E0A0E000E02040808000E0A0E0A0E00041
:100F3000E0A0E020600000400040000000400040D1
:100F4000800020408040200000E000E00000804061
:100F500020408000C02040004000E0A0A0E0E00071
:100F6000E0A0E0A0A000C0A0E0A0C000E0808080E1
:100F7000E000C0A0A0A0C000E080E080E000E08031
:100F8000E0808000E08080A0E000A0A0E0A0A000C1
:100F9000E0404040E000202020A0E00080A0C0C051
:100FA000A00080808080E000A0E0E0A0A000C0A0C1
:100FB000A0A0A00040A0A0A04000E0A0E080800091
:100FC00040A0A0E06600E0A0C0E0AA00E080E02031
:100FD000E000E04040404000A0A0A0A0E000A0A0B1
:100FE000A0A04000A0A0E0E0A200A0A040A0A0001F
:100FF000A0A040404000E0204080E000C080808011
:10100000C000008040202000C0404040C00040A000
:101010000000000000000000E00080400000000030
:101020000060A0A060008080C0A0C0000060808040
:101030006000202060A0600040A0E0806000604070
:10104000E040400060A06020C0008080C0A0A00000
:1010500040004040400040004040C0008080A0C0B0
:10106000A000C0404040E00000A0E0A0A00000C000
:10107000A0A0A0000040A0A0400000C0A0C0800030
:101080000060A060200000C0A080800000604020C0
:10109000600040E04040400000A0A0A0600000A030
:1010A000A0A0400000A0A0E0A00000A04040A00040
:1010B00000A0E020400000E04080E0002040C04070
:1010C000220040400040400080406040800000A07E
:1010D000400000004A616E6B6F77736B690000001F
:1010E0000000000000000000000000004B72797357
:1010F0007469616E00000000000000000000000044
:10110000000000004B727A79737A746F66000000F9
:1011100000000000000000000000000008080000BF
:1011200000000000000000003E41554155493E00CE
:101130003E7F6B7F6B773E0022777F7F3E1C0800EF
:10114000081C3E7F3E1C0800081C2A7F2A081C0041
:10115000081C3E7F3E081C00001C3E3E3E1C00FF5B
:10116000FFE3C1C1C1E3FF00001C2222221C00FFDB
:10117000FFE3DDDDDDE3FF000F0305394848300004
:10118000083E081C22221C00181410103070600049
:101190000F19111337766000082A1C771C2A0800E3
:1011A00060787E7F7E786000030F3F7F3F0F0300F3
:1011B000081C2A082A1C0800666666660066660027
:1011C0003F65653D050505000C324824124C300092
:1011D000000000007F7F7F00081C2A082A1C3E00B8
:1011E000081C3E7F1C1C1C001C1C1C7F3E1C080095
:1011F000080C7E7F7E0C080008183F7F3F1808000F
:1012000000007070707F7F000014227F22140000A5
:10121000081C1C3E3E7F7F007F7F3E3E1C1C08005A
:101220000000000000000000183C3C1818001800E6
:10123000363614000000000036367F367F36360022
:10124000081E201C023C080060660C183066060070
:101250003C663C2865663F00181818300000000006
:101260006030181818306000060C1818180C0600AA
:1012700000361C7F1C3600000008083E08080000ED
:1012800000000030303060000000003C0000000032
:10129000000000000060600000060C1830600000D4
:1012A0003C666E7666663C001818381818187E0082
:1012B0003C66060C30607E003C66061C06663C0000
:1012C0000C1C2C4C7E0C0C007E607C0606663C00E0
:1012D0003C66607C66663C007E660C0C1818180044
:1012E0003C66663C66663C003C66663E06663C00C4
:1012F00000181800181800000018180018183000FE
:10130000060C1830180C060000003C003C000000E1
:101310006030180C183060003C66061C180018007D
:1013200038445C58423C00003C66667E6666660057
:101330007C66667C66667C003C66606060663C003D
:101340007C66666666667C007E60607C60607E00AF
:101350007E60607C606060003C6660606E663C0041
:101360006666667E666666003C18181818183C00AB
:101370001E0C0C0C6C6C3800666C7870786C660017
:101380006060606060607E0063777F6B63636300B2
:1013900063737B6F676363003C66666666663C00EA
:1013A0007C6666667C6060003C6666666E3C060035
:1013B0007C66667C786C66003C66603C06663C0039
:1013C0007E5A1818181818006666666666663E002B
:1013D00066666666663C18006363636B7F776300CE
:1013E0006363361C366363006666663C1818180033
:1013F0007E060C1830607E001E18181818181E0083
:10140000006030180C0600007818181818187800BA
:1014100008142241000000000000000000007F00CE
:101420000C0C06000000000000003C063E663E007A
:101430006060607C66667C0000003C6660663C0024
:101440000606063E66663E0000003C667E603C0086
:101450001C3630307C303000003E66663E063C0074
:101460006060607C666666000018001818183C0012
:101470000C000C0C6C6C38006060666C786C66005C
:101480001818181818181800000063777F6B6B0085
:1014900000007C7E6666660000003C6666663C0076
:1014A000007C66667C606000003C6C6C3C0D0F004C
:1014B00000007C666660600000003E403C027C00EC
:1014C0000018187E181818000000666666663E0050
:1014D00000000066663C18000000636B6B6B3E000A
:1014E0000000663C183C6600000066663E063C0054
:1014F00000003C0C18303C000E18183018180E0074
:1015000018181800181818007018180C18187000FF
:1015100000003A6C00000000081C366341417F5413
:1015200060000005555555550000000000000BFFF8
:10153000FFBBAAA2A200000000155555555540005A
:10154000000000001FFFFFFEEEAAA8A0000000158B
:10155000555555550000000000003FFFFFBBAAAAEB
:101560002220000000155D5D555540000000000080
:101570007FFFFFEEEEAAAAA0000000555555555575
:101580000000000000007FFFFFFAAAA222A00000D6
:101590000055D555D554400000000000FFFFFFFF67
:1015A000EAAAA8A0000000555555555500000000B6
:1015B0000000FFFFFFFFBAAA22A00000005DDDDDF2
:1015C000DD55400040000000FFFFFFFFFFEAAAA832
:1015D0000000007777755575500000000000FFFF90
:1015E000FFFFFFAAA2A0000001DDDDDDDDD5500078
:1015F00040000000FFFFFFFFFFEAAAA8000001551E
:1016000057755555500000000003FBBFFFFBAAAA09
:101610002220000005DD55D5554554000000000E80
:10162000FEFFFEBFEEBEAA8A800005555551175534
:1016300014000100000ABFBBFABFEABA222A8000E8
:10164000055D5555555554000540000EFFFFEAAFA6
:10165000FEAAA8ABC00005555551155550000540D0
:10166000000FFFFFAAABBFAA222B800005DD555457
:10167000455554000500000FFFFFEAABFFEAAAAF93
:101680008000055555500555500015000003FFFF1B
:10169000AAABFBAAA2AA000005D5D54445D55400A3
:1016A00044000007FFFFEAAFFFEAAAAE00000557BB
:1016B00055510555500014000003FFFFEAAFFFAA83
:1016C0002A2A000001DDDDD545DD540414000000A8
:1016D000FFFFEEAFFFEAAAAC000000777755555543
:1016E000500010000000FFFFEBBFFFAAAAB80000E7
:1016F000005DDDD5D5D54000400000007FFFFEFF36
:10170000FFEAAAE000000077575555555001400008
:1017100000007FFFFFFFFFAA2B800000005DDDDDE2
:10172000555D5000000000003FFFFFFFFFEAA000F2
:1017300000000015557555555000000000001FFFB2
:10174000FFFBFFAAA0000000000DD5DD555550009D
:10175000000000000FFFFFEEFFEAA00000000007FE
:10176000555551555000000000000FFBAAABFFAAD1
:10177000000000000005D55555554400000000004C
:1017800007FFFFFFFFEA8000000000057575555553
:1017900050000000000003FFFFFFFBBA2000000024
:1017A0000005DDDDD555500000000000ABFFFFFF58
:1017B000FEEA888000000001777755555000000050
:1017C000000A2BFFFFFFABAA2222000000015DDD13
:1017D000555540000000002AAAFFFFFEAAAA8A8AE7
:1017E0008000000155555500000000000022A2BFF6
:1017F000FFAAAAAA22222000004155555540000008
:10180000000000AAAAEEFEEAAAAA888880000001C9
:10181000555555000000000000A2ABABBBAAAAAA18
:10182000222220000005555545454000000000AA31
:10183000ABEEAEAAAAAA8A8A8000000155555111C2
:101840001000000002A2ABBAAAAAAAAA2222200073
:101850004445555554454000000000AAAAEEEEEA62
:10186000AAA88888A0001111555555151000000030
:1018700000AAAAABBBBAAAAA2222200055455555F8
:101880005555500000000AAAAEEEEFEEAEAA8A8AC5
:101890008000151555555555400000002AAAABAAE1
:1018A000BBBAAAA2222220004555555555544000E6
:1018B0000000AAAAAEEEEFEEEA88AAA880000155C1
:1018C00055555550000000002AAABBABABBBAA225D
:1018D0002A22200445555555554400000000AAAA67
:1018E000FEEFEEEAAAAAAA8A8000015555555500D6
:1018F000000000002AAAFAABBAAAA2A2A2222004DF
:1019000044555555554000000000AAAAFAAAEAEA33
:10191000AAE8AAA8800001555551510150000000C5
:101920002AABBBABAAAA2BFA2A222004455555554F
:10193000540554000000AAABFAAAEAAAABEAAAAA84
:1019400080557365206C6566742F726967687420B2
:101950006172726F7773000000202A204469676902
:1019600074616C206172742020202020000000002F
:1019700000202A204C696E65732076657274696355
:10198000616C20200000000000202A204C696E6558
:101990007320686F72697A6F6E74616C000000006A
:1019A00000202A20436C65616E2077686974652089
:1019B00020202020000000000057616C6C706170D6
:1019C00065723A20000000000000000000000000E6
:1019D000002D2D2D2D3D2053797374656D206C6F76
:1019E0006F6B203D2D2D2D2D00556E6B6E6F776E1C
:1019F00020636F6D6D616E640000000000000000E8
:101A000000446F6E65000000000000000000000050
:101A1000000000000000000000434330203230325C
:101A20003420503158000000000000000000000089
:101A3000001016FC91859184918491849184918405
:101A4000918491848A8484848AFC9180918091809D
:101A50009180918091809180918091809180914D31
:101A60006F6E6369614F533A20616C70686120004A
:101A7000000000000000002062797465730000001F
:101A80000000000000000000000000000000004610
:101A90007265652052414D3A2000000000000000B0
:101AA000000000000000000011241FBECFEFD8E0AE
:101AB000DEBFCDBF11E0A0E0B1E0E4E1F6E402C09A
:101AC00005900D92A036B107D9F721E0A0E6B1E06C
:101AD00001C01D92AE3FB207E1F70E94481D0C9471
:101AE00008230C94000008950F93CF93DF93E9EE41
:101AF000F1E0A785B089C0919A01D0919B018285C0
:101B0000AC0FBD1F8E3191F08D3151F08C3149F009
:101B10008B3141F08A3139F0893131F0883129F047
:101B20001CC032C048C05EC074C08AC00D900BB8E3
:101B30000000000C0BB80000000C0BB80000000CFB
:101B40000BB80000000C0BB80000000C0BB8000034
:101B5000000C0BB80000000C0BB80D900BB8000087
:101B6000000C0BB80000000C0BB80000000C0BB808
:101B70000000000C0BB80000000C0BB80000000CBB
:101B80000BB80000000C0BB80D900BB80000000C57
:101B90000BB80000000C0BB80000000C0BB80000E4
:101BA000000C0BB80000000C0BB80000000C0BB8C8
:101BB0000000000C0BB80D900BB80000000C0BB827
:101BC0000000000C0BB80000000C0BB80000000C6B
:101BD0000BB80000000C0BB80000000C0BB80000A4
:101BE000000C0BB80D900BB80000000C0BB80000F7
:101BF000000C0BB80000000C0BB80000000C0BB878
:101C00000000000C0BB80000000C0BB80000000C2A
:101C10000BB80D900BB80000000C0BB80000000CC6
:101C20000BB80000000C0BB80000000C0BB8000053
:101C3000000C0BB80000000C0BB80000000C0BB837
:101C40000D900BB80000000C0BB80000000C0BB896
:101C50000000000C0BB80000000C0BB80000000CDA
:101C60000BB80000000C0BB80000000C0BB80D9076
:101C70000BB80000000C0BB80000000C0BB8000003
:101C8000000C0BB80000000C0BB80000000C0BB8E7
:101C90000000000C0BB80000000C0BB80D900BB846
:101CA0000000000C0BB80000000C0BB80000000C8A
:101CB0000BB80000000C0BB80000000C0BB80000C3
:101CC000000C0BB80000000C0BB80D900BB8000016
:101CD000000C0BB80000000C0BB80000000C0BB897
:101CE0000000000C0BB80000000C0BB80000000C4A
:101CF0000BB80000000C0BB80D900BB80000000CE6
:101D00000BB80000000C0BB80000000C0BB8000072
:101D1000000C0BB80000000C0BB80000000C0BB856
:101D20000000000C0BB80D900BB80000000C0BB8B5
:101D30000000000C0BB80000000C0BB80000000CF9
:101D40000BB80000000C0BB80000000C0BB8000032
:101D5000000C0BB80D900BB80000000C0BB8000085
:101D6000000C0BB80000000C0BB80000000C0BB806
:101D70000000000C0BB80000000C0BB80000000CB9
:101D80000BB80D900BB80000000C0BB80000000C55
:101D90000BB80000000C0BB80000000C0BB80000E2
:101DA000000C0BB80000000C0BB80000000C0BB8C6
:101DB0000D900BB80000000C0BB80000000C0BB825
:101DC0000000000C0BB80000000C0BB80000000C69
:101DD0000BB80000000C0BB80000000C0BB80D9005
:101DE0000BB80000000C0BB80000000C0BB8000092
:101DF000000C0BB80000000C0BB80000000C0BB876
:101E00000000000C0BB80000000C0BB80D900BB8D4
:101E10000000000C0BB80000000C0BB80000000C18
:101E20000BB80000000C0BB80000000C0BB8000051
:101E3000000C0BB80000000C0BB80D900BB80000A4
:101E4000000C0BB80000000C0BB80000000C0BB825
:101E50000000000C0BB80000000C0BB80000000CD8
:101E60000BB80000000C0BB80D900BB80000000C74
:101E70000BB80000000C0BB80000000C0BB8000001
:101E8000000C0BB80000000C0BB80000000C0BB8E5
:101E90000000000C0BB80D900BB80000000C0BB844
:101EA0000000000C0BB80000000C0BB80000000C88
:101EB0000BB80000000C0BB80000000C0BB80000C1
:101EC000000C0BB80D900BB80000000C0BB8000014
:101ED000000C0BB80000000C0BB80000000C0BB895
:101EE0000000000C0BB80000000C0BB80000000C48
:101EF0000BB80D900BB80000000C0BB80000000CE4
:101F00000BB80000000C0BB80000000C0BB8000070
:101F1000000C0BB80000000C0BB80000000C0BB854
:101F20000D900BB80000000C0BB80000000C0BB8B3
:101F30000000000C0BB80000000C0BB80000000CF7
:101F40000BB80000000C0BB80000000C0BB80D9093
:101F50000BB80000000C0BB80000000C0BB8000020
:101F6000000C0BB80000000C0BB80000000C0BB804
:101F70000000000C0BB80000000C0BB80D900BB863
:101F80000000000C0BB80000000C0BB80000000CA7
:101F90000BB80000000C0BB80000000C0BB80000E0
:101FA000000C0BB80000000C0BB80D900BB8000033
:101FB000000C0BB80000000C0BB80000000C0BB8B4
:101FC0000000000C0BB80000000C0BB80000000C67
:101FD0000BB80000000C0BB80D900BB80000000C03
:101FE0000BB80000000C0BB80000000C0BB8000090
:101FF000000C0BB80000000C0BB80000000C0BB874
:102000000000000C0BB80D900BB80000000C0BB8D2
:102010000000000C0BB80000000C0BB80000000C16
:102020000BB80000000C0BB80000000C0BB800004F
:10203000000C0BB80D900BB80000000C0BB80000A2
:10204000000C0BB80000000C0BB80000000C0BB823
:102050000000000C0BB80000000C0BB80000000CD6
:102060000BB80D900BB80000000C0BB80000000C72
:102070000BB80000000C0BB80000000C0BB80000FF
:10208000000C0BB80000000C0BB80000000C0BB8E3
:10209000000000005F98DF91CF910F9108950F939A
:1020A000CF93DF93E9EEF1E0A785B089C0919A0163
:1020B000D0919B018285AC0FBD1F02C0000C0BB8F4
:1020C0000D9000000BB800000000000C0BB80000E1
:1020D0000000000C0BB800000000000C0BB8000062
:1020E0000000000C0BB800000000000C0BB8000052
:1020F000000C8A950BB811F70000000C0BB800001B
:10210000000000005F98DF91CF910F9108950F9329
:10211000CF93DF93E9EEF1E0A785B089C0919A01F2
:10212000D0919B018285AC0FBD1F0BB10F7703C00F
:1021300000FA07F90BB90D9007FA07F90BB900007F
:10214000000006FA07F90BB90000000005FA07F9CC
:102150000BB90000000004FA07F90BB900000000F9
:1021600003FA07F90BB90000000002FA07F90BB9EE
:1021700000008A9501FA07F90BB9D1F6000000FAC0
:1021800007F90BB90BB10F7707FB07F90BB9DF9113
:10219000CF910F9108950F93CF93DF93E9EEF1E084
:1021A000A785B089C0919A01D0919B018285AC0F1F
:1021B000BD1F0BB10F7703C000FA07F90BB90D90E3
:1021C000000007FA07F90BB900000000000006FA4A
:1021D00007F90BB900000000000005FA07F90BB978
:1021E00000000000000004FA07F90BB9000000002D
:1021F000000003FA07F90BB900000000000002FA22
:1022000007F90BB900000000000001FA07F90BB94B
:102210008A9591F60000000000FA07F90BB90BB19E
:102220000F7707FB07F90BB9DF91CF910F91089555
:102230002091E9013091EA018091F0019091F10142
:10224000281739070CF44EC08CEA93E0909389006C
:10225000809388001092EA011092E9018091EB01CD
:102260009091EC01A091ED01B091EE010196A11DBC
:10227000B11D8093EB019093EC01A093ED01B0931D
:10228000EE018091960190919701A0919801B091F3
:102290009901892B8A2B8B2B09F1809196019091C2
:1022A0009701A0919801B0919901181619061A0684
:1022B0001B0684F58091960190919701A091980159
:1022C000B09199010197A109B1098093960190936A
:1022D0009701A0939801B09399011CC01092B1008E
:1022E0002B9818C02091E9013091EA018091F70103
:1022F000082E000C990B2817390761F48AE490E046
:10230000909389008093880084E991E19093A601DD
:102310008093A5018091E9019091EA010196909343
:10232000EA018093E90108952091E9013091EA01E1
:102330008091EF0190E02817390759F410929B0122
:1023400010929A018091F5018093F60184EC91E15D
:102350000DC02091E9013091EA018091F001909146
:10236000F1012817390731F488E191E19093A60132
:102370008093A5018091E9019091EA0101969093E3
:10238000EA018093E9010895309184002091F401DD
:102390002A50231B2350F0F72D5F19F02A9511F0D6
:1023A00001C00000E091A701F091A801099590916A
:1023B000F6018091F50191110FC08093F601909183
:1023C000F30120919A0130919B01290F311D309327
:1023D0009B0120939A0103C091509093F601409184
:1023E000E9015091EA014F5F5F4F082E000C990BF5
:1023F00001966091F201689F9001699F300D112450
:102400008091EF01B901680F711D4617570731F42C
:1024100084E991E19093A6018093A5018091E9015F
:102420009091EA0101969093EA018093E901089561
:102430000895CF93DF93909193012091AB01309158
:10244000AC01A9014F5E5E4FB90168577F4FD901BA
:10245000A05FBE4F8091A901E091AA018E1304C034
:102460009093930180E05BC08F5F8D3208F080E035
:10247000E82FF0E0EA59FE4FE0818093A901EE23B6
:1024800079F3E03F11F49160E5CFE03E11F4926002
:10249000E1CF90FF0EC0E23111F49B7F08C0E93517
:1024A00011F4977F04C0E13111F491FD9F7E9C7F70
:1024B000D1CFE23111F49460CDCFE93511F49860B9
:1024C000C9CFE13111F491FD906191FF08C0EA5448
:1024D000E433E8F4F0E0E25FFE4FE08119C094FFDE
:1024E00007C08C91882321F0E83888F4EA010AC0FB
:1024F000892F8C7021F0E83850F4EB0103C0E838E4
:1025000030F4E901CE0FD11DFE01E49101C0E0E0FD
:102510009C7FEE2309F49ECF909393018E2FDF9141
:10252000CF910895CF92DF92EF92FF920F931F9376
:102530008091AD0190E0FC01E455F94F2491FC013C
:10254000E851F94F3491FC01EC52F94FE491EE233C
:10255000B9F1222339F1233091F038F42130A9F078
:10256000223001F584B58F7D12C0273091F02830DC
:10257000A1F02430B9F4809180008F7D03C0809158
:1025800080008F77809380000DC084B58F7784BDE5
:1025900009C08091B0008F7703C08091B0008F7D1B
:1025A0008093B000F0E0EE0FFF1FEE55F94FA591BC
:1025B000B491EC91E32331E009F430E0832F02C0C1
:1025C00080E090E02FB7F8944091A1015091A201D2
:1025D0006091A3017091A4012FBF0091620110913D
:1025E000630120916401309165016A017B01C01A89
:1025F000D10AE20AF30A970186010B3F1105210572
:10260000310520F010926101109260014093620147
:10261000509363016093640170936501209161019F
:102620003FEF320F383048F401C0880F3A95EAF78F
:1026300090916001892B8093600181E0820F8093EB
:1026400061018B30B9F48091AA018F5F8D3208F05F
:1026500080E09091A901981749F0E82FF0E090915F
:102660006001EA59FE4F90838093AA0110926101A4
:10267000109260011F910F91FF90EF90DF90CF902B
:102680000895BF92CF92DF92EF92FF920F931F9324
:10269000CF93DF93CDB7DEB728970FB6F894DEBFA0
:1026A0000FBECDBF282FF62E63E00E94C42286E223
:1026B000989FD02C11241BEA219F212D11242695AF
:1026C00016E1219F102D112486E0C82EC10E9AE03C
:1026D000B92EBD0CE12C00E020E140E26C2D8B2DE9
:1026E0000E94661C64E0610FEE24E39420E140E266
:1026F00088E08D0D0E94661CB092E501C092E60153
:1027000082E0F816B9F08F1538F0FF2081F0FE1046
:1027100020C068E870E016C084E0F81689F0F8166A
:1027200060F085E0F81215C068E670E00BC060E963
:1027300070E008C060E870E005C068E770E002C0C3
:1027400060E770E0CE0101960E945A22CE01019608
:1027500002C082E491E00E94311A28960FB6F894E4
:10276000DEBF0FBECDBFDF91CF911F910F91FF90C4
:10277000EF90DF90CF90BF900895CF93DF9390E0DC
:10278000FC01E851F94F2491FC01EC52F94F84917E
:10279000882361F190E0880F991FFC01E653F94FFF
:1027A000C591D491FC01E054F94FA591B491611108
:1027B00009C09FB7F8948881209582238883EC9183
:1027C0002E230BC0623061F49FB7F8948881322FBA
:1027D000309583238883EC912E2B2C939FBF06C0CA
:1027E0008FB7F894E8812E2B28838FBFDF91CF918C
:1027F00008951F920F920FB60F9211242F933F93BB
:102800008F939F93AF93BF938091A1019091A20169
:10281000A091A301B091A4013091A00123E0230F66
:102820002D3720F40196A11DB11D05C026E8230F08
:102830000296A11DB11D2093A0018093A101909348
:10284000A201A093A301B093A40180919C01909157
:102850009D01A0919E01B0919F010196A11DB11D06
:1028600080939C0190939D01A0939E01B0939F0142
:10287000BF91AF919F918F913F912F910F900FBE7C
:102880000F901F9018951F920F920FB60F92112460
:102890002F933F934F935F936F937F938F939F9368
:1028A000AF93BF93EF93FF93E0910201F091030187
:1028B0000995FF91EF91BF91AF919F918F917F917A
:1028C0006F915F914F913F912F910F900FBE0F909D
:1028D0001F9018951F920F920FB60F9211242F93ED
:1028E0003F934F935F936F937F938F939F93AF9398
:1028F000BF93EF93FF93E0910001F09101010995DF
:10290000FF91EF91BF91AF919F918F917F916F91C7
:102910005F914F913F912F910F900FBE0F901F909D
:1029200018951F920F920FB60F9211242F933F9379
:102930004F935F936F937F938F939F93AF93BF93C7
:10294000EF93FF93E091A501F091A6010995FF9106
:10295000EF91BF91AF919F918F917F916F915F9117
:102960004F913F912F910F900FBE0F901F90189590
:102970004F925F926F927F928F929F92AF92BF928F
:10298000CF92DF92EF92FF92CF93DF9300D000D0EF
:10299000CDB7DEB74C012A013B011092B000109276
:1029A000B1009091B00092609093B0009091B1000E
:1029B00091609093B100239AA12CB12C60E072E158
:1029C0008AE790E0A50194010E94612229833A835D
:1029D0004B835C8369017A0121E0C21AD108E108C6
:1029E000F1088FEFC816D104E104F10409F008F4EE
:1029F00085C060E472E48FE090E0A50194010E943C
:102A0000612269017A0181E0C81AD108E108F10860
:102A10002FEFC216D104E104F10409F008F470C0EC
:102A200060E970ED83E090E0A50194010E946122CD
:102A300069017A0181E0C81AD108E108F1082FEF95
:102A4000C216D104E104F10409F008F45BC068E4A3
:102A500078EE81E090E0A50194010E946122690175
:102A60007A0181E0C81AD108E108F1082FEFC216F7
:102A7000D104E104F10409F008F446C064E274EF03
:102A800080E090E0A50194010E94612269017A0131
:102A900081E0C81AD108E108F1082FEFC216D1046D
:102AA000E104F10499F190F162E17AE780E090E0CD
:102AB000A50194010E94612269017A0181E0C81A8E
:102AC000D108E108F1082FEFC216D104E104F104A6
:102AD000F9F0F0F089819A81AB81BC812AE0B5954B
:102AE000A795979587952A95D1F76C017D0121E0EF
:102AF000C21AD108E108F10887E00BC081E009C0E3
:102B000082E007C083E005C084E003C085E001C027
:102B100086E08093B1004114510461047104A9F06E
:102B2000ACE3B0E0A30192010E94802228EE33E0E2
:102B300040E050E00E949322209396013093970149
:102B400040939801509399010BC08FEF9FEFDC01E8
:102B50008093960190939701A0939801B093990167
:102B6000C092B3008091B0008F778093B0008091C5
:102B7000B00080648093B0000F900F900F900F9082
:102B8000DF91CF91FF90EF90DF90CF90BF90AF900B
:102B90009F908F907F906F905F904F9008952091BD
:102BA000F301982F969596959695E091F801F091FE
:102BB000F9018770629FB0011124690F711DE60F42
:102BC000F71F413061F420E830E0A90102C05595BB
:102BD00047958A95E2F7CA019081892B19C0411166
:102BE0000CC02FE73FEFA90102C0559547958A9584
:102BF000E2F7CA01908189230BC020E830E0A901E7
:102C000002C0559547958A95E2F7CA0190818927B8
:102C10008083089580919501882319F01092950181
:102C200018C080919401882319F01092940102C079
:102C30000E94191287FF0BC0982F9F739068909382
:102C400095018295869586958370806C02C0882355
:102C500011F090E008958FEF9FEF08958091940117
:102C600081110EC08091950181110AC00E94191234
:102C7000982F8093940181E0911103C080E0089522
:102C800081E00895811151C048EC50E060E070E0AF
:102C900088EE93E00E94B8142FEF89EF90E0215066
:102CA00080409040E1F700C0000048EC50E060E058
:102CB00070E080ED97E00E94B8142FEF89EF90E06C
:102CC000215080409040E1F700C0000044EF51E007
:102CD00060E070E08CE291E00E94B8142FEF89EF81
:102CE00090E0215080409040E1F700C0000048ECA7
:102CF00050E060E070E08CED95E00E94B8148FE346
:102D00009CE90197F1F700C0000048EC50E060E05A
:102D100070E088EB9BE00E94B8149FEF29EF80E001
:102D2000915020408040E1F782C0813089F544E62F
:102D300050E060E070E085E091E00E94B8148FE31D
:102D40009CE90197F1F700C0000044E650E060E024
:102D500070E089E491E00E94B8148FE39CE9019748
:102D6000F1F700C0000044E650E060E070E088E861
:102D700091E00E94B8148FE39CE90197F1F700C03D
:102D8000000048EC50E060E070E08BE092E049C069
:102D9000823019F544E650E060E070E088E891E0A8
:102DA0000E94B8148FE39CE90197F1F700C000007E
:102DB00044E650E060E070E089E491E00E94B814DD
:102DC0008FE39CE90197F1F700C0000048EC50E068
:102DD00060E070E085E091E024C0833051F546E981
:102DE00050E060E070E089E491E00E94B8148FE365
:102DF0009CE90197F1F700C000004BE450E060E06F
:102E000070E089E491E00E94B8148FE39CE9019797
:102E1000F1F700C000004BE450E060E070E088E8AB
:102E200091E00E94B8148FE39CE90197F1F700C08C
:102E3000000008959F92AF92BF92CF92DF92EF92DF
:102E4000FF920F931F93CF93DF93CDB7DEB72897F1
:102E50000FB6F894DEBF0FBECDBFB82E162F942E3E
:102E6000982F969580E4C82EC91A613330F4862FC6
:102E7000869560E3F62EF81A02C034E0F32E24E0C3
:102E8000A22EAF0C84E4D82ED91AE12C00E0212F19
:102E90004B2D6A2D8D2D0E94661C01E0212F4B2D9C
:102EA0006F2D8C2D0E94661C992019F11F0D86E054
:102EB000F82EF10E00E02CE044E26F2D82E30E9438
:102EC000661C62E0610FEE24E3942CE044E28EE2A3
:102ED0000E94661C86E38093E501F092E60168E9B2
:102EE00070E0CE0101960E945A22CE0101960E9406
:102EF000311AD092E501A092E601CE0101960E941E
:102F0000752128960FB6F894DEBF0FBECDBFDF91B6
:102F1000CF911F910F91FF90EF90DF90CF90BF90D6
:102F2000AF909F900895EF920F93E12C00E02CE07A
:102F30004EE662E588E00E94661C01E02CE04EE669
:102F400060E586E00E94661CE3EEF1E08AE08283A1
:102F500084E5838389E491E00F91EF900C94311A1A
:102F60009F92AF92BF92CF92DF92EF92FF920F9318
:102F70001F93CF93DF93C091AE01C130B1F150F1F7
:102F8000C23009F449C0C33009F078C0E12C00E038
:102F900020E030E040EA50E060E080E00E949E18CF
:102FA0000E944A226EE770E00E94D02212E0180FC1
:102FB0000E944A226EE570E00E94D022C2E0C80F53
:102FC0002EE0E22EF12C3EE7A32EB12C4EE5C42ECE
:102FD000D12C38C0E12C00E020E030E040EA50E0A5
:102FE00060E080E00E949E1849C0E12C00E020E0F3
:102FF00030E040EA50E060E080E00E949E18C2E0CD
:1030000020E04EE750E062E070E08C2F0E943D1A15
:10301000CA5FC236A9F732C0E12C00E020E030E000
:1030200040EA50E060E080E00E949E1820E04EE51B
:1030300050E062E070E08C2F0E94FC1ACA5FC0383A
:10304000A9F71CC00E944A22B5010E94D02292E03A
:10305000992E980E0E944A22B6010E94D022D2E0F8
:10306000D80F00E02D2F492D6C2F812F0E94771B48
:1030700081E0E81AF108192DCD2F21F760E080E0FA
:103080000E94411361E081E00E94411362E082E00E
:103090000E94411363E084E00E94411364E085E0F4
:1030A0000E94411365E087E00E9441131092C8011D
:1030B00089E1EFEAF1E0DF011D928A95E9F7DF91FE
:1030C000CF911F910F91FF90EF90DF90CF90BF9025
:1030D000AF909F900C9493172091E6013091F201EC
:1030E000E091E701F091E80131966491422F50E0C0
:1030F000832F90E0861B910948175907D4F0E4917B
:103100008091F8019091F9012091F301DC01E29F97
:10311000A00DB11D1124AC01329F400D511D112491
:103120009A01FC01A217B30740F48C9181931D9280
:10313000F9CFE491E20FE093E60108952F923F92D8
:103140004F925F926F927F928F929F92AF92BF92B7
:10315000CF92DF92EF920F931F93CF93DF93CDB770
:10316000DEB728970FB6F894DEBF0FBECDBF5A0169
:10317000482F477078E0741B011106C0F501E20F7B
:10318000F31F04912F5F3F4FE11006C0F501E20FDE
:10319000F31FE4902F5F3F4F902F9770E02FE6953D
:1031A000E695E695992311F0EF5F01C098E08695CA
:1031B00086958695A82FB0E0BC83AB83642E712CD6
:1031C0004301890E911C8FEF90E0AC01082C02C0E6
:1031D000559547950A94E2F7A72FB0E0BA83A983E3
:1031E00001C0880F7A95EAF7E13011F44D8301C0F0
:1031F0001D82BD81B82BB887D40118978FEF90E05E
:1032000002C095958795AA95E2F78F83C12CD12CA2
:10321000862F90E09E838D832E2E312C91E0291AEB
:103220003108CE1408F090C05091F3018D819E8139
:103230008C0D9D1D589FD001599FB00D11248B817D
:103240009C81A80FB91FE091E301F091E401EA0F1E
:10325000FB1F5081888585238083B9016F5F7F4F75
:10326000F501E20FF31F8491E091E301F091E40195
:10327000EA0FFB1F082F10E0062C02C015950795DA
:103280000A94E2F79081092B00832101460E571E14
:103290008D01021B130BD801A60FB71F2091E3016C
:1032A0003091E40190E06415750510F5F901EA0F1D
:1032B000FB1F5081098001C0880F0A94EAF78083C0
:1032C000F501E60FF71F84912091E3013091E401AD
:1032D000A20FB31F282F30E0062C02C0359527958A
:1032E0000A94E2F79C91292B2C936F5F7F4FD3CFE9
:1032F000E8E08E16910448F4FD013197E20FF31FC8
:1033000054232081522B50830BC058E08516910422
:1033100039F0F901EA0FFB1F20813F81232320832D
:103320002091E3013091E401A20FB31F098002C094
:10333000880F991F0A94E2F7EC918E2B8C935FEF24
:10334000C51AD50A9B016DCF28960FB6F894DEBF3B
:103350000FBECDBFDF91CF911F910F91EF90DF9006
:10336000CF90BF90AF909F908F907F906F905F9025
:103370004F903F902F900895EF920F93242F4091FC
:10338000E7015091E801FA013296E491922F9E1BD9
:103390009A012F5F3F4FF901E490FA010491F9017E
:1033A0002491929F900111242D5F3F4F0E949E18FF
:1033B0000F91EF900895CF938A30D9F0A8F4882325
:1033C00009F44DC08830E9F4E091E701F091E8019B
:1033D000E4918091E5018E1B8093E50140E26091CC
:1033E000E601CF910C94BC198D3041F08E30B9F1CB
:1033F00008C01092E501CF910C946C181092E50171
:103400002EC0C82F8091E5012091F301E091E701E2
:10341000F091E801E491482F50E098E0299F900155
:1034200011242E1B31092417350754F41092E5019D
:103430000E946C184C2F6091E6018091E50103C059
:103440004C2F6091E6010E94BC19E091E701F091D8
:10345000E801E4918091E501E80FE093E501CF9167
:103460000895CF93DF93EC018991882319F00E948E
:10347000DB19FACFDF91CF9108950F931F93CF936C
:10348000DF93FB016091F301E417F507C1F408E055
:10349000609FB0011124AF015527461757070CF064
:1034A000A6C09091F201891708F0A1C0422F682FA1
:1034B0008E2FDF91CF911F910F910C94CF154E1746
:1034C0005F0720F4DF01BB27FA01AD01EF01C770F0
:1034D000DD27AFEFB0E08D0102C015950795CA95C5
:1034E000E2F7E801902F33E0F695E7953A95E1F79A
:1034F000689FB0011124E60FF71F8A01077011279A
:1035000002C0B595A7950A95E2F73A2F3095DA01F2
:1035100043E0B695A7954A95E1F76A0F7B1FE6173A
:10352000F70719F49C2F932330E02130F1F4DF01E9
:1035300011964091E3015091E401E40FF51F808161
:10354000982B90832FEF8091E3019091E401A617CF
:10355000B70730F4FC01EA0FFB1F20831196F3CF6D
:10356000A80FB91F8C91382B41C021111FC0DF015A
:1035700011964091E3015091E401E40FF51F9095FD
:103580008081982390838091E3019091E401A617B4
:10359000B70730F4FC01EA0FFB1F10821196F3CF3E
:1035A000A80FB91F30958C91382320C02230F9F430
:1035B000DF0111964091E3015091E401E40FF51F02
:1035C0008081982790838091E3019091E401A61770
:1035D000B70740F4FC01EA0FFB1F808180958083D0
:1035E0001196F1CFA80FB91F8C9138273C93DF912A
:1035F000CF911F910F910895CF93DF939091F30195
:1036000064177507A1F4E82FF0E038E0939FA0015C
:103610001124E417F5070CF067C09091F2016917C7
:1036200008F062C0422FDF91CF910C94CF1546175E
:10363000570720F4FB01FF27BA01AF01382F37707D
:10364000E0E8F0E002C0F595E7953A95E2F73E2F05
:10365000969FD001979FB00D1124869586958695EB
:10366000ED01C80FD11DCE01213099F4461757073F
:10367000D8F1E091E301F091E401E80FF91F208116
:10368000232B20832091F301820F911D6F5F7F4FC9
:10369000EDCF211114C0E0954617570728F1A091EE
:1036A000E301B091E401A80FB91F2C912E232C93B4
:1036B0002091F301820F911D6F5F7F4FEDCF22307C
:1036C00099F44617570780F0E091E301F091E40187
:1036D000E80FF91F2081232720832091F301820F17
:1036E000911D6F5F7F4FEDCFDF91CF9108952F92A6
:1036F0003F924F925F926F927F928F929F92AF9282
:10370000BF92CF92DF92EF92FF920F931F93CF93CE
:10371000DF9300D000D0CDB7DEB7962F322F202F09
:10372000E82EF12C6091F30158E0659FB00111245F
:103730006E157F050CF4B3C05091F201591708F4CF
:10374000AEC0E42FF0E0FC83EB836E177F070CF430
:10375000A6C0531708F4A3C084131CC0432F50E025
:10376000692F70E00F900F900F900F90DF91CF9125
:103770001F910F91FF90EF90DF90CF90BF90AF908F
:103780009F908F907F906F905F904F903F902F9081
:103790000C94FC1A93131CC04B815C81B701892FD8
:1037A0000F900F900F900F90DF91CF911F910F917D
:1037B000FF90EF90DF90CF90BF90AF909F908F9051
:1037C0007F906F905F904F903F902F900C943D1A98
:1037D000C92ED12C481748F4A7016B817C81461B68
:1037E000570B5C834B838FEF07C0EB81FC81EE1995
:1037F000FF09FC83EB8381E0432E512C391730F411
:10380000A601441955092A019FEF03C04C185D0811
:1038100091E06B817C81641575054CF44B813C8192
:103820005C824B82442E532E71E0798301C0198251
:103830002A83440C551C5201EB81FC81AE1ABF0A4D
:103840001F01220C331C812C912C692E990F7708B3
:10385000082F880F110B2B813C8128153905FCF0AE
:103860004A816C2D8E2D0E94CF15B7FC0AC039817C
:10387000313019F4E00EF11E02C0C60CD71CA2189C
:10388000B3084981413019F4C60CD71C02C0E00EC0
:10389000F11EA40CB51C5FEF851A950ADCCF0F90C2
:1038A0000F900F900F90DF91CF911F910F91FF908C
:1038B000EF90DF90CF90BF90AF909F908F907F90D0
:1038C0006F905F904F903F902F9008956F927F92EE
:1038D0008F929F92AF92BF92DF92EF92FF920F93DF
:1038E0001F93CF93DF93F82E162FD42FC22FD02EF5
:1038F0008FEFE816B9F0062FA22EB12CA60EB11C40
:103900006F2C712C4301840E911C802F90E08A153E
:103910009B0544F42E2DA401B301802F0E943D1A73
:103920000F5FF3CFDF0D0D2D212F4D2F612F8F2D29
:103930000E94771BC10F2C2F4F2D612F8F2D0E94BE
:10394000771B2C2F4D2F612F8D2F0E94771B2C2F33
:103950004D2F6C2F8F2D0E94771BDF91CF911F91E0
:103960000F91FF90EF90DF90BF90AF909F908F905E
:103970007F906F9008951092E5011092E60180E02B
:1039800090E02091F3013091F201239F90011124E6
:10399000821793074CF4E091F801F091F901E80FD8
:1039A000F91F10820196EDCF08958F929F92AF92EA
:1039B000BF92CF92DF92EF92FF920F931F93CF931C
:1039C000DF93CDB7DEB7A0970FB6F894DEBF0FBE7A
:1039D000CDBF6115710581059105A9F480E3A0961D
:1039E0000FB6F894DEBF0FBECDBFDF91CF911F9110
:1039F0000F91FF90EF90DF90CF90BF90AF909F908E
:103A00008F900C94DB198E010F5F1F4FC12CD12CAE
:103A10007601842E912CA12CB12C2FEFC21AD20A40
:103A2000E20AF20AA50194010E949322F80161932F
:103A30008F01B901CA01611571058105910569F709
:103A4000F1E0CF1AD108E108F108FE01EC0DFD1DEF
:103A500081818A3010F4805D01C0895C0E94DB198D
:103A6000C114D104E104F10459F7A0960FB6F894FB
:103A7000DEBF0FBECDBFDF91CF911F910F91FF90A1
:103A8000EF90DF90CF90BF90AF909F908F90089570
:103A9000CF93DF93CDB7DEB76A970FB6F894DEBF4A
:103AA0000FBECDBF789484B5826084BD84B581603B
:103AB00084BD85B5826085BD85B5816085BD8091F9
:103AC0006E00816080936E00109281008091810071
:103AD0008260809381008091810081608093810069
:103AE000809180008160809380008091B10084602B
:103AF0008093B1008091B00081608093B00080918C
:103B00007A00846080937A0080917A00826080934A
:103B10007A0080917A00816080937A0080917A00A7
:103B2000806880937A001092C10060E08EE00E946D
:103B3000BD1380E096E00E94DD209093E401809325
:103B4000E301009709F458C01092E5011092E601D4
:103B50009093F9018093F80180E18093F30180E66E
:103B60008093F2011092EB011092EC011092ED01A2
:103B70001092EE0181E08093F5018093F60127E831
:103B800030E13093A8012093A701579A219A5F98BA
:103B9000299A239A92EC9093800099E19093810066
:103BA0009CE39093EF0197EC9093F40197E090934E
:103BB000F70128E331E03093F1012093F0012FEF7A
:103BC00033E030938700209386002AE430E030937E
:103BD00089002093880029E331E03093EA012093A3
:103BE000E90128E131E13093A6012093A5018093FA
:103BF0006F0078940E94BB1C87E99EE09093E801D7
:103C00008093E7010E94BB1C88E08093AD018EEF9A
:103C10009CE09093AC018093AB0162E083E00E9452
:103C2000BD1362E088E00E94BD131092AA011092B9
:103C3000A90182E992E190930301809302018091AE
:103C40006900837F886080936900E99A89E1EFEADF
:103C5000F1E0DF011D928A95E9F780E00E944216AB
:103C6000E12C00E020E030E04CEF56E060E080E046
:103C70000E949E18BFEF2DE339E4B1502040304040
:103C8000E1F700C000000E94B0176E0189E1C80E84
:103C9000D11C44E0F42E57E9652E5EE0752E88E4D1
:103CA000282E92E5392E14E12AE2422E32E3532ED9
:103CB0000E942E16882309F478C20E940A16082F43
:103CC000E090C8018D3019F098E1E91218C2EE2D8C
:103CD000F0E0E155FE4F10826CE471E08FEA91E074
:103CE0000E94F822892BE1F541E06EE084E60E9413
:103CF0001A176FE87AE1CE0101960E945A22CE018E
:103D000001960E94311A8091FA019091FB0100976F
:103D100011F48EEF91E0D601A81BB90B4D01BB0F3A
:103D2000AA08BB08B7FE0BC08DE20E94DB19B09455
:103D3000A09490948094811C911CA11CB11C4AE019
:103D4000C501B4010E94D51C67E77AE1CE01019656
:103D50000E945A22CE0101960E94311A81E0B8C118
:103D600061E571E08FEA91E00E94F822892BC1F5AC
:103D700041E062E384E60E941A1783E28093E50142
:103D800088E08093E6016FE57AE1CE0101960E941A
:103D90005A22CE0101960E94311A4AE067E070E093
:103DA00080E090E00E94D51CE12C00E020E030E0B3
:103DB00041E35AE164E188E30E949E1888E280931F
:103DC000E5018FE28093E60169E17AE1CE01019697
:103DD0000E945A22CE0101960E94311A80E078C1D9
:103DE00067E571E08FEA91E00E94F822892B09F0E3
:103DF000BBC040E068E284E60E941A1761ED79E1F9
:103E0000CE0101960E945A22CE0101960E94311ADB
:103E10001093E5014092E60169EB79E1CE0101964C
:103E20000E945A22CE0101960E94311A8091AE0161
:103E3000813059F038F0823059F0833079F469E5F7
:103E400079E108C061EA79E105C069E879E102C079
:103E500061E779E1CE0101960E945A221093E501B3
:103E60005092E601CE0101960E94311A1093E501AD
:103E70008CE38093E60161E479E1CE0101960E9432
:103E80005A22CE0101960E94311A81E00E94421608
:103E90000E942E168823E1F30E940A16882309F453
:103EA00049C0883081F48091AE01882319F0815097
:103EB0008093AE0142E350E060E070E08BE092E07E
:103EC0000E94B81410C0853131F48091AE01833066
:103ED00088F78F5FEDCF96EF980F923020F08B31FF
:103EE00049F18D3039F11093E5015092E60180914E
:103EF000AE01813059F038F0823059F0833079F4D6
:103F000069E579E108C061EA79E105C069E879E12C
:103F100002C061E779E1CE0101960E945A22CE01EA
:103F200001960E94311A8FE19EE40197F1F700C0DB
:103F30000000B2CFCE0101960E947521AFE5BAEE26
:103F40001197F1F700C0000041E06EE08CE30E94A1
:103F50001A1761E07AE1CE0101960E945A22CE0141
:103F600001960E94311AB6C06CE571E08FEA91E0CB
:103F70000E94F822892B09F09BC00E94BB1CE12CF7
:103F800000E020E030E04FE155E160E08BE20E948C
:103F90009E18BFEF23EF31E0B15020403040E1F7F1
:103FA00000C0000046E950E060E070E089E491E084
:103FB0000E94B8148FEF96E7A1E081509040A04096
:103FC000E1F700C0000020E030E041E35AE168E1A1
:103FD00088E10E949E184BE450E060E070E089E4C4
:103FE00091E00E94B814BFEF26E731E0B1502040C5
:103FF0003040E1F700C000008FEF91EEA4E0815067
:104000009040A040E1F700C000002CE131E1309386
:10401000E8012093E70164E071E1CE0101960E947E
:104020005A22F092E5013EE33093E601CE0101967B
:104030000E94311A6CEE70E1CE0101960E945A2264
:10404000F092E5012092E601CE0101960E94311A1C
:1040500064ED70E1CE0101960E945A22F092E501D2
:104060003092E601CE0101960E94311A4BE450E0F5
:1040700060E070E088E891E00E94B8148FE39CE96A
:104080000197F1F700C000009FEFA9E6B8E1915059
:10409000A040B040E1F700C000007092E8016092DB
:1040A000E701CE0101960E9475210E94B01712C04F
:1040B00041E06EE084E60E941A1769EE79E1CE01D4
:1040C00001960E945A22CE0101960E94311A82E086
:1040D0000E944216CE0101960E9475210E942E1662
:1040E0008823E1F30E940A166FEA71E08AEC91E0FE
:1040F0000E9401238091C8018093C90105C00B3142
:1041000031F483E00E9442160E94B01748C00F3776
:10411000C9F4EE2099F083E00E944216E091C801B4
:10412000E150E093C801F0E0E155FE4F10820E949B
:1041300093178FEA91E00E94311A31C082E00E9409
:1041400042162DC0083059F1053149F10B3089F480
:104150006AEC71E08FEA91E00E9401230E949317BC
:104160008FEA91E00E94311A8091C9018093C801C1
:1041700016C00A30A1F042E350E060E070E08BE04E
:1041800092E00E94B81481E08E0D8093C801EE2D5C
:10419000F0E0E155FE4F0083802F0E94DB198FE194
:1041A0009EE40197F1F700C00000A0E0B0E0AB2B67
:1041B00009F47ECD0E94000072CD0F931F93CF9320
:1041C000DF938230910510F482E090E0E091FC01F1
:1041D000F091FD0120E030E0A0E0B0E0309719F16F
:1041E000408151810281138148175907C8F0841713
:1041F000950769F4109731F012960C931297139665
:104200001C9327C00093FC011093FD0122C02115CF
:10421000310519F04217530718F49A01BD01EF0157
:10422000DF01F801DBCF21153105F9F0281B390B2F
:104230002430310580F48A819B816115710521F05C
:10424000FB019383828304C09093FD018093FC0162
:10425000FE01329644C0FE01E20FF31F8193919359
:1042600022503109398328833AC02091FA013091D4
:10427000FB01232B41F4209106013091070130937B
:10428000FB012093FA0120910401309105012115D1
:10429000310541F42DB73EB7409108015091090115
:1042A000241B350BE091FA01F091FB01E217F307B3
:1042B000A0F42E1B3F0B2817390778F0AC014E5F96
:1042C0005F4F2417350748F04E0F5F1F5093FB01D7
:1042D0004093FA018193919302C0E0E0F0E0CF01B6
:1042E000DF91CF911F910F910895CF93DF930097A6
:1042F00009F481C0FC01329713821282A091FC0163
:10430000B091FD01109781F420813181820F931FBC
:104310002091FA013091FB012817390751F5F093EC
:10432000FB01E093FA0167C0ED0120E030E0CE1719
:10433000DF0740F44A815B819E0141155105F1F090
:10434000EA01F5CFD383C28340815181840F951F49
:10435000C817D90759F488819981840F951F02964F
:10436000918380838A819B81938382832115310588
:1043700029F4F093FD01E093FC013DC0E901FB83CA
:10438000EA8349915991C40FD51FEC17FD0761F4D9
:1043900080819181840F951F0296E901998388831A
:1043A000828193819B838A83E0E0F0E012968D9175
:1043B0009C911397009719F0FD01DC01F7CF8D91C7
:1043C0009C9111979D012E5F3F4F820F931F20916B
:1043D000FA013091FB012817390769F4309729F465
:1043E0001092FD011092FC0102C013821282B09360
:1043F000FB01A093FA01DF91CF9108958F929F92D4
:10440000AF92BF92CF92DF92EF92FF92CF93DF9362
:10441000EC01688179818A819B8161157105810533
:10442000910521F464E279ED8BE597E02DE133EF1E
:1044300041E050E00E94612249015A019B01AC0118
:10444000A7EAB1E40E9480226B017C01ACEEB4EFDC
:10445000A50194010E948E22DC01CB018C0D9D1DD3
:10446000AE1DBF1DB7FF03C00197A109B0488883E7
:104470009983AA83BB839F77DF91CF91FF90EF90C1
:10448000DF90CF90BF90AF909F908F9008950E9443
:10449000FE2108958AE091E00E94FE210895A0E0A7
:1044A000B0E080930A0190930B01A0930C01B093AC
:1044B0000D010895FB01DC0105900D920020E1F74C
:1044C0000895052E97FB1EF400940E94782257FD54
:1044D00007D00E94932207FC03D04EF40C9478225C
:1044E00050954095309521953F4F4F4F5F4F089520
:1044F00090958095709561957F4F8F4F9F4F089550
:104500000E94B522A59F900DB49F900DA49F800D91
:10451000911D11240895B7FF0C9480220E948022DF
:10452000821B930B0895A1E21A2EAA1BBB1BFD014F
:104530000DC0AA1FBB1FEE1FFF1FA217B307E40782
:10454000F50720F0A21BB30BE40BF50B661F771FDA
:10455000881F991F1A9469F76095709580959095BA
:104560009B01AC01BD01CF010895A29FB001B39F93
:10457000C001A39F700D811D1124911DB29F700D6C
:10458000811D1124911D0895991B79E004C0991F84
:10459000961708F0961B881F7A95C9F7809508959D
:1045A00097FB072E16F4009407D077FD09D00E94E0
:1045B000E42207FC05D03EF4909581959F4F089525
:1045C000709561957F4F0895AA1BBB1B51E107C0F1
:1045D000AA1FBB1FA617B70710F0A61BB70B881F93
:1045E000991F5A95A9F780959095BC01CD01089522
:1045F000FB01DC018D91019080190110D9F3990B19
:104600000895FB01DC0101900D920020E1F708956F
:04461000F894FFCF4C
:10461400730D730D0000FE012000010000002F0047
:1046240000000000000000000000000000000D0079
:10463400000000000000000000000000000000086E
:1046440000000000007F0A00150B000000001A00A3
:104654000019556E6B6E6F77003E200066726565BB
:104664000061626F7574006C6F6F6B00703178005D
:00000001FF
