:100000000C9493080C942D0F0C94060F0C94B008CC
:100010000C94B0080C94B0080C94B0080C94B00880
:100020000C94B0080C94B0080C94B0080C94B00870
:100030000C94B0080C94540F0C94B0080C94B008B5
:100040000C94BC0E0C94B0080C94B0080C94B0083E
:100050000C94B0080C94B0080C94B0080C94B00840
:100060000C94B0080C94B00805A84CCDB2D44EB98D
:100070003836A9020C50B9918688083CA6AAAA2A4B
:10008000BE000000803F500B7FDFFFFFFFF7FFFC4B
:100090001FC33F9FFFFFFFFFFFF80F803F9F0743F6
:1000A000F0F7C171C7181F1E733DEE779C63E31F05
:1000B0005F5CF97EDF373E63E3034E5DFD7EDFF775
:1000C0007F63E3816EDDFD7EDFF77F63E3C064DD88
:1000D000FD7EDFF77F63E3F875DCF97EDF373E7185
:1000E000C71871DE737EEE779C780F017BDF077E89
:1000F000F0F7C17C1FC33825FFFFFFE7FFFFFFFFBD
:10010000FFFF99FFFFFFFFFFFE7E7FFFFFFFFFF96D
:10011000E79FFFFFFFFFE799E7FFFFFFFF9FFFF963
:10012000FFFFFFFE7FFFFE7FFFFFF9FFFFFF9FFF47
:10013000FFE7FFFFFFE7FFFF9FFFFFFFF9FFFE7FE6
:10014000FFC7FFFE7FF9FFFFC1FFFF9FE7FFFFC86B
:100150007FFFE79FFFF80E1FFFF97FFFF8FF9FFF6C
:10016000FE1FFFFC3FFFFFF807FFFF0FFFFFE60149
:10017000FFFFC3FFFF98007FFFF3FFFE66201FFF16
:10018000FFFFF9984007FFFFFFE6618401FFFFFFD3
:10019000998188007FFFFE661190401FFFF9984902
:1001A000988007FFE6613FF90401FF9984FFF98811
:1001B000007E6613FFFF904019984FFFFF9880065E
:1001C000613FFFFFF9040184FFFFFFF9880613FF79
:1001D000FFFFFF90404FFFFFFFFF98813FFFFFFFB2
:1001E000FFF900FFFFFFFFFFF98BFFFFFFFFFFFF9E
:1001F0009FFFFFFFFFFFFF9FFFFFFF0000000023A7
:10020000002600290000000008000201000003048D
:10021000070000000000000000000000002500288A
:10022000002B0000000000240027002A0004040422
:10023000040404040402020202020203030303038F
:10024000030102040810204080010204081020016C
:10025000020408102053536176657200004D6F6EE2
:100260006369610000436C656172000000503158A1
:1002700000000000004C6F6F6B0000000041626FD7
:100280007574000000467265650000000000000003
:1002900000000000000000000000096000000000F5
:1002A000000071310000007A7361773200006378DA
:1002B00064653433000020766674723500006E6227
:1002C000686779360000006D6A75373800002C6B5E
:1002D000696F303900002E2F6C3B702D0000002715
:1002E000005B3D000000000D5D005C0000000000B0
:1002F0000000007F000031003437000000302E3253
:100300003536381B00002B332D2A39000000000041
:1003100000000000000000000000000000000000DD
:100320000000097E00000000000051210000005A7A
:1003300053415740000043584445242300002056B1
:100340004654522500004E424847595E0000004D79
:100350004A55262A00003C4B494F292800003E3FC1
:100360004C3A505F00000022007B2B000000000D83
:100370007D007C00000000000000007F00003100D4
:100380003437000000302E323536381B00002B3356
:100390002D2A3900000000000000000000000000CD
:1003A000000000000000000000000000000000004D
:1003B000000000000000000000000000000000003D
:1003C000000000000000000000000000000000002D
:1003D000000000000000000000000000000000001D
:1003E000000000000000000000000000000000000D
:1003F00000000000000000000000000000000000FD
:1004000000000000000000000000000000000000EC
:1004100000000000000000000000000000000000DC
:1004200000000000000043433020323032342050BE
:100430003158000000000000000000000000545689
:100440004F55543A20303030207820303020312D34
:1004500062697400000052414D3A20303030302043
:100460006F662032303438206279746573004350EF
:10047000553A2041544D656761333238702031362A
:100480004D687A0000004D6F6E6369614F533A20EA
:10049000616C706861200000000000000000417283
:1004A0006475696E6F20554E4F2052330000000076
:1004B000000000000000557365206172726F777351
:1004C00020746F206368616E676500000000202A59
:1004D00020537461726669656C642020202020209E
:1004E000200000000000202A2053696E75736F6998
:1004F000642041727469737420000000000053632B
:100500007265656E53617665723A00000000000006
:10051000000000000000202A204469676974616CB3
:100520002061727420202020200000000000202A7A
:10053000204C696E657320766572746963616C2006
:10054000200000000000202A204C696E657320689E
:100550006F72697A6F6E74616C0000000000202A6F
:100560002057686974652066696C6C202020202003
:1005700020000000000057616C6C70617065723A79
:100580000000000000000000000000000000040661
:1005900020000000000000404040004000A0A000FB
:1005A000000000A0E0A0E0A0004060C060C000A08B
:1005B000204080A0002040C0A0E00080800000001B
:1005C0000040808080400080404040800040A0404B
:1005D0000000000040E040000000000080800000BB
:1005E00000E000000000000000800020204080802B
:1005F00000E0A0A0A0E00040C04040E000E020E01B
:1006000080E000E020E020E000A0A0E0202000E06A
:1006100080E020C000C080E0A0E000E020408080BA
:1006200000E0A0E0A0E000E0A0E0206000004000CA
:10063000400000004000408000204080402000003A
:10064000E000E00000804020408000C020400040EA
:1006500000E0A0A0E0E000E0A0E0A0A000C0A0E0DA
:10066000A0C000E0808080E000C0A0A0A0C000E0AA
:1006700080E080E000E080E0808000E08080A0E01A
:1006800000A0A0E0A0A000E0404040E0002020202A
:10069000A0E00080A0C0C0A00080808080E000A01A
:1006A000E0E0A0A000C0A0A0A0A00040A0A0A040AA
:1006B00000E0A0E080800040A0A0E06600E0A0C0D4
:1006C000E0AA00E080E020E000E04040404000A0E0
:1006D000A0A0A0E000A0A0A0A04000A0A0E0E0A2F8
:1006E00000A0A040A0A000A0A040404000E020400A
:1006F00080E000C0808080C000808040202000C05A
:10070000404040C00040A00000000000000000E0A9
:10071000008040000000000060A0A060008080C059
:10072000A0C000006080806000202060A0600040C9
:10073000A0E08060006040E040400060A06020C019
:10074000008080C0A0A00040004040400040004029
:1007500040C0008080A0C0A000C0404040E0000039
:10076000A0E0A0A00000C0A0A0A0000040A0A04069
:100770000000C0A0C080000060A060200000C0A0F9
:1007800080800000604020600040E0404040000069
:10079000A0A0A0600000A0A0A0400000A0A0E0A039
:1007A0000000A04040A00000A0E020400000E04089
:1007B00080E0002040C040220040400040400080D7
:1007C000406040800000A0400000004A616E6B6FF6
:1007D00077736B690000000000000000000000005B
:1007E0000000004B7279737469616E0000000000B4
:1007F00000000000000000000000004B727A7973D6
:100800007A746F6600000000000000000000000025
:100810000000000808000000000000000000003E8A
:1008200041554155493E003E7F6B7F6B773E00222C
:10083000777F7F3E1C0800081C3E7F3E1C08000896
:100840001C2A7F2A081C00081C3E7F3E081C000052
:100850001C3E3E3E1C00FFFFE3C1C1C1E3FF0000A0
:100860001C2222221C00FFFFE3DDDDDDE3FF000F81
:1008700003053948483000083E081C22221C001895
:10088000141010307060000F1911133776600008D3
:100890002A1C771C2A080060787E7F7E786000031F
:1008A0000F3F7F3F0F0300081C2A082A1C08006620
:1008B000666666006666003F65653D050505000CD9
:1008C000324824124C3000000000007F7F7F000877
:1008D0001C2A082A1C3E00081C3E7F1C1C1C001CF5
:1008E0001C1C7F3E1C0800080C7E7F7E0C08000844
:1008F000183F7F3F18080000007070707F7F000075
:1009000014227F22140000081C1C3E3E7F7F007FC3
:100910007F3E3E1C1C080000000000000000001884
:100920003C3C181800180036361400000000003651
:10093000367F367F363600081E201C023C080060D9
:10094000660C18306606003C663C2865663F001859
:1009500018183000000000603018181830600006C9
:100960000C1818180C060000361C7F1C36000000FE
:1009700008083E0808000000000030303060000029
:1009800000003C000000000000000000606000006B
:10099000060C18306000003C666E7666663C0018F7
:1009A00018381818187E003C66060C30607E003C33
:1009B00066061C06663C000C1C2C4C7E0C0C007E53
:1009C000607C0606663C003C66607C66663C007E99
:1009D000660C0C181818003C66663C66663C003CC9
:1009E00066663E06663C00001818001818000000F5
:1009F00018180018183000060C1830180C060000E3
:100A0000003C003C0000006030180C183060003CD6
:100A100066061C1800180038445C58423C00003C34
:100A200066667E666666007C66667C66667C003C02
:100A300066606060663C007C66666666667C007E1A
:100A400060607C60607E007E60607C606060003C16
:100A50006660606E663C006666667E666666003C42
:100A600018181818183C001E0C0C0C6C6C3800661A
:100A70006C7870786C66006060606060607E0063B7
:100A8000777F6B6363630063737B6F676363003CB3
:100A900066666666663C007C6666667C6060003CF6
:100AA0006666666E3C06007C66667C786C66003C1A
:100AB00066603C06663C007E5A18181818180066D6
:100AC00066666666663E0066666666663C18006335
:100AD00063636B7F7763006363361C366363006612
:100AE00066663C181818007E060C1830607E001EE2
:100AF00018181818181E00006030180C060000782E
:100B00001818181818780008142241000000000076
:100B100000000000007F000C0C0600000000000038
:100B2000003C063E663E006060607C66667C0000BD
:100B3000003C6660663C000606063E66663E0000B7
:100B4000003C667E603C001C3630307C303000005B
:100B50003E66663E063C006060607C66666600003D
:100B600018001818183C000C000C0C6C6C38006055
:100B700060666C786C660018181818181818000051
:100B80000063777F6B6B0000007C7E66666600000A
:100B9000003C6666663C00007C66667C6060000027
:100BA0003C6C6C3C0D0F0000007C666660600000D1
:100BB000003E403C027C000018187E181818000007
:100BC00000666666663E0000000066663C1800002F
:100BD00000636B6B6B3E000000663C183C660000D7
:100BE0000066663E063C0000003C0C18303C000EDF
:100BF00018183018180E0018181800181818007057
:100C000018180C1818700000003A6C00000000085A
:100C10001C366341417F1016FC918591849184912B
:100C20008491849184918491848A8484848AFC91BF
:100C3000809180918091809180918091809180912C
:100C40008091809154600000055555555500000075
:100C50000000000BFFFFBBAAA2A200000000155578
:100C60005555554000000000001FFFFFFEEEAAA8EA
:100C7000A000000015555555550000000000003F2C
:100C8000FFFFBBAAAA2220000000155D5D5555405C
:100C900000000000007FFFFFEEEEAAAAA000000007
:100CA00055555555550000000000007FFFFFFAAA7A
:100CB000A222A000000055D555D5544000000000E8
:100CC00000FFFFFFFFEAAAA8A000000055555555F8
:100CD00055000000000000FFFFFFFFBAAA22A0009D
:100CE00000005DDDDDDD55400040000000FFFFFF3E
:100CF000FFFFEAAAA800000077777555755000003D
:100D0000000000FFFFFFFFFFAAA2A0000001DDDD41
:100D1000DDDDD5500040000000FFFFFFFFFFEAAA25
:100D2000A80000015557755555500000000003FB01
:100D3000BFFFFBAAAA2220000005DD55D55545546A
:100D4000000000000EFEFFFEBFEEBEAA8A80000576
:100D5000555551175514000100000ABFBBFABFEAF0
:100D6000BA222A8000055D555555555400054000AE
:100D70000EFFFFEAAFFEAAA8ABC0000555555115FE
:100D80005550000540000FFFFFAAABBFAA222B80E1
:100D90000005DD5554455554000500000FFFFFEADE
:100DA000ABFFEAAAAF800005555550055550001518
:100DB000000003FFFFAAABFBAAA2AA000005D5D53D
:100DC0004445D5540044000007FFFFEAAFFFEAAAFC
:100DD000AE0000055755510555500014000003FFA3
:100DE000FFEAAFFFAA2A2A000001DDDDD545DD5468
:100DF0000414000000FFFFEEAFFFEAAAAC00000001
:100E00007777555555500010000000FFFFEBBFFFEE
:100E1000AAAAB80000005DDDD5D5D540004000008D
:100E2000007FFFFEFFFFEAAAE0000000775755555C
:100E3000555001400000007FFFFFFFFFAA2B8000FC
:100E400000005DDDDD555D5000000000003FFFFF4C
:100E5000FFFFEAA000000000155575555550000031
:100E60000000001FFFFFFBFFAAA0000000000DD53F
:100E7000DD55555000000000000FFFFFEEFFEAA017
:100E80000000000007555551555000000000000FAC
:100E9000FBAAABFFAA000000000005D5555555443C
:100EA000000000000007FFFFFFFFEA8000000000D5
:100EB000057575555550000000000003FFFFFFFB4E
:100EC000BA200000000005DDDDD55550000000000F
:100ED00000ABFFFFFFFEEA88800000000177775536
:100EE0005550000000000A2BFFFFFFABAA22220092
:100EF0000000015DDD555540000000002AAAFFFFFB
:100F0000FEAAAA8A8A8000000155555500000000FB
:100F1000000022A2BFFFAAAAAA2222200000415557
:100F20005555400000000000AAAAEEFEEAAAAA88D1
:100F30008880000001555555000000000000A2AB5C
:100F4000ABBBAAAAAA222220000005555545454060
:100F500000000000AAABEEAEAAAAAA8A8A8000000E
:100F600001555551111000000002A2ABBAAAAAAA5D
:100F7000AA22222000444555555445400000000057
:100F8000AAAAEEEEEAAAA88888A000111155555524
:100F9000151000000000AAAAABBBBAAAAA22222000
:100FA00000554555555555500000000AAAAEEEEFC4
:100FB000EEAEAA8A8A800015155555555540000099
:100FC000002AAAABAABBBAAAA222222000455555E4
:100FD00055555440000000AAAAAEEEEFEEEA88AAEA
:100FE000A88000015555555550000000002AAABBA5
:100FF000ABABBBAA222A22200445555555554400C7
:10100000000000AAAAFEEFEEEAAAAAAA8A800001BE
:101010005555555500000000002AAAFAABBAAAA2FD
:10102000A2A222200444555555554000000000AAB4
:10103000AAFAAAEAEAAAE8AAA880000155555151DD
:1010400001500000002AABBBABAAAA2BFA2A22202F
:101050000445555555540554000000AAABFAAAEAB8
:10106000AAABEAAAAA8042414E4B3A000000000017
:1010700000000000000000000000000000004564C7
:10108000697400000000556E6B6E6F776E20636FA1
:101090006D6D616E64000000000000000000446F90
:1010A0006E6500000000000000000000000000006D
:1010B00000000000000020627974657300000000E9
:1010C0000000000000000000000000000000467268
:1010D00065652052414D3A200000000000000000EC
:1010E000000000000000436C6F73650000000835CD
:1010F000085522558855A255A855AA55AA55AA574C
:10110000AA55AA77AAD5AA77AADDAAFFAADFAAFFBD
:10111000AAFFEAFFAAFFEEFFBAFFEEFFBBFFEFFF59
:10112000BBFFFFFFBF0011241FBECFEFD8E0DEBF23
:10113000CDBF11E0A0E0B1E0E2E6FCE402C0059022
:101140000D92A834B107D9F722E0A8E4B1E001C0BC
:101150001D92A93CB207E1F70E94071B0C942F26B1
:101160000C94000008950F93CF93DF93E4EBF2E02B
:10117000A785B089C0918401D09185018285AC0F8B
:10118000BD1F8E3191F08D3151F08C3149F08B3192
:1011900041F08A3139F0893131F0883129F01CC0B1
:1011A00032C048C05EC074C08AC00D900BB8000049
:1011B000000C0BB80000000C0BB80000000C0BB8C2
:1011C0000000000C0BB80000000C0BB80000000C75
:1011D0000BB80000000C0BB80D900BB80000000C11
:1011E0000BB80000000C0BB80000000C0BB800009E
:1011F000000C0BB80000000C0BB80000000C0BB882
:101200000000000C0BB80D900BB80000000C0BB8E0
:101210000000000C0BB80000000C0BB80000000C24
:101220000BB80000000C0BB80000000C0BB800005D
:10123000000C0BB80D900BB80000000C0BB80000B0
:10124000000C0BB80000000C0BB80000000C0BB831
:101250000000000C0BB80000000C0BB80000000CE4
:101260000BB80D900BB80000000C0BB80000000C80
:101270000BB80000000C0BB80000000C0BB800000D
:10128000000C0BB80000000C0BB80000000C0BB8F1
:101290000D900BB80000000C0BB80000000C0BB850
:1012A0000000000C0BB80000000C0BB80000000C94
:1012B0000BB80000000C0BB80000000C0BB80D9030
:1012C0000BB80000000C0BB80000000C0BB80000BD
:1012D000000C0BB80000000C0BB80000000C0BB8A1
:1012E0000000000C0BB80000000C0BB80D900BB800
:1012F0000000000C0BB80000000C0BB80000000C44
:101300000BB80000000C0BB80000000C0BB800007C
:10131000000C0BB80000000C0BB80D900BB80000CF
:10132000000C0BB80000000C0BB80000000C0BB850
:101330000000000C0BB80000000C0BB80000000C03
:101340000BB80000000C0BB80D900BB80000000C9F
:101350000BB80000000C0BB80000000C0BB800002C
:10136000000C0BB80000000C0BB80000000C0BB810
:101370000000000C0BB80D900BB80000000C0BB86F
:101380000000000C0BB80000000C0BB80000000CB3
:101390000BB80000000C0BB80000000C0BB80000EC
:1013A000000C0BB80D900BB80000000C0BB800003F
:1013B000000C0BB80000000C0BB80000000C0BB8C0
:1013C0000000000C0BB80000000C0BB80000000C73
:1013D0000BB80D900BB80000000C0BB80000000C0F
:1013E0000BB80000000C0BB80000000C0BB800009C
:1013F000000C0BB80000000C0BB80000000C0BB880
:101400000D900BB80000000C0BB80000000C0BB8DE
:101410000000000C0BB80000000C0BB80000000C22
:101420000BB80000000C0BB80000000C0BB80D90BE
:101430000BB80000000C0BB80000000C0BB800004B
:10144000000C0BB80000000C0BB80000000C0BB82F
:101450000000000C0BB80000000C0BB80D900BB88E
:101460000000000C0BB80000000C0BB80000000CD2
:101470000BB80000000C0BB80000000C0BB800000B
:10148000000C0BB80000000C0BB80D900BB800005E
:10149000000C0BB80000000C0BB80000000C0BB8DF
:1014A0000000000C0BB80000000C0BB80000000C92
:1014B0000BB80000000C0BB80D900BB80000000C2E
:1014C0000BB80000000C0BB80000000C0BB80000BB
:1014D000000C0BB80000000C0BB80000000C0BB89F
:1014E0000000000C0BB80D900BB80000000C0BB8FE
:1014F0000000000C0BB80000000C0BB80000000C42
:101500000BB80000000C0BB80000000C0BB800007A
:10151000000C0BB80D900BB80000000C0BB80000CD
:10152000000C0BB80000000C0BB80000000C0BB84E
:101530000000000C0BB80000000C0BB80000000C01
:101540000BB80D900BB80000000C0BB80000000C9D
:101550000BB80000000C0BB80000000C0BB800002A
:10156000000C0BB80000000C0BB80000000C0BB80E
:101570000D900BB80000000C0BB80000000C0BB86D
:101580000000000C0BB80000000C0BB80000000CB1
:101590000BB80000000C0BB80000000C0BB80D904D
:1015A0000BB80000000C0BB80000000C0BB80000DA
:1015B000000C0BB80000000C0BB80000000C0BB8BE
:1015C0000000000C0BB80000000C0BB80D900BB81D
:1015D0000000000C0BB80000000C0BB80000000C61
:1015E0000BB80000000C0BB80000000C0BB800009A
:1015F000000C0BB80000000C0BB80D900BB80000ED
:10160000000C0BB80000000C0BB80000000C0BB86D
:101610000000000C0BB80000000C0BB80000000C20
:101620000BB80000000C0BB80D900BB80000000CBC
:101630000BB80000000C0BB80000000C0BB8000049
:10164000000C0BB80000000C0BB80000000C0BB82D
:101650000000000C0BB80D900BB80000000C0BB88C
:101660000000000C0BB80000000C0BB80000000CD0
:101670000BB80000000C0BB80000000C0BB8000009
:10168000000C0BB80D900BB80000000C0BB800005C
:10169000000C0BB80000000C0BB80000000C0BB8DD
:1016A0000000000C0BB80000000C0BB80000000C90
:1016B0000BB80D900BB80000000C0BB80000000C2C
:1016C0000BB80000000C0BB80000000C0BB80000B9
:1016D000000C0BB80000000C0BB80000000C0BB89D
:1016E0000D900BB80000000C0BB80000000C0BB8FC
:1016F0000000000C0BB80000000C0BB80000000C40
:101700000BB80000000C0BB80000000C0BB8000078
:1017100000005F98DF91CF910F9108950F93CF93C1
:10172000DF93E4EBF2E0A785B089C0918401D0910A
:1017300085018285AC0FBD1F02C0000C0BB80D9057
:1017400000000BB800000000000C0BB80000000007
:10175000000C0BB800000000000C0BB800000000EB
:10176000000C0BB800000000000C0BB80000000CCF
:101770008A950BB811F70000000C0BB800000000B0
:1017800000005F98DF91CF910F9108950F93CF9351
:10179000DF93E4EBF2E0A785B089C0918401D0919A
:1017A00085018285AC0FBD1F0BB10F7703C000FA16
:1017B00007F90BB90D9007FA07F90BB90000000003
:1017C00006FA07F90BB90000000005FA07F90BB992
:1017D0000000000004FA07F90BB90000000003FA4A
:1017E00007F90BB90000000002FA07F90BB9000075
:1017F0008A9501FA07F90BB9D1F6000000FA07F94A
:101800000BB90BB10F7707FB07F90BB9DF91CF913C
:101810000F9108950F93CF93DF93E4EBF2E0A78548
:10182000B089C0918401D09185018285AC0FBD1F24
:101830000BB10F7703C000FA07F90BB90D90000048
:1018400007FA07F90BB900000000000006FA07F9D3
:101850000BB900000000000005FA07F90BB9000001
:101860000000000004FA07F90BB9000000000000B6
:1018700003FA07F90BB900000000000002FA07F9AB
:101880000BB900000000000001FA07F90BB98A95B6
:1018900091F60000000000FA07F90BB90BB10F77C1
:1018A00007FB07F90BB9DF91CF910F9108952091B4
:1018B000B4023091B5028091BB029091BC0228170E
:1018C00039070CF44EC08CEA93E090938900809322
:1018D00088001092B5021092B4028091B6029091E5
:1018E000B702A091B802B091B9020196A11DB11D35
:1018F0008093B6029093B702A093B802B093B90256
:101900008091800190918101A0918201B091830129
:10191000892B8A2B8B2B09F1809180019091810179
:10192000A0918201B0918301181619061A061B06B0
:1019300084F58091800190918101A0918201B09104
:1019400083010197A109B1098093800190938101DE
:10195000A0938201B09383011CC01092B1002B9818
:1019600018C02091B4023091B5028091C202082EB5
:10197000000C990B2817390761F48AE490E09093E2
:1019800089008093880083ED9CE090938C01809384
:101990008B018091B4029091B50201969093B502AB
:1019A0008093B40208952091B4023091B5028091E1
:1019B000BA0290E02817390759F410928501109265
:1019C00084018091C0028093C10283E09DE00DC03C
:1019D0002091B4023091B5028091BB029091BC027B
:1019E0002817390731F487E59CE090938C018093A8
:1019F0008B018091B4029091B50201969093B5024B
:101A00008093B4020895309184002091BF022A503F
:101A1000231B2350F0F72D5F19F02A9511F001C018
:101A20000000E0918D01F0918E0109959091C10225
:101A30008091C00291110FC08093C1029091BE02AB
:101A40002091840130918501290F311D309385014A
:101A50002093840103C091509093C1024091B4023D
:101A60005091B5024F5F5F4F082E000C990B019605
:101A70006091BD02689F9001699F300D1124809193
:101A8000BA02B901680F711D4617570731F483ED8B
:101A90009CE090938C0180938B018091B402909193
:101AA000B50201969093B5028093B402089508950B
:101AB000CF93DF9390917D0120919101309192011C
:101AC000A9014F5E5E4FB90168577F4FD901A05FF2
:101AD000BE4F80918F01E09190018E1304C09093CE
:101AE0007D0180E05BC08F5F8D3208F080E0E82FE1
:101AF000F0E0E05BFE4FE08180938F01EE2379F30D
:101B0000E03F11F49160E5CFE03E11F49260E1CF47
:101B100090FF0EC0E23111F49B7F08C0E93511F44B
:101B2000977F04C0E13111F491FD9F7E9C7FD1CF5E
:101B3000E23111F49460CDCFE93511F49860C9CF4A
:101B4000E13111F491FD906191FF08C0EA54E43352
:101B5000E8F4F0E0EE5EFE4FE08119C094FF07C0AC
:101B60008C91882321F0E83888F4EA010AC0892F93
:101B70008C7021F0E83850F4EB0103C0E83830F401
:101B8000E901CE0FD11DFE01E49101C0E0E09C7F90
:101B9000EE2309F49ECF90937D018E2FDF91CF919C
:101BA0000895CF92DF92EF92FF920F931F9380914F
:101BB000930190E0FC01EB5FFD4F2491FC01EF5B92
:101BC000FD4F3491FC01E35DFD4FE491EE23B9F14B
:101BD000222339F1233091F038F42130A9F022305A
:101BE00001F584B58F7D12C0273091F02830A1F027
:101BF0002430B9F4809180008F7D03C080918000F3
:101C00008F77809380000DC084B58F7784BD09C025
:101C10008091B0008F7703C08091B0008F7D80935A
:101C2000B000F0E0EE0FFF1FE550FE4FA591B4911C
:101C3000EC91E32331E009F430E0832F02C080E02F
:101C400090E02FB7F89440919D0250919E026091D0
:101C50009F027091A0022FBF00914C0110914D0185
:101C600020914E0130914F016A017B01C01AD10AC7
:101C7000E20AF30A970186010B3F110521053105A0
:101C800020F010924B0110924A0140934C01509366
:101C90004D0160934E0170934F0120914B013FEF36
:101CA000320F383048F401C0880F3A95EAF7909126
:101CB0004A01892B80934A0181E0820F80934B0176
:101CC0008B30B9F4809190018F5F8D3208F080E005
:101CD00090918F01981749F0E82FF0E090914A0118
:101CE000E05BFE4F90838093900110924B01109225
:101CF0004A011F910F91FF90EF90DF90CF900895D0
:101D0000CF93DF9390E0FC01EF5BFD4F2491FC014A
:101D1000E35DFD4F8491882361F190E0880F991F66
:101D2000FC01ED5DFD4FC591D491FC01E75EFD4FD7
:101D3000A591B491611109C09FB7F894888120954D
:101D400082238883EC912E230BC0623061F49FB70D
:101D5000F8948881322F309583238883EC912E2B41
:101D60002C939FBF06C08FB7F894E8812E2B288351
:101D70008FBFDF91CF9108951F920F920FB60F92F0
:101D800011242F933F938F939F93AF93BF93809191
:101D90009D0290919E02A0919F02B091A00230916D
:101DA0008A0123E0230F2D3720F40196A11DB11DD8
:101DB00005C026E8230F0296A11DB11D20938A01BC
:101DC00080939D0290939E02A0939F02B093A002E5
:101DD0008091860190918701A0918801B09189013D
:101DE0000196A11DB11D8093860190938701A09358
:101DF0008801B0938901BF91AF919F918F913F91DD
:101E00002F910F900FBE0F901F9018951F920F9259
:101E10000FB60F9211242F933F934F935F936F93BD
:101E20007F938F939F93AF93BF93EF93FF93E09133
:101E30000201F09103010995FF91EF91BF91AF91DC
:101E40009F918F917F916F915F914F913F912F91D2
:101E50000F900FBE0F901F9018951F920F920FB604
:101E60000F9211242F933F934F935F936F937F9320
:101E70008F939F93AF93BF93EF93FF93E0910001F4
:101E8000F09101010995FF91EF91BF91AF919F9161
:101E90008F917F916F915F914F913F912F910F9013
:101EA0000FBE0F901F9018951F920F920FB60F92B2
:101EB00011242F933F934F935F936F937F938F934F
:101EC0009F93AF93BF93EF93FF93E0918B01F091BA
:101ED0008C010995FF91EF91BF91AF919F918F91E7
:101EE0007F916F915F914F913F912F910F900FBE16
:101EF0000F901F9018954F925F926F927F928F92E2
:101F00009F92AF92BF92CF92DF92EF92FF92CF93C8
:101F1000DF9300D000D0CDB7DEB74C012A013B01E2
:101F20001092B0001092B1009091B0009260909326
:101F3000B0009091B10091609093B100229AA12CD1
:101F4000B12C60E072E18AE790E0A50194010E9463
:101F5000CC2229833A834B835C8369017A0121E097
:101F6000C21AD108E108F1088FEFC816D104E104C4
:101F7000F10409F008F485C060E472E48FE090E0B9
:101F8000A50194010E94CC2269017A0181E0C81A5E
:101F9000D108E108F1082FEFC216D104E104F104E1
:101FA00009F008F470C060E970ED83E090E0A501ED
:101FB00094010E94CC2269017A0181E0C81AD108FB
:101FC000E108F1082FEFC216D104E104F10409F091
:101FD00008F45BC068E478EE81E090E0A50194012C
:101FE0000E94CC2269017A0181E0C81AD108E10877
:101FF000F1082FEFC216D104E104F10409F008F44E
:1020000046C064E274EF80E090E0A50194010E9474
:10201000CC2269017A0181E0C81AD108E108F108EF
:102020002FEFC216D104E104F10499F190F162E1BD
:102030007AE780E090E0A50194010E94CC2269013A
:102040007A0181E0C81AD108E108F1082FEFC21621
:10205000D104E104F104F9F0F0F089819A81AB81B7
:10206000BC812AE0B595A795979587952A95D1F7D4
:102070006C017D0121E0C21AD108E108F10887E076
:102080000BC081E009C082E007C083E005C084E0A6
:1020900003C085E001C086E08093B1004114510483
:1020A00061047104A9F0ACE3B0E0A30192010E94C5
:1020B000EB2228EE33E040E050E00E94FE22209325
:1020C00080013093810140938201509383010BC0C2
:1020D0008FEF9FEFDC018093800190938101A093AB
:1020E0008201B0938301C092B3008091B0008F77DA
:1020F0008093B0008091B00080648093B0000F9016
:102100000F900F900F90DF91CF91FF90EF90DF90A5
:10211000CF90BF90AF909F908F907F906F905F9087
:102120004F9008952091BE02982F9695969596957A
:10213000E091C302F091C4028770629FB001112444
:10214000690F711DE60FF71F413061F420E830E0A0
:10215000A90102C0559547958A95E2F7CA01908179
:10216000892B19C041110CC02FE73FEFA90102C014
:10217000559547958A95E2F7CA01908189230BC04E
:1021800020E830E0A90102C0559547958A95E2F70D
:10219000CA01908189278083089580917F018823D7
:1021A00019F010927F0118C080917E01882319F0E8
:1021B00010927E0102C00E94580D87FF0BC0982F1D
:1021C0009F73906890937F01829586958695837022
:1021D000806C02C0882311F090E008958FEF9FEF8C
:1021E000089580917E0181110EC080917F0181113F
:1021F0000AC00E94580D982F80937E0181E09111B2
:1022000003C080E0089581E008950F931F93CF935A
:10221000DF9380915602909157022AEF289FE001A8
:10222000299FD00D11248E0106501F4F60E0C0176A
:10223000D1072CF4CE010E94BE222196F7CFC8010F
:10224000DF91CF911F910F910C94BE22CF93DF931A
:10225000EC010E94582220E330E040E050E00E9470
:10226000CC22605E7F4F8F4F9F4F0E94492468832E
:1022700079838A839B830E94582228E130E040E0E2
:1022800050E00E94CC22605E7F4F8F4F9F4F0E9494
:1022900049246C837D838E839F830E94582225E08E
:1022A00030E040E050E00E94CC226095709580952F
:1022B00090950E94492420E030E040E05FE30E94D6
:1022C0003D25688779878A879B87DF91CF9108951D
:1022D0002F923F924F925F926F927F928F929F9236
:1022E000AF92BF92CF92DF92EF92FF920F931F9324
:1022F000CF93DF9300D000D0CDB7DEB70E94B719DF
:102300000E94FD216EE670E00E941B268E5F89838D
:102310000E94FD2166E570E00E941B2612E0180F66
:10232000212C312C0E94F110811145C12FEF221A6E
:10233000320A8091540281118BC0B10180E090E09B
:102340000E9447246B017C0128E430E54CEF5BE3FD
:102350000E943D250E94AA254B015C0126E933E439
:102360004BE85CE3C701B6010E943D250E94AA2507
:102370002B013C0120E030E040EC51E4C501B40108
:102380000E943D2520E030E040E652E40E943023E8
:102390004B015C0120E030E040EA51E4C301B201AE
:1023A0000E943D259B01AC01C501B4010E94302370
:1023B0000E9418246A8320ED34E448ED5BE3C701F2
:1023C000B6010E943D250E94A1234B015C0124EF30
:1023D0003DEF44E55CE3C701B6010E943D250E9444
:1023E000AA256B017C0120E030E040EC51E4C501FE
:1023F000B4010E943D2520E030E040E352E40E9419
:1024000030234B015C0120E030E040E451E4C7019F
:10241000B6010E943D259B01AC01C501B4010E949B
:1024200030230E9418246C83C1016CED75E00E947A
:102430000726892B11F40E94B71901E02C814A81EB
:10244000612F89810E9414181C818A8189836ACF37
:10245000813009F067CFE4E9F1E0FB83EA83EA81A8
:10246000FB8164817581868197810E941824F62EF4
:10247000EA81FB8160817181828193810E941824AD
:10248000862F40E06F2D0E94E916EA81FB81C08013
:10249000D180E280F3804084518462847384A701F8
:1024A000960160E070E080E692E40E942F23A30191
:1024B00092010E943D2520E030E048EC52E40E9469
:1024C000A623A70196010E9430236B017C01EA81BB
:1024D000FB81608371838283938384809580A6804F
:1024E000B780A501940160E070E080E392E40E946F
:1024F0002F23A30192010E943D2520E030E048EC0B
:1025000052E40E94A623A50194010E9430234B01AE
:102510005C01EA81FB81648375838683978320E075
:1025200030E048ED52E4C701B6010E943825181684
:10253000F4F020E030E040E850E4C701B6010E942A
:102540009C2387FD14C020E030E048EA52E4C50136
:10255000B4010E943825181654F020E030E040E81D
:1025600050E4C501B4010E949C2387FF04C08A8106
:102570009B810E942611EA81FB816481758186819D
:1025800097810E941824F62EEA81FB816081718177
:10259000828193810E941824862F41E06F2D0E9432
:1025A000E9168A819B810C969B838A83845592408D
:1025B00009F055CFB7CE0F900F900F900F90DF918D
:1025C000CF911F910F91FF90EF90DF90CF90BF9030
:1025D000AF909F908F907F906F905F904F903F90C3
:1025E0002F900895811151C048EC50E060E070E0F8
:1025F00088EE93E00E947B0F2FEF89EF90E021504F
:1026000080409040E1F700C0000048EC50E060E0FE
:1026100070E080ED97E00E947B0F2FEF89EF90E054
:10262000215080409040E1F700C0000044EF51E0AD
:1026300060E070E08CE291E00E947B0F2FEF89EF69
:1026400090E0215080409040E1F700C0000048EC4D
:1026500050E060E070E08CED95E00E947B0F8FE32E
:102660009CE90197F1F700C0000048EC50E060E001
:1026700070E088EB9BE00E947B0F9FEF29EF80E0EA
:10268000915020408040E1F78BC0813039F442E323
:1026900050E060E070E084E690E07CC0823089F534
:1026A00044E650E060E070E085E091E00E947B0F3E
:1026B0008FE39CE90197F1F700C0000044E650E089
:1026C00060E070E089E491E00E947B0F8FE39CE979
:1026D0000197F1F700C0000044E650E060E070E0D0
:1026E00088E891E00E947B0F8FE39CE90197F1F766
:1026F00000C0000048EC50E060E070E08BE092E049
:1027000049C0833019F544E650E060E070E088E8A5
:1027100091E00E947B0F8FE39CE90197F1F700C0E5
:10272000000044E650E060E070E089E491E00E943F
:102730007B0F8FE39CE90197F1F700C0000048ECA4
:1027400050E060E070E085E091E024C0843051F515
:1027500046E950E060E070E089E491E00E947B0F80
:102760008FE39CE90197F1F700C000004BE450E0D3
:1027700060E070E089E491E00E947B0F8FE39CE9C8
:102780000197F1F700C000004BE450E060E070E01A
:1027900088E891E00E947B0F8FE39CE90197F1F7B5
:1027A00000C0000008954F925F926F927F928F92C7
:1027B0009F92AF92BF92CF92DF92EF92FF920F93D0
:1027C0001F93CF93DF9380E00E94D119809155022F
:1027D0008230F9F0833051F1813071F078E5C72E05
:1027E00072E0D72EA12CB12C13E0E4E2FE2EFBEA1E
:1027F0007F2EA6E16A2E50C0C4E020E04EE650E0F5
:1028000062E070E08C2F0E94FB16CA5FC835A9F702
:10281000E5CFC4E020E046E550E062E070E08C2FB8
:102820000E94A817CA5FC037A9F7D8CF0E94FD2120
:102830006EE770E00E941B2612E0180F0E94FD2137
:102840006EE570E00E941B26C2E0C80F4EE0C42E69
:10285000D12C5EE7852E912C6EE5A62EB12C0E9420
:10286000FD21B4010E941B2632E0F32EF80E0E94D7
:10287000FD21B5010E941B26D2E0D80F00E02D2FCC
:102880004F2D6C2F812F0E94141881E0C81AD10897
:102890001F2DCD2F21F7A2CFF60180818F3FF1F1BF
:1028A0008090A102912CC3818C2F612F0E94FB2567
:1028B0009F9D902D1124D3E0D90FC79DC12D1124C8
:1028C000C695C69DC02D112484E1482E4C0ECA5ECB
:1028D00025E0522E590EE12C00E020E140E26C2F61
:1028E000852D0E9403198A149B0419F0EE24E394A9
:1028F00000E020E140E2642D8D2F0E9403195092E8
:10290000B002C093B102F6016181728186EA92E061
:102910000E94AF2286EA92E00E94DD16FFEFAF1A16
:10292000BF0A85E0C80ED11CE9E0AE16B10409F07B
:10293000B3CF84E18093B00282E08093B10266E875
:1029400074E085E892E00E94AF2285E892E00E9460
:10295000DD166CE070E080E090E0DF91CF911F9198
:102960000F91FF90EF90DF90CF90BF90AF909F902E
:102970008F907F906F905F904F900C94831ACF93BD
:1029800010924901C0914901C83560F420E040E748
:1029900050E060E070E08C2F0E94FB16CE5FC09389
:1029A0004901F0CF10924801C0914801C03760F44E
:1029B00020E048E550E060E070E08C2F0E94A8170E
:1029C000CE5FC0934801F0CFCF910895EF920F935F
:1029D00081E00E94D119E12C00E028E24CE36DE196
:1029E0008EE10E940319EE24E39428E24CE369E1AE
:1029F0008AE10E940319E12C20E030E046EF50E02C
:102A00006BE18CE10E944A1520E030E046E850E09E
:102A10006AE480E10E944A152FEF89E698E121508F
:102A200080409040E1F700C000000F91EF900895C2
:102A30002091B1023091BD02E091B202F091B30257
:102A400031966491422F50E0832F90E0861B9109CC
:102A500048175907D4F0E4918091C3029091C402C1
:102A60002091BE02DC01E29FA00DB11D1124AC013A
:102A7000329F400D511D11249A01FC01A217B3078A
:102A800040F48C9181931D92F9CFE491E20FE09391
:102A9000B10208952F923F924F925F926F927F9270
:102AA0008F929F92AF92BF92CF92DF92EF920F934D
:102AB0001F93CF93DF93CDB7DEB728970FB6F89467
:102AC000DEBF0FBECDBF5A01482F477078E0741BA0
:102AD000011106C0F501E20FF31F04912F5F3F4F74
:102AE000E11006C0F501E20FF31FE4902F5F3F4FA6
:102AF000902F9770E02FE695E695E695992311F0D3
:102B0000EF5F01C098E0869586958695A82FB0E086
:102B1000BC83AB83642E712C4301890E911C8FEF13
:102B200090E0AC01082C02C0559547950A94E2F755
:102B3000A72FB0E0BA83A98301C0880F7A95EAF77E
:102B4000E13011F44D8301C01D82BD81B82BB887DF
:102B5000D40118978FEF90E002C095958795AA95BC
:102B6000E2F78F83C12CD12C862F90E09E838D833A
:102B70002E2E312C91E0291A3108CE1408F090C085
:102B80005091BE028D819E818C0D9D1D589FD0015C
:102B9000599FB00D11248B819C81A80FB91FE09122
:102BA000AE02F091AF02EA0FFB1F508188858523AA
:102BB0008083B9016F5F7F4FF501E20FF31F8491AE
:102BC000E091AE02F091AF02EA0FFB1F082F10E078
:102BD000062C02C0159507950A94E2F79081092BFF
:102BE00000832101460E571E8D01021B130BD801D5
:102BF000A60FB71F2091AE023091AF0290E064158E
:102C0000750510F5F901EA0FFB1F5081098001C01D
:102C1000880F0A94EAF78083F501E60FF71F849185
:102C20002091AE023091AF02A20FB31F282F30E0E7
:102C3000062C02C0359527950A94E2F79C91292B22
:102C40002C936F5F7F4FD3CFE8E08E16910448F44A
:102C5000FD013197E20FF31F54232081522B508343
:102C60000BC058E08516910439F0F901EA0FFB1FFB
:102C700020813F81232320832091AE023091AF0237
:102C8000A20FB31F098002C0880F991F0A94E2F7B0
:102C9000EC918E2B8C935FEFC51AD50A9B016DCFFB
:102CA00028960FB6F894DEBF0FBECDBFDF91CF914F
:102CB0001F910F91EF90DF90CF90BF90AF909F90BA
:102CC0008F907F906F905F904F903F902F900895DE
:102CD000EF920F93242F4091B2025091B302FA0168
:102CE0003296E491922F9E1B9A012F5F3F4FF9017C
:102CF000E490FA010491F9012491929F900111242A
:102D00002D5F3F4F0E944A150F91EF900895CF938A
:102D10008A30D9F0A8F4882309F44DC08830E9F44A
:102D2000E091B202F091B302E4918091B0028E1B67
:102D30008093B00240E26091B102CF910C9468168A
:102D40008D3041F08E30B9F108C01092B002CF91B1
:102D50000C9418151092B0022EC0C82F8091B002AA
:102D60002091BE02E091B202F091B302E491482FAB
:102D700050E098E0299F900111242E1B310924175F
:102D8000350754F41092B0020E9418154C2F609130
:102D9000B1028091B00203C04C2F6091B1020E9439
:102DA0006816E091B202F091B302E4918091B00212
:102DB000E80FE093B002CF910895CF93DF93EC0139
:102DC0008991882319F00E948716FACFDF91CF915D
:102DD00008952091BE02E82FF0E098E0299F90012D
:102DE0001124E217F30734F49091BD02691710F42F
:102DF0000C94921008950F931F93CF93DF93FB01D0
:102E00006417750749F4422F682F8E2FDF91CF91F9
:102E10001F910F910C94E9164617570718F477275E
:102E2000FA01AB01BF01677077270FEF10E0E801EF
:102E300002C0D595C7956A95E2F79C2F33E0F695C9
:102E4000E7953A95E1F76091BE02689FB0011124C1
:102E5000E60FF71FDA01A770BB2702C0159507958B
:102E6000AA95E2F7302F3095DA0143E0B695A795A1
:102E70004A95E1F76A0F7B1FE617F70711F49323D2
:102E800030E02130F1F4DF0111964091AE02509113
:102E9000AF02E40FF51F8081982B90832FEF809174
:102EA000AE029091AF02A617B70730F4FC01EA0F0B
:102EB000FB1F20831196F3CFA80FB91F8C91382BDD
:102EC00041C021111FC0DF0111964091AE02509107
:102ED000AF02E40FF51F9095808198239083809135
:102EE000AE029091AF02A617B70730F4FC01EA0FCB
:102EF000FB1F10821196F3CFA80FB91F30958C914C
:102F0000382320C02230F9F4DF0111964091AE023F
:102F10005091AF02E40FF51F808198279083809134
:102F2000AE029091AF02A617B70740F4FC01EA0F7A
:102F3000FB1F8081809580831196F1CFA80FB91F68
:102F40008C9138273C93DF91CF911F910F91089579
:102F5000CF93DF936417750729F4422FDF91CF9148
:102F60000C94E9164617570720F4FB01FF27BA0116
:102F7000AF01982F9770E0E8F0E002C0F595E79573
:102F80009A95E2F73E2F9091BE02969FD001979FAF
:102F9000B00D1124869586958695ED01C80FD11D3B
:102FA000CE01213099F446175707D8F1E091AE02CF
:102FB000F091AF02E80FF91F2081232B208320918D
:102FC000BE02820F911D6F5F7F4FEDCF211114C0A4
:102FD000E0954617570728F1A091AE02B091AF02D5
:102FE000A80FB91F2C912E232C932091BE02820F83
:102FF000911D6F5F7F4FEDCF223099F44617570731
:1030000080F0E091AE02F091AF02E80FF91F20814D
:10301000232720832091BE02820F911D6F5F7F4F77
:10302000EDCFDF91CF9108952F923F924F925F9213
:103030006F927F928F929F92AF92BF92CF92DF92C8
:10304000EF92FF920F931F93CF93DF9300D000D0A6
:10305000CDB7DEB7962F322F202FE82EF12C6091BE
:10306000BE0258E0659FB00111246E157F050CF477
:10307000B3C05091BD02591708F4AEC0E42FF0E080
:10308000FC83EB836E177F070CF4A6C0531708F47C
:10309000A3C084131CC0432F50E0692F70E00F9031
:1030A0000F900F900F90DF91CF911F910F91FF9094
:1030B000EF90DF90CF90BF90AF909F908F907F90D8
:1030C0006F905F904F903F902F900C94A8179313A0
:1030D0001CC04B815C81B701892F0F900F900F901E
:1030E0000F90DF91CF911F910F91FF90EF90DF90A4
:1030F000CF90BF90AF909F908F907F906F905F9098
:103100004F903F902F900C94FB16C92ED12C48174E
:1031100048F4A7016B817C81461B570B5C834B8372
:103120008FEF07C0EB81FC81EE19FF09FC83EB8375
:1031300081E0432E512C391730F4A601441955096A
:103140002A019FEF03C04C185D0891E06B817C81E0
:10315000641575054CF44B813C815C824B82442E96
:10316000532E71E0798301C019822A83440C551CC7
:103170005201EB81FC81AE1ABF0A1F01220C331CE5
:10318000812C912C692E990F7708082F880F110B2D
:103190002B813C8128153905FCF04A816C2D8E2D40
:1031A0000E949210B7FC0AC03981313019F4E00E48
:1031B000F11E02C0C60CD71CA218B30849814130C9
:1031C00019F4C60CD71C02C0E00EF11EA40CB51CED
:1031D0005FEF851A950ADCCF0F900F900F900F903C
:1031E000DF91CF911F910F91FF90EF90DF90CF90E3
:1031F000BF90AF909F908F907F906F905F904F9017
:103200003F902F9008956F927F928F929F92AF92EE
:10321000BF92DF92EF92FF920F931F93CF93DF93B2
:10322000F82E162FD42FC22FD02E8FEFE816B9F01C
:10323000062FA22EB12CA60EB11C6F2C712C4301AF
:10324000840E911C802F90E08A159B0544F42E2D4E
:10325000A401B301802F0E94FB160F5FF3CFDF0D97
:103260000D2D212F4D2F612F8F2D0E941418C10F6E
:103270002C2F4F2D612F8F2D0E9414182C2F4D2F86
:10328000612F8D2F0E9414182C2F4D2F6C2F8F2DF6
:103290000E941418DF91CF911F910F91FF90EF9032
:1032A000DF90BF90AF909F908F907F906F90089528
:1032B000EF92FF920F931F93CF93DF93F82E162F69
:1032C000982F969588E3D82FD91B6D3230F4862F2E
:1032D00086952CE2C22FC81B01C0C4E064E06C0FCD
:1032E000E12C00E0212F4F2D8CE3891B0E94031954
:1032F00001E0212F4F2D6C2F8D2F0E9403191C0FE1
:1033000084E0F82EF10E00E02CE044E26F2D8AE21A
:103310000E940319EE24E3942CE044E2612F86E23C
:103320000E9403198EE28093B002F092B10266EE21
:1033300070E186EA92E00E94AF2286EA92E00E9463
:10334000DD168D2F90E0AC014C5F5F4F2C2F30E0ED
:103350002C5F3F4F4093B0022093B102BA01C901E4
:10336000DF91CF911F910F91FF90EF9008951092F0
:10337000B0021092B10280E090E02091BE02309144
:10338000BD02239F90011124821793074CF4E09112
:10339000C302F091C402E80FF91F10820196EDCF2D
:1033A0000895EF920F93CF931092B0021092B10252
:1033B00020E030E06FEF9091BE024091BD02949FFB
:1033C000A00111242417350754F4E091C302F091B1
:1033D000C402E20FF31F60832F5F3F4FECCF8111D8
:1033E00083C020E046E050E060E070E080E00E94B2
:1033F000A81720E043E050E060E070E081E00E9428
:10340000A81720E046E050E060E070E080E00E9415
:10341000FB1620E043E050E060E070E081E00E94B5
:10342000FB1620E046E050E060E070E08FE60E948E
:10343000A81720E043E050E060E070E08EE60E94D4
:10344000A81720E040E750E06AE670E080E00E94C4
:10345000FB1620E040E750E06DE670E081E00E945E
:10346000FB1620E048E550E062E570E080E00E9455
:10347000A81720E048E550E065E570E081E00E9493
:10348000A81720E043E050E060E070E086E50E948D
:10349000FB1620E046E050E060E070E087E50E9427
:1034A000FB1620E048E550E062E570E08FE60E9400
:1034B000A81720E048E550E065E570E08EE60E9440
:1034C000A81720E040E750E06AE670E087E50E9438
:1034D000FB1620E040E750E06DE670E086E5CF9116
:1034E0000F91EF900C94FB16C0E0E12C00E020E07F
:1034F00030E04EEE50E160E08C2F0E944A15C85F2C
:10350000C03799F76ECF8F929F92AF92BF92CF92B2
:10351000DF92EF92FF920F931F93CF93DF93CDB77C
:10352000DEB7A0970FB6F894DEBF0FBECDBF6B011C
:103530007C0197FF0BC08DE20E948716F094E09407
:10354000D094C094C11CD11CE11CF11CC701B60170
:10355000CD28CE28CF28A9F480E3A0960FB6F89402
:10356000DEBF0FBECDBFDF91CF911F910F91FF90B6
:10357000EF90DF90CF90BF90AF909F908F900C9482
:1035800087168E010F5F1F4FC12CD12C76012AE0C8
:10359000822E912CA12CB12C2FEFC21AD20AE20A52
:1035A000F20AA50194010E94FE22F80161938F01A5
:1035B000B901CA01611571058105910569F7F1E04D
:1035C000CF1AD108E108F108FE01EC0DFD1D818143
:1035D0008A3010F4805D01C0895C0E948716C11496
:1035E000D104E104F10459F7A0960FB6F894DEBFB8
:1035F0000FBECDBFDF91CF911F910F91FF90EF9044
:10360000DF90CF90BF90AF909F908F900895CF9311
:10361000DF93CDB7DEB7CB5FD1090FB6F894DEBF2D
:103620000FBECDBF789484B5826084BD84B58160BF
:1036300084BD85B5826085BD85B5816085BD80917D
:103640006E00816080936E001092810080918100F5
:1036500082608093810080918100816080938100ED
:10366000809180008160809380008091B1008460AF
:103670008093B1008091B00081608093B000809110
:103680007A00846080937A0080917A0082608093CF
:103690007A0080917A00816080937A0080917A002C
:1036A000806880937A001092C10060E08EE00E94F2
:1036B000800E80ED94E00E9490209093AF02809362
:1036C000AE02009709F458C01092B0021092B102F5
:1036D0009093C4028093C3028EE08093BE0288E57B
:1036E0008093BD021092B6021092B7021092B802F7
:1036F0001092B90281E08093C0028093C1022AE057
:103700003CE030938E0120938D01579A219A5F9867
:10371000299A239A92EC9093800099E190938100EA
:1037200094E49093BA0297EC9093BF0297E0909341
:10373000C20228E331E03093BC022093BB022FEF9A
:1037400033E030938700209386002AE430E0309302
:1037500089002093880029E331E03093B50220935B
:10376000B40227E53CE030938C0120938B018093D9
:103770006F0078940E94B7198EE895E09093B30299
:103780008093B2020E94B71988E0809393018DE87C
:1037900092E0909392018093910162E083E00E9415
:1037A000800E62E088E00E94800E109290011092DC
:1037B0008F0181ED9DE09093030180930201809140
:1037C0006900837F886080936900E99A80E4809330
:1037D0007C0080917A00806480937A0080917A00E6
:1037E00086FDFCCF6091780070917900072E000C67
:1037F000880B990B611571058105910511F00E94E7
:10380000A62280E00E94F2120E94E61404E911E070
:1038100064E5E62E62E0F62EC8010E942611045FE0
:103820001F4FE016F106C1F7E8E5F2E085E892E007
:103830002FEF208335968E179F07D9F710925802E5
:1038400085E892E090935A028093590210925B02AD
:1038500010925C0281E080935D022DE732E03093AC
:103860005F0220935E02809360021092610292E0F8
:103870009093620225E732E0309364022093630262
:10388000909365028093660293E0909367022DE621
:1038900032E0309369022093680290936A0210929A
:1038A0006B0294E090936C022EE730E130936E024D
:1038B00020936D0290936F028093700285E0809355
:1038C000710225E632E030937302209372028093F6
:1038D00074021092750286E0809376022DE532E044
:1038E00030937802209377028093790210927A02C3
:1038F00087E080937B0225E532E030937D022093C0
:103900007C0280937E0210927F020E94D3139E015C
:103910002F5F3F4F690186E491E0C550DF4F8883F8
:10392000CB5FD0404AEF542E50E0252E50E0352E8C
:103930000E94F110882309F4CCC30E94CD108D3071
:1039400009F084C38091A102853009F447C308F0CF
:1039500057C0823009F444C138F4882309F472C096
:10396000813009F49BC060C3833009F425C28430E0
:1039700009F05AC380E00E94D11980E38093B0021D
:1039800011E01093B1026EE770E185E892E00E94C9
:10399000AF2285E892E00E94DD1684E48093B002B5
:1039A0001093B10266E670E185E892E00E94AF22D2
:1039B00085E892E00E94DD16E0905602F0905702F2
:1039C0003701FFEF6F1A7F0AB301072C000C880B39
:1039D000990B0E94831AC550DF4F4880CB5FD040BF
:1039E0001092B00288E08093B1025E9C40015F9C1F
:1039F000900C1124560100E010E08C189D087DC247
:103A0000843609F402C338F4863009F404C38730DD
:103A100009F4FBC209C3853609F4FDC2883C09F0EC
:103A200003C30E94BF146EE088E50E94581966E83F
:103A300070E185E892E00E94AF2285E892E00E9462
:103A4000DD16EFC20E94BF146EE088E50E9458198F
:103A50006EEC70E185E892E00E94AF2285E892E08A
:103A60000E94DD168091C5029091C602009711F464
:103A700089EC92E0B601681B790B072E000C880BCD
:103A8000990B0E94831A66EB70E185E892E00E9430
:103A9000AF2285E892E00E94DD16B5C20E94BF14F5
:103AA00066E484E60E945819162F082F6093B0022E
:103AB0008093B1026EE974E085E892E00E94AF2243
:103AC00085E892E00E94DD161093B0028AE0800F34
:103AD0008093B10266E874E085E892E00E94AF222C
:103AE00085E892E00E94DD166CE070E080E090E0F6
:103AF0000E94831A1093B00284E1800F8093B10278
:103B00006EE674E085E892E00E94AF2285E892E0DC
:103B10000E94DD163EE1F32EF00E1093B002F092FB
:103B2000B10266E574E085E892E00E94AF2285E884
:103B300092E00E94DD1684E1810F8093B002F09242
:103B4000B1028091C5029091C602009711F489ECF0
:103B500092E0F601E81BF90B60E078E06E1B7F0B4A
:103B6000072E000C880B990B0E94831A28E2F22E74
:103B7000F00E1093B002F092B1026EE374E085E8AB
:103B800092E00E94AF2285E892E00E94DD168CE16F
:103B9000810F8093B002F092B10260E770E080E0A4
:103BA00090E00E94831A84E3810F8093B002F09228
:103BB000B10268E570E080E090E00E94831A109303
:103BC000B002065C0093B10266E274E085E892E020
:103BD0000E94AF2285E892E00E94DD1680E022C2BA
:103BE0000E94BF14A09055026CE388E50E9458190A
:103BF000062F182F66E775E085E892E00E94AF2255
:103C000085E892E00E94DD1680915502813059F0DE
:103C100038F0823059F0833079F466E175E008C0FD
:103C20006EE575E005C066E475E002C06EE275E021
:103C300085E892E00E94AF2298E0B92EB10EE02E06
:103C40000093B002B092B10285E892E00E94DD16C6
:103C50000093B00284E1810F8093B1026EEF74E0B3
:103C600085E892E00E94AF2285E892E00E94DD168E
:103C700080915402882329F0813049F46EEC74E07D
:103C800002C066EE74E085E892E00E94AF228CE10B
:103C9000F82EF10E0093B002F092B10285E892E0A6
:103CA0000E94DD160093B002145D1093B10266EB22
:103CB00074E085E892E00E94AF2285E892E00E94DD
:103CC000DD1682E00E94F2120E94F1108823E1F3D7
:103CD00011E00EE00E94CD10882309F4A5C18830C0
:103CE00059F480915502882319F081508093550230
:103CF00081E00E94F21223C0853131F48091550297
:103D00008330B0F78F5FF2CF8B3041F48091540253
:103D1000882371F3815080935402EACF8A3039F4BA
:103D2000809154028111E4CF10935402E1CF8B3182
:103D300019F4A092550275C18D3009F464C18091C7
:103D40005502813059F038F0823059F0833079F4DF
:103D500066E175E008C06EE575E005C066E475E0F3
:103D600002C06EE275E085E892E00E94AF22E09228
:103D7000B002B092B10285E892E00E94DD16009395
:103D8000B002FAE2F093B10280915402882329F044
:103D9000813049F46EEC74E002C066EE74E085E8B0
:103DA00092E00E94AF22E092B002F092B10285E868
:103DB00092E00E94DD168ECF0E94B719E12C00E040
:103DC00020E030E044E45CE060E08BE10E944A15D2
:103DD0002FEF33EF81E0215030408040E1F700C009
:103DE000000046E950E060E070E089E491E00E9464
:103DF0007B0F9FEFE6E7F1E09150E040F040E1F704
:103E000000C0000020E030E046E15CE068E18CE0CA
:103E10000E944A154BE450E060E070E089E491E0D4
:103E20000E947B0F2FEF36E781E021503040804029
:103E3000E1F700C000009FEFE1EEF4E09150E040B8
:103E4000F040E1F700C0000023E138E03093B30216
:103E50002093B2026BEF77E085E892E00E94AF22F8
:103E600014E01093B0028AE38093B10285E892E0F7
:103E70000E94DD1663EE77E085E892E00E94AF22B3
:103E80001093B00284E48093B10285E892E00E942E
:103E9000DD166BEC77E085E892E00E94AF2210938C
:103EA000B0028EE48093B10285E892E00E94DD16B4
:103EB0008EE895E09093B3028093B2024BE450E019
:103EC00060E070E088E891E00E947B0FEFE3FCE99E
:103ED0003197F1F700C00000A7C00A3F110579F043
:103EE000C4018A0D9B1D0E94B622482E0F5F1F4FF2
:103EF000F50181935F010E9487164110EECF0150BA
:103F000011090E94F1108823E1F358010E94CD109D
:103F1000882309F45FC08D3011F52091560230914D
:103F200057020A151B0584F4F601E00FF11F529E9B
:103F3000C001539E900D11246081800F911F0E943B
:103F4000BE220F5F1F4FE9CF529EC001539E900DBE
:103F5000112460E08A0D9B1D0E94BE223BC08B3164
:103F6000C9F18830B9F18531A9F196EF980F9230F7
:103F700088F18A3159F41E141F0464F5F1E0EF1A38
:103F8000F108F0925702E092560224C0893149F4B8
:103F900023E0E216F104F4F47092570260925602A4
:103FA00019C08F3719F40E94051114C03AEFA316F7
:103FB000B10459F045019FEF891A990AF601EA0DFB
:103FC000FB1D80830E94871654010E94F1108823F4
:103FD000E1F39CCFC6010E94282126C00E94BF1495
:103FE0006EE088E50E9458196EE970E185E892E07C
:103FF0000E94AF2285E892E00E94DD1684E00E94D4
:10400000F2120E94051182E00DC082E00E94F212BD
:104010000E94681109C082E00E94F2120E94E61418
:1040200003C083E00E94F212E091A10225E0E29F2A
:10403000F0011124E85AFD4F8481811135C00E949E
:10404000F1108823E1F30E94CD102EC08B3111F4C2
:1040500084E028C0883031F48091A102882331F1B6
:1040600081501DC0853131F48091A1028730F0F478
:104070008F5F15C08B3049F48091A102282F30E06A
:10408000233031059CF083500AC08A3079F4809146
:10409000A102282F30E02530310544F48D5F809354
:1040A000A10281E00E94F2120E94D3132FB7F8946C
:1040B00080919D0290919E02A0919F02B091A002DA
:1040C0002FBF8093A2029093A302A093A402B09367
:1040D000A5022FB7F89480919D0290919E02A09125
:1040E0009F02B091A0022FBF4091A2025091A30263
:1040F0006091A4027091A502841B950BA60BB70BCF
:1041000081369A4EA105B10520F00E9468110E94E7
:10411000D3132114310409F40BCC0E940000FBCB13
:104120000F931F93CF93DF938230910510F482E0B9
:1041300090E0E091C702F091C80220E030E0A0E0FA
:10414000B0E0309719F14081518102811381481705
:104150005907C8F08417950769F4109731F0129643
:104160000C93129713961C9327C00093C7021093C9
:10417000C80222C02115310519F04217530718F45F
:104180009A01BD01EF01DF01F801DBCF21153105F7
:10419000F9F0281B390B2430310580F48A819B818A
:1041A0006115710521F0FB019383828304C0909314
:1041B000C8028093C702FE01329644C0FE01E20F9E
:1041C000F31F8193919322503109398328833AC098
:1041D0002091C5023091C602232B41F420910601A3
:1041E000309107013093C6022093C502209104014B
:1041F000309105012115310541F42DB73EB74091AD
:10420000080150910901241B350BE091C502F09182
:10421000C602E217F307A0F42E1B3F0B281739073D
:1042200078F0AC014E5F5F4F2417350748F04E0F12
:104230005F1F5093C6024093C5028193919302C0C1
:10424000E0E0F0E0CF01DF91CF911F910F91089551
:10425000CF93DF93009709F481C0FC01329713825A
:104260001282A091C702B091C802109781F42081F8
:104270003181820F931F2091C5023091C602281709
:10428000390751F5F093C602E093C50267C0ED010E
:1042900020E030E0CE17DF0740F44A815B819E01C9
:1042A00041155105F1F0EA01F5CFD383C283408176
:1042B0005181840F951FC817D90759F488819981B6
:1042C000840F951F0296918380838A819B819383BB
:1042D00082832115310529F4F093C802E093C702C7
:1042E0003DC0E901FB83EA8349915991C40FD51F71
:1042F000EC17FD0761F480819181840F951F029670
:10430000E90199838883828193819B838A83E0E09A
:10431000F0E012968D919C911397009719F0FD0192
:10432000DC01F7CF8D919C9111979D012E5F3F4F3E
:10433000820F931F2091C5023091C60228173907BA
:1043400069F4309729F41092C8021092C70202C093
:1043500013821282B093C602A093C502DF91CF915F
:1043600008958F929F92AF92BF92CF92DF92EF9279
:10437000FF92CF93DF93EC01688179818A819B81E1
:10438000611571058105910521F464E279ED8BE5F4
:1043900097E02DE133EF41E050E00E94CC2249014B
:1043A0005A019B01AC01A7EAB1E40E94EB226B0128
:1043B0007C01ACEEB4EFA50194010E94F922DC016E
:1043C000CB018C0D9D1DAE1DBF1DB7FF03C0019716
:1043D000A109B04888839983AA83BB839F77DF9123
:1043E000CF91FF90EF90DF90CF90BF90AF909F90D4
:1043F0008F9008950E94B12108958AE091E00E9473
:10440000B1210895A0E0B0E080930A0190930B01E0
:10441000A0930C01B0930D0108958F929F92AF92DB
:10442000BF92CF92DF92EF92FF92CF93DF93EC0196
:10443000688179818A819B8161157105810591056A
:1044400021F464E279ED8BE597E02DE133EF41E073
:1044500050E00E94CC2249015A019B01AC01A7EA1D
:10446000B1E40E94EB226B017C01ACEEB4EFA5013C
:1044700094010E94F922DC01CB018C0D9D1DAE1D23
:10448000BF1DB7FF03C00197A109B0488883998376
:10449000AA83BB83BC01CD019F77DF91CF91FF90B1
:1044A000EF90DF90CF90BF90AF909F908F90089546
:1044B0008F929F92AF92BF92CF92DF92EF92FF9234
:1044C00060910E0170910F01809110019091110186
:1044D000611571058105910521F464E279ED8BE5A3
:1044E00097E02DE133EF41E050E00E94CC224901FA
:1044F0005A019B01AC01A7EAB1E40E94EB226B01D7
:104500007C01ACEEB4EFA50194010E94F922DC011C
:10451000CB018C0D9D1DAE1DBF1DB7FF03C00197C4
:10452000A109B04880930E0190930F01A093100150
:10453000B0931101BC01CD019F77FF90EF90DF9008
:10454000CF90BF90AF909F908F90089560930E0191
:1045500070930F0180931001909311010895FB0156
:10456000DC0105900D920020E1F70895F999FECF46
:1045700092BD81BDF89A992780B50895262FF999A3
:10458000FECF1FBA92BD81BD20BD0FB6F894FA9A36
:10459000F99A0FBE01960895052E97FB1EF400941C
:1045A0000E94E32257FD07D00E94FE2207FC03D0A1
:1045B0004EF40C94E32250954095309521953F4F51
:1045C0004F4F5F4F089590958095709561957F4FFF
:1045D0008F4F9F4F08950E942023A59F900DB49F59
:1045E000900DA49F800D911D11240895B7FF0C9488
:1045F000EB220E94EB22821B930B0895A1E21A2E5C
:10460000AA1BBB1BFD010DC0AA1FBB1FEE1FFF1F76
:10461000A217B307E407F50720F0A21BB30BE40BC6
:10462000F50B661F771F881F991F1A9469F760950D
:104630007095809590959B01AC01BD01CF010895C7
:10464000A29FB001B39FC001A39F700D811D1124D3
:10465000911DB29F700D811D1124911D0895505818
:10466000BB27AA270E9447230C94EA240E94B12466
:1046700038F00E94B82420F039F49F3F19F426F452
:104680000C94AE240EF4E095E7FB0C94A824E92FDB
:104690000E940F2558F3BA1762077307840795071E
:1046A00020F079F4A6F50C9431250EF4E0950B2E4C
:1046B000BA2FA02D0B01B90190010C01CA01A00174
:1046C0001124FF27591B99F0593F50F4503E68F1CF
:1046D0001A16F040A22F232F342F4427585FF3CF10
:1046E000469537952795A795F0405395C9F77EF4E1
:1046F0001F16BA0B620B730B840BBAF09150A1F02A
:10470000FF0FBB1F661F771F881FC2F70EC0BA0FAF
:10471000621F731F841F48F4879577956795B79537
:10472000F7959E3F08F0B0CF9395880F08F0992732
:10473000EE0F9795879508950E94842408F481E0F0
:1047400008950E94C124E3950C94FB240E94BA238F
:104750000C94EA240E94B82458F00E94B12440F03E
:1047600029F45F3F29F00C94A82451110C943225B0
:104770000C94AE240E940F2568F39923B1F35523BE
:1047800091F3951B550BBB27AA2762177307840764
:1047900038F09F5F5F4F220F331F441FAA1FA9F3FA
:1047A00035D00E2E3AF0E0E832D091505040E695E8
:1047B000001CCAF72BD0FE2F29D0660F771F881F49
:1047C000BB1F261737074807AB07B0E809F0BB0B3C
:1047D000802DBF01FF2793585F4F3AF09E3F510550
:1047E00078F00C94A8240C9432255F3FE4F3983EB3
:1047F000D4F3869577956795B795F7959F5FC9F739
:10480000880F911D9695879597F90895E1E0660FB9
:10481000771F881FBB1F621773078407BA0720F032
:10482000621B730B840BBA0BEE1F88F7E09508959B
:104830000E94172588F09F5798F0B92F9927B751F4
:10484000B0F0E1F0660F771F881F991F1AF0BA9534
:10485000C9F714C0B13091F00E943125B1E008953C
:104860000C943125672F782F8827B85F39F0B93F2E
:10487000CCF3869577956795B395D9F73EF49095E7
:104880008095709561957F4F8F4F9F4F0895E89465
:1048900009C097FB3EF490958095709561957F4F88
:1048A0008F4F9F4F9923A9F0F92F96E9BB27939536
:1048B000F695879577956795B795F111F8CFFAF446
:1048C000BB0F11F460FF1BC06F5F7F4F8F4F9F4F77
:1048D00016C0882311F096E911C0772321F09EE8D5
:1048E000872F762F05C0662371F096E8862F70E03B
:1048F00060E02AF09A95660F771F881FDAF7880F15
:104900009695879597F90895990F0008550FAA0B6A
:10491000E0E8FEEF16161706E807F907C0F01216D2
:104920001306E407F50798F0621B730B840B950BD5
:1049300039F40A2661F0232B242B252B21F408952A
:104940000A2609F4A140A6958FEF811D811D0895C7
:1049500097F99F6780E870E060E008959FEF80EC32
:10496000089500240A9416161706180609060895D5
:1049700000240A94121613061406050608950C94D2
:10498000AE240E941725D8F3E894E0E0BB279F5798
:10499000F0F02AED3FE049EC06C0EE0FBB0F661FBA
:1049A000771F881F28F0B23A62077307840728F040
:1049B000B25A620B730B840BE3959A9572F78038A9
:1049C00030F49A95BB0F661F771F881FD2F7904867
:1049D0000C94B425092E0394000C11F4882352F092
:1049E000BB0F40F4BF2B11F460FF04C06F5F7F4F1B
:1049F0008F4F9F4F0895EF93E0FF07C0A2EA2AED83
:104A00003FE049EC5FEB0E9447230E94EA240F90AD
:104A1000039401FC9058E8E6F0E00C94C02557FDA3
:104A20009058440F551F59F05F3F71F04795880F1C
:104A300097FB991F61F09F3F79F0879508951216B3
:104A400013061406551FF2CF4695F1DF08C016165F
:104A500017061806991FF1CF869571056105089410
:104A60000895E894BB2766277727CB0197F9089527
:104A70000E94842408F48FEF08950E9450250C941E
:104A8000EA240E94B12438F00E94B82420F0952333
:104A900011F00C94A8240C94AE2411240C9432250B
:104AA0000E940F2570F3959FC1F3950F50E0551F9D
:104AB000629FF001729FBB27F00DB11D639FAA2773
:104AC000F00DB11DAA1F649F6627B00DA11D661FC2
:104AD000829F2227B00DA11D621F739FB00DA11DE3
:104AE000621F839FA00D611D221F749F3327A00D9D
:104AF000611D231F849F600D211D822F762F6A2F39
:104B000011249F5750409AF0F1F088234AF0EE0F9D
:104B1000FF1FBB1F661F771F881F91505040A9F7CA
:104B20009E3F510580F00C94A8240C9432255F3FE1
:104B3000E4F3983ED4F3869577956795B795F79506
:104B4000E7959F5FC1F7FE2B880F911D969587957E
:104B500097F908959F930E94C1240F9007FCEE5F80
:104B60000C94FB249F3F31F0915020F4879577956A
:104B70006795B795880F911D9695879597F9089534
:104B80009F938F937F936F93FF93EF939B01AC0160
:104B90000E943D25EF91FF910E94D4252F913F91D6
:104BA0004F915F910C943D25DF93CF931F930F930B
:104BB000FF92EF92DF927B018C01689406C0DA2E9F
:104BC000EF010E945025FE01E894A59125913591B1
:104BD00045915591A6F3EF010E944723FE019701ED
:104BE000A801DA9469F7DF90EF90FF900F911F9181
:104BF000CF91DF910895991B79E004C0991F961712
:104C000008F0961B881F7A95C9F780950895AA1B0E
:104C1000BB1B51E107C0AA1FBB1FA617B70710F0A7
:104C2000A61BB70B881F991F5A95A9F780959095D9
:104C3000BC01CD01089597FB072E16F4009407D010
:104C400077FD09D00E94072607FC05D03EF4909519
:104C500081959F4F0895709561957F4F0895F894C1
:024C6000FFCF84
:104C6200B208B2080000C9022000010000000100E1
:104C720000002F0000000000000000000000000003
:104C820000000D0000000000000000000000000015
:104C92000000000800000000007F0A00150B000061
:084CA20000001A0000192000B7
:107E0000112484B714BE81FFFDD085E080938100EA
:107E100082E08093C00088E18093C10096E0909357
:107E2000C20090E19093C400809360008EE0809344
:107E30006000259A86E020E33CEF91E030938500D6
:107E40002093840096BBB09BFECF1D9AA8958150CD
:107E5000A9F7C0E0D0E008E138E0F32EEE24E39487
:107E600045E0B42E51E1A52E13E0A7D0813491F462
:107E7000A4D0D82EAED082E8D81203C084E096D029
:107E800092C0E1E8DE1203C084E090D08CC083E0B1
:107E90008DD089C0823419F484E1A7D084C08534A0
:107EA00019F485E0A2D07FC0853549F486D0C82F6B
:107EB00084D0D0E0D82BCC0FDD1F8BD074C086359A
:107EC00029F484E092D080E071D06DC0843609F04E
:107ED0003FC073D072D0982E70D0C115F0E7DF0785
:107EE00038F4FE0117BFE895C12CDD24D39403C0FC
:107EF000C12CDD24D39461D0F60181936F019E12D1
:107F0000FACFC115F0E7DF0718F0FE0117BFE895BB
:107F100060D007B600FCFDCFFE01A0E0B1E08C917F
:107F200011962C91119790E0922B0C01E7BEE895E9
:107F3000112432961296A03881E0B80781F7FE012D
:107F4000B7BEE89507B600FCFDCFA7BEE8952BC0ED
:107F50008437B1F432D031D0982E2FD03AD0892C3A
:107F6000FE016F018FEFC81AD80A84911FD08A943E
:107F7000F6018110F6CF21969A94C90DD11D13C038
:107F8000853741F426D08EE111D085E90FD08FE0FE
:107F90000DD009C0813531F400936000F09260008B
:107FA00018D001C016D080E101D05FCF9091C00001
:107FB00095FFFCCF8093C60008958091C00087FF95
:107FC000FCCF8091C00084FD01C0A8958091C600BF
:107FD0000895F3DF803239F088E18093600088E013
:107FE00080936000FFCF84E1E1CFCF93C82FE5DF1E
:107FF000C150E9F7CF91EDCFE0E6F0E098E1908352
:1080000080830895E0E6F0E088E180831082EE2727
:04801000FF270994A9
:027FFE00040479
:0400000300007E007B
:00000001FF
