:100000000C9493080C942D0F0C94060F0C94B008CC
:100010000C94B0080C94B0080C94B0080C94B00880
:100020000C94B0080C94B0080C94B0080C94B00870
:100030000C94B0080C94540F0C94B0080C94B008B5
:100040000C94BC0E0C94B0080C94B0080C94B0083E
:100050000C94B0080C94B0080C94B0080C94B00840
:100060000C94B0080C94B00805A84CCDB2D44EB98D
:100070003836A9020C50B9918688083CA6AAAA2A4B
:10008000BE000000803F436C6F7365000000500BA2
:100090007FDFFFFFFFF7FFFC1FC33F9FFFFFFFFF57
:1000A000FFF80F803F9F0743F0F7C171C7181F1E6D
:1000B000733DEE779C63E31F5F5CF97EDF373E6341
:1000C000E3034E5DFD7EDFF77F63E3816EDDFD7E42
:1000D000DFF77F63E3C064DDFD7EDFF77F63E3F876
:1000E00075DCF97EDF373E71C71871DE737EEE77FF
:1000F0009C780F017BDF077EF0F7C17C1FC338259A
:10010000FFFFFFE7FFFFFFFFFFFF99FFFFFFFFFF7D
:10011000FE7E7FFFFFFFFFF9E79FFFFFFFFFE799ED
:10012000E7FFFFFFFF9FFFF9FFFFFFFE7FFFFE7F5F
:10013000FFFFF9FFFFFF9FFFFFE7FFFFFFE7FFFF65
:100140009FFFFFFFF9FFFE7FFFC7FFFE7FF9FFFF65
:10015000C1FFFF9FE7FFFFC87FFFE79FFFF80E1F6C
:10016000FFF97FFFF8FF9FFFFE1FFFFC3FFFFFF837
:1001700007FFFF0FFFFFE601FFFFC3FFFF98007FB0
:10018000FFF3FFFE66201FFFFFFFF9984007FFFF08
:10019000FFE6618401FFFFFF998188007FFFFE6613
:1001A0001190401FFFF99849988007FFE6613FF9D9
:1001B0000401FF9984FFF988007E6613FFFF9040D9
:1001C00019984FFFFF988006613FFFFFF9040184F3
:1001D000FFFFFFF9880613FFFFFFFF90404FFFFF6F
:1001E000FFFF98813FFFFFFFFFF900FFFFFFFFFFC9
:1001F000F98BFFFFFFFFFFFF9FFFFFFFFFFFFF9F49
:10020000FFFFFF42414E4B3A00000000000000009B
:1002100000000000000000000000000000000023BB
:10022000002600290000000008000201000003046D
:10023000070000000000000000000000002500286A
:10024000002B0000000000240027002A0004040402
:10025000040404040402020202020203030303036F
:10026000030102040810204080010204081020014C
:10027000020408102053536176657200004D6F6EC2
:100280006369610000436C65617200000050315881
:1002900000000000004C6F6F6B0000000041626FB7
:1002A00075740000004672656500000000000000E3
:1002B00000000000000000000000096000000000D5
:1002C000000071310000007A7361773200006378BA
:1002D00064653433000020766674723500006E6207
:1002E000686779360000006D6A75373800002C6B3E
:1002F000696F303900002E2F6C3B702D00000027F5
:10030000005B3D000000000D5D005C00000000008F
:100310000000007F000031003437000000302E3232
:100320003536381B00002B332D2A39000000000021
:1003300000000000000000000000000000000000BD
:100340000000097E00000000000051210000005A5A
:100350005341574000004358444524230000205691
:100360004654522500004E424847595E0000004D59
:100370004A55262A00003C4B494F292800003E3FA1
:100380004C3A505F00000022007B2B000000000D63
:100390007D007C00000000000000007F00003100B4
:1003A0003437000000302E323536381B00002B3336
:1003B0002D2A3900000000000000000000000000AD
:1003C000000000000000000000000000000000002D
:1003D000000000000000000000000000000000001D
:1003E000000000000000000000000000000000000D
:1003F00000000000000000000000000000000000FD
:1004000000000000000000000000000000000000EC
:1004100000000000000000000000000000000000DC
:1004200000000000000000000000000000000000CC
:1004300000000000000000000000000000000000BC
:10044000000000000000434330203230323420509E
:100450003158000000000000000000000000545669
:100460004F55543A20303030207820303020312D14
:1004700062697400000052414D3A20303030302023
:100480006F662032303438206279746573004350CF
:10049000553A2041544D656761333238702031360A
:1004A0004D687A0000004D6F6E6369614F533A20CA
:1004B000616C706861200000000000000000417263
:1004C0006475696E6F20554E4F2052330000000056
:1004D000000000000000557365206172726F777331
:1004E00020746F206368616E676500000000202A39
:1004F00020537461726669656C642020202020207E
:10050000200000000000202A2053696E75736F6977
:10051000642041727469737420000000000053630A
:100520007265656E53617665723A000000000000E6
:10053000000000000000202A204469676974616C93
:100540002061727420202020200000000000202A5A
:10055000204C696E657320766572746963616C20E6
:10056000200000000000202A204C696E657320687E
:100570006F72697A6F6E74616C0000000000202A4F
:100580002057686974652066696C6C2020202020E3
:1005900020000000000057616C6C70617065723A59
:1005A0000000000000000000000000000000040641
:1005B00020000000000000404040004000A0A000DB
:1005C000000000A0E0A0E0A0004060C060C000A06B
:1005D000204080A0002040C0A0E0008080000000FB
:1005E0000040808080400080404040800040A0402B
:1005F0000000000040E0400000000000808000009B
:1006000000E000000000000000800020204080800A
:1006100000E0A0A0A0E00040C04040E000E020E0FA
:1006200080E000E020E020E000A0A0E0202000E04A
:1006300080E020C000C080E0A0E000E0204080809A
:1006400000E0A0E0A0E000E0A0E0206000004000AA
:10065000400000004000408000204080402000001A
:10066000E000E00000804020408000C020400040CA
:1006700000E0A0A0E0E000E0A0E0A0A000C0A0E0BA
:10068000A0C000E0808080E000C0A0A0A0C000E08A
:1006900080E080E000E080E0808000E08080A0E0FA
:1006A00000A0A0E0A0A000E0404040E0002020200A
:1006B000A0E00080A0C0C0A00080808080E000A0FA
:1006C000E0E0A0A000C0A0A0A0A00040A0A0A0408A
:1006D00000E0A0E080800040A0A0E06600E0A0C0B4
:1006E000E0AA00E080E020E000E04040404000A0C0
:1006F000A0A0A0E000A0A0A0A04000A0A0E0E0A2D8
:1007000000A0A040A0A000A0A040404000E02040E9
:1007100080E000C0808080C000808040202000C039
:10072000404040C00040A00000000000000000E089
:10073000008040000000000060A0A060008080C039
:10074000A0C000006080806000202060A0600040A9
:10075000A0E08060006040E040400060A06020C0F9
:10076000008080C0A0A00040004040400040004009
:1007700040C0008080A0C0A000C0404040E0000019
:10078000A0E0A0A00000C0A0A0A0000040A0A04049
:100790000000C0A0C080000060A060200000C0A0D9
:1007A00080800000604020600040E0404040000049
:1007B000A0A0A0600000A0A0A0400000A0A0E0A019
:1007C0000000A04040A00000A0E020400000E04069
:1007D00080E0002040C040220040400040400080B7
:1007E000406040800000A0400000004A616E6B6FD6
:1007F00077736B690000000000000000000000003B
:100800000000004B7279737469616E000000000093
:1008100000000000000000000000004B727A7973B5
:100820007A746F6600000000000000000000000005
:100830000000000808000000000000000000003E6A
:1008400041554155493E003E7F6B7F6B773E00220C
:10085000777F7F3E1C0800081C3E7F3E1C08000876
:100860001C2A7F2A081C00081C3E7F3E081C000032
:100870001C3E3E3E1C00FFFFE3C1C1C1E3FF000080
:100880001C2222221C00FFFFE3DDDDDDE3FF000F61
:1008900003053948483000083E081C22221C001875
:1008A000141010307060000F1911133776600008B3
:1008B0002A1C771C2A080060787E7F7E78600003FF
:1008C0000F3F7F3F0F0300081C2A082A1C08006600
:1008D000666666006666003F65653D050505000CB9
:1008E000324824124C3000000000007F7F7F000857
:1008F0001C2A082A1C3E00081C3E7F1C1C1C001CD5
:100900001C1C7F3E1C0800080C7E7F7E0C08000823
:10091000183F7F3F18080000007070707F7F000054
:1009200014227F22140000081C1C3E3E7F7F007FA3
:100930007F3E3E1C1C080000000000000000001864
:100940003C3C181800180036361400000000003631
:10095000367F367F363600081E201C023C080060B9
:10096000660C18306606003C663C2865663F001839
:1009700018183000000000603018181830600006A9
:100980000C1818180C060000361C7F1C36000000DE
:1009900008083E0808000000000030303060000009
:1009A00000003C000000000000000000606000004B
:1009B000060C18306000003C666E7666663C0018D7
:1009C00018381818187E003C66060C30607E003C13
:1009D00066061C06663C000C1C2C4C7E0C0C007E33
:1009E000607C0606663C003C66607C66663C007E79
:1009F000660C0C181818003C66663C66663C003CA9
:100A000066663E06663C00001818001818000000D4
:100A100018180018183000060C1830180C060000C2
:100A2000003C003C0000006030180C183060003CB6
:100A300066061C1800180038445C58423C00003C14
:100A400066667E666666007C66667C66667C003CE2
:100A500066606060663C007C66666666667C007EFA
:100A600060607C60607E007E60607C606060003CF6
:100A70006660606E663C006666667E666666003C22
:100A800018181818183C001E0C0C0C6C6C380066FA
:100A90006C7870786C66006060606060607E006397
:100AA000777F6B6363630063737B6F676363003C93
:100AB00066666666663C007C6666667C6060003CD6
:100AC0006666666E3C06007C66667C786C66003CFA
:100AD00066603C06663C007E5A18181818180066B6
:100AE00066666666663E0066666666663C18006315
:100AF00063636B7F7763006363361C3663630066F2
:100B000066663C181818007E060C1830607E001EC1
:100B100018181818181E00006030180C060000780D
:100B20001818181818780008142241000000000056
:100B300000000000007F000C0C0600000000000018
:100B4000003C063E663E006060607C66667C00009D
:100B5000003C6660663C000606063E66663E000097
:100B6000003C667E603C001C3630307C303000003B
:100B70003E66663E063C006060607C66666600001D
:100B800018001818183C000C000C0C6C6C38006035
:100B900060666C786C660018181818181818000031
:100BA0000063777F6B6B0000007C7E6666660000EA
:100BB000003C6666663C00007C66667C6060000007
:100BC0003C6C6C3C0D0F0000007C666660600000B1
:100BD000003E403C027C000018187E1818180000E7
:100BE00000666666663E0000000066663C1800000F
:100BF00000636B6B6B3E000000663C183C660000B7
:100C00000066663E063C0000003C0C18303C000EBE
:100C100018183018180E0018181800181818007036
:100C200018180C1818700000003A6C00000000083A
:100C30001C366341417F1016FC918591849184910B
:100C40008491849184918491848A8484848AFC919F
:100C5000809180918091809180918091809180910C
:100C60008091809154600000055555555500000055
:100C70000000000BFFFFBBAAA2A200000000155558
:100C80005555554000000000001FFFFFFEEEAAA8CA
:100C9000A000000015555555550000000000003F0C
:100CA000FFFFBBAAAA2220000000155D5D5555403C
:100CB00000000000007FFFFFEEEEAAAAA0000000E7
:100CC00055555555550000000000007FFFFFFAAA5A
:100CD000A222A000000055D555D5544000000000C8
:100CE00000FFFFFFFFEAAAA8A000000055555555D8
:100CF00055000000000000FFFFFFFFBAAA22A0007D
:100D000000005DDDDDDD55400040000000FFFFFF1D
:100D1000FFFFEAAAA800000077777555755000001C
:100D2000000000FFFFFFFFFFAAA2A0000001DDDD21
:100D3000DDDDD5500040000000FFFFFFFFFFEAAA05
:100D4000A80000015557755555500000000003FBE1
:100D5000BFFFFBAAAA2220000005DD55D55545544A
:100D6000000000000EFEFFFEBFEEBEAA8A80000556
:100D7000555551175514000100000ABFBBFABFEAD0
:100D8000BA222A8000055D5555555554000540008E
:100D90000EFFFFEAAFFEAAA8ABC0000555555115DE
:100DA0005550000540000FFFFFAAABBFAA222B80C1
:100DB0000005DD5554455554000500000FFFFFEABE
:100DC000ABFFEAAAAF8000055555500555500015F8
:100DD000000003FFFFAAABFBAAA2AA000005D5D51D
:100DE0004445D5540044000007FFFFEAAFFFEAAADC
:100DF000AE0000055755510555500014000003FF83
:100E0000FFEAAFFFAA2A2A000001DDDDD545DD5447
:100E10000414000000FFFFEEAFFFEAAAAC000000E0
:100E20007777555555500010000000FFFFEBBFFFCE
:100E3000AAAAB80000005DDDD5D5D540004000006D
:100E4000007FFFFEFFFFEAAAE0000000775755553C
:100E5000555001400000007FFFFFFFFFAA2B8000DC
:100E600000005DDDDD555D5000000000003FFFFF2C
:100E7000FFFFEAA000000000155575555550000011
:100E80000000001FFFFFFBFFAAA0000000000DD51F
:100E9000DD55555000000000000FFFFFEEFFEAA0F7
:100EA0000000000007555551555000000000000F8C
:100EB000FBAAABFFAA000000000005D5555555441C
:100EC000000000000007FFFFFFFFEA8000000000B5
:100ED000057575555550000000000003FFFFFFFB2E
:100EE000BA200000000005DDDDD5555000000000EF
:100EF00000ABFFFFFFFEEA88800000000177775516
:100F00005550000000000A2BFFFFFFABAA22220071
:100F10000000015DDD555540000000002AAAFFFFDA
:100F2000FEAAAA8A8A8000000155555500000000DB
:100F3000000022A2BFFFAAAAAA2222200000415537
:100F40005555400000000000AAAAEEFEEAAAAA88B1
:100F50008880000001555555000000000000A2AB3C
:100F6000ABBBAAAAAA222220000005555545454040
:100F700000000000AAABEEAEAAAAAA8A8A800000EE
:100F800001555551111000000002A2ABBAAAAAAA3D
:100F9000AA22222000444555555445400000000037
:100FA000AAAAEEEEEAAAA88888A000111155555504
:100FB000151000000000AAAAABBBBAAAAA222220E0
:100FC00000554555555555500000000AAAAEEEEFA4
:100FD000EEAEAA8A8A800015155555555540000079
:100FE000002AAAABAABBBAAAA222222000455555C4
:100FF00055555440000000AAAAAEEEEFEEEA88AACA
:10100000A88000015555555550000000002AAABB84
:10101000ABABBBAA222A22200445555555554400A6
:10102000000000AAAAFEEFEEEAAAAAAA8A8000019E
:101030005555555500000000002AAAFAABBAAAA2DD
:10104000A2A222200444555555554000000000AA94
:10105000AAFAAAEAEAAAE8AAA880000155555151BD
:1010600001500000002AABBBABAAAA2BFA2A22200F
:101070000445555555540554000000AAABFAAAEA98
:10108000AAABEAAAAA804564697400000000556E04
:101090006B6E6F776E20636F6D6D616E6400000024
:1010A000000000000000446F6E65000000000000BA
:1010B00000000000000000000000000000002062AE
:1010C000797465730000000000000000000000005B
:1010D000000000000000467265652052414D3A2034
:1010E00000000000000000000000000000000835C3
:1010F000085522558855A255A855AA55AA55AA574C
:10110000AA55AA77AAD5AA77AADDAAFFAADFAAFFBD
:10111000AAFFEAFFAAFFEEFFBAFFEEFFBBFFEFFF59
:10112000BBFFFFFFBF0011241FBECFEFD8E0DEBF23
:10113000CDBF11E0A0E0B1E0E4EDFDE402C0059018
:101140000D92AC34B107D9F723E0ACE4B1E001C0B3
:101150001D92AF32B207E1F70E94831B0C94E82680
:101160000C94000008950F93CF93DF93EAE1F3E02E
:10117000A785B089C0919001D09191018285AC0F73
:10118000BD1F8E3191F08D3151F08C3149F08B3192
:1011900041F08A3139F0893131F0883129F01CC0B1
:1011A00032C048C05EC074C08AC00D900BB8000049
:1011B000000C0BB80000000C0BB80000000C0BB8C2
:1011C0000000000C0BB80000000C0BB80000000C75
:1011D0000BB80000000C0BB80D900BB80000000C11
:1011E0000BB80000000C0BB80000000C0BB800009E
:1011F000000C0BB80000000C0BB80000000C0BB882
:101200000000000C0BB80D900BB80000000C0BB8E0
:101210000000000C0BB80000000C0BB80000000C24
:101220000BB80000000C0BB80000000C0BB800005D
:10123000000C0BB80D900BB80000000C0BB80000B0
:10124000000C0BB80000000C0BB80000000C0BB831
:101250000000000C0BB80000000C0BB80000000CE4
:101260000BB80D900BB80000000C0BB80000000C80
:101270000BB80000000C0BB80000000C0BB800000D
:10128000000C0BB80000000C0BB80000000C0BB8F1
:101290000D900BB80000000C0BB80000000C0BB850
:1012A0000000000C0BB80000000C0BB80000000C94
:1012B0000BB80000000C0BB80000000C0BB80D9030
:1012C0000BB80000000C0BB80000000C0BB80000BD
:1012D000000C0BB80000000C0BB80000000C0BB8A1
:1012E0000000000C0BB80000000C0BB80D900BB800
:1012F0000000000C0BB80000000C0BB80000000C44
:101300000BB80000000C0BB80000000C0BB800007C
:10131000000C0BB80000000C0BB80D900BB80000CF
:10132000000C0BB80000000C0BB80000000C0BB850
:101330000000000C0BB80000000C0BB80000000C03
:101340000BB80000000C0BB80D900BB80000000C9F
:101350000BB80000000C0BB80000000C0BB800002C
:10136000000C0BB80000000C0BB80000000C0BB810
:101370000000000C0BB80D900BB80000000C0BB86F
:101380000000000C0BB80000000C0BB80000000CB3
:101390000BB80000000C0BB80000000C0BB80000EC
:1013A000000C0BB80D900BB80000000C0BB800003F
:1013B000000C0BB80000000C0BB80000000C0BB8C0
:1013C0000000000C0BB80000000C0BB80000000C73
:1013D0000BB80D900BB80000000C0BB80000000C0F
:1013E0000BB80000000C0BB80000000C0BB800009C
:1013F000000C0BB80000000C0BB80000000C0BB880
:101400000D900BB80000000C0BB80000000C0BB8DE
:101410000000000C0BB80000000C0BB80000000C22
:101420000BB80000000C0BB80000000C0BB80D90BE
:101430000BB80000000C0BB80000000C0BB800004B
:10144000000C0BB80000000C0BB80000000C0BB82F
:101450000000000C0BB80000000C0BB80D900BB88E
:101460000000000C0BB80000000C0BB80000000CD2
:101470000BB80000000C0BB80000000C0BB800000B
:10148000000C0BB80000000C0BB80D900BB800005E
:10149000000C0BB80000000C0BB80000000C0BB8DF
:1014A0000000000C0BB80000000C0BB80000000C92
:1014B0000BB80000000C0BB80D900BB80000000C2E
:1014C0000BB80000000C0BB80000000C0BB80000BB
:1014D000000C0BB80000000C0BB80000000C0BB89F
:1014E0000000000C0BB80D900BB80000000C0BB8FE
:1014F0000000000C0BB80000000C0BB80000000C42
:101500000BB80000000C0BB80000000C0BB800007A
:10151000000C0BB80D900BB80000000C0BB80000CD
:10152000000C0BB80000000C0BB80000000C0BB84E
:101530000000000C0BB80000000C0BB80000000C01
:101540000BB80D900BB80000000C0BB80000000C9D
:101550000BB80000000C0BB80000000C0BB800002A
:10156000000C0BB80000000C0BB80000000C0BB80E
:101570000D900BB80000000C0BB80000000C0BB86D
:101580000000000C0BB80000000C0BB80000000CB1
:101590000BB80000000C0BB80000000C0BB80D904D
:1015A0000BB80000000C0BB80000000C0BB80000DA
:1015B000000C0BB80000000C0BB80000000C0BB8BE
:1015C0000000000C0BB80000000C0BB80D900BB81D
:1015D0000000000C0BB80000000C0BB80000000C61
:1015E0000BB80000000C0BB80000000C0BB800009A
:1015F000000C0BB80000000C0BB80D900BB80000ED
:10160000000C0BB80000000C0BB80000000C0BB86D
:101610000000000C0BB80000000C0BB80000000C20
:101620000BB80000000C0BB80D900BB80000000CBC
:101630000BB80000000C0BB80000000C0BB8000049
:10164000000C0BB80000000C0BB80000000C0BB82D
:101650000000000C0BB80D900BB80000000C0BB88C
:101660000000000C0BB80000000C0BB80000000CD0
:101670000BB80000000C0BB80000000C0BB8000009
:10168000000C0BB80D900BB80000000C0BB800005C
:10169000000C0BB80000000C0BB80000000C0BB8DD
:1016A0000000000C0BB80000000C0BB80000000C90
:1016B0000BB80D900BB80000000C0BB80000000C2C
:1016C0000BB80000000C0BB80000000C0BB80000B9
:1016D000000C0BB80000000C0BB80000000C0BB89D
:1016E0000D900BB80000000C0BB80000000C0BB8FC
:1016F0000000000C0BB80000000C0BB80000000C40
:101700000BB80000000C0BB80000000C0BB8000078
:1017100000005F98DF91CF910F9108950F93CF93C1
:10172000DF93EAE1F3E0A785B089C0919001D09101
:1017300091018285AC0FBD1F02C0000C0BB80D904B
:1017400000000BB800000000000C0BB80000000007
:10175000000C0BB800000000000C0BB800000000EB
:10176000000C0BB800000000000C0BB80000000CCF
:101770008A950BB811F70000000C0BB800000000B0
:1017800000005F98DF91CF910F9108950F93CF9351
:10179000DF93EAE1F3E0A785B089C0919001D09191
:1017A00091018285AC0FBD1F0BB10F7703C000FA0A
:1017B00007F90BB90D9007FA07F90BB90000000003
:1017C00006FA07F90BB90000000005FA07F90BB992
:1017D0000000000004FA07F90BB90000000003FA4A
:1017E00007F90BB90000000002FA07F90BB9000075
:1017F0008A9501FA07F90BB9D1F6000000FA07F94A
:101800000BB90BB10F7707FB07F90BB9DF91CF913C
:101810000F9108950F93CF93DF93EAE1F3E0A7854B
:10182000B089C0919001D09191018285AC0FBD1F0C
:101830000BB10F7703C000FA07F90BB90D90000048
:1018400007FA07F90BB900000000000006FA07F9D3
:101850000BB900000000000005FA07F90BB9000001
:101860000000000004FA07F90BB9000000000000B6
:1018700003FA07F90BB900000000000002FA07F9AB
:101880000BB900000000000001FA07F90BB98A95B6
:1018900091F60000000000FA07F90BB90BB10F77C1
:1018A00007FB07F90BB9DF91CF910F9108952091B4
:1018B0001A0330911B038091210390912203281772
:1018C00039070CF44EC08CEA93E090938900809322
:1018D000880010921B0310921A0380911C039091B0
:1018E0001D03A0911E03B0911F030196A11DB11D00
:1018F00080931C0390931D03A0931E03B0931F03BA
:1019000080918C0190918D01A0918E01B0918F01F9
:10191000892B8A2B8B2B09F180918C0190918D0161
:10192000A0918E01B0918F01181619061A061B0698
:1019300084F580918C0190918D01A0918E01B091E0
:101940008F010197A109B10980938C0190938D01BA
:10195000A0938E01B0938F011CC01092B1002B9800
:1019600018C020911A0330911B0380912803082E80
:10197000000C990B2817390761F48AE490E09093E2
:1019800089008093880083ED9CE090939801809378
:10199000970180911A0390911B03019690931B036A
:1019A00080931A03089520911A0330911B038091AC
:1019B000200390E02817390759F4109291011092F2
:1019C0009001809126038093270383E09DE00DC062
:1019D00020911A0330911B038091210390912203DF
:1019E0002817390731F487E59CE09093980180939C
:1019F000970180911A0390911B03019690931B030A
:101A000080931A03089530918400209125032A5071
:101A1000231B2350F0F72D5F19F02A9511F001C018
:101A20000000E0919901F0919A01099590912703A6
:101A30008091260391110FC0809327039091240376
:101A40002091900130919101290F311D3093910126
:101A50002093900103C091509093270340911A0363
:101A600050911B034F5F5F4F082E000C990B01969E
:101A700060912303689F9001699F300D112480912C
:101A80002003B901680F711D4617570731F483ED24
:101A90009CE0909398018093970180911A03909114
:101AA0001B03019690931B0380931A0308950895D6
:101AB000CF93DF939091890120919D0130919E01F8
:101AC000A9014F5E5E4FB90168577F4FD901A05FF2
:101AD000BE4F80919B01E0919C018E1304C09093B6
:101AE000890180E05BC08F5F8D3208F080E0E82FD5
:101AF000F0E0E45AFE4FE08180939B01EE2379F3FE
:101B0000E03F11F49160E5CFE03E11F49260E1CF47
:101B100090FF0EC0E23111F49B7F08C0E93511F44B
:101B2000977F04C0E13111F491FD9F7E9C7FD1CF5E
:101B3000E23111F49460CDCFE93511F49860C9CF4A
:101B4000E13111F491FD906191FF08C0EA54E43352
:101B5000E8F4F0E0EE5EFE4FE08119C094FF07C0AC
:101B60008C91882321F0E83888F4EA010AC0892F93
:101B70008C7021F0E83850F4EB0103C0E83830F401
:101B8000E901CE0FD11DFE01E49101C0E0E09C7F90
:101B9000EE2309F49ECF909389018E2FDF91CF9190
:101BA0000895CF92DF92EF92FF920F931F9380914F
:101BB0009F0190E0FC01EB5DFD4F2491FC01EF598A
:101BC000FD4F3491FC01E35BFD4FE491EE23B9F14D
:101BD000222339F1233091F038F42130A9F022305A
:101BE00001F584B58F7D12C0273091F02830A1F027
:101BF0002430B9F4809180008F7D03C080918000F3
:101C00008F77809380000DC084B58F7784BD09C025
:101C10008091B0008F7703C08091B0008F7D80935A
:101C2000B000F0E0EE0FFF1FE55EFD4FA591B4910F
:101C3000EC91E32331E009F430E0832F02C080E02F
:101C400090E02FB7F89440910B0350910C036091F2
:101C50000D0370910E032FBF00915801109159018F
:101C600020915A0130915B016A017B01C01AD10AAF
:101C7000E20AF30A970186010B3F110521053105A0
:101C800020F0109257011092560140935801509342
:101C9000590160935A0170935B01209157013FEF06
:101CA000320F383048F401C0880F3A95EAF7909126
:101CB0005601892B8093560181E0820F8093570152
:101CC0008B30B9F480919C018F5F8D3208F080E0F9
:101CD00090919B01981749F0E82FF0E09091560100
:101CE000E45AFE4F908380939C011092570110920A
:101CF00056011F910F91FF90EF90DF90CF900895C4
:101D0000CF93DF9390E0FC01EF59FD4F2491FC014C
:101D1000E35BFD4F8491882361F190E0880F991F68
:101D2000FC01ED5BFD4FC591D491FC01E75CFD4FDB
:101D3000A591B491611109C09FB7F894888120954D
:101D400082238883EC912E230BC0623061F49FB70D
:101D5000F8948881322F309583238883EC912E2B41
:101D60002C939FBF06C08FB7F894E8812E2B288351
:101D70008FBFDF91CF9108951F920F920FB60F92F0
:101D800011242F933F938F939F93AF93BF93809191
:101D90000B0390910C03A0910D03B0910E033091B1
:101DA000960123E0230F2D3720F40196A11DB11DCC
:101DB00005C026E8230F0296A11DB11D20939601B0
:101DC00080930B0390930C03A0930D03B0930E0329
:101DD0008091920190919301A0919401B09195010D
:101DE0000196A11DB11D8093920190939301A09340
:101DF0009401B0939501BF91AF919F918F913F91C5
:101E00002F910F900FBE0F901F9018951F920F9259
:101E10000FB60F9211242F933F934F935F936F93BD
:101E20007F938F939F93AF93BF93EF93FF93E09133
:101E30000201F09103010995FF91EF91BF91AF91DC
:101E40009F918F917F916F915F914F913F912F91D2
:101E50000F900FBE0F901F9018951F920F920FB604
:101E60000F9211242F933F934F935F936F937F9320
:101E70008F939F93AF93BF93EF93FF93E0910001F4
:101E8000F09101010995FF91EF91BF91AF919F9161
:101E90008F917F916F915F914F913F912F910F9013
:101EA0000FBE0F901F9018951F920F920FB60F92B2
:101EB00011242F933F934F935F936F937F938F934F
:101EC0009F93AF93BF93EF93FF93E0919701F091AE
:101ED00098010995FF91EF91BF91AF919F918F91DB
:101EE0007F916F915F914F913F912F910F900FBE16
:101EF0000F901F9018954F925F926F927F928F92E2
:101F00009F92AF92BF92CF92DF92EF92FF92CF93C8
:101F1000DF9300D000D0CDB7DEB74C012A013B01E2
:101F20001092B0001092B1009091B0009260909326
:101F3000B0009091B10091609093B100229AA12CD1
:101F4000B12C60E072E18AE790E0A50194010E9463
:101F5000852329833A834B835C8369017A0121E0DD
:101F6000C21AD108E108F1088FEFC816D104E104C4
:101F7000F10409F008F485C060E472E48FE090E0B9
:101F8000A50194010E94852369017A0181E0C81AA4
:101F9000D108E108F1082FEFC216D104E104F104E1
:101FA00009F008F470C060E970ED83E090E0A501ED
:101FB00094010E94852369017A0181E0C81AD10841
:101FC000E108F1082FEFC216D104E104F10409F091
:101FD00008F45BC068E478EE81E090E0A50194012C
:101FE0000E94852369017A0181E0C81AD108E108BD
:101FF000F1082FEFC216D104E104F10409F008F44E
:1020000046C064E274EF80E090E0A50194010E9474
:10201000852369017A0181E0C81AD108E108F10835
:102020002FEFC216D104E104F10499F190F162E1BD
:102030007AE780E090E0A50194010E948523690180
:102040007A0181E0C81AD108E108F1082FEFC21621
:10205000D104E104F104F9F0F0F089819A81AB81B7
:10206000BC812AE0B595A795979587952A95D1F7D4
:102070006C017D0121E0C21AD108E108F10887E076
:102080000BC081E009C082E007C083E005C084E0A6
:1020900003C085E001C086E08093B1004114510483
:1020A00061047104A9F0ACE3B0E0A30192010E94C5
:1020B000A42328EE33E040E050E00E94B7232093B1
:1020C0008C0130938D0140938E0150938F010BC092
:1020D0008FEF9FEFDC0180938C0190938D01A09393
:1020E0008E01B0938F01C092B3008091B0008F77C2
:1020F0008093B0008091B00080648093B0000F9016
:102100000F900F900F90DF91CF91FF90EF90DF90A5
:10211000CF90BF90AF909F908F907F906F905F9087
:102120004F90089520912403982F96959695969513
:10213000E0912903F0912A038770629FB001112476
:10214000690F711DE60FF71F413061F420E830E0A0
:10215000A90102C0559547958A95E2F7CA01908179
:10216000892B19C041110CC02FE73FEFA90102C014
:10217000559547958A95E2F7CA01908189230BC04E
:1021800020E830E0A90102C0559547958A95E2F70D
:10219000CA01908189278083089580918B018823CB
:1021A00019F010928B0118C080918A01882319F0D0
:1021B00010928A0102C00E94580D87FF0BC0982F11
:1021C0009F73906890938B01829586958695837016
:1021D000806C02C0882311F090E008958FEF9FEF8C
:1021E000089580918A0181110EC080918B01811127
:1021F0000AC00E94580D982F80938A0181E09111A6
:1022000003C080E0089581E00895BC01E4E1F3E0BB
:1022100084E2828380E58383072E000C880B990B70
:102220000E94FF1A86E491E00E94B81762EF70E006
:1022300080E090E00C94FF1AFF920F931F93CF93CE
:10224000DF9389E491E002ED11E0C0E0D0E092EF8D
:10225000F92E8823A9F0C23FD10591F02091C40244
:102260003091C502F29EC001F39E900D11248C0F97
:102270009D1F0E946F232196F80181938F01E9CF62
:10228000CE010197DF91CF911F910F91FF9008959B
:10229000E4E1F3E084E4828381E0838363E072E03D
:1022A00083EF92E00E94682383EF92E00E94B817C8
:1022B0006091C4027091C5026F5F7F4F072E000CC2
:1022C000880B990B0C94FF1AEF92FF920F931F93B8
:1022D000CF93DF93EE24E39401E028E448E56CE03B
:1022E0008CE00E94DE1902ED11E0C0E0D0E086E152
:1022F000E82EF12CF80121918F012223B9F0CE01B3
:10230000B7010E94D4260396880F880F8093160386
:10231000862F880F680F660F645F60931703822F04
:102320000E9462172196C23FD10521F7DF91CF911C
:102330001F910F91FF90EF900895CF93DF93EC01E1
:102340000E94112320E330E040E050E00E9485230A
:10235000605E7F4F8F4F9F4F0E9402256883798375
:102360008A839B830E94112328E130E040E050E003
:102370000E948523605E7F4F8F4F9F4F0E940225F2
:102380006C837D838E839F830E94112325E030E040
:1023900040E050E00E94852360957095809590956F
:1023A0000E94022520E030E040E05FE30E94F62535
:1023B000688779878A879B87DF91CF9108952F92CD
:1023C0003F924F925F926F927F928F929F92AF92C5
:1023D000BF92CF92DF92EF92FF920F931F93CF9312
:1023E000DF9300D000D0CDB7DEB70E94331A0E9431
:1023F000B6226EE670E00E94D4268E5F89830E942A
:10240000B62266E570E00E94D42612E0180F212C57
:10241000312C0E94F110811145C12FEF221A320A8E
:102420008091D00181118BC0B10180E090E00E94C9
:1024300000256B017C0128E430E54CEF5BE30E9452
:10244000F6250E9463264B015C0126E933E44BE844
:102450005CE3C701B6010E94F6250E9463262B01AA
:102460003C0120E030E040EC51E4C501B4010E94A1
:10247000F62520E030E040E652E40E94E9234B01DB
:102480005C0120E030E040EA51E4C301B2010E9467
:10249000F6259B01AC01C501B4010E94E9230E940D
:1024A000D1246A8320ED34E448ED5BE3C701B60133
:1024B0000E94F6250E945A244B015C0124EF3DEF57
:1024C00044E55CE3C701B6010E94F6250E9463263D
:1024D0006B017C0120E030E040EC51E4C501B40127
:1024E0000E94F62520E030E040E352E40E94E92318
:1024F0004B015C0120E030E040E451E4C701B6014B
:102500000E94F6259B01AC01C501B4010E94E9239C
:102510000E94D1246C83C1016CED75E00E94C0263D
:10252000892B11F40E94331A01E02C814A81612F1A
:1025300089810E94EF181C818A8189836ACF81304A
:1025400009F067CFE0EAF1E0FB83EA83EA81FB81EF
:1025500064817581868197810E94D124F62EEA815B
:10256000FB8160817181828193810E94D124862FB9
:1025700040E06F2D0E94C417EA81FB81C080D180AA
:10258000E280F3804084518462847384A7019601C1
:1025900060E070E080E692E40E94E823A3019201EB
:1025A0000E94F62520E030E048EC52E40E945F24CF
:1025B000A70196010E94E9236B017C01EA81FB815E
:1025C000608371838283938384809580A680B780A3
:1025D000A501940160E070E080E392E40E94E823AA
:1025E000A30192010E94F62520E030E048EC52E47D
:1025F0000E945F24A50194010E94E9234B015C0124
:10260000EA81FB81648375838683978320E030E0D1
:1026100048ED52E4C701B6010E94F1251816F4F006
:1026200020E030E040E850E4C701B6010E945524A4
:1026300087FD14C020E030E048EA52E4C501B4014F
:102640000E94F125181654F020E030E040E850E4F4
:10265000C501B4010E94552487FF04C08A819B8173
:102660000E949D11EA81FB81648175818681978139
:102670000E94D124F62EEA81FB81608171818281E2
:1026800093810E94D124862F41E06F2D0E94C417B0
:102690008A819B810C969B838A83805D914009F09F
:1026A00055CFB7CE0F900F900F900F90DF91CF9135
:1026B0001F910F91FF90EF90DF90CF90BF90AF9060
:1026C0009F908F907F906F905F904F903F902F9052
:1026D0000895811151C048EC50E060E070E088EE50
:1026E00093E00E947B0F2FEF89EF90E02150804014
:1026F0009040E1F700C0000048EC50E060E070E07E
:1027000080ED97E00E947B0F2FEF89EF90E0215042
:1027100080409040E1F700C0000044EF51E060E0ED
:1027200070E08CE291E00E947B0F2FEF89EF90E048
:10273000215080409040E1F700C0000048EC50E09C
:1027400060E070E08CED95E00E947B0F8FE39CE9E8
:102750000197F1F700C0000048EC50E060E070E045
:1027600088EB9BE00E947B0F9FEF29EF80E0915068
:1027700020408040E1F78BC0813039F442E350E0E3
:1027800060E070E084E690E07CC0823089F544E649
:1027900050E060E070E085E091E00E947B0F8FE305
:1027A0009CE90197F1F700C0000044E650E060E0CA
:1027B00070E089E491E00E947B0F8FE39CE9019730
:1027C000F1F700C0000044E650E060E070E088E807
:1027D00091E00E947B0F8FE39CE90197F1F700C025
:1027E000000048EC50E060E070E08BE092E049C00F
:1027F000833019F544E650E060E070E088E891E04D
:102800000E947B0F8FE39CE90197F1F700C0000065
:1028100044E650E060E070E089E491E00E947B0FC4
:102820008FE39CE90197F1F700C0000048EC50E00D
:1028300060E070E085E091E024C0843051F546E925
:1028400050E060E070E089E491E00E947B0F8FE34C
:102850009CE90197F1F700C000004BE450E060E014
:1028600070E089E491E00E947B0F8FE39CE901977F
:10287000F1F700C000004BE450E060E070E088E851
:1028800091E00E947B0F8FE39CE90197F1F700C074
:10289000000008954F925F926F927F928F929F9265
:1028A000AF92BF92CF92DF92EF92FF920F931F935E
:1028B000CF93DF9380E00E944D1A8091D101823046
:1028C000F9F0833051F1813071F076ECC72E72E06F
:1028D000D72EA12CB12C13E0E4E2FE2EFBEA7F2ED2
:1028E000A6E16A2E50C0C4E020E04EE650E062E06F
:1028F00070E08C2F0E94D617CA5FC835A9F7E5CFC4
:10290000C4E020E046E550E062E070E08C2F0E94D9
:102910008318CA5FC037A9F7D8CF0E94B6226EE7E6
:1029200070E00E94D42612E0180F0E94B6226EE5D5
:1029300070E00E94D426C2E0C80F4EE0C42ED12C15
:102940005EE7852E912C6EE5A62EB12C0E94B62254
:10295000B4010E94D42632E0F32EF80E0E94B62273
:10296000B5010E94D426D2E0D80F00E02D2F4F2DC4
:102970006C2F812F0E94EF1881E0C81AD1081F2DFB
:10298000CD2F21F7A2CFF60180818F3FF1F180900A
:102990000F03912CC3818C2F612F0E94B4269F9D21
:1029A000902D1124D3E0D90FC79DC12D1124C695B8
:1029B000C69DC02D112484E1482E4C0ECA5E25E030
:1029C000522E590EE12C00E020E140E26C2F852DC3
:1029D0000E94DE198A149B0419F0EE24E39400E0AF
:1029E00020E140E2642D8D2F0E94DE1950921603E3
:1029F000C0931703F601618172818EE491E00E9419
:102A000068238EE491E00E94B817FFEFAF1ABF0A67
:102A100085E0C80ED11CE9E0AE16B10409F0B3CFD1
:102A200084E18093160382E08093170366EA74E0E2
:102A300083EF92E00E94682383EF92E00E94B81730
:102A40006CE070E080E090E0DF91CF911F910F91FA
:102A5000FF90EF90DF90CF90BF90AF909F908F90BE
:102A60007F906F905F904F900C94FF1ACF931092CD
:102A70004D01C0914D01C83560F420E040E750E0C1
:102A800060E070E08C2F0E94D617CE5FC0934D019E
:102A9000F0CF10924C01C0914C01C03760F420E09F
:102AA00048E550E060E070E08C2F0E948318CE5F14
:102AB000C0934C01F0CFCF910895EF920F9381E036
:102AC0000E944D1AE12C00E028E24CE36DE18EE11A
:102AD0000E94DE19EE24E39428E24CE369E18AE1E6
:102AE0000E94DE19E12C20E030E04EEF50E06BE177
:102AF0008CE10E94251620E030E04EE850E06AE4C8
:102B000080E10E9425162FEF89E698E12150804050
:102B10009040E1F700C000000F91EF900895DF9220
:102B2000EF92FF920F931F93CF93DF93F82E162F00
:102B3000D42E982F969588E3D82FD91B6D3230F478
:102B4000862F86952CE2C22FC81B01C0C4E0E12C61
:102B500000E0212F4F2D64E06C0F8CE3891B0E9455
:102B6000DE1901E0212F4F2D6C2F8D2F0E94DE19D1
:102B7000DD2011F11C0F84E0F82EF10E00E02CE0B6
:102B800044E26F2D8AE20E94DE19EE24E3942CE0E9
:102B900044E2612F86E20E94DE198EE280931603E2
:102BA000F092170366E870E08EE491E00E946823DB
:102BB0008EE491E00E94B8178D2F90E0AC014C5F3D
:102BC0005F4F2C2F30E02C5F3F4F40931603209334
:102BD0001703BA01C901DF91CF911F910F91FF90A7
:102BE000EF90DF9008952091170330912303E09137
:102BF0001803F091190331966491422F50E0832F0E
:102C000090E0861B910948175907D4F0E491809110
:102C1000290390912A0320912403DC01E29FA00D57
:102C2000B11D1124AC01329F400D511D11249A0198
:102C3000FC01A217B30740F48C9181931D92F9CF48
:102C4000E491E20FE093170308952F923F924F9281
:102C50005F926F927F928F929F92AF92BF92CF922C
:102C6000DF92EF920F931F93CF93DF93CDB7DEB731
:102C700028970FB6F894DEBF0FBECDBF5A01482F7C
:102C8000477078E0741B011106C0F501E20FF31FD5
:102C900004912F5F3F4FE11006C0F501E20FF31FD3
:102CA000E4902F5F3F4F902F9770E02FE695E695C9
:102CB000E695992311F0EF5F01C098E0869586951F
:102CC0008695A82FB0E0BC83AB83642E712C4301A2
:102CD000890E911C8FEF90E0AC01082C02C0559535
:102CE00047950A94E2F7A72FB0E0BA83A98301C001
:102CF000880F7A95EAF7E13011F44D8301C01D8207
:102D0000BD81B82BB887D40118978FEF90E002C02F
:102D100095958795AA95E2F78F83C12CD12C862FA4
:102D200090E09E838D832E2E312C91E0291A31085C
:102D3000CE1408F090C0509124038D819E818C0D9B
:102D40009D1D589FD001599FB00D11248B819C81EE
:102D5000A80FB91FE0911403F0911503EA0FFB1FB0
:102D60005081888585238083B9016F5F7F4FF5018E
:102D7000E20FF31F8491E0911403F0911503EA0F21
:102D8000FB1F082F10E0062C02C0159507950A942A
:102D9000E2F79081092B00832101460E571E8D0119
:102DA000021B130BD801A60FB71F209114033091FB
:102DB000150390E06415750510F5F901EA0FFB1F86
:102DC0005081098001C0880F0A94EAF78083F501D9
:102DD000E60FF71F84912091140330911503A20F81
:102DE000B31F282F30E0062C02C0359527950A9492
:102DF000E2F79C91292B2C936F5F7F4FD3CFE8E0B4
:102E00008E16910448F4FD013197E20FF31F54230D
:102E10002081522B50830BC058E08516910439F065
:102E2000F901EA0FFB1F20813F812323208320919A
:102E3000140330911503A20FB31F098002C0880F3D
:102E4000991F0A94E2F7EC918E2B8C935FEFC51AD1
:102E5000D50A9B016DCF28960FB6F894DEBF0FBE42
:102E6000CDBFDF91CF911F910F91EF90DF90CF9069
:102E7000BF90AF909F908F907F906F905F904F909A
:102E80003F902F900895EF920F93242F40911803B5
:102E900050911903FA013296E491922F9E1B9A01E8
:102EA0002F5F3F4FF901E490FA010491F901249159
:102EB000929F900111242D5F3F4F0E9425160F9184
:102EC000EF900895CF938A30D9F0A8F4882309F4BD
:102ED0004DC08830E9F4E0911803F0911903E491B2
:102EE000809116038E1B8093160340E260911703B6
:102EF000CF910C9443178D3041F08E30B9F108C05A
:102F000010921603CF910C94F315109216032EC055
:102F1000C82F8091160320912403E0911803F091AB
:102F20001903E491482F50E098E0299F9001112463
:102F30002E1B31092417350754F4109216030E94F2
:102F4000F3154C2F609117038091160303C04C2F8B
:102F5000609117030E944317E0911803F091190341
:102F6000E49180911603E80FE0931603CF91089542
:102F7000CF93DF93EC018991882319F00E946217A7
:102F8000FACFDF91CF91089520912403E82FF0E04C
:102F900098E0299F90011124E217F30734F49091EF
:102FA0002303691710F40C94921008950F931F9344
:102FB000CF93DF93FB016417750749F4422F682F05
:102FC0008E2FDF91CF911F910F910C94C41746174C
:102FD000570718F47727FA01AB01BF01677077270D
:102FE0000FEF10E0E80102C0D595C7956A95E2F7AA
:102FF0009C2F33E0F695E7953A95E1F7609124032D
:10300000689FB0011124E60FF71FDA01A770BB27F4
:1030100002C015950795AA95E2F7302F3095DA0191
:1030200043E0B695A7954A95E1F76A0F7B1FE6172F
:10303000F70711F4932330E02130F1F4DF0111960A
:103040004091140350911503E40FF51F8081982BD4
:1030500090832FEF8091140390911503A617B70763
:1030600030F4FC01EA0FFB1F20831196F3CFA80F69
:10307000B91F8C91382B41C021111FC0DF0111965F
:103080004091140350911503E40FF51F9095808132
:10309000982390838091140390911503A617B70786
:1030A00030F4FC01EA0FFB1F10821196F3CFA80F3A
:1030B000B91F30958C91382320C02230F9F4DF01FC
:1030C00011964091140350911503E40FF51F808170
:1030D000982790838091140390911503A617B70742
:1030E00040F4FC01EA0FFB1F8081809580831196DC
:1030F000F1CFA80FB91F8C9138273C93DF91CF9166
:103100001F910F910895CF93DF936417750729F4EA
:10311000422FDF91CF910C94C4174617570720F424
:10312000FB01FF27BA01AF01982F9770E0E8F0E0AC
:1031300002C0F595E7959A95E2F73E2F909124030A
:10314000969FD001979FB00D112486958695869500
:10315000ED01C80FD11DCE01213099F44617570754
:10316000D8F1E0911403F0911503E80FF91F2081C5
:10317000232B208320912403820F911D6F5F7F4FAB
:10318000EDCF211114C0E0954617570728F1A09103
:103190001403B0911503A80FB91F2C912E232C9363
:1031A00020912403820F911D6F5F7F4FEDCF22305E
:1031B00099F44617570780F0E0911403F091150336
:1031C000E80FF91F20812327208320912403820FF9
:1031D000911D6F5F7F4FEDCFDF91CF9108952F92BB
:1031E0003F924F925F926F927F928F929F92AF9297
:1031F000BF92CF92DF92EF92FF920F931F93CF93E4
:10320000DF9300D000D0CDB7DEB7962F322F202F1E
:10321000E82EF12C6091240358E0659FB001112441
:103220006E157F050CF4B3C050912303591708F4B1
:10323000AEC0E42FF0E0FC83EB836E177F070CF445
:10324000A6C0531708F4A3C084131CC0432F50E03A
:10325000692F70E00F900F900F900F90DF91CF913A
:103260001F910F91FF90EF90DF90CF90BF90AF90A4
:103270009F908F907F906F905F904F903F902F9096
:103280000C94831893131CC04B815C81B701892F68
:103290000F900F900F900F90DF91CF911F910F9192
:1032A000FF90EF90DF90CF90BF90AF909F908F9066
:1032B0007F906F905F904F903F902F900C94D61717
:1032C000C92ED12C481748F4A7016B817C81461B7D
:1032D000570B5C834B838FEF07C0EB81FC81EE19AA
:1032E000FF09FC83EB8381E0432E512C391730F426
:1032F000A601441955092A019FEF03C04C185D0827
:1033000091E06B817C81641575054CF44B813C81A7
:103310005C824B82442E532E71E0798301C0198266
:103320002A83440C551C5201EB81FC81AE1ABF0A62
:103330001F01220C331C812C912C692E990F7708C8
:10334000082F880F110B2B813C8128153905FCF0C3
:103350004A816C2D8E2D0E949210B7FC0AC03981D3
:10336000313019F4E00EF11E02C0C60CD71CA218B1
:10337000B3084981413019F4C60CD71C02C0E00ED5
:10338000F11EA40CB51C5FEF851A950ADCCF0F90D7
:103390000F900F900F90DF91CF911F910F91FF90A1
:1033A000EF90DF90CF90BF90AF909F908F907F90E5
:1033B0006F905F904F903F902F9008956F927F9203
:1033C0008F929F92AF92BF92DF92EF92FF920F93F4
:1033D0001F93CF93DF93F82E162FD42FC22FD02E0A
:1033E0008FEFE816B9F0062FA22EB12CA60EB11C55
:1033F0006F2C712C4301840E911C802F90E08A1554
:103400009B0544F42E2DA401B301802F0E94D617F2
:103410000F5FF3CFDF0D0D2D212F4D2F612F8F2D3E
:103420000E94EF18C10F2C2F4F2D612F8F2D0E945E
:10343000EF182C2F4D2F612F8D2F0E94EF182C2F5E
:103440004D2F6C2F8F2D0E94EF18DF91CF911F9180
:103450000F91FF90EF90DF90BF90AF909F908F9073
:103460007F906F900895109216031092170380E0DA
:1034700090E02091240330912303239F9001112495
:10348000821793074CF4E0912903F0912A03E80F87
:10349000F91F10820196EDCF0895EF920F93CF930D
:1034A000109216031092170320E030E06FEF909116
:1034B000240340912303949FA0011124241735076E
:1034C00054F4E0912903F0912A03E20FF31F608383
:1034D0002F5F3F4FECCF811183C020E046E050E0EA
:1034E00060E070E080E00E94831820E043E050E05C
:1034F00060E070E081E00E94831820E046E050E048
:1035000060E070E080E00E94D61720E043E050E0E9
:1035100060E070E081E00E94D61720E046E050E0D5
:1035200060E070E08FE60E94831820E043E050E006
:1035300060E070E08EE60E94831820E040E750E0F3
:103540006AE670E080E00E94D61720E040E750E095
:103550006DE670E081E00E94D61720E048E550E07B
:1035600062E570E080E00E94831820E048E550E0CA
:1035700065E570E081E00E94831820E043E050E0C0
:1035800060E070E086E50E94D61720E046E050E05B
:1035900060E070E087E50E94D61720E048E550E043
:1035A00062E570E08FE60E94831820E048E550E075
:1035B00065E570E08EE60E94831820E040E750E069
:1035C0006AE670E087E50E94D61720E040E750E009
:1035D0006DE670E086E5CF910F91EF900C94D617D1
:1035E000C0E0E12C00E020E030E04EEE50E160E091
:1035F0008C2F0E942516C85FC03799F76ECF8F9227
:103600009F92AF92BF92CF92DF92EF92FF920F9371
:103610001F93CF93DF93CDB7DEB7A0970FB6F89483
:10362000DEBF0FBECDBF6B017C0197FF0BC08DE2EB
:103630000E946217F094E094D094C094C11CD11CF5
:10364000E11CF11CC701B601CD28CE28CF28A9F472
:1036500080E3A0960FB6F894DEBF0FBECDBFDF911A
:10366000CF911F910F91FF90EF90DF90CF90BF907F
:10367000AF909F908F900C9462178E010F5F1F4F39
:10368000C12CD12C76012AE0822E912CA12CB12CB8
:103690002FEFC21AD20AE20AF20AA50194010E948F
:1036A000B723F80161938F01B901CA016115710552
:1036B0008105910569F7F1E0CF1AD108E108F10819
:1036C000FE01EC0DFD1D81818A3010F4805D01C08A
:1036D000895C0E946217C114D104E104F10459F716
:1036E000A0960FB6F894DEBF0FBECDBFDF91CF918D
:1036F0001F910F91FF90EF90DF90CF90BF90AF9010
:103700009F908F900895CF93DF9300D0CDB7DEB711
:10371000789484B5826084BD84B5816084BD85B5AC
:10372000826085BD85B5816085BD80916E008160B8
:1037300080936E001092810080918100826080935E
:103740008100809181008160809381008091800060
:103750008160809380008091B10084608093B1008B
:103760008091B00081608093B00080917A00846085
:1037700080937A0080917A00826080937A008091B1
:103780007A00816080937A0080917A0080688093CB
:103790007A001092C10060E08EE00E94800E80ED01
:1037A00094E00E944921909315038093140300979D
:1037B00009F458C0109216031092170390932A032D
:1037C000809329038EE08093240388E5809323036C
:1037D00010921C0310921D0310921E0310921F03DF
:1037E00081E080932603809327032AE03CE0309316
:1037F0009A0120939901579A219A5F98299A239ABE
:1038000092EC9093800099E19093810094E49093DE
:10381000200397EC9093250397E09093280328E3E7
:1038200031E030932203209321032FEF33E03093D4
:103830008700209386002AE430E0309389002093AB
:10384000880029E331E030931B0320931A0327E516
:103850003CE0309398012093970180936F00789417
:103860000E94331A8EEA95E090931903809318030F
:103870000E94331A88E080939F018DEA92E0909332
:103880009E0180939D0162E083E00E94800E62E0D1
:1038900088E00E94800E10929C0110929B0181EDA5
:1038A0009DE0909303018093020180916900837FE2
:1038B000886080936900E99A80E480937C0080911D
:1038C0007A00806480937A0080917A0086FDFCCF34
:1038D0006091780070917900072E000C880B990B8D
:1038E000611571058105910511F00E945F2380E04B
:1038F0000E9469130E945D1580EA91E00E949D116B
:103900008CEA91E00E949D1188EB91E00E949D114C
:1039100084EC91E00E949D11E6ECF2E08FEF808351
:10392000359622E0E33FF207D1F71092C60285EA0E
:1039300092E09093C8028093C7021092C90210923D
:10394000CA0281E08093CB022DE932E03093CD02B0
:103950002093CC028093CE021092CF0292E09093FB
:10396000D00225E932E03093D2022093D102909325
:10397000D3028093D40293E09093D5022DE832E0F5
:103980003093D7022093D6029093D8021092D90296
:1039900094E09093DA0226E830E13093DC02209341
:1039A000DB029093DD028093DE0285E08093DF02EC
:1039B00025E832E03093E1022093E0028093E202B6
:1039C0001092E30286E08093E4022DE732E0309328
:1039D000E6022093E5028093E7021092E80287E076
:1039E0008093E90225E732E03093EB022093EA026C
:1039F0008093EC021092ED020E944A1472EF772E2F
:103A0000CE0101965C014AE2442E56E1652E60E04B
:103A1000262E60E0362E0E94F110882309F412C48D
:103A20000E94CD108D3009F0CAC380910F038530FC
:103A300009F474C380F5823009F420C138F4882376
:103A400009F44CC0813009F476C0A7C3833009F46F
:103A500001C2843009F0A1C380E00E944D1A80E3C6
:103A60008093160381E08093170366E870E183EF8B
:103A700092E00E94682383EF92E00E94B8170E94B0
:103A80001C118C01582E0E9464110E944811C8011B
:103A90000E94051170C2843609F470C338F4863070
:103AA00009F472C3873009F469C377C3853609F412
:103AB0006BC3883C09F071C30E94361541E06EE08B
:103AC00088E50E948F156EE870E183EF92E00E9416
:103AD000682383EF92E00E94B8175CC30E943615FA
:103AE00041E06EE088E50E948F1566ED70E183EF9E
:103AF00092E00E94682383EF92E00E94B8178091C1
:103B00002B0390912C03009711F48FE293E0B50101
:103B1000681B790B072E000C880B990B0E94FF1A6B
:103B20006EEB70E183EF92E00E94682383EF92E0F6
:103B30000E94B81721C30E94361541E066E484E66E
:103B40000E948F15162F082F60931603809317037A
:103B50006EEB74E083EF92E00E94682383EF92E0C3
:103B60000E94B817109316038AE0800F8093170302
:103B700066EA74E083EF92E00E94682383EF92E0AC
:103B80000E94B8176CE070E080E090E00E94FF1A9D
:103B90001093160384E1800F809317036EE874E09E
:103BA00083EF92E00E94682383EF92E00E94B817AF
:103BB0003EE1F32EF00E10931603F092170366E722
:103BC00074E083EF92E00E94682383EF92E00E940A
:103BD000B81784E1810F80931603F0921703809148
:103BE0002B0390912C03009711F48FE293E0F501E1
:103BF000E81BF90B60E078E06E1B7F0B072E000CD2
:103C0000880B990B0E94FF1A28E2F22EF00E1093F7
:103C10001603F09217036EE574E083EF92E00E94C2
:103C2000682383EF92E00E94B8178CE1810F8093A4
:103C30001603F092170360E770E080E090E00E94C6
:103C4000FF1A84E3810F80931603F092170368E54F
:103C500070E080E090E00E94FF1A10931603065C6B
:103C60000093170366E474E083EF92E00E946823F8
:103C700083EF92E00E94B81780E08DC20E94361553
:103C8000C090D10141E06CE388E50E948F15062FBA
:103C9000182F66E975E083EF92E00E94682383EFB6
:103CA00092E00E94B8178091D101813059F038F02C
:103CB000823059F0833079F466E375E008C06EE72E
:103CC00075E005C066E675E002C06EE475E083EF5E
:103CD00092E00E94682398E0D92ED10EE02E009346
:103CE0001603D092170383EF92E00E94B817009357
:103CF000160384E1810F809317036EE175E083EF73
:103D000092E00E94682383EF92E00E94B8178091AE
:103D1000D001882329F0813049F46EEE74E002C0AE
:103D200066E075E083EF92E00E9468238CE1F82E54
:103D3000F10E00931603F092170383EF92E00E94B6
:103D4000B81700931603145D1093170366ED74E023
:103D500083EF92E00E94682383EF92E00E94B817FD
:103D600082E00E9469130E94F1108823E1F301E0D0
:103D70001EE00E94CD10882309F40FC2883059F448
:103D80008091D101882319F081508093D10181E085
:103D90000E94691323C0853131F48091D1018330B1
:103DA000B0F78F5FF2CF8B3041F48091D001882340
:103DB00071F381508093D001EACF8A3039F4809139
:103DC000D0018111E4CF0093D001E1CF8B3119F400
:103DD000C092D101DFC18D3009F4CEC18091D101F3
:103DE000813059F038F0823059F0833079F466E34D
:103DF00075E008C06EE775E005C066E675E002C0D4
:103E00006EE475E083EF92E00E946823E09216036F
:103E1000D092170383EF92E00E94B8171093160315
:103E2000409217038091D001882329F0813049F412
:103E30006EEE74E002C066E075E083EF92E00E94EF
:103E40006823E0921603F092170383EF92E00E943A
:103E5000B8178FCF0E94331AE12C00E020E030E049
:103E600044E65CE060E08BE10E942516FFEF23EF63
:103E700031E0F15020403040E1F700C0000046E959
:103E800050E060E070E089E491E00E947B0F8FEFEA
:103E900096E7E1E081509040E040E1F700C000008B
:103EA00020E030E046E35CE068E18CE00E9425160B
:103EB0004BE450E060E070E089E491E00E947B0F09
:103EC000FFEF26E731E0F15020403040E1F700C03D
:103ED00000008FEF91EEE4E081509040E040E1F788
:103EE00000C0000023E338E0309319032093180347
:103EF0006BE178E083EF92E00E94682314E0109376
:103F000016038AE38093170383EF92E00E94B817A9
:103F100063E078E083EF92E00E9468231093160339
:103F200084E48093170383EF92E00E94B8176BEE4E
:103F300077E083EF92E00E946823109316038EE4EB
:103F40008093170383EF92E00E94B8178EEA95E002
:103F500090931903809318034BE450E060E070E005
:103F600088E891E00E947B0FEFE3FCE93197F1F7DD
:103F700000C0000012C10E94F1108823E1F3780113
:103F80000E94CD10282F882309F4C3C08D3009F07A
:103F900042C097012E523E4F490167012091C40251
:103FA0003091C502C016D10684F4F40161914F012D
:103FB000729EC001739E900D11248C0D9D1D0E9458
:103FC0007723FFEFCF1ADF0AE9CF729EC001739EFD
:103FD000900D112460E0800F911F0E94772340E034
:103FE0006EE088E20E948F1566EA70E183EF92E04E
:103FF0000E94682383EF92E00E94B81782E00E943B
:1040000069132FEF33EC89E0215030408040E1F715
:1040100000C0000026C08B3109F47BC0883011F04D
:104020008F3711F5101611060CF06BC001501109F5
:10403000F801EE52FE4F10825A940E151F050CF433
:104040007801852D662D0E94B426990F990F945FF3
:1040500090931603982F990F890F880F845F809390
:1040600017030E9464114DC0853109F44AC086EFE0
:10407000820F823008F445C02A3149F48091C4028D
:104080009091C5021816190684F401970AC02931C7
:10409000C1F48091C4029091C502833091052CF443
:1040A00001969093C5028093C4020E941C118C015A
:1040B00055245A94580E0E9464110E9448117801A8
:1040C00020C0023F1105ECF468019FEFC91AD90A1C
:1040D000F801EE52FE4F20835394852D662D0E94E9
:1040E000B426990F990F945F90931603982F990F08
:1040F000890F880F845F80931703822F0E946217B5
:104100008601C8010E9405110E94F1108823E1F385
:1041100037CF82ED91E00E94E1213FC00E94361529
:1041200041E06EE088E50E948F1566EA70E183EF5A
:1041300092E00E94682383EF92E00E94B81784E027
:104140000E9469138091C4029091C502789E8001FB
:10415000799E100D11247801E2EFEE0EF11C60E063
:104160000E151F0534F4C8010E9477230F5F1F4FFF
:10417000F6CFC7010E94772382E00DC082E00E9443
:1041800069130E94DF1109C082E00E9469130E9436
:104190005D1503C083E00E946913E0910F0325E0E1
:1041A000E29FF0011124EA53FD4F8481811135C053
:1041B0000E94F1108823E1F30E94CD102EC08B31B4
:1041C00011F484E028C0883031F480910F038823F3
:1041D00031F181501DC0853131F480910F0387305A
:1041E000F0F48F5F15C08B3049F480910F03282FB6
:1041F00030E0233031059CF083500AC08A3079F4D6
:1042000080910F03282F30E02530310544F48D5F75
:1042100080930F0381E00E9469130E944A142FB714
:10422000F89480910B0390910C03A0910D03B09131
:104230000E032FBF8093100390931103A0931203DA
:10424000B09313032FB7F89480910B0390910C0354
:10425000A0910D03B0910E032FBF40911003509118
:1042600011036091120370911303841B950BA60B2D
:10427000B70B81369A4EA105B10520F00E94DF11DF
:104280000E944A142114310409F4C5CB0E94000095
:10429000BACB0F931F93CF93DF938230910510F425
:1042A00082E090E0E0912D03F0912E0320E030E0D9
:1042B000A0E0B0E0309719F1408151810281138173
:1042C00048175907C8F08417950769F4109731F01B
:1042D00012960C93129713961C9327C000932D03EC
:1042E00010932E0322C02115310519F042175307F0
:1042F00018F49A01BD01EF01DF01F801DBCF2115B0
:104300003105F9F0281B390B2430310580F48A81FE
:104310009B816115710521F0FB019383828304C0A9
:1043200090932E0380932D03FE01329644C0FE012C
:10433000E20FF31F8193919322503109398328832F
:104340003AC020912B0330912C03232B41F4209170
:1043500006013091070130932C0320932B03209109
:104360000401309105012115310541F42DB73EB707
:104370004091080150910901241B350BE0912B035A
:10438000F0912C03E217F307A0F42E1B3F0B281724
:10439000390778F0AC014E5F5F4F2417350748F0BE
:1043A0004E0F5F1F50932C0340932B0381939193E7
:1043B00002C0E0E0F0E0CF01DF91CF911F910F91BB
:1043C0000895CF93DF93009709F481C0FC013297E1
:1043D00013821282A0912D03B0912E03109781F4C5
:1043E00020813181820F931F20912B0330912C0368
:1043F0002817390751F5F0932C03E0932B0367C07E
:10440000ED0120E030E0CE17DF0740F44A815B8108
:104410009E0141155105F1F0EA01F5CFD383C28326
:1044200040815181840F951FC817D90759F488819D
:104430009981840F951F0296918380838A819B8145
:10444000938382832115310529F4F0932E03E093A1
:104450002D033DC0E901FB83EA8349915991C40FC3
:10446000D51FEC17FD0761F480819181840F951FA2
:104470000296E90199838883828193819B838A8351
:10448000E0E0F0E012968D919C911397009719F05F
:10449000FD01DC01F7CF8D919C9111979D012E5F5D
:1044A0003F4F820F931F20912B0330912C0328172D
:1044B000390769F4309729F410922E0310922D03D6
:1044C00002C013821282B0932C03A0932B03DF91BE
:1044D000CF9108958F929F92AF92BF92CF92DF9229
:1044E000EF92FF92CF93DF93EC01688179818A810B
:1044F0009B81611571058105910521F464E279EDD7
:104500008BE597E02DE133EF41E050E00E948523F9
:1045100049015A019B01AC01A7EAB1E40E94A4231E
:104520006B017C01ACEEB4EFA50194010E94B223B3
:10453000DC01CB018C0D9D1DAE1DBF1DB7FF03C05F
:104540000197A109B04888839983AA83BB839F7789
:10455000DF91CF91FF90EF90DF90CF90BF90AF9021
:104560009F908F9008950E946A2208958AE091E0BA
:104570000E946A220895A0E0B0E080930A0190931F
:104580000B01A0930C01B0930D0108958F929F929F
:10459000AF92BF92CF92DF92EF92FF92CF93DF93D1
:1045A000EC01688179818A819B81611571058105A2
:1045B000910521F464E279ED8BE597E02DE133EF8D
:1045C00041E050E00E94852349015A019B01AC0162
:1045D000A7EAB1E40E94A4236B017C01ACEEB4EF26
:1045E000A50194010E94B223DC01CB018C0D9D1D1D
:1045F000AE1DBF1DB7FF03C00197A109B048888356
:104600009983AA83BB83BC01CD019F77DF91CF91B2
:10461000FF90EF90DF90CF90BF90AF909F908F90E2
:1046200008958F929F92AF92BF92CF92DF92EF92B6
:10463000FF9260910E0170910F0180911001909195
:104640001101611571058105910521F464E279ED8F
:104650008BE597E02DE133EF41E050E00E948523A8
:1046600049015A019B01AC01A7EAB1E40E94A423CD
:104670006B017C01ACEEB4EFA50194010E94B22362
:10468000DC01CB018C0D9D1DAE1DBF1DB7FF03C00E
:104690000197A109B04880930E0190930F01A09358
:1046A0001001B0931101BC01CD019F77FF90EF90F5
:1046B000DF90CF90BF90AF909F908F9008956093C0
:1046C0000E0170930F0180931001909311010895D2
:1046D000FB01DC0105900D920020E1F70895F999A6
:1046E000FECF92BD81BDF89A992780B50895262FF7
:1046F000F999FECF1FBA92BD81BD20BD0FB6F894C7
:10470000FA9AF99A0FBE01960895052E97FB1EF4AA
:1047100000940E949C2357FD07D00E94B72307FCFA
:1047200003D04EF40C949C235095409530952195E0
:104730003F4F4F4F5F4F08959095809570956195CD
:104740007F4F8F4F9F4F08950E94D923A59F900DB3
:10475000B49F900DA49F800D911D11240895B7FF63
:104760000C94A4230E94A423821B930B0895A1E21E
:104770001A2EAA1BBB1BFD010DC0AA1FBB1FEE1FDB
:10478000FF1FA217B307E407F50720F0A21BB30B26
:10479000E40BF50B661F771F881F991F1A9469F7A2
:1047A00060957095809590959B01AC01BD01CF01FE
:1047B0000895A29FB001B39FC001A39F700D811DFA
:1047C0001124911DB29F700D811D1124911D08951A
:1047D0005058BB27AA270E9400240C94A3250E94AE
:1047E0006A2538F00E94712520F039F49F3F19F4B2
:1047F00026F40C9467250EF4E095E7FB0C946125F4
:10480000E92F0E94C82558F3BA1762077307840777
:10481000950720F079F4A6F50C94EA250EF4E095BE
:104820000B2EBA2FA02D0B01B90190010C01CA016A
:10483000A0011124FF27591B99F0593F50F4503E15
:1048400068F11A16F040A22F232F342F4427585F07
:10485000F3CF469537952795A795F0405395C9F71F
:104860007EF41F16BA0B620B730B840BBAF09150D7
:10487000A1F0FF0FBB1F661F771F881FC2F70EC076
:10488000BA0F621F731F841F48F487957795679549
:10489000B795F7959E3F08F0B0CF9395880F08F035
:1048A0009927EE0F9795879508950E943D2508F466
:1048B00081E008950E947A25E3950C94B4250E9426
:1048C00073240C94A3250E94712558F00E946A2538
:1048D00040F029F45F3F29F00C94612551110C94AC
:1048E000EB250C9467250E94C82568F39923B1F342
:1048F000552391F3951B550BBB27AA276217730706
:10490000840738F09F5F5F4F220F331F441FAA1F99
:10491000A9F335D00E2E3AF0E0E832D09150504055
:10492000E695001CCAF72BD0FE2F29D0660F771F03
:10493000881FBB1F261737074807AB07B0E809F0E9
:10494000BB0B802DBF01FF2793585F4F3AF09E3F6E
:10495000510578F00C9461250C94EB255F3FE4F34E
:10496000983ED4F3869577956795B795F7959F5FB1
:10497000C9F7880F911D9695879597F90895E1E0FD
:10498000660F771F881FBB1F621773078407BA075C
:1049900020F0621B730B840BBA0BEE1F88F7E095B7
:1049A00008950E94D02588F09F5798F0B92F992735
:1049B000B751B0F0E1F0660F771F881F991F1AF00A
:1049C000BA95C9F714C0B13091F00E94EA25B1E060
:1049D00008950C94EA25672F782F8827B85F39F05F
:1049E000B93FCCF3869577956795B395D9F73EF4A3
:1049F00090958095709561957F4F8F4F9F4F08954B
:104A0000E89409C097FB3EF4909580957095619568
:104A10007F4F8F4F9F4F9923A9F0F92F96E9BB271E
:104A20009395F695879577956795B795F111F8CF9A
:104A3000FAF4BB0F11F460FF1BC06F5F7F4F8F4F05
:104A40009F4F16C0882311F096E911C0772321F0FB
:104A50009EE8872F762F05C0662371F096E8862F93
:104A600070E060E02AF09A95660F771F881FDAF7EA
:104A7000880F9695879597F90895990F0008550F17
:104A8000AA0BE0E8FEEF16161706E807F907C0F0D4
:104A900012161306E407F50798F0621B730B840BDC
:104AA000950B39F40A2661F0232B242B252B21F4B6
:104AB00008950A2609F4A140A6958FEF811D811D56
:104AC000089597F99F6780E870E060E008959FEF90
:104AD00080EC089500240A94161617061806090695
:104AE000089500240A941216130614060506089564
:104AF0000C9467250E94D025D8F3E894E0E0BB270A
:104B00009F57F0F02AED3FE049EC06C0EE0FBB0FD7
:104B1000661F771F881F28F0B23A62077307840761
:104B200028F0B25A620B730B840BE3959A9572F7D7
:104B3000803830F49A95BB0F661F771F881FD2F715
:104B400090480C946D26092E0394000C11F48823D0
:104B500052F0BB0F40F4BF2B11F460FF04C06F5F35
:104B60007F4F8F4F9F4F0895EF93E0FF07C0A2EA5A
:104B70002AED3FE049EC5FEB0E9400240E94A32550
:104B80000F90039401FC9058E8E6F0E00C9479262D
:104B900057FD9058440F551F59F05F3F71F04795EE
:104BA000880F97FB991F61F09F3F79F087950895D3
:104BB000121613061406551FF2CF4695F1DF08C0F2
:104BC000161617061806991FF1CF8695710561050F
:104BD00008940895E894BB2766277727CB0197F9B7
:104BE00008950E943D2508F48FEF08950E9409263C
:104BF0000C94A3250E946A2538F00E94712520F0AC
:104C0000952311F00C9461250C94672511240C94C4
:104C1000EB250E94C82570F3959FC1F3950F50E0D6
:104C2000551F629FF001729FBB27F00DB11D639F5E
:104C3000AA27F00DB11DAA1F649F6627B00DA11D04
:104C4000661F829F2227B00DA11D621F739FB00DAA
:104C5000A11D621F839FA00D611D221F749F33271A
:104C6000A00D611D231F849F600D211D822F762FB3
:104C70006A2F11249F5750409AF0F1F088234AF090
:104C8000EE0FFF1FBB1F661F771F881F91505040FC
:104C9000A9F79E3F510580F00C9461250C94EB25FB
:104CA0005F3FE4F3983ED4F3869577956795B79583
:104CB000F795E7959F5FC1F7FE2B880F911D96959D
:104CC000879597F908959F930E947A250F9007FC86
:104CD000EE5F0C94B4259F3F31F0915020F48795FE
:104CE00077956795B795880F911D9695879597F954
:104CF00008959F938F937F936F93FF93EF939B01FF
:104D0000AC010E94F625EF91FF910E948D262F9114
:104D10003F914F915F910C94F625DF93CF931F93B2
:104D20000F93FF92EF92DF927B018C01689406C093
:104D3000DA2EEF010E940926FE01E894A591259143
:104D4000359145915591A6F3EF010E940024FE0193
:104D50009701A801DA9469F7DF90EF90FF900F9127
:104D60001F91CF91DF910895991B79E004C0991F9D
:104D7000961708F0961B881F7A95C9F780950895B5
:104D8000AA1BBB1B51E107C0AA1FBB1FA617B70771
:104D900010F0A61BB70B881F991F5A95A9F780958D
:104DA0009095BC01CD01089597FB072E16F4009451
:104DB00007D077FD09D00E94C02607FC05D03EF43D
:104DC000909581959F4F0895709561957F4F0895B7
:044DD000F894FFCF85
:104DD400B208B20800002F03200001000000010007
:104DE40000002F0000000000000000000000000090
:104DF40000000D00000000000000000000000000A2
:104E04000000000800000000007F0A00150B0000ED
:0C4E140000001A000019206F662000004A
:107E0000112484B714BE81FFFDD085E080938100EA
:107E100082E08093C00088E18093C10096E0909357
:107E2000C20090E19093C400809360008EE0809344
:107E30006000259A86E020E33CEF91E030938500D6
:107E40002093840096BBB09BFECF1D9AA8958150CD
:107E5000A9F7C0E0D0E008E138E0F32EEE24E39487
:107E600045E0B42E51E1A52E13E0A7D0813491F462
:107E7000A4D0D82EAED082E8D81203C084E096D029
:107E800092C0E1E8DE1203C084E090D08CC083E0B1
:107E90008DD089C0823419F484E1A7D084C08534A0
:107EA00019F485E0A2D07FC0853549F486D0C82F6B
:107EB00084D0D0E0D82BCC0FDD1F8BD074C086359A
:107EC00029F484E092D080E071D06DC0843609F04E
:107ED0003FC073D072D0982E70D0C115F0E7DF0785
:107EE00038F4FE0117BFE895C12CDD24D39403C0FC
:107EF000C12CDD24D39461D0F60181936F019E12D1
:107F0000FACFC115F0E7DF0718F0FE0117BFE895BB
:107F100060D007B600FCFDCFFE01A0E0B1E08C917F
:107F200011962C91119790E0922B0C01E7BEE895E9
:107F3000112432961296A03881E0B80781F7FE012D
:107F4000B7BEE89507B600FCFDCFA7BEE8952BC0ED
:107F50008437B1F432D031D0982E2FD03AD0892C3A
:107F6000FE016F018FEFC81AD80A84911FD08A943E
:107F7000F6018110F6CF21969A94C90DD11D13C038
:107F8000853741F426D08EE111D085E90FD08FE0FE
:107F90000DD009C0813531F400936000F09260008B
:107FA00018D001C016D080E101D05FCF9091C00001
:107FB00095FFFCCF8093C60008958091C00087FF95
:107FC000FCCF8091C00084FD01C0A8958091C600BF
:107FD0000895F3DF803239F088E18093600088E013
:107FE00080936000FFCF84E1E1CFCF93C82FE5DF1E
:107FF000C150E9F7CF91EDCFE0E6F0E098E1908352
:1080000080830895E0E6F0E088E180831082EE2727
:04801000FF270994A9
:027FFE00040479
:0400000300007E007B
:00000001FF
