:100000000C9487080C94270F0C94000F0C94A408F0
:100010000C94A4080C94A4080C94A4080C94A408B0
:100020000C94A4080C94A4080C94A4080C94A408A0
:100030000C94A4080C944E0F0C94A4080C94A408DF
:100040000C94B60E0C94A4080C94A4080C94A40868
:100050000C94A4080C94A4080C94A4080C94A40870
:100060000C94A4080C94A40805A84CCDB2D44EB9A5
:100070003836A9020C50B9918688083CA6AAAA2A4B
:10008000BE000000803F500B7FDFFFFFFFF7FFFC4B
:100090001FC33F9FFFFFFFFFFFF80F803F9F0743F6
:1000A000F0F7C171C7181F1E733DEE779C63E31F05
:1000B0005F5CF97EDF373E63E3034E5DFD7EDFF775
:1000C0007F63E3816EDDFD7EDFF77F63E3C064DD88
:1000D000FD7EDFF77F63E3F875DCF97EDF373E7185
:1000E000C71871DE737EEE779C780F017BDF077E89
:1000F000F0F7C17C1FC33825FFFFFFE7FFFFFFFFBD
:10010000FFFF99FFFFFFFFFFFE7E7FFFFFFFFFF96D
:10011000E79FFFFFFFFFE799E7FFFFFFFF9FFFF963
:10012000FFFFFFFE7FFFFE7FFFFFF9FFFFFF9FFF47
:10013000FFE7FFFFFFE7FFFF9FFFFFFFF9FFFE7FE6
:10014000FFC7FFFE7FF9FFFFC1FFFF9FE7FFFFC86B
:100150007FFFE79FFFF80E1FFFF97FFFF8FF9FFF6C
:10016000FE1FFFFC3FFFFFF807FFFF0FFFFFE60149
:10017000FFFFC3FFFF98007FFFF3FFFE66201FFF16
:10018000FFFFF9984007FFFFFFE6618401FFFFFFD3
:10019000998188007FFFFE661190401FFFF9984902
:1001A000988007FFE6613FF90401FF9984FFF98811
:1001B000007E6613FFFF904019984FFFFF9880065E
:1001C000613FFFFFF9040184FFFFFFF9880613FF79
:1001D000FFFFFF90404FFFFFFFFF98813FFFFFFFB2
:1001E000FFF900FFFFFFFFFFF98BFFFFFFFFFFFF9E
:1001F0009FFFFFFFFFFFFF9FFFFFFF0000000023A7
:10020000002600290000000008000201000003048D
:10021000070000000000000000000000002500288A
:10022000002B0000000000240027002A0004040422
:10023000040404040402020202020203030303038F
:10024000030102040810204080010204081020016C
:10025000020408102053536176657200004D6F6EE2
:10026000636961000046696C65730000004564695C
:10027000740000000050315800000000004C6F6F07
:100280006B0000000041626F7574000000467265EB
:1002900065000000000000000000000000000000F9
:1002A0000000096000000000000071310000007AC9
:1002B0007361773200006378646534330000207620
:1002C0006674723500006E62686779360000006DF2
:1002D0006A75373800002C6B696F303900002E2F9B
:1002E0006C3B702D00000027005B3D000000000DFE
:1002F0005D005C00000000000000007F0000310095
:100300003437000000302E323536381B00002B33D6
:100310002D2A39000000000000000000000000004D
:1003200000000000000000000000097E0000000046
:10033000000051210000005A53415740000043582B
:1003400044452423000020564654522500004E42C6
:100350004847595E0000004D4A55262A00003C4B94
:10036000494F292800003E3F4C3A505F00000022D0
:10037000007B2B000000000D7D007C0000000000D1
:100380000000007F000031003437000000302E32C2
:100390003536381B00002B332D2A390000000000B1
:1003A000000000000000000000000000000000004D
:1003B000000000000000000000000000000000003D
:1003C000000000000000000000000000000000002D
:1003D000000000000000000000000000000000001D
:1003E000000000000000000000000000000000000D
:1003F00000000000000000000000000000000000FD
:1004000000000000000000000000000000000000EC
:1004100000000000000000000000000000000000DC
:100420000000000000000000000000000000434346
:1004300030203230323420503158000000000000AB
:1004400000000000000054564F55543A2030303020
:10045000207820303020312D626974000000524134
:100460004D3A2030303030206F6620323034382022
:100470006279746573004350553A2041544D656765
:1004800061333238702031364D687A0000004D6F8C
:100490006E6369614F533A20616C7068612000009F
:1004A00000000000000041726475696E6F20554EB7
:1004B0004F20523300000000000000000000557380
:1004C00065206C6566742F7269676874206172724A
:1004D0006F7773000000202A20537461726669658B
:1004E0006C64202020202020200000000000202A12
:1004F0002053696E75736F696420417274697374F7
:1005000020000000000053637265656E53617665DC
:10051000723A000000000000000000000000202AE5
:10052000204469676974616C206172742020202006
:10053000200000000000202A204C696E65732076A0
:100540006572746963616C20200000000000202A3D
:10055000204C696E657320686F72697A6F6E746182
:100560006C0000000000202A20576869746520662E
:10057000696C6C20202020202000000000005761C2
:100580006C6C70617065723A000000000000000041
:1005900000000000000004062000000000000040F1
:1005A0004040004000A0A000000000A0E0A0E0A0AB
:1005B000004060C060C000A0204080A0002040C07B
:1005C000A0E000808000000000408080804000802B
:1005D000404040800040A0400000000040E040005B
:1005E000000000008080000000E00000000000002B
:1005F000008000202040808000E0A0A0A0E000401B
:10060000C04040E000E020E080E000E020E020E0AA
:1006100000A0A0E0202000E080E020C000C080E03A
:10062000A0E000E02040808000E0A0E0A0E000E04A
:10063000A0E020600000400040000000400040803A
:100640000020408040200000E000E00000804020CA
:10065000408000C02040004000E0A0A0E0E000E0BA
:10066000A0E0A0A000C0A0E0A0C000E0808080E0EA
:1006700000C0A0A0A0C000E080E080E000E080E03A
:10068000808000E08080A0E000A0A0E0A0A000E0CA
:10069000404040E000202020A0E00080A0C0C0A09A
:1006A0000080808080E000A0E0E0A0A000C0A0A0CA
:1006B000A0A00040A0A0A04000E0A0E080800040FA
:1006C000A0A0E06600E0A0C0E0AA00E080E020E09A
:1006D00000E04040404000A0A0A0A0E000A0A0A0FA
:1006E000A04000A0A0E0E0A200A0A040A0A000A028
:1006F000A040404000E0204080E000C0808080C0FA
:1007000000808040202000C0404040C00040A00049
:1007100000000000000000E0008040000000000039
:1007200060A0A060008080C0A0C0000060808060E9
:1007300000202060A0600040A0E08060006040E0F9
:1007400040400060A06020C0008080C0A0A00040A9
:10075000004040400040004040C0008080A0C0A059
:1007600000C0404040E00000A0E0A0A00000C0A009
:10077000A0A0000040A0A0400000C0A0C0800000D9
:1007800060A060200000C0A0808000006040206069
:100790000040E04040400000A0A0A0600000A0A0F9
:1007A000A0400000A0A0E0A00000A04040A00000E9
:1007B000A0E020400000E04080E0002040C0402257
:1007C0000040400040400080406040800000A04069
:1007D0000000004A616E6B6F77736B690000000068
:1007E00000000000000000000000004B72797374EC
:1007F00069616E00000000000000000000000000C1
:100800000000004B727A79737A746F660000000002
:1008100000000000000000000000000808000000C8
:10082000000000000000003E41554155493E003E99
:100830007F6B7F6B773E0022777F7F3E1C0800082E
:100840001C3E7F3E1C0800081C2A7F2A081C00084A
:100850001C3E7F3E081C00001C3E3E3E1C00FFFF6D
:10086000E3C1C1C1E3FF00001C2222221C00FFFFE4
:10087000E3DDDDDDE3FF000F030539484830000804
:100880003E081C22221C0018141010307060000F4B
:1008900019111337766000082A1C771C2A0800609B
:1008A000787E7F7E786000030F3F7F3F0F03000854
:1008B0001C2A082A1C080066666666006666003FF9
:1008C00065653D050505000C324824124C300000DA
:1008D0000000007F7F7F00081C2A082A1C3E0008B9
:1008E0001C3E7F1C1C1C001C1C1C7F3E1C0800089E
:1008F0000C7E7F7E0C080008183F7F3F1808000020
:10090000007070707F7F000014227F2214000008A6
:100910001C1C3E3E7F7F007F7F3E3E1C1C0800006B
:1009200000000000000000183C3C181800180036B9
:100930003614000000000036367F367F3636000859
:100940001E201C023C080060660C18306606003C45
:10095000663C2865663F00181818300000000060EB
:1009600030181818306000060C1818180C06000013
:10097000361C7F1C3600000008083E0808000000F6
:10098000000030303060000000003C00000000003B
:100990000000000060600000060C18306000003CA1
:1009A000666E7666663C001818381818187E003C8B
:1009B00066060C30607E003C66061C06663C000C39
:1009C0001C2C4C7E0C0C007E607C0606663C003CB9
:1009D00066607C66663C007E660C0C181818003C4D
:1009E00066663C66663C003C66663E06663C000009
:1009F0001818001818000000181800181830000601
:100A00000C1830180C060000003C003C0000006090
:100A100030180C183060003C66061C1800180038AE
:100A2000445C58423C00003C66667E666666007C1C
:100A300066667C66667C003C66606060663C007C46
:100A400066666666667C007E60607C60607E007EB6
:100A500060607C606060003C6660606E663C006662
:100A600066667E666666003C18181818183C001EFC
:100A70000C0C0C6C6C3800666C7870786C660060DE
:100A800060606060607E0063777F6B6363630063B8
:100A9000737B6F676363003C66666666663C007CDA
:100AA0006666667C6060003C6666666E3C06007C3E
:100AB00066667C786C66003C66603C06663C007E40
:100AC0005A1818181818006666666666663E00664C
:100AD000666666663C18006363636B7F77630063DA
:100AE00063361C366363006666663C181818007E21
:100AF000060C1830607E001E18181818181E00000A
:100B00006030180C060000781818181818780008BB
:100B1000142241000000000000000000007F000CD3
:100B20000C06000000000000003C063E663E00602F
:100B300060607C66667C0000003C6660663C000687
:100B400006063E66663E0000003C667E603C001C79
:100B50003630307C303000003E66663E063C006039
:100B600060607C666666000018001818183C000C6F
:100B7000000C0C6C6C38006060666C786C66001859
:100B800018181818181800000063777F6B6B0000A6
:100B9000007C7E6666660000003C6666663C00007F
:100BA0007C66667C606000003C6C6C3C0D0F000055
:100BB000007C666660600000003E403C027C0000F5
:100BC00018187E181818000000666666663E000059
:100BD000000066663C18000000636B6B6B3E000013
:100BE00000663C183C6600000066663E063C00005D
:100BF000003C0C18303C000E18183018180E001865
:100C0000181800181818007018180C181870000020
:100C1000003A6C00000000081C366341417F10164A
:100C2000FC918591849184918491849184918491A3
:100C3000848A8484848AFC918091809180918091BF
:100C4000809180918091809180918091546000008A
:100C500005555555550000000000000BFFFFBBAACD
:100C6000A2A2000000001555555555400000000097
:100C7000001FFFFFFEEEAAA8A00000001555555565
:100C8000550000000000003FFFFFBBAAAA22200081
:100C90000000155D5D55554000000000007FFFFF1E
:100CA000EEEEAAAAA00000005555555555000000CB
:100CB0000000007FFFFFFAAAA222A000000055D585
:100CC00055D554400000000000FFFFFFFFEAAAA82E
:100CD000A00000005555555555000000000000FFCC
:100CE000FFFFFFBAAA22A00000005DDDDDDD554058
:100CF0000040000000FFFFFFFFFFEAAAA80000007D
:100D00007777755575500000000000FFFFFFFFFF6B
:100D1000AAA2A0000001DDDDDDDDD550004000000D
:100D200000FFFFFFFFFFEAAAA80000015557755515
:100D300055500000000003FBBFFFFBAAAA222000C1
:100D40000005DD55D5554554000000000EFEFFFEA0
:100D5000BFEEBEAA8A8000055555511755140001F3
:100D600000000ABFBBFABFEABA222A8000055D551F
:100D700055555554000540000EFFFFEAAFFEAAA8E6
:100D8000ABC00005555551155550000540000FFFEB
:100D9000FFAAABBFAA222B800005DD555445555450
:100DA000000500000FFFFFEAABFFEAAAAF800005D5
:100DB0005555500555500015000003FFFFAAABFB29
:100DC000AAA2AA000005D5D54445D5540044000088
:100DD00007FFFFEAAFFFEAAAAE000005575551052D
:100DE00055500014000003FFFFEAAFFFAA2A2A00B3
:100DF0000001DDDDD545DD540414000000FFFFEEE9
:100E0000AFFFEAAAAC0000007777555555500010A7
:100E1000000000FFFFEBBFFFAAAAB80000005DDDE5
:100E2000D5D5D54000400000007FFFFEFFFFEAAAB5
:100E3000E000000077575555555001400000007FF5
:100E4000FFFFFFFFAA2B800000005DDDDD555D5038
:100E500000000000003FFFFFFFFFEAA000000000CD
:100E600015557555555000000000001FFFFFFBFF92
:100E7000AAA0000000000DD5DD555550000000006F
:100E8000000FFFFFEEFFEAA00000000007555551DC
:100E9000555000000000000FFBAAABFFAA000000A5
:100EA000000005D555555544000000000007FFFF20
:100EB000FFFFEA80000000000575755555500000E1
:100EC00000000003FFFFFFFBBA200000000005DD6B
:100ED000DDD555500000000000ABFFFFFFFEEA88A3
:100EE00080000000017777555550000000000A2B64
:100EF000FFFFFFABAA2222000000015DDD55554037
:100F0000000000002AAAFFFFFEAAAA8A8A80000029
:100F10000155555500000000000022A2BFFFAAAAFB
:100F2000AA22222000004155555540000000000033
:100F3000AAAAEEFEEAAAAA888880000001555555A3
:100F4000000000000000A2ABABBBAAAAAA2222208C
:100F5000000005555545454000000000AAABEEAE27
:100F6000AAAAAA8A8A8000000155555111100000D2
:100F70000002A2ABBAAAAAAAAA222220004445557E
:100F80005554454000000000AAAAEEEEEAAAA8883F
:100F900088A0001111555555151000000000AAAA8F
:100FA000ABBBBAAAAA22222000554555555555502B
:100FB0000000000AAAAEEEEFEEAEAA8A8A80001503
:100FC0001555555555400000002AAAABAABBBAAA30
:100FD000A22222200045555555555440000000AA34
:100FE000AAAEEEEFEEEA88AAA88000015555555545
:100FF00050000000002AAABBABABBBAA222A2220C9
:101000000445555555554400000000AAAAFEEFEED0
:10101000EAAAAAAA8A800001555555550000000089
:10102000002AAAFAABBAAAA2A2A2222004445555C9
:1010300055554000000000AAAAFAAAEAEAAAE8AABE
:10104000A88000015555515101500000002AABBB4A
:10105000ABAAAA2BFA2A222004455555555405540B
:10106000000000AAABFAAAEAAAABEAAAAA80556EC7
:101070006B6E6F776E20636F6D6D616E6400000044
:1010800000000000000044454255470000000000F9
:1010900000000000000000000000000000002062CE
:1010A000797465730000000000000000000000007B
:1010B000000000000000467265652052414D3A2054
:1010C0000000000000000000000000000000436C71
:1010D0006F73650000000835085522558855A255E4
:1010E000A855AA55AA55AA57AA55AA77AAD5AA7744
:1010F000AADDAAFFAADFAAFFAAFFEAFFAAFFEEFF66
:10110000BAFFEEFFBBFFEFFFBBFFFFFFBF001124E5
:101110001FBECFEFD8E0DEBFCDBF11E0A0E0B1E051
:10112000ECEDF9E402C005900D92A634B107D9F7B1
:1011300023E0A6E4B1E001C01D92A532B207E1F7B9
:101140000E94CB1A0C94EC240C94000008950F9389
:10115000CF93DF93E0E1F3E0A785B089C0918201EE
:10116000D09183018285AC0FBD1F8E3191F08D31FE
:1011700051F08C3149F08B3141F08A3139F08931AD
:1011800031F0883129F01CC032C048C05EC074C044
:101190008AC00D900BB80000000C0BB80000000CCA
:1011A0000BB80000000C0BB80000000C0BB80000DE
:1011B000000C0BB80000000C0BB80000000C0BB8C2
:1011C0000D900BB80000000C0BB80000000C0BB821
:1011D0000000000C0BB80000000C0BB80000000C65
:1011E0000BB80000000C0BB80000000C0BB80D9001
:1011F0000BB80000000C0BB80000000C0BB800008E
:10120000000C0BB80000000C0BB80000000C0BB871
:101210000000000C0BB80000000C0BB80D900BB8D0
:101220000000000C0BB80000000C0BB80000000C14
:101230000BB80000000C0BB80000000C0BB800004D
:10124000000C0BB80000000C0BB80D900BB80000A0
:10125000000C0BB80000000C0BB80000000C0BB821
:101260000000000C0BB80000000C0BB80000000CD4
:101270000BB80000000C0BB80D900BB80000000C70
:101280000BB80000000C0BB80000000C0BB80000FD
:10129000000C0BB80000000C0BB80000000C0BB8E1
:1012A0000000000C0BB80D900BB80000000C0BB840
:1012B0000000000C0BB80000000C0BB80000000C84
:1012C0000BB80000000C0BB80000000C0BB80000BD
:1012D000000C0BB80D900BB80000000C0BB8000010
:1012E000000C0BB80000000C0BB80000000C0BB891
:1012F0000000000C0BB80000000C0BB80000000C44
:101300000BB80D900BB80000000C0BB80000000CDF
:101310000BB80000000C0BB80000000C0BB800006C
:10132000000C0BB80000000C0BB80000000C0BB850
:101330000D900BB80000000C0BB80000000C0BB8AF
:101340000000000C0BB80000000C0BB80000000CF3
:101350000BB80000000C0BB80000000C0BB80D908F
:101360000BB80000000C0BB80000000C0BB800001C
:10137000000C0BB80000000C0BB80000000C0BB800
:101380000000000C0BB80000000C0BB80D900BB85F
:101390000000000C0BB80000000C0BB80000000CA3
:1013A0000BB80000000C0BB80000000C0BB80000DC
:1013B000000C0BB80000000C0BB80D900BB800002F
:1013C000000C0BB80000000C0BB80000000C0BB8B0
:1013D0000000000C0BB80000000C0BB80000000C63
:1013E0000BB80000000C0BB80D900BB80000000CFF
:1013F0000BB80000000C0BB80000000C0BB800008C
:10140000000C0BB80000000C0BB80000000C0BB86F
:101410000000000C0BB80D900BB80000000C0BB8CE
:101420000000000C0BB80000000C0BB80000000C12
:101430000BB80000000C0BB80000000C0BB800004B
:10144000000C0BB80D900BB80000000C0BB800009E
:10145000000C0BB80000000C0BB80000000C0BB81F
:101460000000000C0BB80000000C0BB80000000CD2
:101470000BB80D900BB80000000C0BB80000000C6E
:101480000BB80000000C0BB80000000C0BB80000FB
:10149000000C0BB80000000C0BB80000000C0BB8DF
:1014A0000D900BB80000000C0BB80000000C0BB83E
:1014B0000000000C0BB80000000C0BB80000000C82
:1014C0000BB80000000C0BB80000000C0BB80D901E
:1014D0000BB80000000C0BB80000000C0BB80000AB
:1014E000000C0BB80000000C0BB80000000C0BB88F
:1014F0000000000C0BB80000000C0BB80D900BB8EE
:101500000000000C0BB80000000C0BB80000000C31
:101510000BB80000000C0BB80000000C0BB800006A
:10152000000C0BB80000000C0BB80D900BB80000BD
:10153000000C0BB80000000C0BB80000000C0BB83E
:101540000000000C0BB80000000C0BB80000000CF1
:101550000BB80000000C0BB80D900BB80000000C8D
:101560000BB80000000C0BB80000000C0BB800001A
:10157000000C0BB80000000C0BB80000000C0BB8FE
:101580000000000C0BB80D900BB80000000C0BB85D
:101590000000000C0BB80000000C0BB80000000CA1
:1015A0000BB80000000C0BB80000000C0BB80000DA
:1015B000000C0BB80D900BB80000000C0BB800002D
:1015C000000C0BB80000000C0BB80000000C0BB8AE
:1015D0000000000C0BB80000000C0BB80000000C61
:1015E0000BB80D900BB80000000C0BB80000000CFD
:1015F0000BB80000000C0BB80000000C0BB800008A
:10160000000C0BB80000000C0BB80000000C0BB86D
:101610000D900BB80000000C0BB80000000C0BB8CC
:101620000000000C0BB80000000C0BB80000000C10
:101630000BB80000000C0BB80000000C0BB80D90AC
:101640000BB80000000C0BB80000000C0BB8000039
:10165000000C0BB80000000C0BB80000000C0BB81D
:101660000000000C0BB80000000C0BB80D900BB87C
:101670000000000C0BB80000000C0BB80000000CC0
:101680000BB80000000C0BB80000000C0BB80000F9
:10169000000C0BB80000000C0BB80D900BB800004C
:1016A000000C0BB80000000C0BB80000000C0BB8CD
:1016B0000000000C0BB80000000C0BB80000000C80
:1016C0000BB80000000C0BB80D900BB80000000C1C
:1016D0000BB80000000C0BB80000000C0BB80000A9
:1016E000000C0BB80000000C0BB80000000C0BB88D
:1016F0000000000C0BB8000000005F98DF91CF9154
:101700000F9108950F93CF93DF93E0E1F3E0A78566
:10171000B089C0918201D09183018285AC0FBD1F39
:1017200002C0000C0BB80D9000000BB800000000C8
:10173000000C0BB800000000000C0BB8000000000B
:10174000000C0BB800000000000C0BB800000000FB
:10175000000C0BB80000000C8A950BB811F70000C4
:10176000000C0BB80000000000005F98DF91CF91E3
:101770000F9108950F93CF93DF93E0E1F3E0A785F6
:10178000B089C0918201D09183018285AC0FBD1FC9
:101790000BB10F7703C000FA07F90BB90D9007FAE8
:1017A00007F90BB90000000006FA07F90BB90000B1
:1017B000000005FA07F90BB90000000004FA07F968
:1017C0000BB90000000003FA07F90BB90000000094
:1017D00002FA07F90BB900008A9501FA07F90BB96B
:1017E000D1F6000000FA07F90BB90BB10F7707FB30
:1017F00007F90BB9DF91CF910F9108950F93CF9314
:10180000DF93E0E1F3E0A785B089C0918201D09138
:1018100083018285AC0FBD1F0BB10F7703C000FAA7
:1018200007F90BB90D90000007FA07F90BB9000092
:101830000000000006FA07F90BB9000000000000E4
:1018400005FA07F90BB900000000000004FA07F9D7
:101850000BB900000000000003FA07F90BB9000003
:101860000000000002FA07F90BB9000000000000B8
:1018700001FA07F90BB98A9591F60000000000FA09
:1018800007F90BB90BB10F7707FB07F90BB9DF911C
:10189000CF910F9108952091100330911103809101
:1018A000170390911803281739070CF44EC08CEADF
:1018B00093E0909389008093880010921103109216
:1018C00010038091120390911303A0911403B0911F
:1018D00015030196A11DB11D80931203909313036C
:1018E000A0931403B093150380917E0190917F0122
:1018F000A0918001B0918101892B8A2B8B2B09F15A
:1019000080917E0190917F01A0918001B091810131
:10191000181619061A061B0684F580917E0190910F
:101920007F01A0918001B09181010197A109B109C6
:1019300080937E0190937F01A0938001B0938101F9
:101940001CC01092B1002B9818C020911003309148
:10195000110380911E03082E000C990B28173907DC
:1019600061F48AE490E0909389008093880087EC8A
:101970009CE090938E0180938D0180911003909153
:101980001103019690931103809310030895209101
:101990001003309111038091160390E02817390746
:1019A00059F4109283011092820180911C0380935C
:1019B0001D0387EF9CE00DC02091100330911103AF
:1019C00080911703909118032817390731F48BE49D
:1019D0009CE090938E0180938D01809110039091F3
:1019E0001103019690931103809310030895309191
:1019F000840020911B032A50231B2350F0F72D5FF6
:101A000019F02A9511F001C00000E0918F01F091CA
:101A10009001099590911D0380911C0391110FC0B5
:101A200080931D0390911A032091820130918301CC
:101A3000290F311D309383012093820103C09150FF
:101A400090931D0340911003509111034F5F5F4F1E
:101A5000082E000C990B019660911903689F900164
:101A6000699F300D112480911603B901680F711D13
:101A70004617570731F487EC9CE090938E018093D2
:101A80008D018091100390911103019690931103A1
:101A90008093100308950895CF93DF9390917B0175
:101AA0002091930130919401A9014F5E5E4FB901DD
:101AB00068577F4FD901A05FBE4F80919101E0919F
:101AC00092018E1304C090937B0180E05BC08F5F16
:101AD0008D3208F080E0E82FF0E0E25BFE4FE0811D
:101AE00080939101EE2379F3E03F11F49160E5CF0B
:101AF000E03E11F49260E1CF90FF0EC0E23111F4AC
:101B00009B7F08C0E93511F4977F04C0E13111F4DF
:101B100091FD9F7E9C7FD1CFE23111F49460CDCFB7
:101B2000E93511F49860C9CFE13111F491FD90616C
:101B300091FF08C0EA54E433E8F4F0E0EE5EFE4FB3
:101B4000E08119C094FF07C08C91882321F0E83808
:101B500088F4EA010AC0892F8C7021F0E83850F42B
:101B6000EB0103C0E83830F4E901CE0FD11DFE01CE
:101B7000E49101C0E0E09C7FEE2309F49ECF9093B6
:101B80007B018E2FDF91CF910895CF93DF9390E06B
:101B9000FC01EF5BFD4F2491FC01E35DFD4F84915F
:101BA000882361F190E0880F991FFC01ED5DFD4FE6
:101BB000C591D491FC01E75EFD4FA591B4916111EF
:101BC00009C09FB7F8948881209582238883EC917F
:101BD0002E230BC0623061F49FB7F8948881322FB6
:101BE000309583238883EC912E2B2C939FBF06C0C6
:101BF0008FB7F894E8812E2B28838FBFDF91CF9188
:101C000008952FB7F8946091890170918A018091AD
:101C10008B0190918C012FBF0895CF92DF92EF92AC
:101C2000FF920F931F93CF93DF938091950190E0E4
:101C3000FC01EB5FFD4F2491FC01EF5BFD4F349104
:101C4000FC01E35DFD4FE491EE23B9F1222339F16C
:101C5000233091F038F42130A9F0223001F584B519
:101C60008F7D12C0273091F02830A1F02430B9F4D4
:101C7000809180008F7D03C0809180008F7780935A
:101C800080000DC084B58F7784BD09C08091B000FD
:101C90008F7703C08091B0008F7D8093B000F0E01B
:101CA000EE0FFF1FE550FE4FA591B491EC91E32399
:101CB00091E009F490E0C92F02C0C0E0D0E00E949A
:101CC000010E00914A0110914B0120914C0130917D
:101CD0004D016B017C01C01AD10AE20AF30A970197
:101CE00086010B3F11052105310520F010924901B5
:101CF0001092480160934A0170934B0180934C010C
:101D000090934D01809149019FEF980F983048F4CE
:101D100001C0CC0F9A95EAF790914801C92BC09366
:101D200048018F5F809349018B30B9F48091920113
:101D30008F5F8D3208F080E090919101981749F003
:101D4000E82FF0E090914801E25BFE4F9083809392
:101D500092011092490110924801DF91CF911F9199
:101D60000F91FF90EF90DF90CF9008951F920F9208
:101D70000FB60F9211242F933F938F939F93AF939E
:101D8000BF938091890190918A01A0918B01B091BC
:101D90008C013091880123E0230F2D3720F4019628
:101DA000A11DB11D05C026E8230F0296A11DB11D7E
:101DB000209388018093890190938A01A0938B01DD
:101DC000B0938C018091840190918501A09186014E
:101DD000B09187010196A11DB11D8093840190935C
:101DE0008501A0938601B0938701BF91AF919F9128
:101DF0008F913F912F910F900FBE0F901F901895CC
:101E00001F920F920FB60F9211242F933F934F936F
:101E10005F936F937F938F939F93AF93BF93EF9352
:101E2000FF93E0910201F09103010995FF91EF9179
:101E3000BF91AF919F918F917F916F915F914F91E2
:101E40003F912F910F900FBE0F901F9018951F92EA
:101E50000F920FB60F9211242F933F934F935F93DE
:101E60006F937F938F939F93AF93BF93EF93FF9362
:101E7000E0910001F09101010995FF91EF91BF916F
:101E8000AF919F918F917F916F915F914F913F9112
:101E90002F910F900FBE0F901F9018951F920F92C9
:101EA0000FB60F9211242F933F934F935F936F932D
:101EB0007F938F939F93AF93BF93EF93FF93E091A3
:101EC0008D01F0918E010995FF91EF91BF91AF9136
:101ED0009F918F917F916F915F914F913F912F9142
:101EE0000F900FBE0F901F9018954F925F926F92B8
:101EF0007F928F929F92AF92BF92CF92DF92EF929A
:101F0000FF92CF93DF9300D000D0CDB7DEB74C0166
:101F10002A013B011092B0001092B1009091B000E4
:101F200092609093B0009091B10091609093B10055
:101F3000239AA12CB12C60E072E18AE790E0A50120
:101F400094010E94892129833A834B835C83690130
:101F50007A0121E0C21AD108E108F1088FEFC81612
:101F6000D104E104F10409F008F485C060E472E4EE
:101F70008FE090E0A50194010E94892169017A0116
:101F800081E0C81AD108E108F1082FEFC216D10488
:101F9000E104F10409F008F470C060E970ED83E039
:101FA00090E0A50194010E94892169017A0181E0F4
:101FB000C81AD108E108F1082FEFC216D104E104D4
:101FC000F10409F008F45BC068E478EE81E090E089
:101FD000A50194010E94892169017A0181E0C81A52
:101FE000D108E108F1082FEFC216D104E104F10491
:101FF00009F008F446C064E274EF80E090E0A501C7
:1020000094010E94892169017A0181E0C81AD108EE
:10201000E108F1082FEFC216D104E104F10499F1AF
:1020200090F162E17AE780E090E0A50194010E94DE
:10203000892169017A0181E0C81AD108E108F10813
:102040002FEFC216D104E104F104F9F0F0F0898118
:102050009A81AB81BC812AE0B595A7959795879524
:102060002A95D1F76C017D0121E0C21AD108E1085F
:10207000F10887E00BC081E009C082E007C083E07F
:1020800005C084E003C085E001C086E08093B10014
:102090004114510461047104A9F0ACE3B0E0A30160
:1020A00092010E94A82128EE33E040E050E00E9417
:1020B000BB2120937E0130937F0140938001509398
:1020C00081010BC08FEF9FEFDC0180937E01909325
:1020D0007F01A0938001B0938101C092B3008091F1
:1020E000B0008F778093B0008091B00080648093BF
:1020F000B0000F900F900F900F90DF91CF91FF9055
:10210000EF90DF90CF90BF90AF909F908F907F9097
:102110006F905F904F90089520911A03982F969595
:1021200096959695E0911F03F09120038770629F2A
:10213000B0011124690F711DE60FF71F413061F4E2
:1021400020E830E0A90102C0559547958A95E2F74D
:10215000CA019081892B19C041110CC02FE73FEFB4
:10216000A90102C0559547958A95E2F7CA01908169
:1021700089230BC020E830E0A90102C0559547959E
:102180008A95E2F7CA01908189278083089580911A
:102190007D01882319F010927D0118C080917C0187
:1021A000882319F010927C0102C00E944C0D87FF19
:1021B0000BC0982F9F73906890937D0182958695B0
:1021C00086958370806C02C0882311F090E008959A
:1021D0008FEF9FEF089580917C0181110EC0809157
:1021E0007D0181110AC00E944C0D982F80937C01C3
:1021F00081E0911103C080E0089581E00895CF93BC
:10220000DF93EC010E942B2120E330E040E050E01E
:102210000E948921605E7F4F8F4F9F4F0E9406234F
:10222000688379838A839B830E942B2128E130E095
:1022300040E050E00E948921605E7F4F8F4F9F4FAA
:102240000E9406236C837D838E839F830E942B21B3
:1022500025E030E040E050E00E94892160957095D3
:10226000809590950E94062320E030E040E05FE3F7
:102270000E94FA23688779878A879B87DF91CF91AD
:1022800008953F924F925F926F927F928F929F92AA
:10229000AF92BF92CF92DF92EF92FF920F931F9374
:1022A000CF93DF930E947B190E94D0206EE670E0EE
:1022B0000E94C42492E0392E380E0E94D02066E598
:1022C00070E00E94C42412E0180F0E94EB108111EC
:1022D0003BC18091B602811198C00E94010E0E94FC
:1022E000042328E430E54CEF5BE30E94FA230E94CC
:1022F00067246B017C010E94010E0E94042326E9E1
:1023000033E44BE85CE30E94FA230E9467244B010C
:102310005C0120E030E040EC51E4C701B6010E94CE
:10232000FA2320E030E040E652E40E94ED216B0108
:102330007C0120E030E040E252E4C501B4010E949B
:10234000FA239B01AC01C701B6010E94ED210E9456
:10235000D522C62F0E94010E0E94042320ED34E4F2
:1023600048ED5BE30E94FA230E945E226B017C0130
:102370000E94010E0E94042324EF3DEF44E55CE33C
:102380000E94FA230E9467244B015C0120E030E0A8
:1023900040EC51E4C701B6010E94FA2320E030E08E
:1023A00040E352E40E94ED216B017C0120E030E02B
:1023B00040EC51E4C501B4010E94FA239B01AC0139
:1023C000C701B6010E94ED210E94D522D62F0E949E
:1023D000010E9B01AC01AAE0B0E00E94A82120E51B
:1023E00033EC40E050E00E94BB21672B682B692B47
:1023F00011F40E947B1901E02D2F4C2F612F832DAA
:102400000E94D8171D2F3C2E60CF813009F05DCF80
:10241000C6E9D1E06C817D818E819F810E94D522A9
:10242000F62E688179818A819B810E94D522862F30
:1024300040E06F2D0E94AD16C880D980EA80FB80F5
:10244000488459846A847B84A701960160E070E027
:1024500080E692E40E94EC21A30192010E94FA23FB
:1024600020E030E048EC52E40E946322A70196018C
:102470000E94ED216B017C01688379838A839B83B1
:102480008C809D80AE80BF80A501940160E070E0EB
:1024900080E392E40E94EC21A30192010E94FA23BE
:1024A00020E030E048EC52E40E946322A501940150
:1024B0000E94ED214B015C016C837D838E839F83A1
:1024C00020E030E048ED52E4C701B6010E94F52358
:1024D0001816F4F020E030E040E850E4C701B601FF
:1024E0000E94592287FD14C020E030E048EA52E4FF
:1024F000C501B4010E94F523181654F020E030E025
:1025000040E850E4C501B4010E94592287FF03C08E
:10251000CE010E94FF106C817D818E819F810E947F
:10252000D522F62E688179818A819B810E94D522ED
:10253000862F41E06F2D0E94AD162C9682E0C63B9F
:10254000D80709F067CFC1CEDF91CF911F910F91CE
:10255000FF90EF90DF90CF90BF90AF909F908F90C3
:102560007F906F905F904F903F900895811151C080
:1025700048EC50E060E070E088EE93E00E94750F58
:102580002FEF89EF90E0215080409040E1F700C0AC
:10259000000048EC50E060E070E080ED97E00E94C1
:1025A000750F2FEF89EF90E0215080409040E1F7C8
:1025B00000C0000044EF51E060E070E08CE291E088
:1025C0000E94750F2FEF89EF90E0215080409040DE
:1025D000E1F700C0000048EC50E060E070E08CEDF6
:1025E00095E00E94750F8FE39CE90197F1F700C019
:1025F000000048EC50E060E070E088EB9BE00E9457
:10260000750F9FEF29EF80E0915020408040E1F767
:102610008BC0813039F442E350E060E070E084E642
:1026200090E07CC0823089F544E650E060E070E0E4
:1026300085E091E00E94750F8FE39CE90197F1F727
:1026400000C0000044E650E060E070E089E491E002
:102650000E94750F8FE39CE90197F1F700C000001D
:1026600044E650E060E070E088E891E00E94750F79
:102670008FE39CE90197F1F700C0000048EC50E0BF
:1026800060E070E08BE092E049C0833019F544E6E9
:1026900050E060E070E088E891E00E94750F8FE301
:1026A0009CE90197F1F700C0000044E650E060E0CB
:1026B00070E089E491E00E94750F8FE39CE9019737
:1026C000F1F700C0000048EC50E060E070E085E009
:1026D00091E024C0843051F546E950E060E070E0BC
:1026E00089E491E00E94750F8FE39CE90197F1F76F
:1026F00000C000004BE450E060E070E089E491E04D
:102700000E94750F8FE39CE90197F1F700C000006C
:102710004BE450E060E070E088E891E00E94750FC3
:102720008FE39CE90197F1F700C0000008954F92F4
:102730005F926F927F928F929F92AF92BF92CF9251
:10274000DF92EF92FF920F931F93CF93DF9380E07E
:102750000E9495198091B7028230F9F0833051F1CF
:10276000813071F078EBC72E72E0D72EA12CB12CFE
:1027700013E0E4E2FE2EFBEA7F2EA6E16A2E50C0B3
:10278000C4E020E04EE650E062E070E08C2F0E9452
:10279000BF16CA5FC835A9F7E5CFC4E020E046E51B
:1027A00050E062E070E08C2F0E946C17CA5FC03767
:1027B000A9F7D8CF0E94D0206EE770E00E94C42411
:1027C00012E0180F0E94D0206EE570E00E94C42431
:1027D000C2E0C80F4EE0C42ED12C5EE7852E912CAE
:1027E0006EE5A62EB12C0E94D020B4010E94C42414
:1027F00032E0F32EF80E0E94D020B5010E94C424CE
:10280000D2E0D80F00E02D2F4F2D6C2F812F0E948A
:10281000D81781E0C81AD1081F2DCD2F21F7A2CFDC
:10282000F60180818F3FF1F18090FD02912CC381F0
:102830008C2F612F0E94B8249F9D902D1124D3E0EE
:10284000D90FC79DC12D1124C695C69DC02D112439
:1028500084E1482E4C0ECA5E25E0522E590EE12C22
:1028600000E020E140E26C2F852D0E94C7188A14F9
:102870009B0419F0EE24E39400E020E140E2642D93
:102880008D2F0E94C71850920C03C0930D03F601C0
:102890006181728182E093E00E94822182E093E074
:1028A0000E94A116FFEFAF1ABF0A85E0C80ED11C27
:1028B000E9E0AE16B10409F0B3CF84E180930C03D4
:1028C00082E080930D036EE874E085EE92E00E9452
:1028D000822185EE92E00E94A1166BE070E080E01C
:1028E00090E0DF91CF911F910F91FF90EF90DF90DB
:1028F000CF90BF90AF909F908F907F906F905F90A0
:102900004F900C94471ACF9310924701C091470102
:10291000C83560F420E040E750E060E070E08C2FC4
:102920000E94BF16CE5FC0934701F0CF10924601C0
:10293000C0914601C03760F420E048E550E060E017
:1029400070E08C2F0E946C17CE5FC0934601F0CFD1
:10295000CF910895EF920F9381E00E949519E12C99
:1029600000E028E24CE36DE18EE10E94C718EE24FE
:10297000E39428E24CE369E18AE10E94C718E12C64
:1029800020E030E046EF50E06BE18CE10E940E1554
:1029900020E030E046E850E06AE480E10E940E1555
:1029A0002FEF89E698E1215080409040E1F700C088
:1029B00000000F91EF90089520910D0330911903BD
:1029C000E0910E03F0910F0331966491422F50E095
:1029D000832F90E0861B910948175907D4F0E491A2
:1029E00080911F039091200320911A03DC01E29F44
:1029F000A00DB11D1124AC01329F400D511D1124B9
:102A00009A01FC01A217B30740F48C9181931D92A7
:102A1000F9CFE491E20FE0930D0308952F923F92D6
:102A20004F925F926F927F928F929F92AF92BF92DE
:102A3000CF92DF92EF920F931F93CF93DF93CDB797
:102A4000DEB728970FB6F894DEBF0FBECDBF5A0190
:102A5000482F477078E0741B011106C0F501E20FA2
:102A6000F31F04912F5F3F4FE11006C0F501E20F05
:102A7000F31FE4902F5F3F4F902F9770E02FE69564
:102A8000E695E695992311F0EF5F01C098E08695F1
:102A900086958695A82FB0E0BC83AB83642E712CFD
:102AA0004301890E911C8FEF90E0AC01082C02C00D
:102AB000559547950A94E2F7A72FB0E0BA83A9830A
:102AC00001C0880F7A95EAF7E13011F44D8301C017
:102AD0001D82BD81B82BB887D40118978FEF90E085
:102AE00002C095958795AA95E2F78F83C12CD12CCA
:102AF000862F90E09E838D832E2E312C91E0291A13
:102B00003108CE1408F090C050911A038D819E8137
:102B10008C0D9D1D589FD001599FB00D11248B81A4
:102B20009C81A80FB91FE0910A03F0910B03EA0FF3
:102B3000FB1F5081888585238083B9016F5F7F4F9C
:102B4000F501E20FF31F8491E0910A03F0910B036A
:102B5000EA0FFB1F082F10E0062C02C01595079501
:102B60000A94E2F79081092B00832101460E571E3B
:102B70008D01021B130BD801A60FB71F20910A036A
:102B800030910B0390E06415750510F5F901EA0F1B
:102B9000FB1F5081098001C0880F0A94EAF78083E7
:102BA000F501E60FF71F849120910A0330910B0382
:102BB000A20FB31F282F30E0062C02C035952795B1
:102BC0000A94E2F79C91292B2C936F5F7F4FD3CF10
:102BD000E8E08E16910448F4FD013197E20FF31FEF
:102BE00054232081522B50830BC058E0851691044A
:102BF00039F0F901EA0FFB1F20813F812323208355
:102C000020910A0330910B03A20FB31F098002C069
:102C1000880F991F0A94E2F7EC918E2B8C935FEF4B
:102C2000C51AD50A9B016DCF28960FB6F894DEBF62
:102C30000FBECDBFDF91CF911F910F91EF90DF902D
:102C4000CF90BF90AF909F908F907F906F905F904C
:102C50004F903F902F900895EF920F93242F409123
:102C60000E0350910F03FA013296E491922F9E1BAE
:102C70009A012F5F3F4FF901E490FA010491F901A5
:102C80002491929F900111242D5F3F4F0E940E15B9
:102C90000F91EF900895CF938A30D9F0A8F488234C
:102CA00009F44DC08830E9F4E0910E03F0910F0370
:102CB000E49180910C038E1B80930C0340E26091A1
:102CC0000D03CF910C942C168D3041F08E30B9F15C
:102CD00008C010920C03CF910C94DC1410920C03DA
:102CE0002EC0C82F80910C0320911A03E0910E038F
:102CF000F0910F03E491482F50E098E0299F900154
:102D000011242E1B31092417350754F410920C039B
:102D10000E94DC144C2F60910D0380910C0303C0C2
:102D20004C2F60910D030E942C16E0910E03F09140
:102D30000F03E49180910C03E80FE0930C03CF9113
:102D40000895CF93DF93EC018991882319F00E94B5
:102D50004B16FACFDF91CF91089520911A03E82FF7
:102D6000F0E098E0299F90011124E217F30734F472
:102D700090911903691710F40C948C1008950F9317
:102D80001F93CF93DF93FB016417750749F4422F1C
:102D9000682F8E2FDF91CF911F910F910C94AD165C
:102DA0004617570718F47727FA01AB01BF01677080
:102DB00077270FEF10E0E80102C0D595C7956A9517
:102DC000E2F79C2F33E0F695E7953A95E1F76091AD
:102DD0001A03689FB0011124E60FF71FDA01A770EC
:102DE000BB2702C015950795AA95E2F7302F3095BD
:102DF000DA0143E0B695A7954A95E1F76A0F7B1F84
:102E0000E617F70711F4932330E02130F1F4DF01E6
:102E1000119640910A0350910B03E40FF51F808136
:102E2000982B90832FEF80910A0390910B03A617A4
:102E3000B70730F4FC01EA0FFB1F20831196F3CF94
:102E4000A80FB91F8C91382B41C021111FC0DF0181
:102E5000119640910A0350910B03E40FF51F9095D2
:102E600080819823908380910A0390910B03A61789
:102E7000B70730F4FC01EA0FFB1F10821196F3CF65
:102E8000A80FB91F30958C91382320C02230F9F457
:102E9000DF01119640910A0350910B03E40FF51FD7
:102EA00080819827908380910A0390910B03A61745
:102EB000B70740F4FC01EA0FFB1F808180958083F7
:102EC0001196F1CFA80FB91F8C9138273C93DF9151
:102ED000CF911F910F910895CF93DF9364177507DA
:102EE00029F4422FDF91CF910C94AD164617570766
:102EF00020F4FB01FF27BA01AF01982F9770E0E89B
:102F0000F0E002C0F595E7959A95E2F73E2F909193
:102F10001A03969FD001979FB00D11248695869530
:102F20008695ED01C80FD11DCE01213099F44617C9
:102F30005707D8F1E0910A03F0910B03E80FF91F4E
:102F40002081232B208320911A03820F911D6F5F14
:102F50007F4FEDCF211114C0E0954617570728F198
:102F6000A0910A03B0910B03A80FB91F2C912E2337
:102F70002C9320911A03820F911D6F5F7F4FEDCF2D
:102F8000223099F44617570780F0E0910A03F09138
:102F90000B03E80FF91F20812327208320911A03B8
:102FA000820F911D6F5F7F4FEDCFDF91CF9108951D
:102FB0002F923F924F925F926F927F928F929F9249
:102FC000AF92BF92CF92DF92EF92FF920F931F9337
:102FD000CF93DF9300D000D0CDB7DEB7962F322F3E
:102FE000202FE82EF12C60911A0358E0659FB00164
:102FF00011246E157F050CF4B3C0509119035917B5
:1030000008F4AEC0E42FF0E0FC83EB836E177F077B
:103010000CF4A6C0531708F4A3C084131CC0432F9C
:1030200050E0692F70E00F900F900F900F90DF919C
:10303000CF911F910F91FF90EF90DF90CF90BF90B5
:10304000AF909F908F907F906F905F904F903F9048
:103050002F900C946C1793131CC04B815C81B701AB
:10306000892F0F900F900F900F90DF91CF911F91AC
:103070000F91FF90EF90DF90CF90BF90AF909F9017
:103080008F907F906F905F904F903F902F900C9417
:10309000BF16C92ED12C481748F4A7016B817C813B
:1030A000461B570B5C834B838FEF07C0EB81FC8182
:1030B000EE19FF09FC83EB8381E0432E512C391775
:1030C00030F4A601441955092A019FEF03C04C189A
:1030D0005D0891E06B817C81641575054CF44B8132
:1030E0003C815C824B82442E532E71E0798301C077
:1030F00019822A83440C551C5201EB81FC81AE1AC3
:10310000BF0A1F01220C331C812C912C692E990FB0
:103110007708082F880F110B2B813C812815390562
:10312000FCF04A816C2D8E2D0E948C10B7FC0AC0D9
:103130003981313019F4E00EF11E02C0C60CD71CE3
:10314000A218B3084981413019F4C60CD71C02C03B
:10315000E00EF11EA40CB51C5FEF851A950ADCCFBA
:103160000F900F900F900F90DF91CF911F910F91C3
:10317000FF90EF90DF90CF90BF90AF909F908F9097
:103180007F906F905F904F903F902F9008956F9237
:103190007F928F929F92AF92BF92DF92EF92FF92B7
:1031A0000F931F93CF93DF93F82E162FD42FC22F98
:1031B000D02E8FEFE816B9F0062FA22EB12CA60E56
:1031C000B11C6F2C712C4301840E911C802F90E058
:1031D0008A159B0544F42E2DA401B301802F0E9473
:1031E000BF160F5FF3CFDF0D0D2D212F4D2F612F58
:1031F0008F2D0E94D817C10F2C2F4F2D612F8F2D8F
:103200000E94D8172C2F4D2F612F8D2F0E94D81779
:103210002C2F4D2F6C2F8F2D0E94D817DF91CF911F
:103220001F910F91FF90EF90DF90BF90AF909F9014
:103230008F907F906F900895EF92FF920F931F935E
:10324000CF93DF93F82E162F982F969588E3D82FDB
:10325000D91B6D3230F4862F86952CE2C22FC81B05
:1032600001C0C4E064E06C0FE12C00E0212F4F2D81
:103270008CE3891B0E94C71801E0212F4F2D6C2F72
:103280008D2F0E94C7181C0F84E0F82EF10E00E06D
:103290002CE044E26F2D8AE20E94C718EE24E394EA
:1032A0002CE044E2612F86E20E94C7188EE28093F0
:1032B0000C03F0920D036EEC70E182E093E00E944B
:1032C000822182E093E00E94A1168D2F90E0AC0154
:1032D0004C5F5F4F2C2F30E02C5F3F4F40930C032F
:1032E00020930D03BA01C901DF91CF911F910F9176
:1032F000FF90EF90089510920C0310920D0380E060
:1033000090E020911A0330911903239F900111241A
:10331000821793074CF4E0911F03F0912003E80F0C
:10332000F91F10820196EDCF0895EF920F93CF937E
:1033300010920C0310920D0320E030E06FEF90919B
:103340001A0340911903949FA001112424173507F3
:1033500054F4E0911F03F0912003E20FF31F608308
:103360002F5F3F4FECCF811183C020E046E050E05B
:1033700060E070E080E00E946C1720E043E050E0E5
:1033800060E070E081E00E946C1720E046E050E0D1
:1033900060E070E080E00E94BF1620E043E050E073
:1033A00060E070E081E00E94BF1620E046E050E05F
:1033B00060E070E08FE60E946C1720E043E050E090
:1033C00060E070E08EE60E946C1720E040E750E07D
:1033D0006AE670E080E00E94BF1620E040E750E01F
:1033E0006DE670E081E00E94BF1620E048E550E005
:1033F00062E570E080E00E946C1720E048E550E054
:1034000065E570E081E00E946C1720E043E050E049
:1034100060E070E086E50E94BF1620E046E050E0E4
:1034200060E070E087E50E94BF1620E048E550E0CC
:1034300062E570E08FE60E946C1720E048E550E0FE
:1034400065E570E08EE60E946C1720E040E750E0F2
:103450006AE670E087E50E94BF1620E040E750E092
:103460006DE670E086E5CF910F91EF900C94BF165A
:10347000C0E0E12C00E020E030E046ED50E160E00B
:103480008C2F0E940E15C85FC03799F76ECF8F92B0
:103490009F92AF92BF92CF92DF92EF92FF920F93E3
:1034A0001F93CF93DF93CDB7DEB7A0970FB6F894F5
:1034B000DEBF0FBECDBF6B017C0197FF0BC08DE25D
:1034C0000E944B16F094E094D094C094C11CD11C7F
:1034D000E11CF11CC701B601CD28CE28CF28A9F4E4
:1034E00080E3A0960FB6F894DEBF0FBECDBFDF918C
:1034F000CF911F910F91FF90EF90DF90CF90BF90F1
:10350000AF909F908F900C944B168E010F5F1F4FC2
:10351000C12CD12C76012AE0822E912CA12CB12C29
:103520002FEFC21AD20AE20AF20AA50194010E9400
:10353000BB21F80161938F01B901CA0161157105C1
:103540008105910569F7F1E0CF1AD108E108F1088A
:10355000FE01EC0DFD1D81818A3010F4805D01C0FB
:10356000895C0E944B16C114D104E104F10459F79F
:10357000A0960FB6F894DEBF0FBECDBFDF91CF91FE
:103580001F910F91FF90EF90DF90CF90BF90AF9081
:103590009F908F900895CF93DF9300D0CDB7DEB783
:1035A000789484B5826084BD84B5816084BD85B51E
:1035B000826085BD85B5816085BD80916E0081602A
:1035C00080936E00109281008091810082608093D0
:1035D00081008091810081608093810080918000D2
:1035E0008160809380008091B10084608093B100FD
:1035F0008091B00081608093B00080917A008460F7
:1036000080937A0080917A00826080937A00809122
:103610007A00816080937A0080917A00806880933C
:103620007A001092C10060E08EE00E94C50D80ED2E
:1036300094E00E94631F90930B0380930A0300970A
:1036400009F458C010920C0310920D0390932003BC
:1036500080931F038EE080931A0388E580931903FB
:103660001092120310921303109214031092150378
:1036700081E080931C0380931D032EEF3BE0309389
:10368000900120938F01579A219A5F98299A239A43
:1036900092EC9093800099E19093810094E4909350
:1036A000160397EC90931B0397E090931E0328E377
:1036B00031E030931803209317032FEF33E030935A
:1036C0008700209386002AE430E03093890020931D
:1036D000880029E331E030931103209310032BE499
:1036E0003CE030938E0120938D0180936F0078949D
:1036F0000E947B1986E995E090930F0380930E0357
:103700000E947B1988E08093950185E992E090936F
:1037100094018093930162E083E00E94C50D62E012
:1037200088E00E94C50D10929201109291018DE0E7
:103730009EE0909303018093020180916900837F52
:10374000886080936900E99A80E480937C0080918E
:103750007A00806480937A0080917A0086FDFCCFA5
:103760006091780070917900072E000C880B990BFE
:10377000611571058105910511F00E94792180E0A4
:103780000E94B6120E94AA1406E911E0E6EBEE2EA2
:10379000E2E0FE2EC8010E94FF10045F1F4FE016FA
:1037A000F106C1F7E8EBF2E085EE92E02FEF20831F
:1037B00035968E179F07D9F71092B8028DE892E0E0
:1037C0009093BA028093B9021092BB021092BC028D
:1037D00081E08093BD0225E832E03093BF02209360
:1037E000BE028093C0021092C10292E09093C20286
:1037F0002DE732E03093C4022093C3029093C502B8
:103800008093C60283E08093C70225E732E03093BD
:10381000C9022093C8028093CA021092CB0284E0AE
:103820008093CC022DE632E03093CE022093CD027D
:103830008093CF021092D00285E08093D10225E6DA
:1038400032E03093D3022093D2028093D4021092BC
:10385000D50286E08093D6022DE532E03093D8027F
:103860002093D7028093D9021092DA0287E08093E6
:10387000DB0225E532E03093DD022093DC02809309
:10388000DE021092DF020E9497139E012F5F3F4FCE
:103890006901A12C48E0B42E50E0852E50E0952E11
:1038A0006BE1662E68E0762E76E9472E75E0572E9E
:1038B00024E1F22E3AE2332E222423940E94EB10CC
:1038C000882309F4E0C20E94C7108D3009F0A1C21C
:1038D0008091FD02863008F09BC0843008F066C2FB
:1038E000813009F4E3C008F4B5C0823009F47FC127
:1038F000833009F07CC20E947B19E12C00E020E0BB
:1039000030E04CE45CE060E08BE10E940E159FEF3C
:1039100023EF31E0915020403040E1F700C000003B
:1039200046E950E060E070E089E491E00E94750FA4
:103930008FEF96E721E0815090402040E1F700C0F2
:10394000000020E030E04EE15CE068E18CE00E94A5
:103950000E154BE450E060E070E089E491E00E94D5
:10396000750F3FEF86E791E0315080409040E1F7DE
:1039700000C000002FEF31EE84E021503040804045
:10398000E1F700C0000070920F0360920E0363E045
:1039900078E085EE92E00E94822114E010930C03FF
:1039A0008AE380930D0385EE92E00E94A1166BEEF0
:1039B00077E085EE92E00E94822110930C0384E46C
:1039C00080930D0385EE92E00E94A11663ED77E0EF
:1039D00085EE92E00E94822110930C038EE4809386
:1039E0000D0385EE92E00E94A11650920F034092C3
:1039F0000E034BE450E060E070E088E891E00E9444
:103A0000750F8FE39CE90197F1F700C00000EFC14B
:103A1000843609F4DDC138F4863009F4DFC187301B
:103A200009F4D6C1E4C1853609F4D8C1883C09F04F
:103A3000DEC10E9483146EE088E50E941C196EE6C8
:103A400070E185EE92E00E94822185EE92E00E9474
:103A5000A116CAC10E9483146EE088E50E941C1959
:103A600066EB70E185EE92E00E94822185EE92E0A5
:103A70000E94A1168091210390912203009711F4D6
:103A800085E293E0B601681B790B072E000C880BCA
:103A9000990B0E94471A6EE970E185EE92E00E9450
:103AA000822185EE92E00E94A11646C10E948314F5
:103AB00066E484E60E941C19162F082F60930C03FD
:103AC00080930D0366EA74E085EE92E00E94822105
:103AD00085EE92E00E94A11610930C038AE0800FFD
:103AE00080930D036EE874E085EE92E00E948221DF
:103AF00085EE92E00E94A1166BE070E080E090E01D
:103B00000E94471A10930C0384E1800F80930D03E9
:103B100066E774E085EE92E00E94822185EE92E0F5
:103B20000E94A1169EE1E92EE00E10930C03E09294
:103B30000D036EE574E085EE92E00E94822185EE31
:103B400092E00E94A11684E1810F80930C03E09221
:103B50000D038091210390912203009711F485E2D7
:103B600093E09601281B390BB501621B730B072EDE
:103B7000000C880B990B0E94471A88E2E82EE00E91
:103B800010930C03E0920D0366E474E085EE92E07E
:103B90000E94822185EE92E00E94A1168CE1810FA5
:103BA00080930C03E0920D0360E770E080E090E00A
:103BB0000E94471A84E3810F80930C03E0920D0367
:103BC00068E570E080E090E00E94471A10930C03D3
:103BD000065C00930D036EE274E085EE92E00E94B5
:103BE000822185EE92E00E94A11680E0FEC00E9434
:103BF00083140091B7026CE388E50E941C196EE7FC
:103C000075E085EE92E00E94822185EE92E00E94AE
:103C1000A1168091B702813059F038F0823059F006
:103C2000833079F46EE175E008C066E675E005C0A2
:103C30006EE475E002C066E375E085EE92E00E94F6
:103C400082211EE010930C03F0920D0385EE92E0AA
:103C50000E94A11610930C0330E230930D0366E02E
:103C600075E085EE92E00E94822185EE92E00E944E
:103C7000A1168091B602882329F0813049F466EDBF
:103C800074E002C06EEE74E085EE92E00E94822144
:103C90001EE010930C0330920D0385EE92E00E941B
:103CA000A11610930C0386E380930D036EEB74E072
:103CB00085EE92E00E94822185EE92E00E94A1169C
:103CC00082E00E94B6120E94EB108823E1F31EE00E
:103CD0000E94C710882309F48AC0883059F4809163
:103CE000B702882319F081508093B70281E00E94C7
:103CF000B61224C0853131F48091B7028330B0F719
:103D00008F5FF2CF8B3041F48091B602882371F33C
:103D100081508093B602EACF8A3039F48091B6029E
:103D20008111E4CF2092B602E1CF8B3119F40093D8
:103D3000B7025AC08D3011F482E057C010930C03C3
:103D4000F0920D038091B702813059F038F0823043
:103D500059F0833079F46EE175E008C066E675E0ED
:103D600005C06EE475E002C066E375E085EE92E0A2
:103D70000E94822185EE92E00E94A11610930C030E
:103D800030920D038091B602882329F0813049F4E6
:103D900066ED74E002C06EEE74E085EE92E00E9483
:103DA000822185EE92E00E94A11692CF0E94831498
:103DB0006EE088E50E941C1966E870E185EE92E0ED
:103DC0000E94822185EE92E00E94A11684E00DC03F
:103DD00082E00E94B6120E94411109C082E00E9456
:103DE000B6120E94AA1403C083E00E94B612E091AA
:103DF000FD0295E09E9FF0011124E854FD4F84815F
:103E0000811135C00E94EB108823E1F30E94C71096
:103E10002EC08B3111F484E028C0883031F48091B9
:103E2000FD02882331F181501DC0853131F480912C
:103E3000FD028730F0F48F5F15C08B3049F480911C
:103E4000FD02282F30E0233031059CF083500AC05A
:103E50008A3079F48091FD02282F30E02530310539
:103E600044F48D5F8093FD0281E00E94B6120E94AF
:103E700097130E94010E6093FE027093FF028093DD
:103E80000003909301030E94010E0091FE02109125
:103E9000FF022091000330910103DC01CB01801B64
:103EA000910BA20BB30B81369A4EA105B10520F000
:103EB0000E9441110E9497138114910409F4FECCD1
:103EC0000E940000F5CC0F931F93CF93DF938230B5
:103ED000910510F482E090E0E0912303F091240337
:103EE00020E030E0A0E0B0E0309719F1408151814E
:103EF0000281138148175907C8F08417950769F4A0
:103F0000109731F012960C93129713961C9327C0BA
:103F1000009323031093240322C02115310519F0C7
:103F20004217530718F49A01BD01EF01DF01F801B0
:103F3000DBCF21153105F9F0281B390B2430310571
:103F400080F48A819B816115710521F0FB019383C7
:103F5000828304C09093240380932303FE0132964E
:103F600044C0FE01E20FF31F819391932250310967
:103F7000398328833AC02091210330912203232BD7
:103F800041F42091060130910701309322032093E0
:103F9000210320910401309105012115310541F4DF
:103FA0002DB73EB74091080150910901241B350BF4
:103FB000E0912103F0912203E217F307A0F42E1BF6
:103FC0003F0B2817390778F0AC014E5F5F4F24177D
:103FD000350748F04E0F5F1F509322034093210393
:103FE0008193919302C0E0E0F0E0CF01DF91CF91A7
:103FF0001F910F910895CF93DF93009709F481C02B
:10400000FC01329713821282A0912303B091240302
:10401000109781F420813181820F931F2091210319
:10402000309122032817390751F5F0932203E093CA
:10403000210367C0ED0120E030E0CE17DF0740F438
:104040004A815B819E0141155105F1F0EA01F5CFEE
:10405000D383C28340815181840F951FC817D9072C
:1040600059F488819981840F951F029691838083EA
:104070008A819B81938382832115310529F4F093F2
:104080002403E09323033DC0E901FB83EA834991C4
:104090005991C40FD51FEC17FD0761F48081918100
:1040A000840F951F0296E901998388838281938109
:1040B0009B838A83E0E0F0E012968D919C911397A8
:1040C000009719F0FD01DC01F7CF8D919C911197BC
:1040D0009D012E5F3F4F820F931F2091210330914E
:1040E00022032817390769F4309729F41092240322
:1040F0001092230302C013821282B0932203A09372
:104100002103DF91CF9108958F929F92AF92BF923A
:10411000CF92DF92EF92FF92CF93DF93EC01688111
:1041200079818A819B81611571058105910521F451
:1041300064E279ED8BE597E02DE133EF41E050E06B
:104140000E94892149015A019B01AC01A7EAB1E40F
:104150000E94A8216B017C01ACEEB4EFA501940193
:104160000E94B621DC01CB018C0D9D1DAE1DBF1D33
:10417000B7FF03C00197A109B04888839983AA8338
:10418000BB839F77DF91CF91FF90EF90DF90CF902F
:10419000BF90AF909F908F9008950E9484200895C3
:1041A0008AE091E00E9484200895A0E0B0E080932E
:1041B0000A0190930B01A0930C01B0930D01089597
:1041C0008F929F92AF92BF92CF92DF92EF92FF9227
:1041D000CF93DF93EC01688179818A819B8161159E
:1041E00071058105910521F464E279ED8BE597E095
:1041F0002DE133EF41E050E00E94892149015A014D
:104200009B01AC01A7EAB1E40E94A8216B017C01EB
:10421000ACEEB4EFA50194010E94B621DC01CB0104
:104220008C0D9D1DAE1DBF1DB7FF03C00197A109D9
:10423000B04888839983AA83BB83BC01CD019F7753
:10424000DF91CF91FF90EF90DF90CF90BF90AF9034
:104250009F908F9008958F929F92AF92BF92CF922E
:10426000DF92EF92FF9260910E0170910F018091A9
:10427000100190911101611571058105910521F4DD
:1042800064E279ED8BE597E02DE133EF41E050E01A
:104290000E94892149015A019B01AC01A7EAB1E4BE
:1042A0000E94A8216B017C01ACEEB4EFA501940142
:1042B0000E94B621DC01CB018C0D9D1DAE1DBF1DE2
:1042C000B7FF03C00197A109B04880930E019093F6
:1042D0000F01A0931001B0931101BC01CD019F7794
:1042E000FF90EF90DF90CF90BF90AF909F908F9016
:1042F000089560930E0170930F01809310019093C5
:1043000011010895FB01DC0105900D920020E1F7F9
:104310000895052E97FB1EF400940E94A02157FDDE
:1043200007D00E94BB2107FC03D04EF40C94A021BF
:1043300050954095309521953F4F4F4F5F4F0895D1
:1043400090958095709561957F4F8F4F9F4F089501
:104350000E94DD21A59F900DB49F900DA49F800D1C
:10436000911D11240895B7FF0C94A8210E94A82143
:10437000821B930B0895A1E21A2EAA1BBB1BFD0101
:104380000DC0AA1FBB1FEE1FFF1FA217B307E40734
:10439000F50720F0A21BB30BE40BF50B661F771F8C
:1043A000881F991F1A9469F760957095809590956C
:1043B0009B01AC01BD01CF010895A29FB001B39F45
:1043C000C001A39F700D811D1124911DB29F700D1E
:1043D000811D1124911D08955058BB27AA270E94C2
:1043E00004220C94A7230E946E2338F00E947523A8
:1043F00020F039F49F3F19F426F40C946B230EF44B
:10440000E095E7FB0C946523E92F0E94CC2358F339
:10441000BA17620773078407950720F079F4A6F5A9
:104420000C94EE230EF4E0950B2EBA2FA02D0B0169
:10443000B90190010C01CA01A0011124FF27591BE9
:1044400099F0593F50F4503E68F11A16F040A22FEF
:10445000232F342F4427585FF3CF46953795279560
:10446000A795F0405395C9F77EF41F16BA0B620B5F
:10447000730B840BBAF09150A1F0FF0FBB1F661FA6
:10448000771F881FC2F70EC0BA0F621F731F841FE9
:1044900048F4879577956795B795F7959E3F08F00F
:1044A000B0CF9395880F08F09927EE0F97958795D1
:1044B00008950E94412308F481E008950E947E231C
:1044C000E3950C94B8230E9477220C94A7230E94B2
:1044D000752358F00E946E2340F029F45F3F29F0C5
:1044E0000C94652351110C94EF230C946B230E94C0
:1044F000CC2368F39923B1F3552391F3951B550B06
:10450000BB27AA2762177307840738F09F5F5F4FA6
:10451000220F331F441FAA1FA9F335D00E2E3AF0E5
:10452000E0E832D091505040E695001CCAF72BD0FD
:10453000FE2F29D0660F771F881FBB1F261737074E
:104540004807AB07B0E809F0BB0B802DBF01FF2780
:1045500093585F4F3AF09E3F510578F00C946523D5
:104560000C94EF235F3FE4F3983ED4F38695779560
:104570006795B795F7959F5FC9F7880F911D969539
:10458000879597F90895E1E0660F771F881FBB1F95
:10459000621773078407BA0720F0621B730B840B42
:1045A000BA0BEE1F88F7E09508950E94D42388F097
:1045B0009F5798F0B92F9927B751B0F0E1F0660FE7
:1045C000771F881F991F1AF0BA95C9F714C0B13028
:1045D00091F00E94EE23B1E008950C94EE23672F32
:1045E000782F8827B85F39F0B93FCCF38695779557
:1045F0006795B395D9F73EF4909580957095619540
:104600007F4F8F4F9F4F0895E89409C097FB3EF46A
:1046100090958095709561957F4F8F4F9F4F99230F
:10462000A9F0F92F96E9BB279395F695879577958D
:104630006795B795F111F8CFFAF4BB0F11F460FF4D
:104640001BC06F5F7F4F8F4F9F4F16C0882311F0A5
:1046500096E911C0772321F09EE8872F762F05C0B9
:10466000662371F096E8862F70E060E02AF09A9554
:10467000660F771F881FDAF7880F9695879597F949
:104680000895990F0008550FAA0BE0E8FEEF1616E3
:104690001706E807F907C0F012161306E407F50736
:1046A00098F0621B730B840B950B39F40A2661F0AA
:1046B000232B242B252B21F408950A2609F4A1404D
:1046C000A6958FEF811D811D089597F99F6780E85A
:1046D00070E060E008959FEF80EC089500240A9454
:1046E0001616170618060906089500240A941216CD
:1046F00013061406050608950C946B230E94D42318
:10470000D8F3E894E0E0BB279F57F0F02AED3FE0B4
:1047100049EC06C0EE0FBB0F661F771F881F28F0FD
:10472000B23A62077307840728F0B25A620B730B20
:10473000840BE3959A9572F7803830F49A95BB0F05
:10474000661F771F881FD2F790480C947124092E9A
:104750000394000C11F4882352F0BB0F40F4BF2BDC
:1047600011F460FF04C06F5F7F4F8F4F9F4F08951C
:10477000EF93E0FF07C0A2EA2AED3FE049EC5FEBD0
:104780000E9404220E94A7230F90039401FC9058DA
:10479000E8E6F0E00C947D2457FD9058440F551F37
:1047A00059F05F3F71F04795880F97FB991F61F0B3
:1047B0009F3F79F087950895121613061406551F2A
:1047C000F2CF4695F1DF08C0161617061806991F96
:1047D000F1CF86957105610508940895E894BB278B
:1047E00066277727CB0197F908950E94412308F4A3
:1047F0008FEF08950E940D240C94A7230E946E232E
:1048000038F00E94752320F0952311F00C94652355
:104810000C946B2311240C94EF230E94CC2370F38F
:10482000959FC1F3950F50E0551F629FF001729F55
:10483000BB27F00DB11D639FAA27F00DB11DAA1F64
:10484000649F6627B00DA11D661F829F2227B00DB1
:10485000A11D621F739FB00DA11D621F839FA00D3C
:10486000611D221F749F3327A00D611D231F849F8C
:10487000600D211D822F762F6A2F11249F575040E3
:104880009AF0F1F088234AF0EE0FFF1FBB1F661F5E
:10489000771F881F91505040A9F79E3F510580F027
:1048A0000C9465230C94EF235F3FE4F3983ED4F31C
:1048B000869577956795B795F795E7959F5FC1F7CB
:1048C000FE2B880F911D9695879597F908959F93D4
:1048D0000E947E230F9007FCEE5F0C94B8239F3F4D
:1048E00031F0915020F4879577956795B795880FAB
:1048F000911D9695879597F908959F938F937F9330
:104900006F93FF93EF939B01AC010E94FA23EF9109
:10491000FF910E9491242F913F914F915F910C94B0
:10492000FA23DF93CF931F930F93FF92EF92DF92BF
:104930007B018C01689406C0DA2EEF010E940D24E1
:10494000FE01E894A5912591359145915591A6F3E5
:10495000EF010E940422FE019701A801DA9469F791
:10496000DF90EF90FF900F911F91CF91DF9108950D
:10497000991B79E004C0991F961708F0961B881FB1
:104980007A95C9F78095089597FB072E16F4009441
:1049900007D077FD09D00E94D82407FC05D03EF44B
:1049A000909581959F4F0895709561957F4F0895DB
:1049B000AA1BBB1B51E107C0AA1FBB1FA617B70745
:1049C00010F0A61BB70B881F991F5A95A9F7809561
:0C49D0009095BC01CD010895F894FFCF34
:1049DC00A608A60800002503200001000000010025
:1049EC0000002F000000000000000000000000008C
:1049FC0000000D000000000000000000000000009E
:104A0C000000000800000000007F0A00150B0000E9
:064A1C0000001A00001961
:00000001FF
