:100000000C94630D0C947F140C9458140C94800D74
:100010000C94800D0C94800D0C94800D0C94800D2C
:100020000C94800D0C94800D0C94800D0C94800D1C
:100030000C94800D0C94A6140C94800D0C94800DDF
:100040000C940E140C94800D0C94800D0C94800D67
:100050000C94800D0C94800D0C94800D0C94800DEC
:100060000C94800D0C94800D05A84CCDB2D44EB9E3
:100070003836A9020C50B9918688083CA6AAAA2A4B
:10008000BE000000803F46696C6573000000456457
:1000900069740000000050315800000000004C6FEF
:1000A0006F6B0000000041626F75740000004672C3
:1000B000656500000000436C6F73650000008060A0
:1000C00003FFFFFFFFFFFFFFFFFFFFFFFFFFFFC07B
:1000D0001FFFFFFFFFFFFFFFFFFFFFFFFFFFFFF817
:1000E0003FFFFFFFFFFFFFFFFFFFFFFFFFFFFFFCE3
:1000F0007FFFFFFFFFFFFFFFFFFFFFFFFFFFFFFE91
:100100007FFFFFFFFFFFFFFFFFFFFFFFFFFFFFFE80
:100110007FFFFFFFFFFFFFFFFFFFFFFFFFFFFFFE70
:10012000FFFFFFFFFFFFFFFFFFFFFFFFFFFFFFFFDF
:10013000FFFFFFFFFFFFFFFFFFFFFFFFFFFFFFFFCF
:10014000FFFFFFFFFFFFFFFFFFFFFFFFFFFFFFFFBF
:10015000FFFFFFFFFFFFFFFFFFFFFFFFFFFFFFFFAF
:100660007FFFFFFFFFFFFFFFFFFFFFFFFFFFFFFE1B
:100670007FFFFFFFFFFFFFFFFFFFFFFFFFFFFFFE0B
:100680007FFFFFFFFFFFFFFFFFFFFFFFFFFFFFFEFB
:100690003FFFFFFFFFFFFFFFFFFFFFFFFFFFFFFC2D
:1006A0001FFFFFFFFFFFFFFFFFFFFFFFFFFFFFF841
:1006B00003FFFFFFFFFFFFFFFFFFFFFFFFFFFFC085
:1006C00000000000230026002900000000080002AE
:1006D000010000030407000000000000000000000B
:1006E0000000250028002B00000000002400270047
:1006F0002A000404040404040404020202020202A4
:1007000003030303030301020408102040800102D5
:10071000040810200102040810200000000000005E
:1007200000000000000000096000000000000071EF
:10073000310000007A7361773200006378646534B9
:1007400033000020766674723500006E6268677947
:10075000360000006D6A75373800002C6B696F3009
:100760003900002E2F6C3B702D00000027005B3DF0
:10077000000000000D5D005C0000000000000000B3
:100780007F000031003437000000302E323536381B
:100790001B00002B332D2A39000000000000000050
:1007A0000000000000000000000000000000000940
:1007B0007E00000000000051210000005A53415704
:1007C000400000435844452423000020564654521C
:1007D0002500004E424847595E0000004D4A55260C
:1007E0002A00003C4B494F292800003E3F4C3A501C
:1007F0005F00000022007B2B000000000D7D007CCC
:1008000000000000000000007F00003100343700CD
:100810000000302E323536381B00002B332D2A399C
:1008200000000000000000000000000000000000C8
:1008300000000000000000000000000000000000B8
:1008400000000000000000000000000000000000A8
:100850000000000000000000000000000000000098
:100860000000000000000000000000000000000088
:100870000000000000000000000000000000000078
:100880000000000000000000000000000000000068
:100890000000000000000000000000000000000058
:1008A0000000000000000000000000000000000048
:1008B000000000040620000000000000404040004E
:1008C0004000A0A000000000A0E0A0E0A000406068
:1008D000C060C000A0204080A0002040C0A0E00078
:1008E00080800000000040808080400080404040C8
:1008F000800040A0400000000040E04000000000F8
:10090000008080000000E000000000000000800087
:10091000202040808000E0A0A0A0E00040C0404037
:10092000E000E020E080E000E020E020E000A0A087
:10093000E0202000E080E020C000C080E0A0E000D7
:10094000E02040808000E0A0E0A0E000E0A0E02007
:100950006000004000400000004000408000204057
:100960008040200000E000E0000080402040800047
:10097000C02040004000E0A0A0E0E000E0A0E0A037
:10098000A000C0A0E0A0C000E0808080E000C0A087
:10099000A0A0C000E080E080E000E080E080800077
:1009A000E08080A0E000A0A0E0A0A000E0404040E7
:1009B000E000202020A0E00080A0C0C0A000808037
:1009C0008080E000A0E0E0A0A000C0A0A0A0A00067
:1009D00040A0A0A04000E0A0E080800040A0A0E0F7
:1009E0006600E0A0C0E0AA00E080E020E000E04077
:1009F00040404000A0A0A0A0E000A0A0A0A0400017
:100A0000A0A0E0E0A200A0A040A0A000A0A04040C4
:100A10004000E0204080E000C0808080C000008076
:100A200040202000C0404040C00040A00000000026
:100A300000000000E0008040000000000060A0A076
:100A400060008080C0A0C000006080806000202026
:100A500060A0600040A0E08060006040E040400096
:100A600060A06020C0008080C0A0A0004000404086
:100A7000400040004040C0008080A0C0A000C040B6
:100A80004040E00000A0E0A0A00000C0A0A0A000A6
:100A90000040A0A0400000C0A0C080000060A06096
:100AA000200000C0A080800000604020600040E086
:100AB0004040400000A0A0A0600000A0A0A0400016
:100AC00000A0A0E0A00000A04040A00000A0E02006
:100AD000400000E04080E0002040C0402200404054
:100AE0000040400080406040800000A040000000C6
:100AF0004A616E6B6F77736B690000000000000045
:100B000000000000000000004B7279737469616E90
:100B100000000000000000000000000000000000D5
:100B20004B727A79737A746F6600000000000000DF
:100B300000000000000000000808000000000000A5
:100B4000000000003E41554155493E003E7F6B7F0D
:100B50006B773E0022777F7F3E1C0800081C3E7F9B
:100B60003E1C0800081C2A7F2A081C00081C3E7F27
:100B70003E081C00001C3E3E3E1C00FFFFE3C1C1BE
:100B8000C1E3FF00001C2222221C00FFFFE3DDDD89
:100B9000DDE3FF000F03053948483000083E081C1C
:100BA00022221C0018141010307060000F1911134D
:100BB00037766000082A1C771C2A080060787E7F40
:100BC0007E786000030F3F7F3F0F0300081C2A0858
:100BD0002A1C080066666666006666003F65653D1D
:100BE000050505000C324824124C300000000000BE
:100BF0007F7F7F00081C2A082A1C3E00081C3E7FBD
:100C00001C1C1C001C1C1C7F3E1C0800080C7E7F4A
:100C10007E0C080008183F7F3F1808000000707025
:100C2000707F7F000014227F22140000081C1C3EED
:100C30003E7F7F007F7F3E3E1C1C080000000000BE
:100C400000000000183C3C1818001800363614004C
:100C50000000000036367F367F363600081E201C26
:100C6000023C080060660C18306606003C663C28B2
:100C700065663F0018181830000000006030181832
:100C800018306000060C1818180C060000361C7F7F
:100C90001C3600000008083E080800000000003074
:100CA000303060000000003C000000000000000048
:100CB0000060600000060C18306000003C666E7634
:100CC00066663C001818381818187E003C66060C3A
:100CD00030607E003C66061C06663C000C1C2C4CFA
:100CE0007E0C0C007E607C0606663C003C66607CE8
:100CF00066663C007E660C0C181818003C66663C64
:100D000066663C003C66663E06663C0000181800BD
:100D1000181800000018180018183000060C1830B9
:100D2000180C060000003C003C0000006030180C6D
:100D3000183060003C66061C1800180038445C58E7
:100D4000423C00003C66667E666666007C66667CA9
:100D500066667C003C66606060663C007C66666639
:100D600066667C007E60607C60607E007E60607C89
:100D7000606060003C6660606E663C006666667E31
:100D8000666666003C18181818183C001E0C0C0CFF
:100D90006C6C3800666C7870786C660060606060BF
:100DA00060607E0063777F6B6363630063737B6F58
:100DB000676363003C66666666663C007C666666E2
:100DC0007C6060003C6666666E3C06007C66667C05
:100DD000786C66003C66603C06663C007E5A1818DB
:100DE000181818006666666666663E006666666681
:100DF000663C18006363636B7F7763006363361C34
:100E0000366363006666663C181818007E060C1888
:100E100030607E001E18181818181E000060301868
:100E20000C060000781818181818780008142241C9
:100E3000000000000000000000007F000C0C060015
:100E40000000000000003C063E663E006060607CE2
:100E500066667C0000003C6660663C000606063E56
:100E600066663E0000003C667E603C001C3630300A
:100E70007C303000003E66663E063C006060607C70
:100E8000666666000018001818183C000C000C0C70
:100E90006C6C38006060666C786C66001818181806
:100EA00018181800000063777F6B6B0000007C7ED1
:100EB0006666660000003C6666663C00007C66660E
:100EC0007C606000003C6C6C3C0D0F0000007C6698
:100ED0006660600000003E403C027C000018187E06
:100EE000181818000000666666663E00000000667E
:100EF000663C18000000636B6B6B3E000000663CB4
:100F0000183C6600000066663E063C0000003C0C93
:100F100018303C000E18183018180E001818180059
:100F2000181818007018180C1818700000003A6C87
:100F300000000000081C366341417F54600000053A
:100F4000555555550000000000000BFFFFBBAAA23D
:100F5000A200000000155555555540000000000046
:100F60001FFFFFFEEEAAA8A000000015555555551D
:100F70000000000000003FFFFFBBAAAA22200000E3
:100F800000155D5D55554000000000007FFFFFEE3D
:100F9000EEAAAAA0000000555555555500000000C6
:100FA00000007FFFFFFAAAA222A000000055D5553D
:100FB000D554400000000000FFFFFFFFEAAAA8A0F0
:100FC0000000005555555555000000000000FFFF7A
:100FD000FFFFBAAA22A00000005DDDDDDD55400064
:100FE00040000000FFFFFFFFFFEAAAA80000007713
:100FF00077755575500000000000FFFFFFFFFFAA46
:10100000A2A0000001DDDDDDDDD5500040000000C4
:10101000FFFFFFFFFFEAAAA80000015557755555CD
:10102000500000000003FBBFFFFBAAAA2220000023
:1010300005DD55D5554554000000000EFEFFFEBFEE
:10104000EEBEAA8A800005555551175514000100BF
:10105000000ABFBBFABFEABA222A8000055D5555D7
:10106000555554000540000EFFFFEAAFFEAAA8AB9D
:10107000C00005555551155550000540000FFFFFA4
:10108000AAABBFAA222B800005DD5554455554005C
:101090000500000FFFFFEAABFFEAAAAF800005558D
:1010A00055500555500015000003FFFFAAABFBAAE1
:1010B000A2AA000005D5D54445D554004400000738
:1010C000FFFFEAAFFFEAAAAE0000055755510555EC
:1010D000500014000003FFFFEAAFFFAA2A2A000015
:1010E00001DDDDD545DD540414000000FFFFEEAF47
:1010F000FFEAAAAC00000077775555555000100064
:101100000000FFFFEBBFFFAAAAB80000005DDDD51D
:10111000D5D54000400000007FFFFEFFFFEAAAE0B7
:1011200000000077575555555001400000007FFFE3
:10113000FFFFFFAA2B800000005DDDDD555D500044
:10114000000000003FFFFFFFFFEAA00000000015C5
:10115000557555555000000000001FFFFFFBFFAA0A
:10116000A0000000000DD5DD555550000000000026
:101170000FFFFFEEFFEAA000000000075555515594
:101180005000000000000FFBAAABFFAA0000000007
:101190000005D555555544000000000007FFFFFF2E
:1011A000FFEA8000000000057575555550000000ED
:1011B000000003FFFFFFFBBA200000000005DDDD9B
:1011C000D555500000000000ABFFFFFFFEEA88800D
:1011D000000000017777555550000000000A2BFFF2
:1011E000FFFFABAA2222000000015DDD5555400043
:1011F0000000002AAAFFFFFEAAAA8A8A8000000136
:1012000055555500000000000022A2BFFFAAAAAA5F
:10121000222220000041555555400000000000AA40
:10122000AAEEFEEAAAAA888880000001555555005A
:101230000000000000A2ABABBBAAAAAA2222200099
:101240000005555545454000000000AAABEEAEAA8A
:10125000AAAA8A8A80000001555551111000000089
:1012600002A2ABBAAAAAAAAA222220004445555536
:1012700054454000000000AAAAEEEEEAAAA8888819
:10128000A0001111555555151000000000AAAAAB79
:10129000BBBAAAAA222220005545555555555000E3
:1012A00000000AAAAEEEEFEEAEAA8A8A80001515FB
:1012B00055555555400000002AAAABAABBBAAAA2B0
:1012C0002222200045555555555440000000AAAA39
:1012D000AEEEEFEEEA88AAA88000015555555550AC
:1012E000000000002AAABBABABBBAA222A22200422
:1012F00045555555554400000000AAAAFEEFEEEAF8
:10130000AAAAAA8A80000155555555000000000080
:101310002AAAFAABBAAAA2A2A22220044455555581
:10132000554000000000AAAAFAAAEAEAAAE8AAA878
:101330008000015555515101500000002AABBBAB54
:10134000AAAA2BFA2A2220044555555554055400C3
:101350000000AAABFAAAEAAAABEAAAAA805573656A
:10136000206C6566742F7269676874206172726F91
:101370007773000000202A204469676974616C203B
:1013800061727420202020200000000000202A200C
:101390004C696E657320766572746963616C202098
:1013A0000000000000202A204C696E657320686FE1
:1013B00072697A6F6E74616C0000000000202A2050
:1013C000436C65616E207768697465202020202059
:1013D000000000000057616C6C70617065723A200B
:1013E000000000000000000000000000002D2D2D76
:1013F0002D3D2053797374656D206C6F6F6B203DAC
:101400002D2D2D2D008060001110111011101110C4
:10141000111011101110000AAAAAAAAAAAAAAAAA0F
:10142000AAAAAAAAAAAAA8044444444444444444F4
:10143000444444444444442AAAAAAAAAAAAAAAAA56
:10144000AAAAAAAAAAAAAA1111111111111111115D
:10145000111111111111102AAAAAAAAAAAAAAAAA9C
:10146000AAAAAAAAAAAAAA55455545454555455529
:1014700045554555455545AAAAAAAAAAAAAAAAAA5F
:10148000AAAAAAAAAAAAAA515151515151515151DD
:1014900051515151515151AAAAAAAAAAAAAAAAAA1B
:1014A000AAAAAAAAAAAAAA55555555555555555599
:1014B00055555555555555AAAAAAAAAAAAAAAAAADF
:1014C000AAAAAAAAAAAAAA55555555555555555579
:1014D00055555555555555AAAAAAAAAAAAAAAAAABF
:1014E000AAAAAAAAAAAAAA55555555555555555559
:1014F00055555555555555AEAEAEAEAEAEAEAEAE7B
:10150000AEAEAEAEAEAEAE5555555555555555551C
:1015100055555555555555AAAAAAAAAAAAAAAAAA7E
:10152000AAAAAAAAAAAAAA55555555555555555518
:1015300055555555555555EEEEEEEEEEEEEEEEEEFA
:10154000EEEEEEEEEEEEEE5555555555555555551C
:1015500055555555555555BBABBBABBBABBBABBBE5
:10156000ABABABBBABBBAB555555555555555555B1
:1015700055555555555555EEEEEEEEEEEEEEEEEEBA
:10158000EEEEEEEEEEEEEE555555555555555555DC
:1015900055555555555555BBBBBBBBBBBBBBBBBB65
:1015A000BBBBBBBBBBBBBB55555555555555555521
:1015B00055555555555555FFFFFFFFFFFFFFFFFFE1
:1015C000FFFFFFFFFFFFFF55555555555555555525
:1015D00055555555555555BBBFBBBBBBBBBBBBBB21
:1015E000BBBBBFBBBBBBBB555555555555555455DE
:1015F00055555555555555FFFFFFFFFFFFFFF99F07
:10160000FFFFFFFFFFFFFF5555555555555547E562
:1016100055555555555555FFFFFFFFFFFFFF9E7967
:10162000FFFFFFFFFFFFFFD5D5D5D5D5D5D4799ED8
:1016300055D5D5D5D5D5D5FFFFFFFFFFFFF9FFFF66
:101640009FFFFFFFFFFFFF55555555555547FFFFBE
:10165000E5555555555555FFFFFFFFFFFF9FFFFF10
:10166000F9FFFFFFFFFFFFDDDDDDDDDDDC7FFFFFDD
:10167000FE5DDDDDDDDDDDFFFFFFFFFFF9FFFFFFCD
:10168000FF9FFFFFFFFFFF757575757567FFFC7F97
:10169000FFE57575757575FFFFFFFFFF9FFFFC1F69
:1016A000FFF9FFFFFFFFFFDDDDDDDDDC7FFFFC87F6
:1016B000FFFE5DDDDDDDDDFFFFFFFFF9FFFF80E108
:1016C000FFFF9FFFFFFFFF7777777777FFFF8FF9A8
:1016D000FFFFE777777777FFFFFFFFF1FFFFC3FF9C
:1016E000FFFF8FFFFFFFFFDFDFDFDFD07FFFF0FFB8
:1016F000FFFE6FDFDFDFDFFFFFFFFFF01FFFFC3FBD
:10170000FFF98FFFFFFFFF777777777007FFFF3FC6
:10171000FFE66777777777FFFFFFFFF201FFFFFFB5
:10172000FF998FFFFFFFFFFFFFFFFFF4007FFFFF29
:10173000FE661FFFFFFFFFFFFFFFFFF8401FFFFFD9
:10174000F9981FFFFFFFFFFF7FFF7FF80007FFFFF4
:10175000E6611FFF7FFF7FFFFFFFFFF90401FFFF2F
:1017600099849FFFFFFFFFFFFFFFFFF988007FFEC7
:101770006613FFFFFFFFFFFFFFFFFFFF90401FF912
:10178000984FFFFFFFFFFFFFFFFFFFFF988007E677
:10179000613FFFFFFFFFFFFFFFFFFFFFF90401991C
:1017A00084FFFFFFFFFFFFFFFFFFFFFFF9880066D9
:1017B00013FFFFFFFFFFFFFFFFFFFFFFFF9040183A
:1017C0004FFFFFFFFFFFFFFFFFFFFFFFFF9880615D
:1017D0003FFFFFFFFFFFFFFFFFFFFFFFFFF90404D5
:1017E000FFFFFFFFFFFFFFFFFFFFFFFFFFF9881372
:1017F000FFFFFFFFFFFFFFFFFFFFFFFFFFFF900F58
:10180000FFFFFFFFFFFFFFFFFFFFFFFFFFFF98BF8F
:10181000FFFFFFFFFFFFFFFFFFFFFFFFFFFFF9FFDE
:10182000FFFFFFFFFFFFFFFFFFFFFFFFFFFFF9FFCE
:10183000FFFFFFFFFFFFFFFFFFFFFFFFFFFFFFFFB8
:10184000FFFFFFFFFFFFFFFFFFFFFFFFFFFFFFFFA8
:10185000FFFFFFFFFFFFFFFFFFFFFFFFFFFFFFFF98
:10186000FFFFFFFFFFFFFFFFFFFFFFFFFFFFFFFF88
:10187000FFFFFFFFFFFFFFFFFFFFFFFFFFFFFFFF78
:10188000FFFFFFFFFFFFFFFFFFFFFFFFFFFFFFFF68
:10189000FFFFFFFFFFFFFFFFFFFFFFFFFFFFFFFF58
:1018A000FFFFFFFFFFFFFFFFFFFFFFFFFFFFFFF354
:1018B000FFFFFFFFFFFFFFFFFFFF7FDFFFFFFFF3E4
:1018C000FFFC1FC3FFFFFFFFFFFF3F9FFFFFFFFF67
:1018D000FFF80F80FFFFFFFFFFFF3F9F0743F0F779
:1018E000C171C718FFFFFFFFFFFF1F1E733DEE779B
:1018F0009C63E31FFFFFFFFFFFFF5F5CF97EDF37A5
:101900003E63E303FFFFFFFFFFFF4E5DDD7EDFF77A
:101910007F63E381FFFFFFFFFFFF6EDD8D7EDFF75B
:101920006363E3C0FFFFFFFFFFFF64DDDD7EDFF7E2
:101930007F63E3F8FFFFFFFFFFFF75DCF97EDF3712
:101940003E71C718FFFFFFFFFFFF71DE737EEE776A
:101950009C780F01FFFFFFFFFFFF7BDF077EF0F7A3
:10196000C17C1FC3FFFFFFFFFFFFFFFFFFFFFFFF64
:10197000FFFFFFFFFFFFFFFFFFFFFFFFFFFFFFFF77
:10198000FFFFFFFFFFFFFFFFFFFFFFFFFFFFFFFF67
:10199000FFFFFFFFFFFFFFFFFFFFFFFFFFFFFFFF57
:1019A000FFFFFFFFFFFFFF7FFFFFFFFFFFFFFFFFC7
:1019B000FFFFFFFFFFFFFE7FFFFFFFFFFFFFFFFFB8
:1019C000FFFFFFFFFFFFFE7FFFFFFFFFFFFFFFFFA8
:1019D000FFFFFFFFFFFFFE3FFFFFFFFFFFFFFFFFD8
:1019E000FFFFFFFFFFFFFC1FFFFFFFFFFFFFFFFFEA
:1019F000FFFFFFFFFFFFF803FFFFFFFFFFFFFFFFFA
:101A0000FFFFFFFFFFFFC0556E6B6E6F776E2063A9
:101A10006F6D6D616E640000000000000000004406
:101A20006F6E650000000000000000000000000074
:101A300000000000000000434330203230323420E8
:101A400050315800000000000000000000000010AD
:101A500016FC9185918491849184918491849184E0
:101A600091848A8484848AFC918091809180918081
:101A7000918091809180918091809180914D6F6E45
:101A80006369614F533A20616C7068612000000007
:101A900000000000002062797465730000000000FF
:101AA0000000000000000000000000000046726519
:101AB000652052414D3A2000000000000000000067
:101AC00000000000000011241FBECFEFD8E0DEBFF1
:101AD000CDBF11E0A0E0B1E0E2E6FDE402C0059078
:101AE0000D92AA36B107D9F722E0AAE6B1E001C00B
:101AF0001D92A031B207E1F70E94711E0C94AF262F
:101B00000C94000008950F93CF93DF93EBEFF1E077
:101B1000A785B089C091A801D091A9018285AC0F99
:101B2000BD1F8E3191F08D3151F08C3149F08B31E8
:101B300041F08A3139F0893131F0883129F01CC007
:101B400032C048C05EC074C08AC00D900BB800009F
:101B5000000C0BB80000000C0BB80000000C0BB818
:101B60000000000C0BB80000000C0BB80000000CCB
:101B70000BB80000000C0BB80D900BB80000000C67
:101B80000BB80000000C0BB80000000C0BB80000F4
:101B9000000C0BB80000000C0BB80000000C0BB8D8
:101BA0000000000C0BB80D900BB80000000C0BB837
:101BB0000000000C0BB80000000C0BB80000000C7B
:101BC0000BB80000000C0BB80000000C0BB80000B4
:101BD000000C0BB80D900BB80000000C0BB8000007
:101BE000000C0BB80000000C0BB80000000C0BB888
:101BF0000000000C0BB80000000C0BB80000000C3B
:101C00000BB80D900BB80000000C0BB80000000CD6
:101C10000BB80000000C0BB80000000C0BB8000063
:101C2000000C0BB80000000C0BB80000000C0BB847
:101C30000D900BB80000000C0BB80000000C0BB8A6
:101C40000000000C0BB80000000C0BB80000000CEA
:101C50000BB80000000C0BB80000000C0BB80D9086
:101C60000BB80000000C0BB80000000C0BB8000013
:101C7000000C0BB80000000C0BB80000000C0BB8F7
:101C80000000000C0BB80000000C0BB80D900BB856
:101C90000000000C0BB80000000C0BB80000000C9A
:101CA0000BB80000000C0BB80000000C0BB80000D3
:101CB000000C0BB80000000C0BB80D900BB8000026
:101CC000000C0BB80000000C0BB80000000C0BB8A7
:101CD0000000000C0BB80000000C0BB80000000C5A
:101CE0000BB80000000C0BB80D900BB80000000CF6
:101CF0000BB80000000C0BB80000000C0BB8000083
:101D0000000C0BB80000000C0BB80000000C0BB866
:101D10000000000C0BB80D900BB80000000C0BB8C5
:101D20000000000C0BB80000000C0BB80000000C09
:101D30000BB80000000C0BB80000000C0BB8000042
:101D4000000C0BB80D900BB80000000C0BB8000095
:101D5000000C0BB80000000C0BB80000000C0BB816
:101D60000000000C0BB80000000C0BB80000000CC9
:101D70000BB80D900BB80000000C0BB80000000C65
:101D80000BB80000000C0BB80000000C0BB80000F2
:101D9000000C0BB80000000C0BB80000000C0BB8D6
:101DA0000D900BB80000000C0BB80000000C0BB835
:101DB0000000000C0BB80000000C0BB80000000C79
:101DC0000BB80000000C0BB80000000C0BB80D9015
:101DD0000BB80000000C0BB80000000C0BB80000A2
:101DE000000C0BB80000000C0BB80000000C0BB886
:101DF0000000000C0BB80000000C0BB80D900BB8E5
:101E00000000000C0BB80000000C0BB80000000C28
:101E10000BB80000000C0BB80000000C0BB8000061
:101E2000000C0BB80000000C0BB80D900BB80000B4
:101E3000000C0BB80000000C0BB80000000C0BB835
:101E40000000000C0BB80000000C0BB80000000CE8
:101E50000BB80000000C0BB80D900BB80000000C84
:101E60000BB80000000C0BB80000000C0BB8000011
:101E7000000C0BB80000000C0BB80000000C0BB8F5
:101E80000000000C0BB80D900BB80000000C0BB854
:101E90000000000C0BB80000000C0BB80000000C98
:101EA0000BB80000000C0BB80000000C0BB80000D1
:101EB000000C0BB80D900BB80000000C0BB8000024
:101EC000000C0BB80000000C0BB80000000C0BB8A5
:101ED0000000000C0BB80000000C0BB80000000C58
:101EE0000BB80D900BB80000000C0BB80000000CF4
:101EF0000BB80000000C0BB80000000C0BB8000081
:101F0000000C0BB80000000C0BB80000000C0BB864
:101F10000D900BB80000000C0BB80000000C0BB8C3
:101F20000000000C0BB80000000C0BB80000000C07
:101F30000BB80000000C0BB80000000C0BB80D90A3
:101F40000BB80000000C0BB80000000C0BB8000030
:101F5000000C0BB80000000C0BB80000000C0BB814
:101F60000000000C0BB80000000C0BB80D900BB873
:101F70000000000C0BB80000000C0BB80000000CB7
:101F80000BB80000000C0BB80000000C0BB80000F0
:101F9000000C0BB80000000C0BB80D900BB8000043
:101FA000000C0BB80000000C0BB80000000C0BB8C4
:101FB0000000000C0BB80000000C0BB80000000C77
:101FC0000BB80000000C0BB80D900BB80000000C13
:101FD0000BB80000000C0BB80000000C0BB80000A0
:101FE000000C0BB80000000C0BB80000000C0BB884
:101FF0000000000C0BB80D900BB80000000C0BB8E3
:102000000000000C0BB80000000C0BB80000000C26
:102010000BB80000000C0BB80000000C0BB800005F
:10202000000C0BB80D900BB80000000C0BB80000B2
:10203000000C0BB80000000C0BB80000000C0BB833
:102040000000000C0BB80000000C0BB80000000CE6
:102050000BB80D900BB80000000C0BB80000000C82
:102060000BB80000000C0BB80000000C0BB800000F
:10207000000C0BB80000000C0BB80000000C0BB8F3
:102080000D900BB80000000C0BB80000000C0BB852
:102090000000000C0BB80000000C0BB80000000C96
:1020A0000BB80000000C0BB80000000C0BB80000CF
:1020B00000005F98DF91CF910F9108950F93CF9318
:1020C000DF93EBEFF1E0A785B089C091A801D09133
:1020D000A9018285AC0FBD1F02C0000C0BB80D908A
:1020E00000000BB800000000000C0BB8000000005E
:1020F000000C0BB800000000000C0BB80000000042
:10210000000C0BB800000000000C0BB80000000C25
:102110008A950BB811F70000000C0BB80000000006
:1021200000005F98DF91CF910F9108950F93CF93A7
:10213000DF93EBEFF1E0A785B089C091A801D091C2
:10214000A9018285AC0FBD1F0BB10F7703C000FA48
:1021500007F90BB90D9007FA07F90BB90000000059
:1021600006FA07F90BB90000000005FA07F90BB9E8
:102170000000000004FA07F90BB90000000003FAA0
:1021800007F90BB90000000002FA07F90BB90000CB
:102190008A9501FA07F90BB9D1F6000000FA07F9A0
:1021A0000BB90BB10F7707FB07F90BB9DF91CF9193
:1021B0000F9108950F93CF93DF93EBEFF1E0A78595
:1021C000B089C091A801D091A9018285AC0FBD1F33
:1021D0000BB10F7703C000FA07F90BB90D9000009F
:1021E00007FA07F90BB900000000000006FA07F92A
:1021F0000BB900000000000005FA07F90BB9000058
:102200000000000004FA07F90BB90000000000000C
:1022100003FA07F90BB900000000000002FA07F901
:102220000BB900000000000001FA07F90BB98A950C
:1022300091F60000000000FA07F90BB90BB10F7717
:1022400007FB07F90BB9DF91CF910F91089520910A
:10225000FB013091FC01809102029091030228174A
:1022600039070CF44EC08CEA93E090938900809378
:1022700088001092FC011092FB018091FD01909169
:10228000FE01A091FF01B09100020196A11DB11DB8
:102290008093FD019093FE01A093FF01B093000293
:1022A0008091A4019091A501A091A601B091A701F0
:1022B000892B8A2B8B2B09F18091A4019091A50188
:1022C000A091A601B091A701181619061A061B06BF
:1022D00084F58091A4019091A501A091A601B091EF
:1022E000A7010197A109B1098093A4019093A501C9
:1022F000A093A601B093A7011CC01092B1002B9827
:1023000018C02091FB013091FC0180910902082E38
:10231000000C990B2817390761F48AE490E0909338
:1023200089008093880083EA91E19093B4018093BF
:10233000B3018091FB019091FC0101969093FC0107
:102340008093FB0108952091FB013091FC01809165
:10235000010290E02817390759F41092A901109250
:10236000A801809107028093080283ED91E10DC0DE
:102370002091FB013091FC018091020290910302B7
:102380002817390731F487E291E19093B4018093E3
:10239000B3018091FB019091FC0101969093FC01A7
:1023A0008093FB01089530918400209106022A5009
:1023B000231B2350F0F72D5F19F02A9511F001C06F
:1023C0000000E091B501F091B601099590910802E5
:1023D0008091070291110FC080930802909105022D
:1023E0002091A8013091A901290F311D3093A90135
:1023F0002093A80103C09150909308024091FB01E3
:102400005091FC014F5F5F4F082E000C990B019615
:1024100060910402689F9001699F300D11248091A2
:102420000102B901680F711D4617570731F483EA9D
:1024300091E19093B4018093B3018091FB0190915D
:10244000FC0101969093FC018093FB01089508958F
:10245000CF93DF939091A1012091B9013091BA01FE
:10246000A9014F5E5E4FB90168577F4FD901A05F48
:10247000BE4F8091B701E091B8018E1304C09093D4
:10248000A10180E05BC08F5F8D3208F080E0E82F13
:10249000F0E0EC58FE4FE0818093B701EE2379F332
:1024A000E03F11F49160E5CFE03E11F49260E1CF9E
:1024B00090FF0EC0E23111F49B7F08C0E93511F4A2
:1024C000977F04C0E13111F491FD9F7E9C7FD1CFB5
:1024D000E23111F49460CDCFE93511F49860C9CFA1
:1024E000E13111F491FD906191FF08C0EA54E433A9
:1024F000E8F4F0E0E25FFE4FE08119C094FF07C00E
:102500008C91882321F0E83888F4EA010AC0892FE9
:102510008C7021F0E83850F4EB0103C0E83830F457
:10252000E901CE0FD11DFE01E49101C0E0E09C7FE6
:10253000EE2309F49ECF9093A1018E2FDF91CF91CE
:102540000895BF92CF92DF92EF92FF920F931F9365
:10255000CF93DF93CDB7DEB728970FB6F894DEBFE1
:102560000FBECDBF282FF62E63E00E946B2686E2B9
:10257000989FD02C11241BEA219F212D11242695F0
:1025800016E1219F102D112486E0C82EC10E9AE07D
:10259000B92EBD0CE12C00E020E140E26C2D8B2D2A
:1025A0000E948F1D64E0610FEE24E39420E140E27D
:1025B00088E08D0D0E948F1DB092F701C092F80146
:1025C00082E0F816B9F08F1538F0FF2081F0FE1088
:1025D00020C066EA70E016C084E0F81689F0F816AC
:1025E00060F085E0F81215C066E870E00BC06EEA96
:1025F00070E008C06EE970E005C066E970E002C0F6
:102600006EE870E0CE0101960E94D523CE010196BE
:1026100002C082E491E00E94941C28960FB6F894C0
:10262000DEBF0FBECDBFDF91CF911F910F91FF9005
:10263000EF90DF90CF90BF900895CF93DF9390E01D
:10264000FC01EA5FF84F2491FC01EE50F94F8491B0
:10265000882361F190E0880F991FFC01E851F94F40
:10266000C591D491FC01E252F94FA591B491611149
:1026700009C09FB7F8948881209582238883EC91C4
:102680002E230BC0623061F49FB7F8948881322FFB
:10269000309583238883EC912E2B2C939FBF06C00B
:1026A0008FB7F894E8812E2B28838FBFDF91CF91CD
:1026B00008952FB7F8946091AF017091B0018091A7
:1026C000B1019091B2012FBF0895CF92DF92EF92A6
:1026D000FF920F931F93CF93DF938091BB0190E004
:1026E000FC01E653F94F2491FC01EA5FF84F349165
:1026F000FC01EE50F94FE491EE23B9F1222339F1B8
:10270000233091F038F42130A9F0223001F584B55E
:102710008F7D12C0273091F02830A1F02430B9F419
:10272000809180008F7D03C0809180008F7780939F
:1027300080000DC084B58F7784BD09C08091B00042
:102740008F7703C08091B0008F7D8093B000F0E060
:10275000EE0FFF1FE054F94FA591B491EC91E323E4
:1027600091E009F490E0C92F02C0C0E0D0E00E94DF
:1027700059130091700110917101209172013091F3
:1027800073016B017C01C01AD10AE20AF30A9701B6
:1027900086010B3F11052105310520F010926F01D4
:1027A00010926E01609370017093710180937201B9
:1027B0009093730180916F019FEF980F983048F4C8
:1027C00001C0CC0F9A95EAF790916E01C92BC09386
:1027D0006E018F5F80936F018B30B9F48091B801E7
:1027E0008F5F8D3208F080E09091B701981749F023
:1027F000E82FF0E090916E01EC58FE4F90838093AB
:10280000B80110926F0110926E01DF91CF911F916C
:102810000F91FF90EF90DF90CF9008951F920F924D
:102820000FB60F9211242F933F938F939F93AF93E3
:10283000BF938091AF019091B001A091B101B0918F
:10284000B2013091AE0123E0230F2D3720F4019621
:10285000A11DB11D05C026E8230F0296A11DB11DC3
:102860002093AE018093AF019093B001A093B1018A
:10287000B093B2018091AA019091AB01A091AC01FB
:10288000B091AD010196A11DB11D8093AA01909355
:10289000AB01A093AC01B093AD01BF91AF919F91FB
:1028A0008F913F912F910F900FBE0F901F90189511
:1028B0001F920F920FB60F9211242F933F934F93B5
:1028C0005F936F937F938F939F93AF93BF93EF9398
:1028D000FF93E0910201F09103010995FF91EF91BF
:1028E000BF91AF919F918F917F916F915F914F9128
:1028F0003F912F910F900FBE0F901F9018951F9230
:102900000F920FB60F9211242F933F934F935F9323
:102910006F937F938F939F93AF93BF93EF93FF93A7
:10292000E0910001F09101010995FF91EF91BF91B4
:10293000AF919F918F917F916F915F914F913F9157
:102940002F910F900FBE0F901F9018951F920F920E
:102950000FB60F9211242F933F934F935F936F9372
:102960007F938F939F93AF93BF93EF93FF93E091E8
:10297000B301F091B4010995FF91EF91BF91AF912F
:102980009F918F917F916F915F914F913F912F9187
:102990000F900FBE0F901F9018954F925F926F92FD
:1029A0007F928F929F92AF92BF92CF92DF92EF92DF
:1029B000FF92CF93DF9300D000D0CDB7DEB74C01AC
:1029C0002A013B011092B0001092B1009091B0002A
:1029D00092609093B0009091B10091609093B1009B
:1029E000239AA12CB12C60E072E18AE790E0A50166
:1029F00094010E94DC2329833A834B835C83690121
:102A00007A0121E0C21AD108E108F1088FEFC81657
:102A1000D104E104F10409F008F485C060E472E433
:102A20008FE090E0A50194010E94DC2369017A0106
:102A300081E0C81AD108E108F1082FEFC216D104CD
:102A4000E104F10409F008F470C060E970ED83E07E
:102A500090E0A50194010E94DC2369017A0181E0E4
:102A6000C81AD108E108F1082FEFC216D104E10419
:102A7000F10409F008F45BC068E478EE81E090E0CE
:102A8000A50194010E94DC2369017A0181E0C81A42
:102A9000D108E108F1082FEFC216D104E104F104D6
:102AA00009F008F446C064E274EF80E090E0A5010C
:102AB00094010E94DC2369017A0181E0C81AD108DF
:102AC000E108F1082FEFC216D104E104F10499F1F5
:102AD00090F162E17AE780E090E0A50194010E9424
:102AE000DC2369017A0181E0C81AD108E108F10804
:102AF0002FEFC216D104E104F104F9F0F0F089815E
:102B00009A81AB81BC812AE0B595A7959795879569
:102B10002A95D1F76C017D0121E0C21AD108E108A4
:102B2000F10887E00BC081E009C082E007C083E0C4
:102B300005C084E003C085E001C086E08093B10059
:102B40004114510461047104A9F0ACE3B0E0A301A5
:102B500092010E94FB2328EE33E040E050E00E9407
:102B60000E242093A4013093A5014093A601509315
:102B7000A7010BC08FEF9FEFDC018093A40190931E
:102B8000A501A093A601B093A701C092B3008091C4
:102B9000B0008F778093B0008091B0008064809304
:102BA000B0000F900F900F900F90DF91CF91FF909A
:102BB000EF90DF90CF90BF90AF909F908F907F90DD
:102BC0006F905F904F90089520910502982F9695F1
:102BD00096959695E0910A02F0910B028770629F9C
:102BE000B0011124690F711DE60FF71F413061F428
:102BF00020E830E0A90102C0559547958A95E2F793
:102C0000CA019081892B19C041110CC02FE73FEFF9
:102C1000A90102C0559547958A95E2F7CA019081AE
:102C200089230BC020E830E0A90102C055954795E3
:102C30008A95E2F7CA01908189278083089580915F
:102C4000A301882319F01092A30118C08091A2015A
:102C5000882319F01092A20102C00E94281287FF57
:102C60000BC0982F9F7390689093A30182958695CF
:102C700086958370806C02C0882311F090E00895DF
:102C80008FEF9FEF08958091A20181110EC0809176
:102C9000A30181110AC00E942812982F8093A201DB
:102CA00081E0911103C080E0089581E00895CF9301
:102CB000DF9310926D0110926C01C0916C01D09164
:102CC0006D01C036D10574F420E040E850E060E0CA
:102CD00070E08C2F0E947F1B2496D0936D01C093CF
:102CE0006C01EBCF10926B0110926A01C0916A01E6
:102CF000D0916B01C038D10574F420E040E650E07B
:102D000060E070E08C2F0E94041B2896D0936B012A
:102D1000C0936A01EBCFDF91CF9108954F925F92FC
:102D20006F927F928F929F92AF92BF92CF92DF92DB
:102D3000EF92FF920F931F93CF93DF930E94C523CF
:102D40006EE770E00E947726C2E0C80F0E94C5239C
:102D50006EE570E00E947726D2E0D80FE12C00E00B
:102D600020E030E04EEB50E060E080E00E94C719C8
:102D700080E1882E87E2982EA12CB12C0E94431668
:102D8000811198C00E9459130E94E02428E430E584
:102D90004CEF5BE30E94AD250E941A266B017C017B
:102DA0000E9459130E94E02426E933E44BE85CE3D7
:102DB0000E94AD250E941A262B013C0120E030E044
:102DC00040EC51E4C701B6010E94AD2520E030E09F
:102DD00040E852E40E9440246B017C0120E030E096
:102DE00040E252E4C301B2010E94AD259B01AC0157
:102DF000C701B6010E9440240E94B124162F0E94F0
:102E000059130E94E02420ED34E448ED5BE30E9476
:102E1000AD250E94AC246B017C010E9459130E94D5
:102E2000E02424EF3DEF44E55CE30E94AD250E94E1
:102E30001A262B013C0120E030E040EC51E4C701B0
:102E4000B6010E94AD2520E030E040E452E40E944B
:102E500040246B017C0120E030E040EC51E4C301F0
:102E6000B2010E94AD259B01AC01C701B6010E94D1
:102E700040240E94B124F62E0E945913A50194010A
:102E80000E940E24672B682B692B51F4E12C00E083
:102E900020E030E04EEB50E060E080E00E94C71997
:102EA00000E02F2D412F6D2F8C2F0E94A01CDF2DB5
:102EB000C12F64CFDF91CF911F910F91FF90EF90C1
:102EC000DF90CF90BF90AF909F908F907F906F904A
:102ED0005F904F900895811151C048EC50E060E040
:102EE00070E088EE93E00E94CD142FEF89EF90E020
:102EF000215080409040E1F700C0000048EC50E0D5
:102F000060E070E080ED97E00E94CD142FEF89EF34
:102F100090E0215080409040E1F700C0000044EF75
:102F200051E060E070E08CE291E00E94CD142FEF60
:102F300089EF90E0215080409040E1F700C0000010
:102F400048EC50E060E070E08CED95E00E94CD141C
:102F50008FE39CE90197F1F700C0000048EC50E0D6
:102F600060E070E088EB9BE00E94CD149FEF29EFBA
:102F700080E0915020408040E1F782C0813089F5A7
:102F800044E650E060E070E085E091E00E94CD14FE
:102F90008FE39CE90197F1F700C0000044E650E0A0
:102FA00060E070E089E491E00E94CD148FE39CE939
:102FB0000197F1F700C0000044E650E060E070E0E7
:102FC00088E891E00E94CD148FE39CE90197F1F726
:102FD00000C0000048EC50E060E070E08BE092E060
:102FE00049C0823019F544E650E060E070E088E8BE
:102FF00091E00E94CD148FE39CE90197F1F700C0A6
:10300000000044E650E060E070E089E491E00E9456
:10301000CD148FE39CE90197F1F700C0000048EC64
:1030200050E060E070E085E091E024C0833051F52D
:1030300046E950E060E070E089E491E00E94CD1440
:103040008FE39CE90197F1F700C000004BE450E0EA
:1030500060E070E089E491E00E94CD148FE39CE988
:103060000197F1F700C000004BE450E060E070E031
:1030700088E891E00E94CD148FE39CE90197F1F775
:1030800000C0000008959F92AF92BF92CF92DF924E
:10309000EF92FF920F931F93CF93DF93CDB7DEB7DD
:1030A00028970FB6F894DEBF0FBECDBFB82E162FEF
:1030B000942E982F969580E4C82EC91A613330F467
:1030C000862F869560E3F62EF81A02C034E0F32EC0
:1030D00024E0A22EAF0C84E4D82ED91AE12C00E013
:1030E000212F4B2D6A2D8D2D0E948F1D01E0212F48
:1030F0004B2D6F2D8C2D0E948F1D992019F11F0DC6
:1031000086E0F82EF10E00E02CE044E26F2D82E321
:103110000E948F1D62E0610FEE24E3942CE044E2F4
:103120008EE20E948F1D86E38093F701F092F801F2
:1031300066EB70E0CE0101960E94D523CE01019688
:103140000E94941CD092F701A092F801CE01019642
:103150000E94F02228960FB6F894DEBF0FBECDBFB6
:10316000DF91CF911F910F91FF90EF90DF90CF9063
:10317000BF90AF909F900895EF920F93E12C00E0E5
:103180002CE04EE66CE488E00E948F1D01E02CE00C
:103190004EE66AE486E00E948F1DE5EFF1E08AE0EA
:1031A00082838EE4838389E491E00F91EF900C9405
:1031B000941C9F92AF92BF92CF92DF92EF92FF92B8
:1031C0000F931F93CF93DF93C091BC01C130B1F136
:1031D00050F1C23009F449C0C33009F078C0E12C85
:1031E00000E020E030E04EEB50E060E080E00E9444
:1031F000C7190E94C5236EE770E00E94772612E08F
:10320000180F0E94C5236EE570E00E947726C2E089
:10321000C80F2EE0E22EF12C3EE7A32EB12C4EE596
:10322000C42ED12C38C0E12C00E020E030E04EEB81
:1032300050E060E080E00E94C71949C0E12C00E046
:1032400020E030E04EEB50E060E080E00E94C719E3
:10325000C2E020E04EE750E062E070E08C2F0E9478
:103260007F1BCA5FC236A9F732C0E12C00E020E024
:1032700030E04EEB50E060E080E00E94C71920E0B3
:103280004EE550E062E070E08C2F0E94041BCA5FA4
:10329000C038A9F71CC00E94C523B5010E9477263B
:1032A00092E0992E980E0E94C523B6010E947726BF
:1032B000D2E0D80F00E02D2F492D6C2F812F0E94D6
:1032C000A01C81E0E81AF108192DCD2F21F760E04C
:1032D00080E00E94A11261E081E00E94A11262E000
:1032E00082E00E94A11263E084E00E94A11264E0E7
:1032F00085E00E94A11265E087E00E94A112109271
:10330000D60189E1EDEBF1E0DF011D928A95E9F745
:10331000DF91CF911F910F91FF90EF90DF90CF90B1
:10332000BF90AF909F900C94BC182091F801309101
:103330000402E091F901F091FA0131966491422F73
:1033400050E0832F90E0861B910948175907D4F06D
:10335000E49180910A0290910B0220910502DC0118
:10336000E29FA00DB11D1124AC01329F400D511DF3
:1033700011249A01FC01A217B30740F48C918193A8
:103380001D92F9CFE491E20FE093F80108952F9296
:103390003F924F925F926F927F928F929F92AF92E5
:1033A000BF92CF92DF92EF920F931F93CF93DF9351
:1033B000CDB7DEB728970FB6F894DEBF0FBECDBFEE
:1033C0005A01482F477078E0741B011106C0F501BF
:1033D000E20FF31F04912F5F3F4FE11006C0F5018C
:1033E000E20FF31FE4902F5F3F4F902F9770E02F75
:1033F000E695E695E695992311F0EF5F01C098E018
:10340000869586958695A82FB0E0BC83AB83642E05
:10341000712C4301890E911C8FEF90E0AC01082CB8
:1034200002C0559547950A94E2F7A72FB0E0BA83FA
:10343000A98301C0880F7A95EAF7E13011F44D8332
:1034400001C01D82BD81B82BB887D40118978FEFBA
:1034500090E002C095958795AA95E2F78F83C12CDD
:10346000D12C862F90E09E838D832E2E312C91E0DF
:10347000291A3108CE1408F090C0509105028D81B0
:103480009E818C0D9D1D589FD001599FB00D112418
:103490008B819C81A80FB91FE091F501F091F60195
:1034A000EA0FFB1F5081888585238083B9016F5FF8
:1034B0007F4FF501E20FF31F8491E091F501F09148
:1034C000F601EA0FFB1F082F10E0062C02C015952D
:1034D00007950A94E2F79081092B00832101460E9B
:1034E000571E8D01021B130BD801A60FB71F209189
:1034F000F5013091F60190E06415750510F5F901BC
:10350000EA0FFB1F5081098001C0880F0A94EAF777
:103510008083F501E60FF71F84912091F50130912A
:10352000F601A20FB31F282F30E0062C02C03595FC
:1035300027950A94E2F79C91292B2C936F5F7F4F7C
:10354000D3CFE8E08E16910448F4FD013197E20FE5
:10355000F31F54232081522B50830BC058E0851653
:10356000910439F0F901EA0FFB1F20813F812323E9
:1035700020832091F5013091F601A20FB31F09803D
:1035800002C0880F991F0A94E2F7EC918E2B8C935E
:103590005FEFC51AD50A9B016DCF28960FB6F89438
:1035A000DEBF0FBECDBFDF91CF911F910F91EF9086
:1035B000DF90CF90BF90AF909F908F907F906F9053
:1035C0005F904F903F902F900895EF920F93242F8C
:1035D0004091F9015091FA01FA013296E491922F4B
:1035E0009E1B9A012F5F3F4FF901E490FA0104916D
:1035F000F9012491929F900111242D5F3F4F0E9469
:10360000C7190F91EF900895CF93DF939091050222
:1036100064177507A1F4E82FF0E038E0939FA0014C
:103620001124E417F5070CF067C0909104026917A4
:1036300008F062C0422FDF91CF910C94E415461739
:10364000570720F4FB01FF27BA01AF01382F37706D
:10365000E0E8F0E002C0F595E7953A95E2F73E2FF5
:10366000969FD001979FB00D1124869586958695DB
:10367000ED01C80FD11DCE01213099F4461757072F
:10368000D8F1E091F501F091F601E80FF91F2081E2
:10369000232B208320910502820F911D6F5F7F4FA6
:1036A000EDCF211114C0E0954617570728F1A091DE
:1036B000F501B091F601A80FB91F2C912E232C9380
:1036C00020910502820F911D6F5F7F4FEDCF223059
:1036D00099F44617570780F0E091F501F091F60153
:1036E000E80FF91F20812327208320910502820FF4
:1036F000911D6F5F7F4FEDCFDF91CF9108950F93B5
:103700001F93CF93DF93FB0160910502E417F50748
:10371000C1F408E0609FB0011124AF01552746179E
:1037200057070CF0A6C090910402891708F0A1C0B9
:10373000422F682F8E2FDF91CF911F910F910C9404
:10374000E4154E175F0720F4DF01BB27FA01AD0136
:10375000EF01C770DD27AFEFB0E08D0102C0159516
:103760000795CA95E2F7E801902F33E0F695E795C3
:103770003A95E1F7689FB0011124E60FF71F8A011F
:103780000770112702C0B595A7950A95E2F73A2F61
:103790003095DA0143E0B695A7954A95E1F76A0FAF
:1037A0007B1FE617F70719F49C2F932330E0213095
:1037B000F1F4DF0111964091F5015091F601E40F0B
:1037C000F51F8081982B90832FEF8091F5019091C8
:1037D000F601A617B70730F4FC01EA0FFB1F2083A0
:1037E0001196F3CFA80FB91F8C91382B41C021112E
:1037F0001FC0DF0111964091F5015091F601E40FD1
:10380000F51F90958081982390838091F501909188
:10381000F601A617B70730F4FC01EA0FFB1F108270
:103820001196F3CFA80FB91F30958C91382320C083
:103830002230F9F4DF0111964091F5015091F60123
:10384000E40FF51F8081982790838091F501909176
:10385000F601A617B70740F4FC01EA0FFB1F8081B1
:10386000809580831196F1CFA80FB91F8C913827CE
:103870003C93DF91CF911F910F910895CF938A30A0
:10388000D9F0A8F4882309F44DC08830E9F4E09118
:10389000F901F091FA01E4918091F7018E1B809378
:1038A000F70140E26091F801CF910C94E51A8D3058
:1038B00041F08E30B9F108C01092F701CF910C940D
:1038C00095191092F7012EC0C82F8091F701209111
:1038D0000502E091F901F091FA01E491482F50E0DE
:1038E00098E0299F900111242E1B310924173507D8
:1038F00054F41092F7010E9495194C2F6091F80131
:103900008091F70103C04C2F6091F8010E94E51AE5
:10391000E091F901F091FA01E4918091F701E80F4B
:10392000E093F701CF910895CF93DF93EC01899154
:10393000882319F00E943E1CFACFDF91CF910895A1
:103940002F923F924F925F926F927F928F929F92AF
:10395000AF92BF92CF92DF92EF92FF920F931F939D
:10396000CF93DF9300D000D0CDB7DEB7962F322FA4
:10397000202FE82EF12C6091050258E0659FB001E0
:1039800011246E157F050CF4B3C050910402591731
:1039900008F4AEC0E42FF0E0FC83EB836E177F07E2
:1039A0000CF4A6C0531708F4A3C084131CC0432F03
:1039B00050E0692F70E00F900F900F900F90DF9103
:1039C000CF911F910F91FF90EF90DF90CF90BF901C
:1039D000AF909F908F907F906F905F904F903F90AF
:1039E0002F900C94041B93131CC04B815C81B70176
:1039F000892F0F900F900F900F90DF91CF911F9113
:103A00000F91FF90EF90DF90CF90BF90AF909F907D
:103A10008F907F906F905F904F903F902F900C947D
:103A20007F1BC92ED12C481748F4A7016B817C81DC
:103A3000461B570B5C834B838FEF07C0EB81FC81E8
:103A4000EE19FF09FC83EB8381E0432E512C3917DB
:103A500030F4A601441955092A019FEF03C04C1800
:103A60005D0891E06B817C81641575054CF44B8198
:103A70003C815C824B82442E532E71E0798301C0DD
:103A800019822A83440C551C5201EB81FC81AE1A29
:103A9000BF0A1F01220C331C812C912C692E990F17
:103AA0007708082F880F110B2B813C8128153905C9
:103AB000FCF04A816C2D8E2D0E94E415B7FC0AC0E3
:103AC0003981313019F4E00EF11E02C0C60CD71C4A
:103AD000A218B3084981413019F4C60CD71C02C0A2
:103AE000E00EF11EA40CB51C5FEF851A950ADCCF21
:103AF0000F900F900F900F90DF91CF911F910F912A
:103B0000FF90EF90DF90CF90BF90AF909F908F90FD
:103B10007F906F905F904F903F902F9008956F929D
:103B20007F928F929F92AF92BF92DF92EF92FF921D
:103B30000F931F93CF93DF93F82E162FD42FC22FFE
:103B4000D02E8FEFE816B9F0062FA22EB12CA60EBC
:103B5000B11C6F2C712C4301840E911C802F90E0BE
:103B60008A159B0544F42E2DA401B301802F0E94D9
:103B70007F1B0F5FF3CFDF0D0D2D212F4D2F612FF9
:103B80008F2D0E94A01CC10F2C2F4F2D612F8F2D28
:103B90000E94A01C2C2F4D2F612F8D2F0E94A01C46
:103BA0002C2F4D2F6C2F8F2D0E94A01CDF91CF91B9
:103BB0001F910F91FF90EF90DF90BF90AF909F907B
:103BC0008F907F906F9008951092F7011092F801F6
:103BD00080E090E02091050230910402239F900143
:103BE0001124821793074CF4E0910A02F0910B0222
:103BF000E80FF91F10820196EDCF08958F929F92E2
:103C0000AF92BF92CF92DF92EF92FF920F931F93EA
:103C1000CF93DF93CDB7DEB7A0970FB6F894DEBF92
:103C20000FBECDBF6115710581059105A9F480E333
:103C3000A0960FB6F894DEBF0FBECDBFDF91CF9137
:103C40001F910F91FF90EF90DF90CF90BF90AF90BA
:103C50009F908F900C943E1C8E010F5F1F4FC12CC4
:103C6000D12C7601842E912CA12CB12C2FEFC21ACD
:103C7000D20AE20AF20AA50194010E940E24F80178
:103C800061938F01B901CA01611571058105910523
:103C900069F7F1E0CF1AD108E108F108FE01EC0D57
:103CA000FD1D81818A3010F4805D01C0895C0E9415
:103CB0003E1CC114D104E104F10459F7A0960FB6DB
:103CC000F894DEBF0FBECDBFDF91CF911F910F9152
:103CD000FF90EF90DF90CF90BF90AF909F908F902C
:103CE0000895CF93DF93CDB7DEB76A970FB6F894F8
:103CF000DEBF0FBECDBF789484B5826084BD84B52D
:103D0000816084BD85B5826085BD85B5816085BDD6
:103D100080916E00816080936E001092810080918E
:103D20008100826080938100809181008160809316
:103D30008100809180008160809380008091B1003B
:103D400084608093B1008091B00081608093B00066
:103D500080917A00846080937A0080917A008260FA
:103D600080937A0080917A00816080937A008091BC
:103D70007A00806880937A001092C10060E08EE043
:103D80000E941D1380E096E00E9458229093F60155
:103D90008093F501009709F458C01092F701109232
:103DA000F80190930B0280930A0280E18093050250
:103DB00080E6809304021092FD011092FE011092A1
:103DC000FF011092000281E08093070280930802B5
:103DD00026E930E13093B6012093B501579A219A34
:103DE0005F98299A239A92EC9093800099E190939E
:103DF00081009CE39093010297EC9093060297E078
:103E00009093090228E331E03093030220930202E9
:103E10002FEF33E030938700209386002AE430E0D0
:103E2000309389002093880029E331E03093FC012E
:103E30002093FB0127E231E13093B4012093B301D9
:103E400080936F0078940E94E41D83EB98E0909338
:103E5000FA018093F9010E94E41D88E08093BB0180
:103E60008AE197E09093BA018093B90162E083E020
:103E70000E941D1362E088E00E941D131092B80199
:103E80001092B70185E693E19093030180930201BC
:103E900080916900837F886080936900E99A89E155
:103EA000EDEBF1E0DF011D928A95E9F780E00E94D9
:103EB0006B17E12C00E020E030E045E054E160E0E9
:103EC00080E00E94C719BFEF2DE339E4B1502040D4
:103ED0003040E1F700C000000E94D9186E0189E16E
:103EE000C80ED11C44E0F42E53EB652E58E0752E1D
:103EF00088E4282E92E5392E14E12AE2422E32E39C
:103F0000532E0E944316882309F4B1C20E941F1643
:103F1000082FE090D6018D3019F098E1E91247C2E0
:103F2000EE2DF0E0E354FE4F10826CE471E08DEB77
:103F300091E00E949F26892BE9F50E94571641E0E7
:103F40006EE084E60E9443186DEA7AE1CE010196A4
:103F50000E94D523CE0101960E94941C80910C02F0
:103F600090910D02009711F480E192E0D601A81B18
:103F7000B90B4D01BB0FAA08BB08B7FE0BC08DE201
:103F80000E943E1CB094A09490948094811C911C3B
:103F9000A11CB11C4AE0C501B4010E94FE1D65E9E7
:103FA0007AE1CE0101960E94D523CE0101960E94AE
:103FB000941C0AC061E571E08DEB91E00E949F26A0
:103FC000892B21F40E948E1681E0DAC164E571E04C
:103FD0008DEB91E00E949F26892BA1F481E00E9445
:103FE0006B17E12C00E020E030E045E054E160E0B8
:103FF00080E00E94C7190E9443168823E1F30E94C3
:104000001F16C0C16BE571E08DEB91E00E949F2609
:10401000892BD1F50E94571641E062E384E60E94A5
:10402000431883E28093F70188E08093F8016DE7FD
:104030007AE1CE0101960E94D523CE0101960E941D
:10404000941C4AE068E070E080E090E00E94FE1D71
:10405000E12C00E020E030E04FE45AE164E188E345
:104060000E94C71988E28093F7018FE28093F801DC
:1040700067E37AE1CE0101960E94D523CE01019635
:104080000E94941C80E07CC161E671E08DEB91E0C0
:104090000E949F26892B09F0BDC00E94571640E060
:1040A00068E284E60E9443186DEE73E1CE0101964A
:1040B0000E94D523CE0101960E94941C1093F70113
:1040C0004092F80165ED73E1CE0101960E94D5237F
:1040D000CE0101960E94941C8091BC01813059F060
:1040E00038F0823059F0833079F465E773E108C025
:1040F0006DEB73E105C065EA73E102C06DE873E141
:10410000CE0101960E94D5231093F7015092F80139
:10411000CE0101960E94941C1093F7018CE38093CA
:10412000F8016DE573E1CE0101960E94D523CE0121
:1041300001960E94941C81E00E946B170E94431616
:104140008823E1F30E941F16882309F449C08830B0
:1041500081F48091BC01882319F081508093BC01C7
:1041600042E350E060E070E08BE092E00E94CD140A
:1041700010C0853131F48091BC01833088F78F5FA6
:10418000EDCF96EF980F923020F08B3149F18D30C2
:1041900039F11093F7015092F8018091BC01813000
:1041A00059F038F0823059F0833079F465E773E1E3
:1041B00008C06DEB73E105C065EA73E102C06DE80C
:1041C00073E1CE0101960E94D523CE0101960E9493
:1041D000941C8FE19EE40197F1F700C00000B2CF7C
:1041E000CE0101960E94F022AFE5BAEE1197F1F7E9
:1041F00000C0000041E06EE08CE30E9443186FE1D4
:104200007AE1CE0101960E94D523CE0101960E944B
:10421000941CB8C066E671E08DEB91E00E949F2689
:10422000892B09F09BC00E94E41DE12C00E020E0F6
:1042300030E04BE35FE060E08BE20E94C719BFEF24
:1042400023EF31E0B15020403040E1F700C00000E2
:1042500046E950E060E070E089E491E00E94CD140E
:104260008FEF96E7A1E081509040A040E1F700C0B9
:10427000000020E030E04FE45AE168E188E10E946C
:10428000C7194BE450E060E070E089E491E00E94DF
:10429000CD14BFEF26E731E0B15020403040E1F7C8
:1042A00000C000008FEF91EEA4E081509040A0404C
:1042B000E1F700C0000028E33BE03093FA012093CF
:1042C000F90160E27BE0CE0101960E94D523F092D5
:1042D000F7013EE33093F801CE0101960E94941C51
:1042E00068E07BE0CE0101960E94D523F092F701B1
:1042F0002092F801CE0101960E94941C60EF7AE0B2
:10430000CE0101960E94D523F092F7013092F80178
:10431000CE0101960E94941C4BE450E060E070E0F6
:1043200088E891E00E94CD148FE39CE90197F1F7B2
:1043300000C000009FEFA9E6B8E19150A040B04056
:10434000E1F700C000007092FA016092F901CE011D
:1043500001960E94F0220E94D91814C00E9457169C
:1043600041E06EE084E60E94431867E07AE1CE0106
:1043700001960E94D523CE0101960E94941C82E0F2
:104380000E946B17CE0101960E94F0220E944316F4
:104390008823E1F30E941F166DEB71E08CED91E034
:1043A0000E94A8268091D6018093DB0105C00B31C5
:1043B00031F483E00E946B170E94D91848C00F3770
:1043C000C9F4EE2099F083E00E946B17E091D601CA
:1043D000E150E093D601F0E0E354FE4F10820E94DA
:1043E000BC188DEB91E00E94941C31C082E00E94C9
:1043F0006B172DC0083059F1053149F10B3089F4A4
:104400006CED71E08DEB91E00E94A8260E94BC1833
:104410008DEB91E00E94941C8091DB018093D6018A
:1044200016C00A30A1F042E350E060E070E08BE09B
:1044300092E00E94CD1481E08E0D8093D601EE2D86
:10444000F0E0E354FE4F0083802F0E943E1C0E9448
:1044500059136093D7017093D8018093D901909339
:10446000DA018FE19EE40197F1F700C000000E949D
:1044700059132091D7013091D8014091D901509121
:10448000DA01DC01CB01821B930BA40BB50B813647
:104490009A4EA105B10520F00E948E160E94D918EF
:1044A00080E090E0892B09F42CCD0E94000020CD03
:1044B0000F931F93CF93DF938230910510F482E026
:1044C00090E0E0910E02F0910F0220E030E0A0E0D9
:1044D000B0E0309719F14081518102811381481772
:1044E0005907C8F08417950769F4109731F01296B0
:1044F0000C93129713961C9327C000930E021093EF
:104500000F0222C02115310519F04217530718F484
:104510009A01BD01EF01DF01F801DBCF2115310563
:10452000F9F0281B390B2430310580F48A819B81F6
:104530006115710521F0FB019383828304C0909380
:104540000F0280930E02FE01329644C0FE01E20F7C
:10455000F31F8193919322503109398328833AC004
:1045600020910C0230910D02232B41F42091060181
:104570003091070130930D0220930C022091040129
:10458000309105012115310541F42DB73EB7409119
:10459000080150910901241B350BE0910C02F091A8
:1045A0000D02E217F307A0F42E1B3F0B2817390763
:1045B00078F0AC014E5F5F4F2417350748F04E0F7F
:1045C0005F1F50930D0240930C028193919302C0A0
:1045D000E0E0F0E0CF01DF91CF911F910F910895BE
:1045E000CF93DF93009709F481C0FC0132971382C7
:1045F0001282A0910E02B0910F02109781F42081D7
:104600003181820F931F20910C0230910D022817E7
:10461000390751F5F0930D02E0930C0267C0ED01EC
:1046200020E030E0CE17DF0740F44A815B819E0135
:1046300041155105F1F0EA01F5CFD383C2834081E2
:104640005181840F951FC817D90759F48881998122
:10465000840F951F0296918380838A819B81938327
:1046600082832115310529F4F0930F02E0930E02A5
:104670003DC0E901FB83EA8349915991C40FD51FDD
:10468000EC17FD0761F480819181840F951F0296DC
:10469000E90199838883828193819B838A83E0E007
:1046A000F0E012968D919C911397009719F0FD01FF
:1046B000DC01F7CF8D919C9111979D012E5F3F4FAB
:1046C000820F931F20910C0230910D022817390799
:1046D00069F4309729F410920F0210920E0202C072
:1046E00013821282B0930D02A0930C02DF91CF913E
:1046F00008958F929F92AF92BF92CF92DF92EF92E6
:10470000FF92CF93DF93EC01688179818A819B814D
:10471000611571058105910521F464E279ED8BE560
:1047200097E02DE133EF41E050E00E94DC234901A6
:104730005A019B01AC01A7EAB1E40E94FB236B0183
:104740007C01ACEEB4EFA50194010E940924DC01C8
:10475000CB018C0D9D1DAE1DBF1DB7FF03C0019782
:10476000A109B04888839983AA83BB839F77DF918F
:10477000CF91FF90EF90DF90CF90BF90AF909F9040
:104780008F9008950E94792308958AE091E00E9415
:1047900079230895A0E0B0E080930A0190930B0183
:1047A000A0930C01B0930D010895FB01DC0105906D
:1047B0000D920020E1F70895052E97FB1EF400945A
:1047C0000E94F32357FD07D00E940E2407FC03D05C
:1047D0004EF40C94F32350954095309521953F4F1E
:1047E0004F4F5F4F089590958095709561957F4FDD
:1047F0008F4F9F4F08950E943024A59F900DB49F26
:10480000900DA49F800D911D11240895B7FF0C9465
:10481000FB230E94FB23821B930B0895A1E21A2E17
:10482000AA1BBB1BFD010DC0AA1FBB1FEE1FFF1F54
:10483000A217B307E407F50720F0A21BB30BE40BA4
:10484000F50B661F771F881F991F1A9469F76095EB
:104850007095809590959B01AC01BD01CF010895A5
:10486000A29FB001B39FC001A39F700D811D1124B1
:10487000911DB29F700D811D1124911D08955058F6
:10488000BB27AA270E9457240C945F250E94262547
:1048900038F00E942D2520F039F49F3F19F426F4BA
:1048A0000C9423250EF4E095E7FB0C941D25E92FCD
:1048B0000E94842558F3BA17620773078407950787
:1048C00020F079F4A6F50C94A6250EF4E0950B2EB5
:1048D000BA2FA02D0B01B90190010C01CA01A00152
:1048E0001124FF27591B99F0593F50F4503E68F1AD
:1048F0001A16F040A22F232F342F4427585FF3CFEE
:10490000469537952795A795F0405395C9F77EF4BE
:104910001F16BA0B620B730B840BBAF09150A1F007
:10492000FF0FBB1F661F771F881FC2F70EC0BA0F8D
:10493000621F731F841F48F4879577956795B79515
:10494000F7959E3F08F0B0CF9395880F08F0992710
:10495000EE0F9795879508950E943625E3950C9460
:1049600070250E948C2588F09F5798F0B92F9927C1
:10497000B751B0F0E1F0660F771F881F991F1AF04A
:10498000BA95C9F714C0B13091F00E94A625B1E0E4
:1049900008950C94A625672F782F8827B85F39F0E3
:1049A000B93FCCF3869577956795B395D9F73EF4E3
:1049B00090958095709561957F4F8F4F9F4F08958B
:1049C000E89409C097FB3EF49095809570956195A9
:1049D0007F4F8F4F9F4F9923A9F0F92F96E9BB275F
:1049E0009395F695879577956795B795F111F8CFDB
:1049F000FAF4BB0F11F460FF1BC06F5F7F4F8F4F46
:104A00009F4F16C0882311F096E911C0772321F03B
:104A10009EE8872F762F05C0662371F096E8862FD3
:104A200070E060E02AF09A95660F771F881FDAF72A
:104A3000880F9695879597F9089597F99F6780E86D
:104A400070E060E008959FEF80EC089500240A94E0
:104A50001616170618060906089500240A94121659
:104A600013061406050608950C9423250E948C2530
:104A7000D8F3E894E0E0BB279F57F0F02AED3FE041
:104A800049EC06C0EE0FBB0F661F771F881F28F08A
:104A9000B23A62077307840728F0B25A620B730BAD
:104AA000840BE3959A9572F7803830F49A95BB0F92
:104AB000661F771F881FD2F790480C942426092E72
:104AC0000394000C11F4882352F0BB0F40F4BF2B69
:104AD00011F460FF04C06F5F7F4F8F4F9F4F0895A9
:104AE000EF93E0FF07C0A2EA2AED3FE049EC5FEB5D
:104AF0000E9457240E945F250F90039401FC905858
:104B0000E8E6F0E00C94302657FD9058440F551F0E
:104B100059F05F3F71F04795880F97FB991F61F03F
:104B20009F3F79F087950895121613061406551FB6
:104B3000F2CF4695F1DF08C0161617061806991F22
:104B4000F1CF86957105610508940895E894BB2717
:104B500066277727CB0197F908950E94C0250C940A
:104B60005F250E94262538F00E942D2520F09523F0
:104B700011F00C941D250C94232511240C94A725C9
:104B80000E94842570F3959FC1F3950F50E0551F47
:104B9000629FF001729FBB27F00DB11D639FAA2792
:104BA000F00DB11DAA1F649F6627B00DA11D661FE1
:104BB000829F2227B00DA11D621F739FB00DA11D02
:104BC000621F839FA00D611D221F749F3327A00DBC
:104BD000611D231F849F600D211D822F762F6A2F58
:104BE00011249F5750409AF0F1F088234AF0EE0FBD
:104BF000FF1FBB1F661F771F881F91505040A9F7EA
:104C00009E3F510580F00C941D250C94A7255F3F15
:104C1000E4F3983ED4F3869577956795B795F79525
:104C2000E7959F5FC1F7FE2B880F911D969587959D
:104C300097F908959F930E9436250F9007FCEE5F29
:104C40000C9470259F3F31F0915020F48795779513
:104C50006795B795880F911D9695879597F9089553
:104C60009F938F937F936F93FF93EF939B01AC017F
:104C70000E94AD25EF91FF910E9444262F913F9114
:104C80004F915F910C94AD25DF93CF931F930F93BA
:104C9000FF92EF92DF927B018C01689406C0DA2EBE
:104CA000EF010E94C025FE01E894A5912591359160
:104CB00045915591A6F3EF010E945724FE019701FB
:104CC000A801DA9469F7DF90EF90FF900F911F91A0
:104CD000CF91DF910895991B79E004C0991F961731
:104CE00008F0961B881F7A95C9F78095089597FB61
:104CF000072E16F4009407D077FD09D00E948B266A
:104D000007FC05D03EF4909581959F4F08957095CE
:104D100061957F4F0895AA1BBB1B51E107C0AA1FD5
:104D2000BB1FA617B70710F0A61BB70B881F991F4C
:104D30005A95A9F780959095BC01CD010895FB0186
:104D4000DC018D91019080190110D9F3990B089520
:104D5000FB01DC0101900D920020E1F70895F89429
:024D6000FFCF83
:104D6200820D820D000010022000010000002F00C1
:104D720000000000000000000000000000000D0024
:104D82000000000000000000000000000000000819
:104D920000000000007F0A00150B000000001A004E
:104DA2000019556E6B6E6F77003E20006672656566
:104DB200007373006D6F6E6369610061626F757479
:0A4DC200006C6F6F6B007031780019
:00000001FF
