:100000000C94970D0C94AC140C9485140C94B40DB2
:100010000C94B40D0C94B40D0C94B40D0C94B40D5C
:100020000C94B40D0C94B40D0C94B40D0C94B40D4C
:100030000C94B40D0C94D3140C94B40D0C94B40D16
:100040000C943B140C94B40D0C94B40D0C94B40D9E
:100050000C94B40D0C94B40D0C94B40D0C94B40D1C
:100060000C94B40D0C94B40D1A131D132013231308
:10007000261329132C132F1305A84CCDB2D44EB937
:100080003836A9020C50B9918688083CA6AAAA2A3B
:10009000BE000000803F53536176657200004D6FD3
:1000A0006E636961000046696C6573000000456419
:1000B00069740000000050315800000000004C6FCF
:1000C0006F6B0000000041626F75740000004672A3
:1000D000656500000000806003FFFFFFFFFFFFFF7A
:1000E000FFFFFFFFFFFFFFC01FFFFFFFFFFFFFFF3F
:1000F000FFFFFFFFFFFFFFF83FFFFFFFFFFFFFFFD7
:10010000FFFFFFFFFFFFFFFC7FFFFFFFFFFFFFFF82
:10011000FFFFFFFFFFFFFFFE7FFFFFFFFFFFFFFF70
:10012000FFFFFFFFFFFFFFFE7FFFFFFFFFFFFFFF60
:10013000FFFFFFFFFFFFFFFEFFFFFFFFFFFFFFFFD0
:10014000FFFFFFFFFFFFFFFFFFFFFFFFFFFFFFFFBF
:10015000FFFFFFFFFFFFFFFFFFFFFFFFFFFFFFFFAF
:10016000FFFFFFFFFFFFFFFFFFFFFFFFFFFFFFFF9F
:10017000FFFFFFFFFFFFFFFFFFFFFFFFFFFFFFFF8F
:10067000FFFFFFFFFFFFFFFF7FFFFFFFFFFFFFFF0A
:10068000FFFFFFFFFFFFFFFE7FFFFFFFFFFFFFFFFB
:10069000FFFFFFFFFFFFFFFE7FFFFFFFFFFFFFFFEB
:1006A000FFFFFFFFFFFFFFFE3FFFFFFFFFFFFFFF1B
:1006B000FFFFFFFFFFFFFFFC1FFFFFFFFFFFFFFF2D
:1006C000FFFFFFFFFFFFFFF803FFFFFFFFFFFFFF3D
:1006D000FFFFFFFFFFFFFFC0000000002300260018
:1006E00029000000000800020100000304070000C8
:1006F00000000000000000000000250028002B0082
:1007000000000000240027002A000404040404045C
:1007100004040202020202020303030303030102B0
:10072000040810204080010204081020010204087F
:100730001020000000000000000000000000000980
:100740006000000000000071310000007A736177E2
:10075000320000637864653433000020766674727A
:100760003500006E62686779360000006D6A753783
:100770003800002C6B696F303900002E2F6C3B70F5
:100780002D00000027005B3D000000000D5D005CB7
:1007900000000000000000007F000031003437003E
:1007A0000000302E323536381B00002B332D2A390D
:1007B0000000000000000000000000000000000039
:1007C00000000000000000097E0000000000005151
:1007D000210000005A53415740000043584445242B
:1007E00023000020564654522500004E42484759E7
:1007F0005E0000004D4A55262A00003C4B494F2917
:100800002800003E3F4C3A505F00000022007B2B46
:10081000000000000D7D007C0000000000000000D2
:100820007F000031003437000000302E323536387A
:100830001B00002B332D2A390000000000000000AF
:1008400000000000000000000000000000000000A8
:100850000000000000000000000000000000000098
:100860000000000000000000000000000000000088
:100870000000000000000000000000000000000078
:100880000000000000000000000000000000000068
:100890000000000000000000000000000000000058
:1008A0000000000000000000000000000000000048
:1008B0000000000000000000000000000000000038
:1008C0000000000000000000000000446F6E6500A2
:1008D0000000000000000000000000000000000018
:1008E000000000557365206C6566742F7269676837
:1008F00074206172726F7773000000202A20537495
:1009000061726669656C6420202020202020000030
:10091000000000202A2053696E75736F69642041BE
:10092000727469737420000000000053637265657F
:100930006E53617665723A0000000000000000000E
:10094000000000202A204469676974616C2061728C
:100950007420202020200000000000202A204C6964
:100960006E657320766572746963616C2020000087
:10097000000000202A204C696E657320686F726940
:100980007A6F6E74616C0000000000202A205768A6
:100990006974652066696C6C20202020202000008E
:1009A00000000057616C6C70617065723A00000065
:1009B000000000000000000000000004062000000D
:1009C00000000000404040004000A0A000000000E7
:1009D000A0E0A0E0A0004060C060C000A020408077
:1009E000A0002040C0A0E000808000000000408007
:1009F0008080400080404040800040A040000000D7
:100A00000040E04000000000008080000000E000A6
:100A10000000000000008000202040808000E0A056
:100A2000A0A0E00040C04040E000E020E080E00006
:100A3000E020E020E000A0A0E0202000E080E02016
:100A4000C000C080E0A0E000E02040808000E0A086
:100A5000E0A0E000E0A0E0206000004000400000D6
:100A600000400040800020408040200000E000E086
:100A70000000804020408000C02040004000E0A0F6
:100A8000A0E0E000E0A0E0A0A000C0A0E0A0C000C6
:100A9000E0808080E000C0A0A0A0C000E080E080F6
:100AA000E000E080E0808000E08080A0E000A0A086
:100AB000E0A0A000E0404040E000202020A0E000B6
:100AC00080A0C0C0A00080808080E000A0E0E0A006
:100AD000A000C0A0A0A0A00040A0A0A04000E0A056
:100AE000E080800040A0A0E06600E0A0C0E0AA0096
:100AF000E080E020E000E04040404000A0A0A0A056
:100B0000E000A0A0A0A04000A0A0E0E0A200A0A063
:100B100040A0A000A0A040404000E0204080E000B5
:100B2000C0808080C000008040202000C040404045
:100B3000C00040A00000000000000000E000804075
:100B4000000000000060A0A060008080C0A0C00085
:100B5000006080806000202060A0600040A0E080F5
:100B600060006040E040400060A06020C0008080E5
:100B7000C0A0A00040004040400040004040C000F5
:100B80008080A0C0A000C0404040E00000A0E0A0E5
:100B9000A00000C0A0A0A0000040A0A0400000C095
:100BA000A0C080000060A060200000C0A080800085
:100BB00000604020600040E04040400000A0A0A055
:100BC000600000A0A0A0400000A0A0E0A00000A045
:100BD0004040A00000A0E020400000E04080E00095
:100BE0002040C04022004040004040008040604023
:100BF000800000A0400000004A616E6B6F77736B4D
:100C0000690000000000000000000000000000007B
:100C10004B7279737469616E00000000000000007F
:100C200000000000000000004B727A79737A746F44
:100C3000660000000000000000000000000000004E
:100C40000808000000000000000000003E4155417F
:100C500055493E003E7F6B7F6B773E0022777F7F5A
:100C60003E1C0800081C3E7F3E1C0800081C2A7F12
:100C70002A081C00081C3E7F3E081C00001C3E3E4B
:100C80003E1C00FFFFE3C1C1C1E3FF00001C2222A4
:100C9000221C00FFFFE3DDDDDDE3FF000F0305396C
:100CA00048483000083E081C22221C00181410106E
:100CB000307060000F19111337766000082A1C7716
:100CC0001C2A080060787E7F7E786000030F3F7FDB
:100CD0003F0F0300081C2A082A1C08006666666687
:100CE000006666003F65653D050505000C32482439
:100CF000124C3000000000007F7F7F00081C2A0893
:100D00002A1C3E00081C3E7F1C1C1C001C1C1C7F57
:100D10003E1C0800080C7E7F7E0C080008183F7FF0
:100D20003F18080000007070707F7F000014227F61
:100D300022140000081C1C3E3E7F7F007F7F3E3E49
:100D40001C1C08000000000000000000183C3C18BB
:100D500018001800363614000000000036367F36C2
:100D60007F363600081E201C023C080060660C1806
:100D7000306606003C663C2865663F00181818304F
:100D8000000000006030181818306000060C1818B9
:100D9000180C060000361C7F1C3600000008083EB8
:100DA0000808000000000030303060000000003C07
:100DB00000000000000000000060600000060C1849
:100DC000306000003C666E7666663C001818381885
:100DD00018187E003C66060C30607E003C66061CDF
:100DE00006663C000C1C2C4C7E0C0C007E607C06C5
:100DF00006663C003C66607C66663C007E660C0CC9
:100E0000181818003C66663C66663C003C66663E08
:100E100006663C000018180018180000001818009A
:100E200018183000060C1830180C060000003C00A2
:100E30003C0000006030180C183060003C66061C56
:100E40001800180038445C58423C00003C66667E3E
:100E5000666666007C66667C66667C003C666060F2
:100E600060663C007C66666666667C007E60607CD0
:100E700060607E007E60607C606060003C666060F8
:100E80006E663C006666667E666666003C181818EC
:100E900018183C001E0C0C0C6C6C3800666C7870DA
:100EA000786C66006060606060607E0063777F6B76
:100EB0006363630063737B6F676363003C666666AE
:100EC00066663C007C6666667C6060003C666666C2
:100ED0006E3C06007C66667C786C66003C66603C16
:100EE00006663C007E5A1818181818006666666672
:100EF00066663E0066666666663C18006363636B02
:100F00007F7763006363361C366363006666663C06
:100F1000181818007E060C1830607E001E1818186D
:100F200018181E00006030180C06000078181818F9
:100F3000181878000814224100000000000000008A
:100F400000007F000C0C06000000000000003C06C2
:100F50003E663E006060607C66667C0000003C6629
:100F600060663C000606063E66663E0000003C6683
:100F70007E603C001C3630307C303000003E6666BF
:100F80003E063C006060607C6666660000180018E3
:100F900018183C000C000C0C6C6C38006060666C1F
:100FA000786C660018181818181818000000637775
:100FB0007F6B6B0000007C7E6666660000003C660E
:100FC00066663C00007C66667C606000003C6C6C81
:100FD0003C0D0F0000007C666660600000003E4033
:100FE0003C027C000018187E181818000000666685
:100FF00066663E0000000066663C18000000636BF9
:101000006B6B3E000000663C183C660000006666A4
:101010003E063C0000003C0C18303C000E18183016
:1010200018180E0018181800181818007018180C46
:101030001818700000003A6C00000000081C3663AD
:1010400041417F5460000005555555550000000092
:1010500000000BFFFFBBAAA2A2000000001555551F
:1010600055554000000000001FFFFFFEEEAAA8A09B
:1010700000000015555555550000000000003FFFC9
:10108000FFBBAAAA2220000000155D5D5555400057
:10109000000000007FFFFFEEEEAAAAA000000055AE
:1010A000555555550000000000007FFFFFFAAAA229
:1010B00022A000000055D555D55440000000000086
:1010C000FFFFFFFFEAAAA8A000000055555555559F
:1010D000000000000000FFFFFFFFBAAA22A00000EE
:1010E000005DDDDDDD55400040000000FFFFFFFF3B
:1010F000FFEAAAA800000077777555755000000038
:101100000000FFFFFFFFFFAAA2A0000001DDDDDD60
:10111000DDD5500040000000FFFFFFFFFFEAAAA856
:101120000000015557755555500000000003FBBFE6
:10113000FFFBAAAA2220000005DD55D55545540025
:101140000000000EFEFFFEBFEEBEAA8A800005551D
:101150005551175514000100000ABFBBFABFEABA87
:10116000222A8000055D5555555554000540000E56
:10117000FFFFEAAFFEAAA8ABC000055555511555B3
:1011800050000540000FFFFFAAABBFAA222B800032
:1011900005DD5554455554000500000FFFFFEAAB2F
:1011A000FFEAAAAF800005555550055550001500BF
:1011B0000003FFFFAAABFBAAA2AA000005D5D544F5
:1011C00045D5540044000007FFFFEAAFFFEAAAAE8E
:1011D0000000055755510555500014000003FFFF4E
:1011E000EAAFFFAA2A2A000001DDDDD545DD54045F
:1011F00014000000FFFFEEAFFFEAAAAC000000778A
:1012000077555555500010000000FFFFEBBFFFAAB7
:10121000AAB80000005DDDD5D5D540004000000033
:101220007FFFFEFFFFEAAAE0000000775755555503
:101230005001400000007FFFFFFFFFAA2B8000004D
:10124000005DDDDD555D5000000000003FFFFFFF49
:10125000FFEAA0000000001555755555500000002C
:1012600000001FFFFFFBFFAAA0000000000DD5DD5E
:1012700055555000000000000FFFFFEEFFEAA000F0
:1012800000000007555551555000000000000FFBAD
:10129000AAABFFAA000000000005D5555555440033
:1012A0000000000007FFFFFFFFEA800000000005CC
:1012B0007575555550000000000003FFFFFFFBBA95
:1012C000200000000005DDDDD555500000000000C5
:1012D000ABFFFFFFFEEA88800000000177775555DD
:1012E00050000000000A2BFFFFFFABAA22220000E3
:1012F00000015DDD555540000000002AAAFFFFFEF9
:10130000AAAA8A8A800000015555550000000000F5
:101310000022A2BFFFAAAAAA2222200000415555FE
:1013200055400000000000AAAAEEFEEAAAAA88889A
:1013300080000001555555000000000000A2ABAB35
:10134000BBAAAAAA22222000000555554545400007
:10135000000000AAABEEAEAAAAAA8A8A8000000109
:10136000555551111000000002A2ABBAAAAAAAAAB0
:10137000222220004445555554454000000000AA53
:10138000AAEEEEEAAAA88888A000111155555515B5
:101390001000000000AAAAABBBBAAAAA2222200011
:1013A000554555555555500000000AAAAEEEEFEED2
:1013B000AEAA8A8A80001515555555554000000083
:1013C0002AAAABAABBBAAAA222222000455555558B
:1013D000555440000000AAAAAEEEEFEEEA88AAA893
:1013E0008000015555555550000000002AAABBAB9E
:1013F000ABBBAA222A22200445555555554400006E
:101400000000AAAAFEEFEEEAAAAAAA8A8000015565
:1014100055555500000000002AAAFAABBAAAA2A2AC
:10142000A222200444555555554000000000AAAAA8
:10143000FAAAEAEAAAE8AAA8800001555551510182
:10144000500000002AABBBABAAAA2BFA2A22200428
:1014500045555555540554000000AAABFAAAEAAA0E
:10146000ABEAAAAA808060001110111011101110AF
:10147000111011101110000AAAAAAAAAAAAAAAAAAF
:10148000AAAAAAAAAAAAA804444444444444444494
:10149000444444444444442AAAAAAAAAAAAAAAAAF6
:1014A000AAAAAAAAAAAAAA111111111111111111FD
:1014B000111111111111102AAAAAAAAAAAAAAAAA3C
:1014C000AAAAAAAAAAAAAA554555454545554555C9
:1014D00045554555455545AAAAAAAAAAAAAAAAAAFF
:1014E000AAAAAAAAAAAAAA5151515151515151517D
:1014F00051515151515151AAAAAAAAAAAAAAAAAABB
:10150000AAAAAAAAAAAAAA55555555555555555538
:1015100055555555555555AAAAAAAAAAAAAAAAAA7E
:10152000AAAAAAAAAAAAAA55555555555555555518
:1015300055555555555555AAAAAAAAAAAAAAAAAA5E
:10154000AAAAAAAAAAAAAA555555555555555555F8
:1015500055555555555555AEAEAEAEAEAEAEAEAE1A
:10156000AEAEAEAEAEAEAE555555555555555555BC
:1015700055555555555555AAAAAAAAAAAAAAAAAA1E
:10158000AAAAAAAAAAAAAA555555555555555555B8
:1015900055555555555555EEEEEEEEEEEEEEEEEE9A
:1015A000EEEEEEEEEEEEEE555555555555555555BC
:1015B00055555555555555BBABBBABBBABBBABBB85
:1015C000ABABABBBABBBAB55555555555555555551
:1015D00055555555555555EEEEEEEEEEEEEEEEEE5A
:1015E000EEEEEEEEEEEEEE5555555555555555557C
:1015F00055555555555555BBBBBBBBBBBBBBBBBB05
:10160000BBBBBBBBBBBBBB555555555555555555C0
:1016100055555555555555FFFFFFFFFFFFFFFFFF80
:10162000FFFFFFFFFFFFFF555555555555555555C4
:1016300055555555555555BBBFBBBBBBBBBBBBBBC0
:10164000BBBBBFBBBBBBBB5555555555555554557D
:1016500055555555555555FFFFFFFFFFFFFFF99FA6
:10166000FFFFFFFFFFFFFF5555555555555547E502
:1016700055555555555555FFFFFFFFFFFFFF9E7907
:10168000FFFFFFFFFFFFFFD5D5D5D5D5D5D4799E78
:1016900055D5D5D5D5D5D5FFFFFFFFFFFFF9FFFF06
:1016A0009FFFFFFFFFFFFF55555555555547FFFF5E
:1016B000E5555555555555FFFFFFFFFFFF9FFFFFB0
:1016C000F9FFFFFFFFFFFFDDDDDDDDDDDC7FFFFF7D
:1016D000FE5DDDDDDDDDDDFFFFFFFFFFF9FFFFFF6D
:1016E000FF9FFFFFFFFFFF757575757567FFFC7F37
:1016F000FFE57575757575FFFFFFFFFF9FFFFC1F09
:10170000FFF9FFFFFFFFFFDDDDDDDDDC7FFFFC8795
:10171000FFFE5DDDDDDDDDFFFFFFFFF9FFFF80E1A7
:10172000FFFF9FFFFFFFFF7777777777FFFF8FF947
:10173000FFFFE777777777FFFFFFFFF1FFFFC3FF3B
:10174000FFFF8FFFFFFFFFDFDFDFDFD07FFFF0FF57
:10175000FFFE6FDFDFDFDFFFFFFFFFF01FFFFC3F5C
:10176000FFF98FFFFFFFFF777777777007FFFF3F66
:10177000FFE66777777777FFFFFFFFF201FFFFFF55
:10178000FF998FFFFFFFFFFFFFFFFFF4007FFFFFC9
:10179000FE661FFFFFFFFFFFFFFFFFF8401FFFFF79
:1017A000F9981FFFFFFFFFFF7FFF7FF80007FFFF94
:1017B000E6611FFF7FFF7FFFFFFFFFF90401FFFFCF
:1017C00099849FFFFFFFFFFFFFFFFFF988007FFE67
:1017D0006613FFFFFFFFFFFFFFFFFFFF90401FF9B2
:1017E000984FFFFFFFFFFFFFFFFFFFFF988007E617
:1017F000613FFFFFFFFFFFFFFFFFFFFFF9040199BC
:1018000084FFFFFFFFFFFFFFFFFFFFFFF988006678
:1018100013FFFFFFFFFFFFFFFFFFFFFFFF904018D9
:101820004FFFFFFFFFFFFFFFFFFFFFFFFF988061FC
:101830003FFFFFFFFFFFFFFFFFFFFFFFFFF9040474
:10184000FFFFFFFFFFFFFFFFFFFFFFFFFFF9881311
:10185000FFFFFFFFFFFFFFFFFFFFFFFFFFFF900FF7
:10186000FFFFFFFFFFFFFFFFFFFFFFFFFFFF98BF2F
:10187000FFFFFFFFFFFFFFFFFFFFFFFFFFFFF9FF7E
:10188000FFFFFFFFFFFFFFFFFFFFFFFFFFFFF9FF6E
:10189000FFFFFFFFFFFFFFFFFFFFFFFFFFFFFFFF58
:1018A000FFFFFFFFFFFFFFFFFFFFFFFFFFFFFFFF48
:1018B000FFFFFFFFFFFFFFFFFFFFFFFFFFFFFFFF38
:1018C000FFFFFFFFFFFFFFFFFFFFFFFFFFFFFFFF28
:1018D000FFFFFFFFFFFFFFFFFFFFFFFFFFFFFFFF18
:1018E000FFFFFFFFFFFFFFFFFFFFFFFFFFFFFFFF08
:1018F000FFFFFFFFFFFFFFFFFFFFFFFFFFFFFFFFF8
:10190000FFFFFFFFFFFFFFFFFFFFFFFFFFFFFFF3F3
:10191000FFFFFFFFFFFFFFFFFFFF7FDFFFFFFFF383
:10192000FFFC1FC3FFFFFFFFFFFF3F9FFFFFFFFF06
:10193000FFF80F80FFFFFFFFFFFF3F9F0743F0F718
:10194000C171C718FFFFFFFFFFFF1F1E733DEE773A
:101950009C63E31FFFFFFFFFFFFF5F5CF97EDF3744
:101960003E63E303FFFFFFFFFFFF4E5DDD7EDFF71A
:101970007F63E381FFFFFFFFFFFF6EDD8D7EDFF7FB
:101980006363E3C0FFFFFFFFFFFF64DDDD7EDFF782
:101990007F63E3F8FFFFFFFFFFFF75DCF97EDF37B2
:1019A0003E71C718FFFFFFFFFFFF71DE737EEE770A
:1019B0009C780F01FFFFFFFFFFFF7BDF077EF0F743
:1019C000C17C1FC3FFFFFFFFFFFFFFFFFFFFFFFF04
:1019D000FFFFFFFFFFFFFFFFFFFFFFFFFFFFFFFF17
:1019E000FFFFFFFFFFFFFFFFFFFFFFFFFFFFFFFF07
:1019F000FFFFFFFFFFFFFFFFFFFFFFFFFFFFFFFFF7
:101A0000FFFFFFFFFFFFFF7FFFFFFFFFFFFFFFFF66
:101A1000FFFFFFFFFFFFFE7FFFFFFFFFFFFFFFFF57
:101A2000FFFFFFFFFFFFFE7FFFFFFFFFFFFFFFFF47
:101A3000FFFFFFFFFFFFFE3FFFFFFFFFFFFFFFFF77
:101A4000FFFFFFFFFFFFFC1FFFFFFFFFFFFFFFFF89
:101A5000FFFFFFFFFFFFF803FFFFFFFFFFFFFFFF99
:101A6000FFFFFFFFFFFFC0556E6B6E6F776E206349
:101A70006F6D6D616E6400000000000000000044A6
:101A80004542554700000000000000000000000033
:101A90000000000000000043433020323032342088
:101AA000503158000000000000000000000000104D
:101AB00016FC918591849184918491849184918480
:101AC00091848A8484848AFC918091809180918021
:101AD000918091809180918091809180914D6F6EE5
:101AE0006369614F533A20616C70686120000000A7
:101AF000000000000020627974657300000000009F
:101B000000000000000000000000000000467265B8
:101B1000652052414D3A2000000000000000000006
:101B20000000000000436C6F73650000000011248A
:101B30001FBECFEFD8E0DEBFCDBF11E0A0E0B1E027
:101B4000EEEBF1E502C005900D92A634B107D9F78E
:101B500022E0A6E4B1E001C01D92AA3FB207E1F77E
:101B60000E94631F0C94DD280C94000008950F93CD
:101B7000CF93DF93E5EEF2E0A785B089C0918401B1
:101B8000D09185018285AC0FBD1F8E3191F08D31D2
:101B900051F08C3149F08B3141F08A3139F0893183
:101BA00031F0883129F01CC032C048C05EC074C01A
:101BB0008AC00D900BB80000000C0BB80000000CA0
:101BC0000BB80000000C0BB80000000C0BB80000B4
:101BD000000C0BB80000000C0BB80000000C0BB898
:101BE0000D900BB80000000C0BB80000000C0BB8F7
:101BF0000000000C0BB80000000C0BB80000000C3B
:101C00000BB80000000C0BB80000000C0BB80D90D6
:101C10000BB80000000C0BB80000000C0BB8000063
:101C2000000C0BB80000000C0BB80000000C0BB847
:101C30000000000C0BB80000000C0BB80D900BB8A6
:101C40000000000C0BB80000000C0BB80000000CEA
:101C50000BB80000000C0BB80000000C0BB8000023
:101C6000000C0BB80000000C0BB80D900BB8000076
:101C7000000C0BB80000000C0BB80000000C0BB8F7
:101C80000000000C0BB80000000C0BB80000000CAA
:101C90000BB80000000C0BB80D900BB80000000C46
:101CA0000BB80000000C0BB80000000C0BB80000D3
:101CB000000C0BB80000000C0BB80000000C0BB8B7
:101CC0000000000C0BB80D900BB80000000C0BB816
:101CD0000000000C0BB80000000C0BB80000000C5A
:101CE0000BB80000000C0BB80000000C0BB8000093
:101CF000000C0BB80D900BB80000000C0BB80000E6
:101D0000000C0BB80000000C0BB80000000C0BB866
:101D10000000000C0BB80000000C0BB80000000C19
:101D20000BB80D900BB80000000C0BB80000000CB5
:101D30000BB80000000C0BB80000000C0BB8000042
:101D4000000C0BB80000000C0BB80000000C0BB826
:101D50000D900BB80000000C0BB80000000C0BB885
:101D60000000000C0BB80000000C0BB80000000CC9
:101D70000BB80000000C0BB80000000C0BB80D9065
:101D80000BB80000000C0BB80000000C0BB80000F2
:101D9000000C0BB80000000C0BB80000000C0BB8D6
:101DA0000000000C0BB80000000C0BB80D900BB835
:101DB0000000000C0BB80000000C0BB80000000C79
:101DC0000BB80000000C0BB80000000C0BB80000B2
:101DD000000C0BB80000000C0BB80D900BB8000005
:101DE000000C0BB80000000C0BB80000000C0BB886
:101DF0000000000C0BB80000000C0BB80000000C39
:101E00000BB80000000C0BB80D900BB80000000CD4
:101E10000BB80000000C0BB80000000C0BB8000061
:101E2000000C0BB80000000C0BB80000000C0BB845
:101E30000000000C0BB80D900BB80000000C0BB8A4
:101E40000000000C0BB80000000C0BB80000000CE8
:101E50000BB80000000C0BB80000000C0BB8000021
:101E6000000C0BB80D900BB80000000C0BB8000074
:101E7000000C0BB80000000C0BB80000000C0BB8F5
:101E80000000000C0BB80000000C0BB80000000CA8
:101E90000BB80D900BB80000000C0BB80000000C44
:101EA0000BB80000000C0BB80000000C0BB80000D1
:101EB000000C0BB80000000C0BB80000000C0BB8B5
:101EC0000D900BB80000000C0BB80000000C0BB814
:101ED0000000000C0BB80000000C0BB80000000C58
:101EE0000BB80000000C0BB80000000C0BB80D90F4
:101EF0000BB80000000C0BB80000000C0BB8000081
:101F0000000C0BB80000000C0BB80000000C0BB864
:101F10000000000C0BB80000000C0BB80D900BB8C3
:101F20000000000C0BB80000000C0BB80000000C07
:101F30000BB80000000C0BB80000000C0BB8000040
:101F4000000C0BB80000000C0BB80D900BB8000093
:101F5000000C0BB80000000C0BB80000000C0BB814
:101F60000000000C0BB80000000C0BB80000000CC7
:101F70000BB80000000C0BB80D900BB80000000C63
:101F80000BB80000000C0BB80000000C0BB80000F0
:101F9000000C0BB80000000C0BB80000000C0BB8D4
:101FA0000000000C0BB80D900BB80000000C0BB833
:101FB0000000000C0BB80000000C0BB80000000C77
:101FC0000BB80000000C0BB80000000C0BB80000B0
:101FD000000C0BB80D900BB80000000C0BB8000003
:101FE000000C0BB80000000C0BB80000000C0BB884
:101FF0000000000C0BB80000000C0BB80000000C37
:102000000BB80D900BB80000000C0BB80000000CD2
:102010000BB80000000C0BB80000000C0BB800005F
:10202000000C0BB80000000C0BB80000000C0BB843
:102030000D900BB80000000C0BB80000000C0BB8A2
:102040000000000C0BB80000000C0BB80000000CE6
:102050000BB80000000C0BB80000000C0BB80D9082
:102060000BB80000000C0BB80000000C0BB800000F
:10207000000C0BB80000000C0BB80000000C0BB8F3
:102080000000000C0BB80000000C0BB80D900BB852
:102090000000000C0BB80000000C0BB80000000C96
:1020A0000BB80000000C0BB80000000C0BB80000CF
:1020B000000C0BB80000000C0BB80D900BB8000022
:1020C000000C0BB80000000C0BB80000000C0BB8A3
:1020D0000000000C0BB80000000C0BB80000000C56
:1020E0000BB80000000C0BB80D900BB80000000CF2
:1020F0000BB80000000C0BB80000000C0BB800007F
:10210000000C0BB80000000C0BB80000000C0BB862
:102110000000000C0BB8000000005F98DF91CF9129
:102120000F9108950F93CF93DF93E5EEF2E0A7852B
:10213000B089C0918401D09185018285AC0FBD1F0B
:1021400002C0000C0BB80D9000000BB8000000009E
:10215000000C0BB800000000000C0BB800000000E1
:10216000000C0BB800000000000C0BB800000000D1
:10217000000C0BB80000000C8A950BB811F700009A
:10218000000C0BB80000000000005F98DF91CF91B9
:102190000F9108950F93CF93DF93E5EEF2E0A785BB
:1021A000B089C0918401D09185018285AC0FBD1F9B
:1021B0000BB10F7703C000FA07F90BB90D9007FABE
:1021C00007F90BB90000000006FA07F90BB9000087
:1021D000000005FA07F90BB90000000004FA07F93E
:1021E0000BB90000000003FA07F90BB9000000006A
:1021F00002FA07F90BB900008A9501FA07F90BB941
:10220000D1F6000000FA07F90BB90BB10F7707FB05
:1022100007F90BB9DF91CF910F9108950F93CF93E9
:10222000DF93E5EEF2E0A785B089C0918401D091FB
:1022300085018285AC0FBD1F0BB10F7703C000FA7B
:1022400007F90BB90D90000007FA07F90BB9000068
:102250000000000006FA07F90BB9000000000000BA
:1022600005FA07F90BB900000000000004FA07F9AD
:102270000BB900000000000003FA07F90BB90000D9
:102280000000000002FA07F90BB90000000000008E
:1022900001FA07F90BB98A9591F60000000000FADF
:1022A00007F90BB90BB10F7707FB07F90BB9DF91F2
:1022B000CF910F9108952091E5023091E60280912F
:1022C000EC029091ED02281739070CF44EC08CEA0D
:1022D00093E090938900809388001092E602109218
:1022E000E5028091E7029091E802A091E902B091A5
:1022F000EA020196A11DB11D8093E7029093E802C6
:10230000A093E902B093EA0280918001909181014B
:10231000A0918201B0918301892B8A2B8B2B09F12B
:102320008091800190918101A0918201B0918301FF
:10233000181619061A061B0684F5809180019091E3
:102340008101A0918201B09183010197A109B10996
:102350008093800190938101A0938201B0938301C7
:102360001CC01092B1002B9818C02091E50230914A
:10237000E6028091F302082E000C990B281739070A
:1023800061F48AE490E0909389008093880087ED5F
:1023900091E19093900180938F018091E50290915B
:1023A000E60201969093E6028093E502089520915B
:1023B000E5023091E6028091EB0290E028173907A0
:1023C00059F410928501109284018091F10280935A
:1023D000F20287E092E10DC02091E5023091E60221
:1023E0008091EC029091ED022817390731F48BE5CA
:1023F00091E19093900180938F018091E5029091FB
:10240000E60201969093E6028093E50208953091EA
:1024100084002091F0022A50231B2350F0F72D5FF7
:1024200019F02A9511F001C00000E0919101F0919E
:10243000920109959091F2028091F10291110FC0E1
:102440008093F2029091EF022091840130918501F6
:10245000290F311D309385012093840103C09150D1
:102460009093F2024091E5025091E6024F5F5F4F78
:10247000082E000C990B01966091EE02689F900166
:10248000699F300D11248091EB02B901680F711D15
:102490004617570731F487ED91E1909390018093AF
:1024A0008F018091E5029091E60201969093E602F9
:1024B0008093E50208950895CF93DF9390917D0175
:1024C0002091950130919601A9014F5E5E4FB901AF
:1024D00068577F4FD901A05FBE4F80919301E09173
:1024E00094018E1304C090937D0180E05BC08F5FE8
:1024F0008D3208F080E0E82FF0E0E05BFE4FE081F5
:1025000080939301EE2379F3E03F11F49160E5CFDE
:10251000E03E11F49260E1CF90FF0EC0E23111F481
:102520009B7F08C0E93511F4977F04C0E13111F4B5
:1025300091FD9F7E9C7FD1CFE23111F49460CDCF8D
:10254000E93511F49860C9CFE13111F491FD906142
:1025500091FF08C0EA54E433E8F4F0E0EE5EFE4F89
:10256000E08119C094FF07C08C91882321F0E838DE
:1025700088F4EA010AC0892F8C7021F0E83850F401
:10258000EB0103C0E83830F4E901CE0FD11DFE01A4
:10259000E49101C0E0E09C7FEE2309F49ECF90938C
:1025A0007D018E2FDF91CF910895CF92DF92EF9230
:1025B000FF920F931F93CF93DF93282FD62FC42E14
:1025C00063E00E94A32814E2919F102D112483E060
:1025D000F82EF10ECBEA2C9FC12D11242C2F26951D
:1025E000C6E12C9FC02D112494E0D92EDC0ECA5FC9
:1025F0001B5FE12C00E020E140E26C2F812F0E9464
:10260000261EC11003C0EE24E39400E020E140E266
:102610006D2D8F2D0E94261E1093E102C093E202C1
:102620008D2F90E08830910560F5FC01EC5CFF4F48
:102630000C94C3286EEC70E014C066EC70E011C01E
:102640006EEB70E00EC066EB70E00BC06EEA70E0FF
:1026500008C066EA70E005C06EE970E002C066E995
:1026600070E087ED92E00E946D2587ED92E0DF91AA
:10267000CF911F910F91FF90EF90DF90CF900C942E
:10268000001CDF91CF911F910F91FF90EF90DF9091
:10269000CF900895CF93DF9390E0FC01E25EF84F76
:1026A0002491FC01E65FF84F8491882361F190E06A
:1026B000880F991FFC01E050F94FC591D491FC019E
:1026C000EA50F94FA591B491611109C09FB7F894F0
:1026D0008881209582238883EC912E230BC0623061
:1026E00061F49FB7F8948881322F309583238883D3
:1026F000EC912E2B2C939FBF06C08FB7F894E881E6
:102700002E2B28838FBFDF91CF9108952FB7F89498
:1027100060918B0170918C0180918D0190918E015F
:102720002FBF0895CF92DF92EF92FF920F931F93E6
:10273000CF93DF938091970190E0FC01EE51F94F28
:102740002491FC01E25EF84F3491FC01E65FF84F02
:10275000E491EE23B9F1222339F1233091F038F4DA
:102760002130A9F0223001F584B58F7D12C02730C9
:1027700091F02830A1F02430B9F4809180008F7D51
:1027800003C0809180008F77809380000DC084B556
:102790008F7784BD09C08091B0008F7703C080918E
:1027A000B0008F7D8093B000F0E0EE0FFF1FE85285
:1027B000F94FA591B491EC91E32391E009F490E0F5
:1027C000C92F02C0C0E0D0E00E94861300914C01E6
:1027D00010914D0120914E0130914F016B017C0110
:1027E000C01AD10AE20AF30A970186010B3F1105CC
:1027F0002105310520F010924B0110924A0160939F
:102800004C0170934D0180934E0190934F01809144
:102810004B019FEF980F983048F401C0CC0F9A9568
:10282000EAF790914A01C92BC0934A018F5F8093C8
:102830004B018B30B9F4809194018F5F8D3208F099
:1028400080E090919301981749F0E82FF0E0909183
:102850004A01E05BFE4F90838093940110924B01FC
:1028600010924A01DF91CF911F910F91FF90EF904D
:10287000DF90CF9008951F920F920FB60F92112400
:102880002F933F938F939F93AF93BF9380918B012F
:1028900090918C01A0918D01B0918E0130918A01AF
:1028A00023E0230F2D3720F40196A11DB11D05C093
:1028B00026E8230F0296A11DB11D20938A01809363
:1028C0008B0190938C01A0938D01B0938E01809128
:1028D000860190918701A0918801B09189010196AC
:1028E000A11DB11D8093860190938701A09388015B
:1028F000B0938901BF91AF919F918F913F912F919B
:102900000F900FBE0F901F9018951F920F920FB649
:102910000F9211242F933F934F935F936F937F9365
:102920008F939F93AF93BF93EF93FF93E091020137
:10293000F09103010995FF91EF91BF91AF919F91A4
:102940008F917F916F915F914F913F912F910F9058
:102950000FBE0F901F9018951F920F920FB60F92F7
:1029600011242F933F934F935F936F937F938F9394
:102970009F93AF93BF93EF93FF93E0910001F0918A
:1029800001010995FF91EF91BF91AF919F918F91B7
:102990007F916F915F914F913F912F910F900FBE5B
:1029A0000F901F9018951F920F920FB60F9211243F
:1029B0002F933F934F935F936F937F938F939F9347
:1029C000AF93BF93EF93FF93E0918F01F09190014C
:1029D0000995FF91EF91BF91AF919F918F917F9159
:1029E0006F915F914F913F912F910F900FBE0F907C
:1029F0001F9018954F925F926F927F928F929F9245
:102A0000AF92BF92CF92DF92EF92FF92CF93DF937C
:102A100000D000D0CDB7DEB74C012A013B011092A7
:102A2000B0001092B1009091B00092609093B0000D
:102A30009091B10091609093B100239AA12CB12C98
:102A400060E072E18AE790E0A50194010E9474259C
:102A500029833A834B835C8369017A0121E0C21A9E
:102A6000D108E108F1088FEFC816D104E104F104A0
:102A700009F008F485C060E472E48FE090E0A501FD
:102A800094010E94742569017A0181E0C81AD10875
:102A9000E108F1082FEFC216D104E104F10409F0B6
:102AA00008F470C060E970ED83E090E0A501940146
:102AB0000E94742569017A0181E0C81AD108E108F1
:102AC000F1082FEFC216D104E104F10409F008F473
:102AD0005BC068E478EE81E090E0A50194010E947B
:102AE000742569017A0181E0C81AD108E108F1086A
:102AF0002FEFC216D104E104F10409F008F446C036
:102B000064E274EF80E090E0A50194010E947425D6
:102B100069017A0181E0C81AD108E108F1082FEFB4
:102B2000C216D104E104F10499F190F162E17AE76F
:102B300080E090E0A50194010E94742569017A016A
:102B400081E0C81AD108E108F1082FEFC216D104BC
:102B5000E104F104F9F0F0F089819A81AB81BC8144
:102B60002AE0B595A795979587952A95D1F76C0199
:102B70007D0121E0C21AD108E108F10887E00BC00D
:102B800081E009C082E007C083E005C084E003C0A3
:102B900085E001C086E08093B100411451046104D6
:102BA0007104A9F0ACE3B0E0A30192010E94932567
:102BB00028EE33E040E050E00E94A62520938001FB
:102BC0003093810140938201509383010BC08FEFBA
:102BD0009FEFDC018093800190938101A09382019B
:102BE000B0938301C092B3008091B0008F7780933F
:102BF000B0008091B00080648093B0000F900F907F
:102C00000F900F90DF91CF91FF90EF90DF90CF90DA
:102C1000BF90AF909F908F907F906F905F904F90FC
:102C200008952091EF02982F969596959695E091AC
:102C3000F402F091F5028770629FB0011124690FD0
:102C4000711DE60FF71F413061F420E830E0A90163
:102C500002C0559547958A95E2F7CA019081892B64
:102C600019C041110CC02FE73FEFA90102C05595D3
:102C700047958A95E2F7CA01908189230BC020E825
:102C800030E0A90102C0559547958A95E2F7CA013F
:102C9000908189278083089580917F01882319F08E
:102CA00010927F0118C080917E01882319F0109244
:102CB0007E0102C00E945C1287FF0BC0982F9F7399
:102CC000906890937F018295869586958370806C3D
:102CD00002C0882311F090E008958FEF9FEF0895D0
:102CE00080917E0181110EC080917F0181110AC007
:102CF0000E945C12982F80937E0181E0911103C0A5
:102D000080E0089581E00895CF93DF93EC010E9465
:102D1000162520E330E040E050E00E947425605E1C
:102D20007F4F8F4F9F4F0E94F126688379838A835C
:102D30009B830E94162520E230E040E050E00E9494
:102D40007425605E7F4F8F4F9F4F0E94F1266C83EA
:102D50007D838E839F830E94162525E030E040E02E
:102D600050E00E94742560957095809590950E9422
:102D7000F12620E030E040E05FE30E94E52768872D
:102D800079878A879B87DF91CF910895CF93DF93CF
:102D90001092490110924801C0914801D091490117
:102DA000C036D10574F420E040E750E060E070E008
:102DB0008C2F0E941E1C2496D0934901C093480179
:102DC000EBCF1092470110924601C0914601D0917D
:102DD0004701C037D10574F420E040E650E060E0E0
:102DE00070E08C2F0E94CB1C2896D0934701C09393
:102DF0004601EBCFDF91CF9108953F924F925F92C2
:102E00006F927F928F929F92AF92BF92CF92DF92FA
:102E1000EF92FF920F931F93CF93DF930E94D61EE2
:102E20000E94BB246EE670E00E94AF2892E0392E2B
:102E3000380E0E94BB246EE570E00E94AF2812E0BD
:102E4000180F0E94701681113BC18091B802811148
:102E500098C00E9486130E94EF2628E430E54CEFCC
:102E60005BE30E94E5270E9452286B017C010E94CF
:102E700086130E94EF2626E933E44BE85CE30E94C8
:102E8000E5270E9452284B015C0120E030E040EC35
:102E900051E4C701B6010E94E52720E030E040E69A
:102EA00052E40E94D8256B017C0120E030E040E232
:102EB00052E4C501B4010E94E5279B01AC01C701A2
:102EC000B6010E94D8250E94C026C62F0E948613F4
:102ED0000E94EF2620ED34E448ED5BE30E94E527F5
:102EE0000E9449266B017C010E9486130E94EF26F6
:102EF00024EF3DEF44E55CE30E94E5270E94522861
:102F00004B015C0120E030E040EC51E4C701B60128
:102F10000E94E52720E030E040E452E40E94D825FA
:102F20006B017C0120E030E040EC51E4C501B401CC
:102F30000E94E5279B01AC01C701B6010E94D8257C
:102F40000E94C026D62F0E9486139B01AC01AAE0E6
:102F5000B0E00E94932520E533EC40E050E00E9471
:102F6000A625672B682B692B11F40E94D61E01E061
:102F70002D2F4C2F612F832D0E94371D1D2F3C2E8E
:102F800060CF813009F05DCFC8E9D1E06C817D81EF
:102F90008E819F810E94C026F62E688179818A8168
:102FA0009B810E94C026862F40E06F2D0E940C1C42
:102FB000C880D980EA80FB80488459846A847B84F5
:102FC000A701960160E070E080E692E40E94D725B8
:102FD000A30192010E94E52720E030E048EC52E492
:102FE0000E944E26A70196010E94D8256B017C0104
:102FF000688379838A839B838C809D80AE80BF8029
:10300000A501940160E070E080E492E40E94D7257D
:10301000A30192010E94E52720E030E048EC52E451
:103020000E944E26A50194010E94D8254B015C0107
:103030006C837D838E839F8320E030E048ED52E4F3
:10304000C701B6010E94E0271816F4F020E030E036
:1030500040E850E4C701B6010E94442687FD14C031
:1030600020E030E048EB52E4C501B4010E94E027C3
:10307000181654F020E030E040E850E4C501B401F7
:103080000E94442687FF03C0CE010E9484166C81F3
:103090007D818E819F810E94C026F62E6881798174
:1030A0008A819B810E94C026862F41E06F2D0E945D
:1030B0000C1C2C9682E0C83BD80709F067CFC1CE24
:1030C000DF91CF911F910F91FF90EF90DF90CF9004
:1030D000BF90AF909F908F907F906F905F904F9038
:1030E0003F900895811151C048EC50E060E070E0DD
:1030F00088EE93E00E94FA142FEF89EF90E02150C0
:1031000080409040E1F700C0000048EC50E060E0F3
:1031100070E080ED97E00E94FA142FEF89EF90E0C5
:10312000215080409040E1F700C0000044EF51E0A2
:1031300060E070E08CE291E00E94FA142FEF89EFDA
:1031400090E0215080409040E1F700C0000048EC42
:1031500050E060E070E08CED95E00E94FA148FE39F
:103160009CE90197F1F700C0000048EC50E060E0F6
:1031700070E088EB9BE00E94FA149FEF29EF80E05B
:10318000915020408040E1F78BC0813039F442E318
:1031900050E060E070E084E690E07CC0823089F529
:1031A00044E650E060E070E085E091E00E94FA14AF
:1031B0008FE39CE90197F1F700C0000044E650E07E
:1031C00060E070E089E491E00E94FA148FE39CE9EA
:1031D0000197F1F700C0000044E650E060E070E0C5
:1031E00088E891E00E94FA148FE39CE90197F1F7D7
:1031F00000C0000048EC50E060E070E08BE092E03E
:1032000049C0833019F544E650E060E070E088E89A
:1032100091E00E94FA148FE39CE90197F1F700C056
:10322000000044E650E060E070E089E491E00E9434
:10323000FA148FE39CE90197F1F700C0000048EC15
:1032400050E060E070E085E091E024C0843051F50A
:1032500046E950E060E070E089E491E00E94FA14F1
:103260008FE39CE90197F1F700C000004BE450E0C8
:1032700060E070E089E491E00E94FA148FE39CE939
:103280000197F1F700C000004BE450E060E070E00F
:1032900088E891E00E94FA148FE39CE90197F1F726
:1032A00000C0000008959F92AF92BF92CF92DF922C
:1032B000EF92FF920F931F93CF93DF93C091B902C8
:1032C000C130B1F150F1C23009F449C0C33009F046
:1032D00078C0E12C00E020E030E046ED50E060E016
:1032E00080E00E946D1A0E94BB246EE770E00E948D
:1032F000AF2812E0180F0E94BB246EE570E00E9418
:10330000AF28C2E0C80F2EE0E22EF12C3EE7A32E3C
:10331000B12C4EE5C42ED12C38C0E12C00E020E0C9
:1033200030E046ED50E060E080E00E946D1A49C058
:10333000E12C00E020E030E046ED50E060E080E08D
:103340000E946D1AC2E020E04EE750E062E070E0BB
:103350008C2F0E941E1CCA5FC236A9F732C0E12C16
:1033600000E020E030E046ED50E060E080E00E94C8
:103370006D1A20E04EE550E062E070E08C2F0E9474
:10338000CB1CCA5FC038A9F71CC00E94BB24B50182
:103390000E94AF2892E0992E980E0E94BB24B6019D
:1033A0000E94AF28D2E0D80F00E02D2F492D6C2FBE
:1033B000812F0E94371D81E0E81AF108192DCD2FC9
:1033C00021F741E08091BA02811140E060E080E0A5
:1033D0000E94D51241E08091BA02813009F040E0AC
:1033E00061E081E00E94D51241E08091BA02823012
:1033F00009F040E062E082E00E94D51241E0809155
:10340000BA02833009F040E063E083E00E94D51205
:1034100041E08091BA02843009F040E064E084E049
:103420000E94D51241E08091BA02853009F040E057
:1034300065E085E00E94D51241E08091BA028630B5
:1034400009F040E066E086E00E94D51241E08091FC
:10345000BA02873009F040E067E087E0DF91CF9162
:103460001F910F91FF90EF90DF90CF90BF90AF90A2
:103470009F900C94D5122091E2023091EE02E091DF
:10348000E302F091E40231966491422F50E0832FE1
:1034900090E0861B910948175907D4F0E491809178
:1034A000F4029091F5022091EF02DC01E29FA00D61
:1034B000B11D1124AC01329F400D511D11249A0100
:1034C000FC01A217B30740F48C9181931D92F9CFB0
:1034D000E491E20FE093E20208952F923F924F921F
:1034E0005F926F927F928F929F92AF92BF92CF9294
:1034F000DF92EF920F931F93CF93DF93CDB7DEB799
:1035000028970FB6F894DEBF0FBECDBF5A01482FE3
:10351000477078E0741B011106C0F501E20FF31F3C
:1035200004912F5F3F4FE11006C0F501E20FF31F3A
:10353000E4902F5F3F4F902F9770E02FE695E69530
:10354000E695992311F0EF5F01C098E08695869586
:103550008695A82FB0E0BC83AB83642E712C430109
:10356000890E911C8FEF90E0AC01082C02C055959C
:1035700047950A94E2F7A72FB0E0BA83A98301C068
:10358000880F7A95EAF7E13011F44D8301C01D826E
:10359000BD81B82BB887D40118978FEF90E002C097
:1035A00095958795AA95E2F78F83C12CD12C862F0C
:1035B00090E09E838D832E2E312C91E0291A3108C4
:1035C000CE1408F090C05091EF028D819E818C0D39
:1035D0009D1D589FD001599FB00D11248B819C8156
:1035E000A80FB91FE091DF02F091E002EA0FFB1F84
:1035F0005081888585238083B9016F5F7F4FF501F6
:10360000E20FF31F8491E091DF02F091E002EA0FF4
:10361000FB1F082F10E0062C02C0159507950A9491
:10362000E2F79081092B00832101460E571E8D0180
:10363000021B130BD801A60FB71F2091DF02309198
:10364000E00290E06415750510F5F901EA0FFB1F23
:103650005081098001C0880F0A94EAF78083F50140
:10366000E60FF71F84912091DF023091E002A20F54
:10367000B31F282F30E0062C02C0359527950A94F9
:10368000E2F79C91292B2C936F5F7F4FD3CFE8E01B
:103690008E16910448F4FD013197E20FF31F542375
:1036A0002081522B50830BC058E08516910439F0CD
:1036B000F901EA0FFB1F20813F8123232083209102
:1036C000DF023091E002A20FB31F098002C0880F11
:1036D000991F0A94E2F7EC918E2B8C935FEFC51A39
:1036E000D50A9B016DCF28960FB6F894DEBF0FBEAA
:1036F000CDBFDF91CF911F910F91EF90DF90CF90D1
:10370000BF90AF909F908F907F906F905F904F9001
:103710003F902F900895EF920F93242F4091E30252
:103720005091E402FA013296E491922F9E1B9A0185
:103730002F5F3F4FF901E490FA010491F9012491C0
:10374000929F900111242D5F3F4F0E946D1A0F919F
:10375000EF900895CF938A30D9F0A8F4882309F424
:103760004DC08830E9F4E091E302F091E402E49185
:103770008091E1028E1B8093E10240E26091E202BF
:10378000CF910C948B1B8D3041F08E30B9F108C075
:103790001092E102CF910C943B1A1092E1022EC0DC
:1037A000C82F8091E1022091EF02E091E302F091B5
:1037B000E402E491482F50E098E0299F9001112401
:1037C0002E1B31092417350754F41092E1020E9490
:1037D0003B1A4C2F6091E2028091E10203C04C2F12
:1037E0006091E2020E948B1BE091E302F091E402FF
:1037F000E4918091E102E80FE093E102CF91089516
:10380000CF93DF93EC018991882319F00E94AA1BC2
:10381000FACFDF91CF9108952091EF02E82FF0E0E9
:1038200098E0299F90011124E217F30734F4909156
:10383000EE02691710F40C94111608950F931F935C
:10384000CF93DF93FB016417750749F4422F682F6C
:103850008E2FDF91CF911F910F910C940C1C461766
:10386000570718F47727FA01AB01BF016770772774
:103870000FEF10E0E80102C0D595C7956A95E2F711
:103880009C2F33E0F695E7953A95E1F76091EF02CA
:10389000689FB0011124E60FF71FDA01A770BB275C
:1038A00002C015950795AA95E2F7302F3095DA01F9
:1038B00043E0B695A7954A95E1F76A0F7B1FE61797
:1038C000F70711F4932330E02130F1F4DF01119672
:1038D0004091DF025091E002E40FF51F8081982BA8
:1038E00090832FEF8091DF029091E002A617B70737
:1038F00030F4FC01EA0FFB1F20831196F3CFA80FD1
:10390000B91F8C91382B41C021111FC0DF011196C6
:103910004091DF025091E002E40FF51F9095808105
:10392000982390838091DF029091E002A617B70759
:1039300030F4FC01EA0FFB1F10821196F3CFA80FA1
:10394000B91F30958C91382320C02230F9F4DF0163
:1039500011964091DF025091E002E40FF51F808143
:10396000982790838091DF029091E002A617B70715
:1039700040F4FC01EA0FFB1F808180958083119643
:10398000F1CFA80FB91F8C9138273C93DF91CF91CD
:103990001F910F910895CF93DF936417750729F452
:1039A000422FDF91CF910C940C1C4617570720F43F
:1039B000FB01FF27BA01AF01982F9770E0E8F0E014
:1039C00002C0F595E7959A95E2F73E2F9091EF02A8
:1039D000969FD001979FB00D112486958695869568
:1039E000ED01C80FD11DCE01213099F446175707BC
:1039F000D8F1E091DF02F091E002E80FF91F208199
:103A0000232B20832091EF02820F911D6F5F7F4F48
:103A1000EDCF211114C0E0954617570728F1A0916A
:103A2000DF02B091E002A80FB91F2C912E232C9336
:103A30002091EF02820F911D6F5F7F4FEDCF2230FB
:103A400099F44617570780F0E091DF02F091E00209
:103A5000E80FF91F2081232720832091EF02820F96
:103A6000911D6F5F7F4FEDCFDF91CF9108952F9222
:103A70003F924F925F926F927F928F929F92AF92FE
:103A8000BF92CF92DF92EF92FF920F931F93CF934B
:103A9000DF9300D000D0CDB7DEB7962F322F202F86
:103AA000E82EF12C6091EF0258E0659FB0011124DF
:103AB0006E157F050CF4B3C05091EE02591708F44F
:103AC000AEC0E42FF0E0FC83EB836E177F070CF4AD
:103AD000A6C0531708F4A3C084131CC0432F50E0A2
:103AE000692F70E00F900F900F900F90DF91CF91A2
:103AF0001F910F91FF90EF90DF90CF90BF90AF900C
:103B00009F908F907F906F905F904F903F902F90FD
:103B10000C94CB1C93131CC04B815C81B701892F83
:103B20000F900F900F900F90DF91CF911F910F91F9
:103B3000FF90EF90DF90CF90BF90AF909F908F90CD
:103B40007F906F905F904F903F902F900C941E1C31
:103B5000C92ED12C481748F4A7016B817C81461BE4
:103B6000570B5C834B838FEF07C0EB81FC81EE1911
:103B7000FF09FC83EB8381E0432E512C391730F48D
:103B8000A601441955092A019FEF03C04C185D088E
:103B900091E06B817C81641575054CF44B813C810F
:103BA0005C824B82442E532E71E0798301C01982CE
:103BB0002A83440C551C5201EB81FC81AE1ABF0ACA
:103BC0001F01220C331C812C912C692E990F770830
:103BD000082F880F110B2B813C8128153905FCF02B
:103BE0004A816C2D8E2D0E941116B7FC0AC03981B6
:103BF000313019F4E00EF11E02C0C60CD71CA21819
:103C0000B3084981413019F4C60CD71C02C0E00E3C
:103C1000F11EA40CB51C5FEF851A950ADCCF0F903E
:103C20000F900F900F90DF91CF911F910F91FF9008
:103C3000EF90DF90CF90BF90AF909F908F907F904C
:103C40006F905F904F903F902F9008956F927F926A
:103C50008F929F92AF92BF92DF92EF92FF920F935B
:103C60001F93CF93DF93F82E162FD42FC22FD02E71
:103C70008FEFE816B9F0062FA22EB12CA60EB11CBC
:103C80006F2C712C4301840E911C802F90E08A15BB
:103C90009B0544F42E2DA401B301802F0E941E1C0D
:103CA0000F5FF3CFDF0D0D2D212F4D2F612F8F2DA6
:103CB0000E94371DC10F2C2F4F2D612F8F2D0E9479
:103CC000371D2C2F4D2F612F8D2F0E94371D2C2F2C
:103CD0004D2F6C2F8F2D0E94371DDF91CF911F919B
:103CE0000F91FF90EF90DF90BF90AF909F908F90DB
:103CF0007F906F900895CF92DF92EF92FF920F9393
:103D00001F93CF93DF93D82ED62F982F969588E3C5
:103D1000F82EF91A613330F4862F869560E3C62FAA
:103D2000C81B01C0C4E084E0C82ECC0E1CE3191BE4
:103D3000E12C00E02D2F4D2D6C2D812F0E94261E91
:103D400001E02D2F4D2D6C2F8F2D0E94261ECD0FA3
:103D5000D6E0DC0F00E02CE044E26D2F8AE20E9406
:103D6000261E62E06C0FEE24E3942CE044E286E22F
:103D70000E94261E8EE28093E102D093E20265E269
:103D80007BE187ED92E00E946D2587ED92E00E9435
:103D9000001C1093E102C092E202DF91CF911F91CB
:103DA0000F91FF90EF90DF90CF9008951092E10275
:103DB0001092E20280E090E02091EF023091EE025A
:103DC000239F90011124821793074CF4E091F40291
:103DD000F091F502E80FF91F10820196EDCF0895DA
:103DE0008F929F92AF92BF92CF92DF92EF92FF920B
:103DF0000F931F93CF93DF93CDB7DEB7A0970FB686
:103E0000F894DEBF0FBECDBF611571058105910528
:103E1000A9F480E3A0960FB6F894DEBF0FBECDBF25
:103E2000DF91CF911F910F91FF90EF90DF90CF9096
:103E3000BF90AF909F908F900C94AA1B8E010F5F44
:103E40001F4FC12CD12C7601842E912CA12CB12C8A
:103E50002FEFC21AD20AE20AF20AA50194010E94C7
:103E6000A625F80161938F01B901CA016115710599
:103E70008105910569F7F1E0CF1AD108E108F10851
:103E8000FE01EC0DFD1D81818A3010F4805D01C0C2
:103E9000895C0E94AA1BC114D104E104F10459F702
:103EA000A0960FB6F894DEBF0FBECDBFDF91CF91C5
:103EB0001F910F91FF90EF90DF90CF90BF90AF9048
:103EC0009F908F900895CF93DF9300D000D0CDB70F
:103ED000DEB7789484B5826084BD84B5816084BD8A
:103EE00085B5826085BD85B5816085BD80916E0098
:103EF000816080936E0010928100809181008260C9
:103F00008093810080918100816080938100809105
:103F100080008160809380008091B10084608093F4
:103F2000B1008091B00081608093B00080917A00F0
:103F3000846080937A0080917A00826080937A0016
:103F400080917A00816080937A0080917A00806805
:103F500080937A001092C10060E08EE00E944A13C4
:103F600080E495E00E944E239093E0028093DF026C
:103F7000009709F458C01092E1021092E202909367
:103F8000F5028093F4028EE08093EF0280E6809346
:103F9000EE021092E7021092E8021092E9021092EB
:103FA000EA0281E08093F1028093F2022EE031E197
:103FB0003093920120939101579A219A5F98299A00
:103FC000239A92EC9093800099E1909381009CE376
:103FD0009093EB0297EC9093F00297E09093F302AA
:103FE00028E331E03093ED022093EC022FEF33E031
:103FF00030938700209386002AE430E030938900D4
:104000002093880029E331E03093E6022093E50213
:104010002BE531E13093900120938F0180936F0065
:1040200078940E94D61E8BEB99E09093E4028093E3
:10403000E3020E94D61E88E08093970182E397E016
:10404000909396018093950162E083E00E944A1369
:1040500062E088E00E944A1310929401109293014A
:1040600082E993E1909303018093020180916900BA
:10407000837F886080936900E99A80E480937C0064
:1040800080917A00806480937A0080917A0086FD26
:10409000FCCF6091780070917900072E000C880B9E
:1040A000990B611571058105910511F00E94642538
:1040B00080E00E947218E12C00E020E030E045E64C
:1040C00054E160E080E00E946D1A2FEF39E688E14C
:1040D000215030408040E1F700C0000008E911E0C5
:1040E00068EBE62E62E0F62EC8010E948416045F9B
:1040F0001F4FE016F106C1F70E9453199E012F5F72
:104100003F4F3C832B8330E0A32E30E0B32E40E4BE
:10411000842E4CE0942E5BEB652E59E0752E90E2D8
:10412000492E1AE22EE3522E0E947016882309F4BB
:1041300095C20E944C168D3009F056C28091BA0289
:10414000863008F09AC0843008F01EC2813009F42D
:10415000EBC008F4B4C0823009F41FC1833009F009
:104160003CC20E94D61EE12C00E020E030E043E497
:1041700050E160E08BE20E946D1A9FEF23EF31E087
:10418000915020403040E1F700C0000046E950E087
:1041900060E070E089E491E00E94FA148FEF96E706
:1041A00021E0815090402040E1F700C0000020E075
:1041B00030E04FEA5AE168E188E10E946D1A4BE471
:1041C00050E060E070E089E491E00E94FA143FEF73
:1041D00086E791E0315080409040E1F700C0000058
:1041E0002FEF31EE84E0215030408040E1F700C0F5
:1041F00000009092E4028092E30268E27CE08BEBA4
:1042000092E00E946D2504E00093E1025092E202E8
:104210008BEB92E00E94001C60E17CE08BEB92E073
:104220000E946D250093E10288E48093E2028BEB0B
:1042300092E00E94001C68EF7BE08BEB92E00E9412
:104240006D250093E10282E58093E2028BEB92E020
:104250000E94001C7092E4026092E3024BE450E082
:1042600060E070E088E891E00E94FA148FE39CE936
:104270000197F1F700C00000B0C1843609F496C17F
:1042800038F4863009F498C1873009F48FC1A5C18C
:10429000853609F491C1883C09F09FC10E94C61679
:1042A0006EE084E60E947B1E67E67AE18BEB92E08B
:1042B0000E946D258BEB92E00E94001C8BC10E9436
:1042C000C6166EE084E60E947B1E6DE07BE18BEB00
:1042D00092E00E946D258BEB92E00E94001C809181
:1042E000F6029091F702009711F48AEF92E02B8189
:1042F0003C81281B390B6901330FEE08FF08F7FEDC
:104300000BC08DE20E94AA1BF094E094D094C0945C
:10431000C11CD11CE11CF11C4AE0C701B6010E947E
:10432000F01E65EF7AE1E8C00E94C61662E384E6FB
:104330000E947B1E33E23093E10288E08093E20228
:104340006DED7AE18BEB92E00E946D258BEB92E0B4
:104350000E94001C4AE069E070E080E090E00E946A
:10436000F01EE12C00E020E030E04FEA5AE164E189
:1043700088E30E946D1A98E29093E1022FE2209365
:10438000E20267E97AE18BEB92E00E946D258BEB0C
:1043900092E00E94001C80E01EC10E94C616E090C0
:1043A000B9026CE384E60E947B1E63EA79E08BEB42
:1043B00092E00E946D258BEB92E00E94001C8091A0
:1043C000B902813059F038F0823059F0833079F4F5
:1043D00063E479E008C06BE879E005C063E779E061
:1043E00002C06BE579E08BEB92E00E946D250AE05C
:1043F0000093E10284E18093E2028BEB92E00E9461
:10440000001C0093E1024092E2026BE279E08BEB48
:1044100092E00E946D258BEB92E00E94001C80913F
:10442000B802882329F0813049F46BEF78E002C0AC
:1044300063E179E08BEB92E00E946D250AE0009346
:10444000E1021093E2028BEB92E00E94001C0093C9
:10445000E10236E33093E20263EE78E08BEB92E028
:104460000E946D258BEB92E00E94001C82E00E946E
:1044700072180E9470168823E1F3332433940AE003
:1044800084E1282E0E944C16882309F4A6C08830A7
:1044900059F48091B902882319F081508093B902B0
:1044A00081E00E94721832C0853131F48091B902E6
:1044B0008330B0F78F5FF2CF8B3041F48091B80238
:1044C000882371F381508093B802EACF8A3039F49F
:1044D0008091B8028111E4CF3092B802E1CF8B31E4
:1044E00019F4E092B90276C08D3081F460E188E27F
:1044F0000E947B1E6BEC78E08BEB92E00E946D25B6
:104500008BEB92E00E94001C82E065C00093E10208
:104510002092E2028091B902813059F038F0823065
:1045200059F0833079F463E479E008C06BE879E00E
:1045300005C063E779E002C06BE579E08BEB92E0C0
:104540000E946D258BEB92E00E94001C0093E1021B
:104550001093E2028091B802882329F0813049F457
:104560006BEF78E002C063E179E08BEB92E00E94B0
:104570006D258BEB92E00E94001C8FE19EE4019779
:10458000F1F700C000007ECF0E94C6166EE084E600
:104590000E947B1E6FE77AE18BEB92E00E946D2513
:1045A0008BEB92E00E94001C84E015C082E00E9428
:1045B00072180E94FD1611C082E00E947218E12C50
:1045C00000E020E030E045E654E160E080E00E9459
:1045D0006D1A03C083E00E9472180E94701688232F
:1045E000E1F30E944C162EC08B3111F484E028C0F8
:1045F000883031F48091BA02882331F181501DC096
:10460000853131F48091BA028730F0F48F5F15C0A4
:104610008B3049F48091BA02282F30E023303105E5
:104620009CF083500AC08A3079F48091BA02282F16
:1046300030E02530310544F48D5F8093BA0281E08B
:104640000E9472180E9453190E9486136093D3022D
:104650007093D4028093D5029093D6020E94861361
:104660002091D3023091D4024091D5025091D602CC
:10467000DC01CB01821B930BA40BB50B81369A4E48
:10468000A105B10520F00E94FD160E945319A11446
:10469000B10409F449CD0E94000041CD0F931F934E
:1046A000CF93DF938230910510F482E090E0E091A7
:1046B000F802F091F90220E030E0A0E0B0E030979D
:1046C00019F1408151810281138148175907C8F0BF
:1046D0008417950769F4109731F012960C9312978E
:1046E00013961C9327C00093F8021093F90222C07E
:1046F0002115310519F04217530718F49A01BD012D
:10470000EF01DF01F801DBCF21153105F9F0281B9E
:10471000390B2430310580F48A819B816115710544
:1047200021F0FB019383828304C09093F90280936C
:10473000F802FE01329644C0FE01E20FF31F81939E
:10474000919322503109398328833AC02091F6028F
:104750003091F702232B41F420910601309107019B
:104760003093F7022093F602209104013091050165
:104770002115310541F42DB73EB740910801509104
:104780000901241B350BE091F602F091F702E217C4
:10479000F307A0F42E1B3F0B2817390778F0AC0164
:1047A0004E5F5F4F2417350748F04E0F5F1F509341
:1047B000F7024093F6028193919302C0E0E0F0E0AB
:1047C000CF01DF91CF911F910F910895CF93DF9388
:1047D000009709F481C0FC01329713821282A091E4
:1047E000F802B091F902109781F420813181820F93
:1047F000931F2091F6023091F7022817390751F5DF
:10480000F093F702E093F60267C0ED0120E030E09C
:10481000CE17DF0740F44A815B819E0141155105A7
:10482000F1F0EA01F5CFD383C28340815181840F37
:10483000951FC817D90759F488819981840F951F4E
:104840000296918380838A819B8193838283211541
:10485000310529F4F093F902E093F8023DC0E90133
:10486000FB83EA8349915991C40FD51FEC17FD07CB
:1048700061F480819181840F951F0296E9019983EB
:104880008883828193819B838A83E0E0F0E01296A3
:104890008D919C911397009719F0FD01DC01F7CFE2
:1048A0008D919C9111979D012E5F3F4F820F931F19
:1048B0002091F6023091F7022817390769F43097F2
:1048C00029F41092F9021092F80202C013821282A7
:1048D000B093F702A093F602DF91CF9108958F92E3
:1048E0009F92AF92BF92CF92DF92EF92FF92CF93BF
:1048F000DF93EC01688179818A819B816115710563
:104900008105910521F464E279ED8BE597E02DE1D5
:1049100033EF41E050E00E94742549015A019B01A8
:10492000AC01A7EAB1E40E9493256B017C01ACEED7
:10493000B4EFA50194010E94A125DC01CB018C0DEF
:104940009D1DAE1DBF1DB7FF03C00197A109B04853
:1049500088839983AA83BB839F77DF91CF91FF9050
:10496000EF90DF90CF90BF90AF909F908F90089581
:104970000E946F2408958AE091E00E946F240895B8
:10498000A0E0B0E080930A0190930B01A0930C018A
:10499000B0930D0108958F929F92AF92BF92CF92E4
:1049A000DF92EF92FF92CF93DF93EC0168817981E0
:1049B0008A819B81611571058105910521F464E26D
:1049C00079ED8BE597E02DE133EF41E050E00E9477
:1049D000742549015A019B01AC01A7EAB1E40E9488
:1049E00093256B017C01ACEEB4EFA50194010E940C
:1049F000A125DC01CB018C0D9D1DAE1DBF1DB7FF98
:104A000003C00197A109B04888839983AA83BB8317
:104A1000BC01CD019F77DF91CF91FF90EF90DF90A8
:104A2000CF90BF90AF909F908F9008958F929F925C
:104A3000AF92BF92CF92DF92EF92FF9260910E0100
:104A400070910F0180911001909111016115710514
:104A50008105910521F464E279ED8BE597E02DE184
:104A600033EF41E050E00E94742549015A019B0157
:104A7000AC01A7EAB1E40E9493256B017C01ACEE86
:104A8000B4EFA50194010E94A125DC01CB018C0D9E
:104A90009D1DAE1DBF1DB7FF03C00197A109B04802
:104AA00080930E0190930F01A0931001B093110118
:104AB000BC01CD019F77FF90EF90DF90CF90BF902A
:104AC000AF909F908F90089560930E0170930F01A7
:104AD00080931001909311010895FB01DC01059072
:104AE0000D920020E1F70895052E97FB1EF4009427
:104AF0000E948B2557FD07D00E94A62507FC03D0F6
:104B00004EF40C948B2550954095309521953F4F50
:104B10004F4F5F4F089590958095709561957F4FA9
:104B20008F4F9F4F08950E94C825A59F900DB49F59
:104B3000900DA49F800D911D11240895B7FF0C9432
:104B400093250E949325821B930B0895A1E21A2EB0
:104B5000AA1BBB1BFD010DC0AA1FBB1FEE1FFF1F21
:104B6000A217B307E407F50720F0A21BB30BE40B71
:104B7000F50B661F771F881F991F1A9469F76095B8
:104B80007095809590959B01AC01BD01CF01089572
:104B9000A29FB001B39FC001A39F700D811D11247E
:104BA000911DB29F700D811D1124911D08955058C3
:104BB000BB27AA270E94EF250C9492270E94592711
:104BC00038F00E94602720F039F49F3F19F426F452
:104BD0000C9456270EF4E095E7FB0C945027E92F30
:104BE0000E94B72758F3BA1762077307840795071F
:104BF00020F079F4A6F50C94D9270EF4E0950B2E4D
:104C0000BA2FA02D0B01B90190010C01CA01A0011E
:104C10001124FF27591B99F0593F50F4503E68F179
:104C20001A16F040A22F232F342F4427585FF3CFBA
:104C3000469537952795A795F0405395C9F77EF48B
:104C40001F16BA0B620B730B840BBAF09150A1F0D4
:104C5000FF0FBB1F661F771F881FC2F70EC0BA0F5A
:104C6000621F731F841F48F4879577956795B795E2
:104C7000F7959E3F08F0B0CF9395880F08F09927DD
:104C8000EE0F9795879508950E942C2708F481E0F0
:104C900008950E946927E3950C94A3270E94622639
:104CA0000C9492270E94602758F00E94592740F0E8
:104CB00029F45F3F29F00C94502751110C94DA2706
:104CC0000C9456270E94B72768F39923B1F3552314
:104CD00091F3951B550BBB27AA276217730784070F
:104CE00038F09F5F5F4F220F331F441FAA1FA9F3A5
:104CF00035D00E2E3AF0E0E832D091505040E69593
:104D0000001CCAF72BD0FE2F29D0660F771F881FF3
:104D1000BB1F261737074807AB07B0E809F0BB0BE6
:104D2000802DBF01FF2793585F4F3AF09E3F5105FA
:104D300078F00C9450270C94DA275F3FE4F3983E08
:104D4000D4F3869577956795B795F7959F5FC9F7E3
:104D5000880F911D9695879597F90895E1E0660F64
:104D6000771F881FBB1F621773078407BA0720F0DD
:104D7000621B730B840BBA0BEE1F88F7E095089546
:104D80000E94BF2788F09F5798F0B92F9927B751F5
:104D9000B0F0E1F0660F771F881F991F1AF0BA95DF
:104DA000C9F714C0B13091F00E94D927B1E008953D
:104DB0000C94D927672F782F8827B85F39F0B93F2F
:104DC000CCF3869577956795B395D9F73EF4909592
:104DD0008095709561957F4F8F4F9F4F0895E89410
:104DE00009C097FB3EF490958095709561957F4F33
:104DF0008F4F9F4F9923A9F0F92F96E9BB279395E1
:104E0000F695879577956795B795F111F8CFFAF4F0
:104E1000BB0F11F460FF1BC06F5F7F4F8F4F9F4F21
:104E200016C0882311F096E911C0772321F09EE87F
:104E3000872F762F05C0662371F096E8862F70E0E5
:104E400060E02AF09A95660F771F881FDAF7880FBF
:104E50009695879597F90895990F0008550FAA0B15
:104E6000E0E8FEEF16161706E807F907C0F012167D
:104E70001306E407F50798F0621B730B840B950B80
:104E800039F40A2661F0232B242B252B21F40895D5
:104E90000A2609F4A140A6958FEF811D811D089572
:104EA00097F99F6780E870E060E008959FEF80ECDD
:104EB000089500240A941616170618060906089580
:104EC00000240A94121613061406050608950C947D
:104ED00056270E94BF27D8F3E894E0E0BB279F57EE
:104EE000F0F02AED3FE049EC06C0EE0FBB0F661F65
:104EF000771F881F28F0B23A62077307840728F0EB
:104F0000B25A620B730B840BE3959A9572F7803853
:104F100030F49A95BB0F661F771F881FD2F7904811
:104F20000C945C28092E0394000C11F4882352F091
:104F3000BB0F40F4BF2B11F460FF04C06F5F7F4FC5
:104F40008F4F9F4F0895EF93E0FF07C0A2EA2AED2D
:104F50003FE049EC5FEB0E94EF250E9492270F9003
:104F6000039401FC9058E8E7F0E00C94682857FDA2
:104F70009058440F551F59F05F3F71F04795880FC7
:104F800097FB991F61F09F3F79F08795089512165E
:104F900013061406551FF2CF4695F1DF08C016160A
:104FA00017061806991FF1CF8695710561050894BB
:104FB0000895E894BB2766277727CB0197F90895D2
:104FC0000E942C2708F48FEF08950E94F8270C9474
:104FD00092270E94592738F00E94602720F09523DD
:104FE00011F00C9450270C94562711240C94DA27B6
:104FF0000E94B72770F3959FC1F3950F50E0551F9E
:10500000629FF001729FBB27F00DB11D639FAA271D
:10501000F00DB11DAA1F649F6627B00DA11D661F6C
:10502000829F2227B00DA11D621F739FB00DA11D8D
:10503000621F839FA00D611D221F749F3327A00D47
:10504000611D231F849F600D211D822F762F6A2FE3
:1050500011249F5750409AF0F1F088234AF0EE0F48
:10506000FF1FBB1F661F771F881F91505040A9F775
:105070009E3F510580F00C9450270C94DA275F3F37
:10508000E4F3983ED4F3869577956795B795F795B1
:10509000E7959F5FC1F7FE2B880F911D9695879529
:1050A00097F908959F930E9469270F9007FCEE5F80
:1050B0000C94A3279F3F31F0915020F4879577956A
:1050C0006795B795880F911D9695879597F90895DF
:1050D0009F938F937F936F93FF93EF939B01AC010B
:1050E0000E94E527EF91FF910E947C282F913F912C
:1050F0004F915F910C94E527DF93CF931F930F930C
:10510000FF92EF92DF927B018C01689406C0DA2E49
:10511000EF010E94F827FE01E894A59125913591B1
:1051200045915591A6F3EF010E94EF25FE019701ED
:10513000A801DA9469F7DF90EF90FF900F911F912B
:10514000CF91DF910895991B79E004C0991F9617BC
:1051500008F0961B881F7A95C9F78095089597FBEC
:10516000072E16F4009407D077FD09D00E94C928B5
:1051700007FC05D03EF4909581959F4F089570955A
:1051800061957F4F0895EE0FFF1F0590F491E02D7C
:105190000994AA1BBB1B51E107C0AA1FBB1FA6177E
:1051A000B70710F0A61BB70B881F991F5A95A9F7D0
:0E51B00080959095BC01CD010895F894FFCF35
:1051BE00B60DB60D0000FA0220000100000001003D
:1051CE0000002F00000000000000000000000000A2
:1051DE0000000D00000000000000000000000000B4
:1051EE000000000800000000007F0A00150B000000
:0651FE0000001A00001978
:107E0000112484B714BE81FFFDD085E080938100EA
:107E100082E08093C00088E18093C10096E0909357
:107E2000C20090E19093C400809360008EE0809344
:107E30006000259A86E020E33CEF91E030938500D6
:107E40002093840096BBB09BFECF1D9AA8958150CD
:107E5000A9F7C0E0D0E008E138E0F32EEE24E39487
:107E600045E0B42E51E1A52E13E0A7D0813491F462
:107E7000A4D0D82EAED082E8D81203C084E096D029
:107E800092C0E1E8DE1203C084E090D08CC083E0B1
:107E90008DD089C0823419F484E1A7D084C08534A0
:107EA00019F485E0A2D07FC0853549F486D0C82F6B
:107EB00084D0D0E0D82BCC0FDD1F8BD074C086359A
:107EC00029F484E092D080E071D06DC0843609F04E
:107ED0003FC073D072D0982E70D0C115F0E7DF0785
:107EE00038F4FE0117BFE895C12CDD24D39403C0FC
:107EF000C12CDD24D39461D0F60181936F019E12D1
:107F0000FACFC115F0E7DF0718F0FE0117BFE895BB
:107F100060D007B600FCFDCFFE01A0E0B1E08C917F
:107F200011962C91119790E0922B0C01E7BEE895E9
:107F3000112432961296A03881E0B80781F7FE012D
:107F4000B7BEE89507B600FCFDCFA7BEE8952BC0ED
:107F50008437B1F432D031D0982E2FD03AD0892C3A
:107F6000FE016F018FEFC81AD80A84911FD08A943E
:107F7000F6018110F6CF21969A94C90DD11D13C038
:107F8000853741F426D08EE111D085E90FD08FE0FE
:107F90000DD009C0813531F400936000F09260008B
:107FA00018D001C016D080E101D05FCF9091C00001
:107FB00095FFFCCF8093C60008958091C00087FF95
:107FC000FCCF8091C00084FD01C0A8958091C600BF
:107FD0000895F3DF803239F088E18093600088E013
:107FE00080936000FFCF84E1E1CFCF93C82FE5DF1E
:107FF000C150E9F7CF91EDCFE0E6F0E098E1908352
:1080000080830895E0E6F0E088E180831082EE2727
:04801000FF270994A9
:027FFE00040479
:0400000300007E007B
:00000001FF
