:100000000C942F030C94BC090C9495090C944C038C
:100010000C944C030C944C030C944C030C944C0324
:100020000C944C030C944C030C944C030C944C0314
:100030000C944C030C94E3090C944C030C944C0367
:100040000C944B090C944C030C944C030C944C03EF
:100050000C944C030C944C030C944C030C944C03E4
:100060000C944C030C944C03000000002300260069
:10007000290000000008000201000003040700003E
:100080000000000000000000000000000000000070
:100090000000000960000000000000713100000055
:1000A0007A7361773200006378646534330000202E
:1000B000766674723500006E6268677936000000FB
:1000C0006D6A75373800002C6B696F303900002E6F
:1000D0002F6C3B702D00000027005B3D00000000EE
:1000E0000D5D005C00000000000000007F0000319A
:1000F000003437000000302E323536381B00002B1C
:10010000332D2A390000000000000000000000002C
:100110000000000000000000000000097E00000058
:1001200000000051210000005A5341574000004395
:100130005844452423000020564654522500004EC2
:10014000424847595E0000004D4A55262A00003CAF
:100150004B494F292800003E3F4C3A505F000000B9
:1001600022007B2B000000000D7D007C00000000C1
:10017000000000007F000031003437000000302E06
:10018000323536381B00002B332D2A390000000091
:10019000000000000000000000000000000000005F
:1001A000000000000000000000000000000000004F
:1001B000000000000000000000000000000000003F
:1001C000000000000000000000000000000000002F
:1001D000000000000000000000000000000000001F
:1001E000000000000000000000000000000000000F
:1001F00000000000000000000000000000000000FF
:1002000000000000000000000000000000000000EE
:1002100000000000000000000000000000000008D6
:1002200008000000000000000000003E415541555C
:10023000493E003E7F6B7F6B773E0022777F7F3E9B
:100240001C0800081C3E7F3E1C0800081C2A7F2A50
:10025000081C00081C3E7F3E081C00001C3E3E3E61
:100260001C00FFFFE3C1C1C1E3FF00001C222222EA
:100270001C00FFFFE3DDDDDDE3FF000F0305394870
:10028000483000083E081C22221C001814101030B0
:100290007060000F19111337766000082A1C771C54
:1002A0002A080060787E7F7E786000030F3F7F3FE2
:1002B0000F0300081C2A082A1C08006666666600F0
:1002C0006666003F65653D050505000C3248241251
:1002D0004C3000000000007F7F7F00081C2A082AA5
:1002E0001C3E00081C3E7F1C1C1C001C1C1C7F3E6E
:1002F0001C0800080C7E7F7E0C080008183F7F3F1A
:1003000018080000007070707F7F000014227F22A8
:10031000140000081C1C3E3E7F7F007F7F3E3E1C79
:100320001C08000000000000000000183C3C1818E9
:10033000001800363614000000000036367F367F85
:10034000363600081E201C023C080060660C18307F
:100350006606003C663C2865663F001818183000A9
:100360000000006030181818306000060C181818CB
:100370000C060000361C7F1C3600000008083E08F2
:1003800008000000000030303060000000003C0039
:10039000000000000000000060600000060C183043
:1003A0006000003C666E7666663C001818381818C7
:1003B000187E003C66060C30607E003C66061C061B
:1003C000663C000C1C2C4C7E0C0C007E607C0606EF
:1003D000663C003C66607C66663C007E660C0C18E1
:1003E0001818003C66663C66663C003C66663E0645
:1003F000663C0000181800181800000018180018B3
:10040000183000060C1830180C060000003C003CA8
:100410000000006030180C183060003C66061C18A4
:1004200000180038445C58423C00003C66667E661A
:100430006666007C66667C66667C003C6660606022
:10044000663C007C66666666667C007E60607C60FA
:10045000607E007E60607C606060003C6660606E14
:10046000663C006666667E666666003C181818186C
:10047000183C001E0C0C0C6C6C3800666C787078A4
:100480006C66006060606060607E0063777F6B63B5
:1004900063630063737B6F676363003C66666666D5
:1004A000663C007C6666667C6060003C6666666EE4
:1004B0003C06007C66667C786C66003C66603C06A8
:1004C000663C007E5A18181818180066666666663C
:1004D000663E0066666666663C18006363636B7F13
:1004E0007763006363361C366363006666663C1898
:1004F0001818007E060C1830607E001E1818181898
:10050000181E00006030180C060000781818181823
:1005100018780008142241000000000000000000CC
:10052000007F000C0C06000000000000003C063EAE
:10053000663E006060607C66667C0000003C666031
:10054000663C000606063E66663E0000003C667E8F
:10055000603C001C3630307C303000003E66663E29
:10056000063C006060607C66666600001800181833
:10057000183C000C000C0C6C6C38006060666C78E9
:100580006C66001818181818181800000063777F98
:100590006B6B0000007C7E6666660000003C666651
:1005A000663C00007C66667C606000003C6C6C3CD5
:1005B0000D0F0000007C666660600000003E403C5D
:1005C000027C000018187E18181800000066666685
:1005D000663E0000000066663C18000000636B6B1E
:1005E0006B3E000000663C183C6600000066663EFC
:1005F000063C0000003C0C18303C000E1818301867
:10060000180E0018181800181818007018180C1870
:1006100018700000003A6C00000000081C366341AE
:10062000417F00000000250028002B000000000092
:10063000240027002A000404040404040404020221
:100640000202020203030303030301020408102051
:100650004080010204081020010204081020112427
:100660001FBECFEFD8E0DEBFCDBF11E0A0E0B1E00C
:10067000ECE3F1E202C005900D92A038B107D9F782
:1006800021E0A0E8B1E001C01D92A93EB207E1F768
:100690000E94ED0D0C949C100C9400000F93CF93CE
:1006A000DF93E4EDF1E0A785B089C091B801D09166
:1006B000B9018285AC0FBD1F0BB10F7703C000FAE3
:1006C00007F90BB90D90000007FA07F90BB9000004
:1006D0000000000006FA07F90BB900000000000056
:1006E00005FA07F90BB900000000000004FA07F949
:1006F0000BB900000000000003FA07F90BB9000075
:100700000000000002FA07F90BB900000000000029
:1007100001FA07F90BB98A9591F60000000000FA7A
:1007200007F90BB90BB10F7707FB07F90BB9DF918D
:10073000CF910F9108950F93CF93DF93E4EDF1E004
:10074000A785B089C091B801D091B9018285AC0F5D
:10075000BD1F0BB10F7703C000FA07F90BB90D905D
:1007600007FA07F90BB90000000006FA07F90BB900
:100770000000000005FA07F90BB90000000004FAB8
:1007800007F90BB90000000003FA07F90BB90000E4
:10079000000002FA07F90BB900008A9501FA07F97F
:1007A0000BB9D1F6000000FA07F90BB90BB10F77BE
:1007B00007FB07F90BB9DF91CF910F9108950F93C4
:1007C000CF93DF93E4EDF1E0A785B089C091B80144
:1007D000D091B9018285AC0FBD1F02C0000C0BB8CF
:1007E0000D9000000BB800000000000C0BB80000DA
:1007F0000000000C0BB800000000000C0BB800005B
:100800000000000C0BB800000000000C0BB800004A
:10081000000C8A950BB811F70000000C0BB8000013
:10082000000000005F98DF91CF910F9108950F9322
:10083000CF93DF93E4EDF1E0A785B089C091B801D3
:10084000D091B9018285AC0FBD1F8E3191F08D31F1
:1008500051F08C3149F08B3141F08A3139F08931D6
:1008600031F0883129F01CC032C048C05EC074C06D
:100870008AC00D900BB80000000C0BB80000000CF3
:100880000BB80000000C0BB80000000C0BB8000007
:10089000000C0BB80000000C0BB80000000C0BB8EB
:1008A0000D900BB80000000C0BB80000000C0BB84A
:1008B0000000000C0BB80000000C0BB80000000C8E
:1008C0000BB80000000C0BB80000000C0BB80D902A
:1008D0000BB80000000C0BB80000000C0BB80000B7
:1008E000000C0BB80000000C0BB80000000C0BB89B
:1008F0000000000C0BB80000000C0BB80D900BB8FA
:100900000000000C0BB80000000C0BB80000000C3D
:100910000BB80000000C0BB80000000C0BB8000076
:10092000000C0BB80000000C0BB80D900BB80000C9
:10093000000C0BB80000000C0BB80000000C0BB84A
:100940000000000C0BB80000000C0BB80000000CFD
:100950000BB80000000C0BB80D900BB80000000C99
:100960000BB80000000C0BB80000000C0BB8000026
:10097000000C0BB80000000C0BB80000000C0BB80A
:100980000000000C0BB80D900BB80000000C0BB869
:100990000000000C0BB80000000C0BB80000000CAD
:1009A0000BB80000000C0BB80000000C0BB80000E6
:1009B000000C0BB80D900BB80000000C0BB8000039
:1009C000000C0BB80000000C0BB80000000C0BB8BA
:1009D0000000000C0BB80000000C0BB80000000C6D
:1009E0000BB80D900BB80000000C0BB80000000C09
:1009F0000BB80000000C0BB80000000C0BB8000096
:100A0000000C0BB80000000C0BB80000000C0BB879
:100A10000D900BB80000000C0BB80000000C0BB8D8
:100A20000000000C0BB80000000C0BB80000000C1C
:100A30000BB80000000C0BB80000000C0BB80D90B8
:100A40000BB80000000C0BB80000000C0BB8000045
:100A5000000C0BB80000000C0BB80000000C0BB829
:100A60000000000C0BB80000000C0BB80D900BB888
:100A70000000000C0BB80000000C0BB80000000CCC
:100A80000BB80000000C0BB80000000C0BB8000005
:100A9000000C0BB80000000C0BB80D900BB8000058
:100AA000000C0BB80000000C0BB80000000C0BB8D9
:100AB0000000000C0BB80000000C0BB80000000C8C
:100AC0000BB80000000C0BB80D900BB80000000C28
:100AD0000BB80000000C0BB80000000C0BB80000B5
:100AE000000C0BB80000000C0BB80000000C0BB899
:100AF0000000000C0BB80D900BB80000000C0BB8F8
:100B00000000000C0BB80000000C0BB80000000C3B
:100B10000BB80000000C0BB80000000C0BB8000074
:100B2000000C0BB80D900BB80000000C0BB80000C7
:100B3000000C0BB80000000C0BB80000000C0BB848
:100B40000000000C0BB80000000C0BB80000000CFB
:100B50000BB80D900BB80000000C0BB80000000C97
:100B60000BB80000000C0BB80000000C0BB8000024
:100B7000000C0BB80000000C0BB80000000C0BB808
:100B80000D900BB80000000C0BB80000000C0BB867
:100B90000000000C0BB80000000C0BB80000000CAB
:100BA0000BB80000000C0BB80000000C0BB80D9047
:100BB0000BB80000000C0BB80000000C0BB80000D4
:100BC000000C0BB80000000C0BB80000000C0BB8B8
:100BD0000000000C0BB80000000C0BB80D900BB817
:100BE0000000000C0BB80000000C0BB80000000C5B
:100BF0000BB80000000C0BB80000000C0BB8000094
:100C0000000C0BB80000000C0BB80D900BB80000E6
:100C1000000C0BB80000000C0BB80000000C0BB867
:100C20000000000C0BB80000000C0BB80000000C1A
:100C30000BB80000000C0BB80D900BB80000000CB6
:100C40000BB80000000C0BB80000000C0BB8000043
:100C5000000C0BB80000000C0BB80000000C0BB827
:100C60000000000C0BB80D900BB80000000C0BB886
:100C70000000000C0BB80000000C0BB80000000CCA
:100C80000BB80000000C0BB80000000C0BB8000003
:100C9000000C0BB80D900BB80000000C0BB8000056
:100CA000000C0BB80000000C0BB80000000C0BB8D7
:100CB0000000000C0BB80000000C0BB80000000C8A
:100CC0000BB80D900BB80000000C0BB80000000C26
:100CD0000BB80000000C0BB80000000C0BB80000B3
:100CE000000C0BB80000000C0BB80000000C0BB897
:100CF0000D900BB80000000C0BB80000000C0BB8F6
:100D00000000000C0BB80000000C0BB80000000C39
:100D10000BB80000000C0BB80000000C0BB80D90D5
:100D20000BB80000000C0BB80000000C0BB8000062
:100D3000000C0BB80000000C0BB80000000C0BB846
:100D40000000000C0BB80000000C0BB80D900BB8A5
:100D50000000000C0BB80000000C0BB80000000CE9
:100D60000BB80000000C0BB80000000C0BB8000022
:100D7000000C0BB80000000C0BB80D900BB8000075
:100D8000000C0BB80000000C0BB80000000C0BB8F6
:100D90000000000C0BB80000000C0BB80000000CA9
:100DA0000BB80000000C0BB80D900BB80000000C45
:100DB0000BB80000000C0BB80000000C0BB80000D2
:100DC000000C0BB80000000C0BB80000000C0BB8B6
:100DD0000000000C0BB8000000005F98DF91CF917D
:100DE0000F9108952091D4013091D5018091DB01BC
:100DF0009091DC01281739070CF44EC08CEA93E07F
:100E000090938900809388001092D5011092D401AC
:100E10008091D6019091D701A091D801B091D901CC
:100E20000196A11DB11D8093D6019093D701A09387
:100E3000D801B093D9018091B4019091B501A091EE
:100E4000B601B091B701892B8A2B8B2B09F18091C8
:100E5000B4019091B501A091B601B091B7011816F7
:100E600019061A061B0684F58091B4019091B5010C
:100E7000A091B601B091B7010197A109B109809382
:100E8000B4019093B501A093B601B093B7011CC013
:100E90001092B1002B9818C02091D4013091D50147
:100EA0008091E201082E000C990B2817390761F494
:100EB0008AE490E0909389008093880084E997E029
:100EC0009093C4018093C3018091D4019091D50186
:100ED00001969093D5018093D40108953FB7F8947B
:100EE0008091BF019091C001A091C101B091C20158
:100EF00026B5A89B05C02F3F19F00196A11DB11D75
:100F00003FBFBA2FA92F982F8827820F911DA11DAF
:100F1000B11DBC01CD0142E0660F771F881F991FEC
:100F20004A95D1F7089508952091D4013091D501C3
:100F30008091DA0190E02817390759F41092B9012D
:100F40001092B8018091E0018093E10184EC97E078
:100F50000DC02091D4013091D5018091DB01909199
:100F6000DC012817390731F482EF96E09093C40131
:100F70008093C3018091D4019091D5010196909303
:100F8000D5018093D4010895309184002091DF0130
:100F90002A50231B2350F0F72D5F19F02A9511F0EA
:100FA00001C00000E091C501F091C6010995909142
:100FB000E1018091E00191110FC08093E1019091D6
:100FC000DE012091B8013091B901290F311D309314
:100FD000B9012093B80103C091509093E101409171
:100FE000D4015091D5014F5F5F4F082E000C990B33
:100FF00001966091DD01689F9001699F300D112479
:101000008091DA01B901680F711D4617570731F455
:1010100084E997E09093C4018093C3018091D40147
:101020009091D50101969093D5018093D4010895B4
:101030000895CF93DF939091B3012091C90130912E
:10104000CA01A9014F5E5E4FB90168577F4FD901B0
:10105000A05FBE4F8091C701E091C8018E1304C00C
:101060009093B30180E05BC08F5F8D3208F080E029
:10107000E82FF0E0EA57FE4FE0818093C701EE23AE
:1010800079F3E03F11F49160E5CFE03E11F4926016
:10109000E1CF90FF0EC0E23111F49B7F08C0E9352B
:1010A00011F4977F04C0E13111F491FD9F7E9C7F84
:1010B000D1CFE23111F49460CDCFE93511F49860CD
:1010C000C9CFE13111F491FD906191FF08C0EA545C
:1010D000E433E8F4F0E0E65FFE4FE08119C094FFEE
:1010E00007C08C91882321F0E83888F4EA010AC00F
:1010F000892F8C7021F0E83850F4EB0103C0E838F8
:1011000030F4E901CE0FD11DFE01E49101C0E0E011
:101110009C7FEE2309F49ECF9093B3018E2FDF9135
:10112000CF910895CF92DF92EF92FF920F931F938A
:101130008091CB0190E0FC01EE58FF4F2491FC011F
:10114000E65BF94F3491FC01EA5CF94FE491EE2340
:10115000B9F1222339F1233091F038F42130A9F08C
:10116000223001F584B58F7D12C0273091F02830F0
:10117000A1F02430B9F4809180008F7D03C080916C
:1011800080008F77809380000DC084B58F7784BDF9
:1011900009C08091B0008F7703C08091B0008F7D2F
:1011A0008093B000F0E0EE0FFF1FE859FF4FA591CC
:1011B000B491EC91E32331E009F430E0832F02C0D5
:1011C00080E090E02FB7F8944091BB015091BC01B2
:1011D0006091BD017091BE012FBF009182011091FD
:1011E000830120918401309185016A017B01C01A3D
:1011F000D10AE20AF30A970186010B3F1105210586
:10120000310520F0109281011092800140938201FB
:101210005093830160938401709385012091810133
:101220003FEF320F383048F401C0880F3A95EAF7A3
:1012300090918001892B8093800181E0820F8093BF
:1012400081018B30B9F48091C8018F5F8D3208F035
:1012500080E09091C701981749F0E82FF0E0909155
:101260008001EA57FE4F90838093C801109281015C
:10127000109280011F910F91FF90EF90DF90CF901F
:1012800008950E94AB0DEEECF1E0128213828EE322
:1012900091E00C943A0C1F920F920FB60F9211240A
:1012A0002F933F938F939F93AF93BF938091BB01F5
:1012B0009091BC01A091BD01B091BE013091BA01E5
:1012C00023E0230F2D3720F40196A11DB11D05C089
:1012D00026E8230F0296A11DB11D2093BA01809329
:1012E000BB019093BC01A093BD01B093BE0180915E
:1012F000BF019091C001A091C101B091C2010196BE
:10130000A11DB11D8093BF019093C001A093C101A5
:10131000B093C201BF91AF919F918F913F912F9157
:101320000F900FBE0F901F9018951F920F920FB63F
:101330000F9211242F933F934F935F936F937F935B
:101340008F939F93AF93BF93EF93FF93E09102012D
:10135000F09103010995FF91EF91BF91AF919F919A
:101360008F917F916F915F914F913F912F910F904E
:101370000FBE0F901F9018951F920F920FB60F92ED
:1013800011242F933F934F935F936F937F938F938A
:101390009F93AF93BF93EF93FF93E0910001F09180
:1013A00001010995FF91EF91BF91AF919F918F91AD
:1013B0007F916F915F914F913F912F910F900FBE51
:1013C0000F901F9018951F920F920FB60F92112435
:1013D0002F933F934F935F936F937F938F939F933D
:1013E000AF93BF93EF93FF93E091C301F091C401DA
:1013F0000995FF91EF91BF91AF919F918F917F914F
:101400006F915F914F913F912F910F900FBE0F9071
:101410001F901895A4EDB1E01A96EC911A97982FA9
:101420009695969596956E9FF0011124BF01690FD0
:10143000711D1F96ED91FC915097E60FF71F282F15
:10144000277080E890E002C0959587952A95E2F78D
:101450009081892B808308952091D1013091DD0105
:10146000E091D201F091D30131966491422F50E086
:10147000832F90E0861B910948175907D4F0E49117
:101480008091E3019091E4012091DE01DC01E29F73
:10149000A00DB11D1124AC01329F400D511D11242E
:1014A0009A01FC01A217B30740F48C9181931D921D
:1014B000F9CFE491E20FE093D10108952F923F928A
:1014C0004F925F926F927F928F929F92AF92BF9254
:1014D000CF92DF92EF92FF920F931F93CF93DF9300
:1014E000CDB7DEB727970FB6F894DEBF0FBECDBFDE
:1014F000A091D201B091D301FD013296E4914E1B2F
:101500009D012F5F3F4FF9017491FD019491F90105
:101510002491429FA00111249A012D5F3F4F082F73
:101520000770098318E0101B1D83911106C0FD018F
:10153000E20FF31F94912F5F3F4F711106C0FD0121
:10154000E20FF31F74912F5F3F4F492F4770E92F30
:10155000E695E695E695442311F0EF5F01C048E07B
:10156000869586958695A82EB12CBC82AB82B980D3
:101570006B2C712C7301E40EF11C8FEF90E06C0169
:101580000E2C02C0D594C7940A94E2F71D81012F56
:1015900010E01A8309830D8002C0880F991F0A94F6
:1015A000E2F7E13011F49C2C01C0912C982A9D8225
:1015B000A701485051098FEF90E002C0959587959B
:1015C0004A95E2F7D82E00E010E0862E912C2E2EC0
:1015D000312C41E0241A3108071708F09EC04091D1
:1015E000DE01C401800F911F489FF001499FF00D5B
:1015F0001124AB80BC80EA0DFB1DFF83EE83E091DC
:10160000CE01F091CF014E815F81E40FF51F608123
:101610008D8186238083A9014F5F5F4FFD01E20F1B
:10162000F31F8491E091CE01F091CF01AE80BF8095
:10163000EA0DFB1DA82EB12C062C02C0B594A79470
:101640000A94E2F79081A92AA0822101440E551E36
:10165000AE80BF80A21AB30A9501240F351F3F83C5
:101660002E832091CE013091CF0190E04415550595
:1016700028F5EE81FF81E20FF31F6081098001C030
:10168000880F0A94EAF78083FD01E40FF51F849127
:101690002091CE013091CF01EE81FF81E20FF31F47
:1016A000282F30E0062C02C0359527950A94E2F7E2
:1016B0009081292B20834F5F5F4FCECFF8E0EF164C
:1016C000F10450F4EE81FF813197E20FF31F6C219A
:1016D0002081622B60830BC068E0E616F10439F0CC
:1016E000EE81FF81E20FF31F20812D2120832091C5
:1016F000CE013091CF01AE80BF802A0D3B1D098005
:1017000002C0880F991F0A94E2F7F9019081892B92
:1017100080830F5F1F4F9A015FCF27960FB6F89413
:10172000DEBF0FBECDBFDF91CF911F910F91FF9014
:10173000EF90DF90CF90BF90AF909F908F907F9071
:101740006F905F904F903F902F9008959091DE01A1
:10175000E82FF0E058E0959F90011124E217F3077D
:1017600094F52091DD01621770F5413011F40C946D
:101770000A0A282F269526952695969FB0011124B2
:10178000E091E301F091E4018770620F711DE60FB3
:10179000F71F41110CC02FE73FEFA90102C055957B
:1017A00047958A95E2F7CA01908189230BC020E80A
:1017B00030E0A90102C0559547958A95E2F7CA0124
:1017C0009081892780830895CF938A30D9F0A8F437
:1017D000882309F44DC08830E9F4E091D201F091FA
:1017E000D301E4918091D0018E1B8093D00140E21F
:1017F0006091D101CF910C945E0A8D3041F08E3012
:10180000B9F108C01092D001CF910C942C0A10921B
:10181000D0012EC0C82F8091D0012091DE01E0912F
:10182000D201F091D301E491482F50E098E0299F34
:10183000900111242E1B31092417350754F41092FE
:10184000D0010E942C0A4C2F6091D1018091D001CF
:1018500003C04C2F6091D1010E945E0AE091D20139
:10186000F091D301E4918091D001E80FE093D00191
:10187000CF910895CF93DF93EC018991882319F0DC
:101880000E94E40BFACFDF91CF9108952F923F92FF
:101890004F925F926F927F928F929F92AF92BF9280
:1018A000CF92DF92EF92FF920F931F93CF93DF932C
:1018B00000D01F92CDB7DEB7082F10E05091DE01A7
:1018C000E52FF0E0DF0193E0AA0FBB1F9A95E1F747
:1018D000A017B1070CF429C19091DD01961708F407
:1018E00024C1E42EF12CFB82EA82AE15BF050CF474
:1018F0001CC1921708F419C1841351C030E0462F5F
:1019000050E024173507C1F441E00F900F900F907D
:10191000DF91CF911F910F91FF90EF90DF90CF90CB
:10192000BF90AF909F908F907F906F905F904F90FF
:101930003F902F900C94A60B2417350720F4952F79
:10194000A901262F392F982F977060E870E002C008
:10195000759567959A95E2F7A62F86958695869553
:10196000E49FB001E59F700DF49F700D1124FB0101
:10197000E80FF11DCF012417350708F4D6C0E09118
:10198000CE01F091CF01E80FF91F60816A2B6083CF
:101990006091DE01860F911D4F5F5F4FECCF6213A8
:1019A0005FC09801EA80FB80E216F30609F4ACCF31
:1019B000E216F30618F497011B830A83F901E77016
:1019C000FF278FEF90E0DC0102C0B595A795EA955F
:1019D000E2F7FD01569FB001112443E036952795AB
:1019E0004A95E1F7A901460F571F2A813B812770CD
:1019F000332702C0959587952A95E2F78095EA806E
:101A0000FB80F3E0F694E794FA95E1F7E60EF71E13
:101A1000FB82EA824E155F0519F4A82FAE2380E001
:101A20009A012F5F3F4FE091CE01F091CF01E40F7B
:101A3000F51F90819A2B90839FEFE091CE01F0915A
:101A4000CF014A815B81E20FF31F2417350720F491
:101A500090832F5F3F4FF1CF9081892B808365C0AA
:101A6000E62EF12C481748F4C801AA81BB818A1BD5
:101A70009B0B9B838A838FEF07C0EA81FB81E01B6E
:101A8000F10BFB83EA8381E0422E512C261730F4C0
:101A900097012419350929019FEF03C04E185F08EB
:101AA00091E04A815B81441555054CF43A812B81C4
:101AB0005B824A82432E522E51E0598301C0198223
:101AC000440C551C5201AA81BB81AA1ABB0A1D01F4
:101AD000220C331C812C912C692E990F7708C82E6B
:101AE000880FDD08EA81FB81E815F905F4F06E2D19
:101AF000802F0E940A0AB7FC0AC0F981F13019F45C
:101B00000C0D1D1D02C0E60CF71CA218B30829819C
:101B1000213019F4E60CF71C02C00C0D1D1DA40C9D
:101B2000B51C3FEF831A930ADDCF0F900F900F90F3
:101B3000DF91CF911F910F91FF90EF90DF90CF90A9
:101B4000BF90AF909F908F907F906F905F904F90DD
:101B50003F902F9008951092D0011092D10180E013
:101B600090E02091DE013091DD01239F900111244E
:101B7000821793074CF4E091E301F091E401E80F40
:101B8000F91F10820196EDCF0895CF93DF9390E077
:101B9000FC01E65BF94F2491FC01EA5CF94F84916A
:101BA0008823C1F090E0880F991FFC01E45DF94F94
:101BB000C591D491FC01EE5DF94FA591B4919FB709
:101BC000F8948881322F309583238883EC91E22B1F
:101BD000EC939FBFDF91CF910895789484B5826094
:101BE00084BD84B5816084BD85B5826085BD85B5C1
:101BF000816085BD80916E00816080936E0010923F
:101C000081008091810082608093810080918100B9
:101C1000816080938100809180008160809380004A
:101C20008091B10084608093B1008091B0008160A8
:101C30008093B00080917A00846080937A008091D4
:101C40007A00826080937A0080917A00816080932C
:101C50007A0080917A00806880937A001092C100A7
:101C600080E096E00E947B0F9093CF018093CE019D
:101C7000009709F458C01092D0011092D1019093AE
:101C8000E4018093E30180E18093DE0180E68093AC
:101C9000DD011092D6011092D7011092D801109256
:101CA000D90181E08093E0018093E1012BE933E0E9
:101CB0003093C6012093C501579A219A5F98299ABB
:101CC000239A92EC9093800099E1909381009CE399
:101CD0009093DA0197EC9093DF0197E09093E20103
:101CE00028E331E03093DC012093DB012FEF33E078
:101CF00030938700209386002AE430E030938900F7
:101D00002093880029E331E03093D5012093D4015A
:101D100022EF36E03093C4012093C30180936F001B
:101D200078940E94AB0D8FE192E09093D301809361
:101D3000D2010E94AB0D18E01093CB0186E890E031
:101D40009093CA018093C90183E00E94C50D88E089
:101D50000E94C50D1092C8011092C70182E998E057
:101D6000909303018093020180916900837F8860D2
:101D700080936900E99AD091DD01D150C091DE01D4
:101D8000CC0FCC0FCC0FC15020E04C2F60E080E096
:101D90000E94460C2D2F40E060E080E00E94460C3F
:101DA0002D2F4C2F60E08C2F0E94460C2D2F4C2F96
:101DB0006D2F80E00E94460C80E28093D0018093DA
:101DC000D10180E491E00E943A0C1093D00188E4A4
:101DD0008093D10189E491E00E943A0C1093D001E4
:101DE00082E58093D10187E591E00E943A0C0E9440
:101DF0006E074B015C0188EBC82E8BE0D82EE12CDE
:101E0000F12C0E946E07DC01CB0188199909AA09FF
:101E1000BB09883E9340A105B10598F321E0C21AA1
:101E2000D108E108F10888EE880E83E0981EA11C15
:101E3000B11CC114D104E104F10419F70E94410955
:101E4000C0E0D0E08091CC01811114C08091CD011F
:101E5000811110C00E9419088093CC01882329F0B9
:101E600009C08B3179F50E944109209759F30E94EE
:101E70000000E8CF8091CD01882319F01092CD01A8
:101E80001AC08091CC01882319F01092CC0102C0B5
:101E90000E94190887FF0BC0982F9F73906890933A
:101EA000CD018295869586958370806C04C08111E2
:101EB00002C08FEF9FEF8D30A1F68DE00E94E40B02
:101EC0008AE016C0883019F484E691E00EC08531AE
:101ED00019F48BE691E009C08B3019F483E791E0A7
:101EE00004C08A3029F488E791E00E943A0CBDCF03
:101EF0000E94E40BBACF0F931F93CF93DF938230EE
:101F0000910510F482E090E0E091E701F091E801A2
:101F100020E030E0A0E0B0E0309719F1408151813D
:101F20000281138148175907C8F08417950769F48F
:101F3000109731F012960C93129713961C9327C0AA
:101F40000093E7011093E80122C02115310519F033
:101F50004217530718F49A01BD01EF01DF01F801A0
:101F6000DBCF21153105F9F0281B390B2430310561
:101F700080F48A819B816115710521F0FB019383B7
:101F8000828304C09093E8018093E701FE013296BA
:101F900044C0FE01E20FF31F819391932250310957
:101FA000398328833AC02091E5013091E601232B43
:101FB00041F420910601309107013093E60120930E
:101FC000E50120910401309105012115310541F40D
:101FD0002DB73EB74091080150910901241B350BE4
:101FE000E091E501F091E601E217F307A0F42E1B62
:101FF0003F0B2817390778F0AC014E5F5F4F24176D
:10200000350748F04E0F5F1F5093E6014093E501FE
:102010008193919302C0E0E0F0E0CF01DF91CF9196
:102020001F910F910895CF93DF93009709F481C01A
:10203000FC01329713821282A091E701B091E8016E
:10204000109781F420813181820F931F2091E50147
:102050003091E6012817390751F5F093E601E09336
:10206000E50167C0ED0120E030E0CE17DF0740F466
:102070004A815B819E0141155105F1F0EA01F5CFDE
:10208000D383C28340815181840F951FC817D9071C
:1020900059F488819981840F951F029691838083DA
:1020A0008A819B81938382832115310529F4F093E2
:1020B000E801E093E7013DC0E901FB83EA83499130
:1020C0005991C40FD51FEC17FD0761F480819181F0
:1020D000840F951F0296E9019983888382819381F9
:1020E0009B838A83E0E0F0E012968D919C91139798
:1020F000009719F0FD01DC01F7CF8D919C911197AC
:102100009D012E5F3F4F820F931F2091E50130917B
:10211000E6012817390769F4309729F41092E8018D
:102120001092E70102C013821282B093E601A093DD
:0C213000E501DF91CF910895F894FFCFF6
:10213C00930793070000E90120002F000000000026
:10214C00000000000000000000000D000000000076
:10215C00000000000000000000000008000000006B
:10216C00007F0A00150B000000001A0000193E0049
:10217C004D6F6E6369614F530076302E30312040C5
:10218C003132387839360043433020323032342003
:10219C00503158005B4C6566745D005B5269676832
:1021AC00745D005B55705D005B446F776E5D000085
:00000001FF
